{
	"DonationPlatform.sol": {
		"DonationPlatform": {
			"abi": [
				{
					"inputs": [
						{
							"internalType": "address",
							"name": "_trustedForwarder",
							"type": "address"
						}
					],
					"stateMutability": "nonpayable",
					"type": "constructor"
				},
				{
					"inputs": [
						{
							"internalType": "address",
							"name": "owner",
							"type": "address"
						}
					],
					"name": "OwnableInvalidOwner",
					"type": "error"
				},
				{
					"inputs": [
						{
							"internalType": "address",
							"name": "account",
							"type": "address"
						}
					],
					"name": "OwnableUnauthorizedAccount",
					"type": "error"
				},
				{
					"anonymous": false,
					"inputs": [
						{
							"indexed": false,
							"internalType": "address",
							"name": "receiver",
							"type": "address"
						},
						{
							"indexed": false,
							"internalType": "address",
							"name": "donor",
							"type": "address"
						},
						{
							"indexed": false,
							"internalType": "uint256",
							"name": "amount",
							"type": "uint256"
						},
						{
							"indexed": false,
							"internalType": "bool",
							"name": "showable",
							"type": "bool"
						},
						{
							"indexed": false,
							"internalType": "uint256",
							"name": "date",
							"type": "uint256"
						}
					],
					"name": "Donated",
					"type": "event"
				},
				{
					"anonymous": false,
					"inputs": [
						{
							"indexed": true,
							"internalType": "address",
							"name": "previousOwner",
							"type": "address"
						},
						{
							"indexed": true,
							"internalType": "address",
							"name": "newOwner",
							"type": "address"
						}
					],
					"name": "OwnershipTransferred",
					"type": "event"
				},
				{
					"inputs": [
						{
							"internalType": "address",
							"name": "receiverAddress",
							"type": "address"
						},
						{
							"internalType": "string",
							"name": "name",
							"type": "string"
						},
						{
							"internalType": "string",
							"name": "description",
							"type": "string"
						}
					],
					"name": "addReceiver",
					"outputs": [],
					"stateMutability": "nonpayable",
					"type": "function"
				},
				{
					"inputs": [
						{
							"internalType": "address",
							"name": "tokenAddress",
							"type": "address"
						},
						{
							"internalType": "string",
							"name": "name",
							"type": "string"
						},
						{
							"internalType": "string",
							"name": "symbol",
							"type": "string"
						}
					],
					"name": "addToken",
					"outputs": [],
					"stateMutability": "nonpayable",
					"type": "function"
				},
				{
					"inputs": [],
					"name": "getAllReceivers",
					"outputs": [
						{
							"components": [
								{
									"internalType": "address",
									"name": "_address",
									"type": "address"
								},
								{
									"internalType": "string",
									"name": "_name",
									"type": "string"
								},
								{
									"internalType": "string",
									"name": "_description",
									"type": "string"
								},
								{
									"internalType": "bool",
									"name": "_isActive",
									"type": "bool"
								},
								{
									"internalType": "uint256",
									"name": "_totalDonationAmount",
									"type": "uint256"
								}
							],
							"internalType": "struct ReceiverManager.Receiver[]",
							"name": "receiverData",
							"type": "tuple[]"
						}
					],
					"stateMutability": "view",
					"type": "function"
				},
				{
					"inputs": [
						{
							"internalType": "uint256",
							"name": "startIndex",
							"type": "uint256"
						},
						{
							"internalType": "uint256",
							"name": "pageSize",
							"type": "uint256"
						}
					],
					"name": "getAllReceiversPaginated",
					"outputs": [
						{
							"components": [
								{
									"internalType": "address",
									"name": "_address",
									"type": "address"
								},
								{
									"internalType": "string",
									"name": "_name",
									"type": "string"
								},
								{
									"internalType": "string",
									"name": "_description",
									"type": "string"
								},
								{
									"internalType": "bool",
									"name": "_isActive",
									"type": "bool"
								},
								{
									"internalType": "uint256",
									"name": "_totalDonationAmount",
									"type": "uint256"
								}
							],
							"internalType": "struct ReceiverManager.Receiver[]",
							"name": "receiverData",
							"type": "tuple[]"
						}
					],
					"stateMutability": "view",
					"type": "function"
				},
				{
					"inputs": [],
					"name": "getAllTokens",
					"outputs": [
						{
							"components": [
								{
									"internalType": "address",
									"name": "_address",
									"type": "address"
								},
								{
									"internalType": "string",
									"name": "_name",
									"type": "string"
								},
								{
									"internalType": "string",
									"name": "_symbol",
									"type": "string"
								},
								{
									"internalType": "bool",
									"name": "_isActive",
									"type": "bool"
								},
								{
									"internalType": "uint256",
									"name": "_totalDonationAmount",
									"type": "uint256"
								}
							],
							"internalType": "struct AllowedTokenManager.AllowedToken[]",
							"name": "allowdTokenData",
							"type": "tuple[]"
						}
					],
					"stateMutability": "view",
					"type": "function"
				},
				{
					"inputs": [
						{
							"internalType": "uint256",
							"name": "startIndex",
							"type": "uint256"
						},
						{
							"internalType": "uint256",
							"name": "pageSize",
							"type": "uint256"
						}
					],
					"name": "getAllTokensPaginated",
					"outputs": [
						{
							"components": [
								{
									"internalType": "address",
									"name": "_address",
									"type": "address"
								},
								{
									"internalType": "string",
									"name": "_name",
									"type": "string"
								},
								{
									"internalType": "string",
									"name": "_symbol",
									"type": "string"
								},
								{
									"internalType": "bool",
									"name": "_isActive",
									"type": "bool"
								},
								{
									"internalType": "uint256",
									"name": "_totalDonationAmount",
									"type": "uint256"
								}
							],
							"internalType": "struct AllowedTokenManager.AllowedToken[]",
							"name": "allowdTokenData",
							"type": "tuple[]"
						}
					],
					"stateMutability": "view",
					"type": "function"
				},
				{
					"inputs": [
						{
							"internalType": "address",
							"name": "receiverAddress",
							"type": "address"
						}
					],
					"name": "getReceiverByAddress",
					"outputs": [
						{
							"components": [
								{
									"internalType": "address",
									"name": "_address",
									"type": "address"
								},
								{
									"internalType": "string",
									"name": "_name",
									"type": "string"
								},
								{
									"internalType": "string",
									"name": "_description",
									"type": "string"
								},
								{
									"internalType": "bool",
									"name": "_isActive",
									"type": "bool"
								},
								{
									"internalType": "uint256",
									"name": "_totalDonationAmount",
									"type": "uint256"
								}
							],
							"internalType": "struct ReceiverManager.Receiver",
							"name": "receiverData",
							"type": "tuple"
						}
					],
					"stateMutability": "view",
					"type": "function"
				},
				{
					"inputs": [
						{
							"internalType": "address",
							"name": "tokenAddress",
							"type": "address"
						}
					],
					"name": "getTokenByAddress",
					"outputs": [
						{
							"components": [
								{
									"internalType": "address",
									"name": "_address",
									"type": "address"
								},
								{
									"internalType": "string",
									"name": "_name",
									"type": "string"
								},
								{
									"internalType": "string",
									"name": "_symbol",
									"type": "string"
								},
								{
									"internalType": "bool",
									"name": "_isActive",
									"type": "bool"
								},
								{
									"internalType": "uint256",
									"name": "_totalDonationAmount",
									"type": "uint256"
								}
							],
							"internalType": "struct AllowedTokenManager.AllowedToken",
							"name": "allowdTokenData",
							"type": "tuple"
						}
					],
					"stateMutability": "view",
					"type": "function"
				},
				{
					"inputs": [
						{
							"internalType": "address",
							"name": "forwarder",
							"type": "address"
						}
					],
					"name": "isTrustedForwarder",
					"outputs": [
						{
							"internalType": "bool",
							"name": "",
							"type": "bool"
						}
					],
					"stateMutability": "view",
					"type": "function"
				},
				{
					"inputs": [],
					"name": "owner",
					"outputs": [
						{
							"internalType": "address",
							"name": "",
							"type": "address"
						}
					],
					"stateMutability": "view",
					"type": "function"
				},
				{
					"inputs": [
						{
							"internalType": "address",
							"name": "receiverAddress",
							"type": "address"
						}
					],
					"name": "removeReceiver",
					"outputs": [],
					"stateMutability": "nonpayable",
					"type": "function"
				},
				{
					"inputs": [
						{
							"internalType": "address",
							"name": "tokenAddress",
							"type": "address"
						}
					],
					"name": "removeToken",
					"outputs": [],
					"stateMutability": "nonpayable",
					"type": "function"
				},
				{
					"inputs": [],
					"name": "renounceOwnership",
					"outputs": [],
					"stateMutability": "nonpayable",
					"type": "function"
				},
				{
					"inputs": [
						{
							"internalType": "address",
							"name": "newOwner",
							"type": "address"
						}
					],
					"name": "transferOwnership",
					"outputs": [],
					"stateMutability": "nonpayable",
					"type": "function"
				},
				{
					"inputs": [],
					"name": "trustedForwarder",
					"outputs": [
						{
							"internalType": "address",
							"name": "",
							"type": "address"
						}
					],
					"stateMutability": "view",
					"type": "function"
				},
				{
					"inputs": [
						{
							"internalType": "address",
							"name": "receiverAddress",
							"type": "address"
						}
					],
					"name": "updateReceiverActivity",
					"outputs": [],
					"stateMutability": "nonpayable",
					"type": "function"
				},
				{
					"inputs": [
						{
							"internalType": "address",
							"name": "tokenAddress",
							"type": "address"
						}
					],
					"name": "updateTokenActivity",
					"outputs": [],
					"stateMutability": "nonpayable",
					"type": "function"
				}
			],
			"devdoc": {
				"details": "A platform for making ERC20 donations with meta-transactions",
				"errors": {
					"OwnableInvalidOwner(address)": [
						{
							"details": "The owner is not a valid owner account. (eg. `address(0)`)"
						}
					],
					"OwnableUnauthorizedAccount(address)": [
						{
							"details": "The caller account is not authorized to perform an operation."
						}
					]
				},
				"kind": "dev",
				"methods": {
					"addReceiver(address,string,string)": {
						"details": "Add a receiver to receivers mapping and receiverAddresses array",
						"params": {
							"description": "The description of the receiver",
							"name": "The name of the receiver",
							"receiverAddress": "The address of the receiver"
						}
					},
					"addToken(address,string,string)": {
						"details": "Add a token to allowedTokens mapping and allowedTokenAdresses array",
						"params": {
							"name": "The name of the token",
							"symbol": "The symbol of the token",
							"tokenAddress": "The address of the token"
						}
					},
					"constructor": {
						"details": "Constructor to initialize the contract with trusted forwarder for meta-transactions",
						"params": {
							"_trustedForwarder": "The address of the trusted forwarder for meta-transactions"
						}
					},
					"getAllReceivers()": {
						"details": "Gets all receivers",
						"returns": {
							"receiverData": "The information of receiver"
						}
					},
					"getAllReceiversPaginated(uint256,uint256)": {
						"details": "Gets all receivers with pagination",
						"params": {
							"pageSize": "How much data per search",
							"startIndex": "Which index to start searching"
						},
						"returns": {
							"receiverData": "The information of receiver"
						}
					},
					"getAllTokens()": {
						"details": "Gets all receivers",
						"returns": {
							"allowdTokenData": "The information of receiver"
						}
					},
					"getAllTokensPaginated(uint256,uint256)": {
						"details": "Gets all tokens with pagination",
						"params": {
							"pageSize": "How much data per search",
							"startIndex": "Which index to start searching"
						},
						"returns": {
							"allowdTokenData": "The information of receiver"
						}
					},
					"getReceiverByAddress(address)": {
						"details": "Gets only one receiver by address",
						"params": {
							"receiverAddress": "The address of receiver "
						},
						"returns": {
							"receiverData": "The information of receiver"
						}
					},
					"getTokenByAddress(address)": {
						"details": "Gets only one receiver by address",
						"params": {
							"tokenAddress": "The address of token "
						},
						"returns": {
							"allowdTokenData": "The information of token"
						}
					},
					"isTrustedForwarder(address)": {
						"details": "Indicates whether any particular address is the trusted forwarder."
					},
					"owner()": {
						"details": "Returns the address of the current owner."
					},
					"removeReceiver(address)": {
						"details": "Remove a receiver from receivers mapping and receiverAddresses array",
						"params": {
							"receiverAddress": "The address of the receiver"
						}
					},
					"removeToken(address)": {
						"details": "Remove a token from allowedTokens mapping and allowedTokenAdresses array",
						"params": {
							"tokenAddress": "The address of the receiver"
						}
					},
					"renounceOwnership()": {
						"details": "Leaves the contract without owner. It will not be possible to call `onlyOwner` functions. Can only be called by the current owner. NOTE: Renouncing ownership will leave the contract without an owner, thereby disabling any functionality that is only available to the owner."
					},
					"transferOwnership(address)": {
						"details": "Transfers ownership of the contract to a new account (`newOwner`). Can only be called by the current owner."
					},
					"trustedForwarder()": {
						"details": "Returns the address of the trusted forwarder."
					},
					"updateReceiverActivity(address)": {
						"details": "Update a receiver's activity status from false to true or quite the opposite",
						"params": {
							"receiverAddress": "The address of the receiver"
						}
					},
					"updateTokenActivity(address)": {
						"details": "Update a token's activity status from false to true or quite the opposite",
						"params": {
							"tokenAddress": "The address of the token"
						}
					}
				},
				"title": "DonationPlatform",
				"version": 1
			},
			"evm": {
				"assembly": "    /* \"DonationPlatform.sol\":967:2316  contract DonationPlatform is ERC2771Context, Ownable, ReceiverManager, AllowedTokenManager {... */\n  mstore(0x40, 0xa0)\n    /* \"DonationPlatform.sol\":1297:1397  constructor(address _trustedForwarder) Ownable(msg.sender) ERC2771Context(_trustedForwarder) {... */\n  callvalue\n  dup1\n  iszero\n  tag_1\n  jumpi\n  revert(0x00, 0x00)\ntag_1:\n  pop\n  mload(0x40)\n  sub(codesize, bytecodeSize)\n  dup1\n  bytecodeSize\n  dup4\n  codecopy\n  dup2\n  dup2\n  add\n  0x40\n  mstore\n  dup2\n  add\n  swap1\n  tag_2\n  swap2\n  swap1\n  tag_3\n  jump\t// in\ntag_2:\n    /* \"DonationPlatform.sol\":1344:1354  msg.sender */\n  caller\n    /* \"DonationPlatform.sol\":1371:1388  _trustedForwarder */\n  dup2\n    /* \"@openzeppelin/contracts/metatx/ERC2771Context.sol\":1520:1537  trustedForwarder_ */\n  dup1\n    /* \"@openzeppelin/contracts/metatx/ERC2771Context.sol\":1500:1537  _trustedForwarder = trustedForwarder_ */\n  0xffffffffffffffffffffffffffffffffffffffff\n  and\n  0x80\n  dup2\n  0xffffffffffffffffffffffffffffffffffffffff\n  and\n  dup2\n  mstore\n  pop\n  pop\n    /* \"@openzeppelin/contracts/metatx/ERC2771Context.sol\":1451:1544  constructor(address trustedForwarder_) {... */\n  pop\n    /* \"@openzeppelin/contracts/access/Ownable.sol\":1297:1298  0 */\n  0x00\n    /* \"@openzeppelin/contracts/access/Ownable.sol\":1273:1299  initialOwner == address(0) */\n  0xffffffffffffffffffffffffffffffffffffffff\n  and\n    /* \"@openzeppelin/contracts/access/Ownable.sol\":1273:1285  initialOwner */\n  dup2\n    /* \"@openzeppelin/contracts/access/Ownable.sol\":1273:1299  initialOwner == address(0) */\n  0xffffffffffffffffffffffffffffffffffffffff\n  and\n  sub\n    /* \"@openzeppelin/contracts/access/Ownable.sol\":1269:1364  if (initialOwner == address(0)) {... */\n  tag_9\n  jumpi\n    /* \"@openzeppelin/contracts/access/Ownable.sol\":1350:1351  0 */\n  0x00\n    /* \"@openzeppelin/contracts/access/Ownable.sol\":1322:1353  OwnableInvalidOwner(address(0)) */\n  mload(0x40)\n  0x1e4fbdf700000000000000000000000000000000000000000000000000000000\n  dup2\n  mstore\n  0x04\n  add\n  tag_10\n  swap2\n  swap1\n  tag_11\n  jump\t// in\ntag_10:\n  mload(0x40)\n  dup1\n  swap2\n  sub\n  swap1\n  revert\n    /* \"@openzeppelin/contracts/access/Ownable.sol\":1269:1364  if (initialOwner == address(0)) {... */\ntag_9:\n    /* \"@openzeppelin/contracts/access/Ownable.sol\":1373:1405  _transferOwnership(initialOwner) */\n  tag_12\n    /* \"@openzeppelin/contracts/access/Ownable.sol\":1392:1404  initialOwner */\n  dup2\n    /* \"@openzeppelin/contracts/access/Ownable.sol\":1373:1391  _transferOwnership */\n  shl(0x20, tag_13)\n    /* \"@openzeppelin/contracts/access/Ownable.sol\":1373:1405  _transferOwnership(initialOwner) */\n  0x20\n  shr\n  jump\t// in\ntag_12:\n    /* \"@openzeppelin/contracts/access/Ownable.sol\":1225:1412  constructor(address initialOwner) {... */\n  pop\n    /* \"DonationPlatform.sol\":1297:1397  constructor(address _trustedForwarder) Ownable(msg.sender) ERC2771Context(_trustedForwarder) {... */\n  pop\n    /* \"DonationPlatform.sol\":967:2316  contract DonationPlatform is ERC2771Context, Ownable, ReceiverManager, AllowedTokenManager {... */\n  jump(tag_15)\n    /* \"@openzeppelin/contracts/access/Ownable.sol\":2912:3099  function _transferOwnership(address newOwner) internal virtual {... */\ntag_13:\n    /* \"@openzeppelin/contracts/access/Ownable.sol\":2985:3001  address oldOwner */\n  0x00\n    /* \"@openzeppelin/contracts/access/Ownable.sol\":3004:3010  _owner */\n  0x00\n  0x00\n  swap1\n  sload\n  swap1\n  0x0100\n  exp\n  swap1\n  div\n  0xffffffffffffffffffffffffffffffffffffffff\n  and\n    /* \"@openzeppelin/contracts/access/Ownable.sol\":2985:3010  address oldOwner = _owner */\n  swap1\n  pop\n    /* \"@openzeppelin/contracts/access/Ownable.sol\":3029:3037  newOwner */\n  dup2\n    /* \"@openzeppelin/contracts/access/Ownable.sol\":3020:3026  _owner */\n  0x00\n  0x00\n    /* \"@openzeppelin/contracts/access/Ownable.sol\":3020:3037  _owner = newOwner */\n  0x0100\n  exp\n  dup2\n  sload\n  dup2\n  0xffffffffffffffffffffffffffffffffffffffff\n  mul\n  not\n  and\n  swap1\n  dup4\n  0xffffffffffffffffffffffffffffffffffffffff\n  and\n  mul\n  or\n  swap1\n  sstore\n  pop\n    /* \"@openzeppelin/contracts/access/Ownable.sol\":3083:3091  newOwner */\n  dup2\n    /* \"@openzeppelin/contracts/access/Ownable.sol\":3052:3092  OwnershipTransferred(oldOwner, newOwner) */\n  0xffffffffffffffffffffffffffffffffffffffff\n  and\n    /* \"@openzeppelin/contracts/access/Ownable.sol\":3073:3081  oldOwner */\n  dup2\n    /* \"@openzeppelin/contracts/access/Ownable.sol\":3052:3092  OwnershipTransferred(oldOwner, newOwner) */\n  0xffffffffffffffffffffffffffffffffffffffff\n  and\n  0x8be0079c531659141344cd1fd0a4f28419497f9722a3daafe3b4186f6b6457e0\n  mload(0x40)\n  mload(0x40)\n  dup1\n  swap2\n  sub\n  swap1\n  log3\n    /* \"@openzeppelin/contracts/access/Ownable.sol\":2975:3099  {... */\n  pop\n    /* \"@openzeppelin/contracts/access/Ownable.sol\":2912:3099  function _transferOwnership(address newOwner) internal virtual {... */\n  pop\n  jump\t// out\n    /* \"#utility.yul\":88:205   */\ntag_18:\n    /* \"#utility.yul\":197:198   */\n  0x00\n    /* \"#utility.yul\":194:195   */\n  0x00\n    /* \"#utility.yul\":187:199   */\n  revert\n    /* \"#utility.yul\":334:460   */\ntag_20:\n    /* \"#utility.yul\":371:378   */\n  0x00\n    /* \"#utility.yul\":411:453   */\n  0xffffffffffffffffffffffffffffffffffffffff\n    /* \"#utility.yul\":404:409   */\n  dup3\n    /* \"#utility.yul\":400:454   */\n  and\n    /* \"#utility.yul\":389:454   */\n  swap1\n  pop\n    /* \"#utility.yul\":334:460   */\n  swap2\n  swap1\n  pop\n  jump\t// out\n    /* \"#utility.yul\":466:562   */\ntag_21:\n    /* \"#utility.yul\":503:510   */\n  0x00\n    /* \"#utility.yul\":532:556   */\n  tag_31\n    /* \"#utility.yul\":550:555   */\n  dup3\n    /* \"#utility.yul\":532:556   */\n  tag_20\n  jump\t// in\ntag_31:\n    /* \"#utility.yul\":521:556   */\n  swap1\n  pop\n    /* \"#utility.yul\":466:562   */\n  swap2\n  swap1\n  pop\n  jump\t// out\n    /* \"#utility.yul\":568:690   */\ntag_22:\n    /* \"#utility.yul\":641:665   */\n  tag_33\n    /* \"#utility.yul\":659:664   */\n  dup2\n    /* \"#utility.yul\":641:665   */\n  tag_21\n  jump\t// in\ntag_33:\n    /* \"#utility.yul\":634:639   */\n  dup2\n    /* \"#utility.yul\":631:666   */\n  eq\n    /* \"#utility.yul\":621:684   */\n  tag_34\n  jumpi\n    /* \"#utility.yul\":680:681   */\n  0x00\n    /* \"#utility.yul\":677:678   */\n  0x00\n    /* \"#utility.yul\":670:682   */\n  revert\n    /* \"#utility.yul\":621:684   */\ntag_34:\n    /* \"#utility.yul\":568:690   */\n  pop\n  jump\t// out\n    /* \"#utility.yul\":696:839   */\ntag_23:\n    /* \"#utility.yul\":753:758   */\n  0x00\n    /* \"#utility.yul\":784:790   */\n  dup2\n    /* \"#utility.yul\":778:791   */\n  mload\n    /* \"#utility.yul\":769:791   */\n  swap1\n  pop\n    /* \"#utility.yul\":800:833   */\n  tag_36\n    /* \"#utility.yul\":827:832   */\n  dup2\n    /* \"#utility.yul\":800:833   */\n  tag_22\n  jump\t// in\ntag_36:\n    /* \"#utility.yul\":696:839   */\n  swap3\n  swap2\n  pop\n  pop\n  jump\t// out\n    /* \"#utility.yul\":845:1196   */\ntag_3:\n    /* \"#utility.yul\":915:921   */\n  0x00\n    /* \"#utility.yul\":964:966   */\n  0x20\n    /* \"#utility.yul\":952:961   */\n  dup3\n    /* \"#utility.yul\":943:950   */\n  dup5\n    /* \"#utility.yul\":939:962   */\n  sub\n    /* \"#utility.yul\":935:967   */\n  slt\n    /* \"#utility.yul\":932:1051   */\n  iszero\n  tag_38\n  jumpi\n    /* \"#utility.yul\":970:1049   */\n  tag_39\n  tag_18\n  jump\t// in\ntag_39:\n    /* \"#utility.yul\":932:1051   */\ntag_38:\n    /* \"#utility.yul\":1090:1091   */\n  0x00\n    /* \"#utility.yul\":1115:1179   */\n  tag_40\n    /* \"#utility.yul\":1171:1178   */\n  dup5\n    /* \"#utility.yul\":1162:1168   */\n  dup3\n    /* \"#utility.yul\":1151:1160   */\n  dup6\n    /* \"#utility.yul\":1147:1169   */\n  add\n    /* \"#utility.yul\":1115:1179   */\n  tag_23\n  jump\t// in\ntag_40:\n    /* \"#utility.yul\":1105:1179   */\n  swap2\n  pop\n    /* \"#utility.yul\":1061:1189   */\n  pop\n    /* \"#utility.yul\":845:1196   */\n  swap3\n  swap2\n  pop\n  pop\n  jump\t// out\n    /* \"#utility.yul\":1202:1320   */\ntag_24:\n    /* \"#utility.yul\":1289:1313   */\n  tag_42\n    /* \"#utility.yul\":1307:1312   */\n  dup2\n    /* \"#utility.yul\":1289:1313   */\n  tag_21\n  jump\t// in\ntag_42:\n    /* \"#utility.yul\":1284:1287   */\n  dup3\n    /* \"#utility.yul\":1277:1314   */\n  mstore\n    /* \"#utility.yul\":1202:1320   */\n  pop\n  pop\n  jump\t// out\n    /* \"#utility.yul\":1326:1548   */\ntag_11:\n    /* \"#utility.yul\":1419:1423   */\n  0x00\n    /* \"#utility.yul\":1457:1459   */\n  0x20\n    /* \"#utility.yul\":1446:1455   */\n  dup3\n    /* \"#utility.yul\":1442:1460   */\n  add\n    /* \"#utility.yul\":1434:1460   */\n  swap1\n  pop\n    /* \"#utility.yul\":1470:1541   */\n  tag_44\n    /* \"#utility.yul\":1538:1539   */\n  0x00\n    /* \"#utility.yul\":1527:1536   */\n  dup4\n    /* \"#utility.yul\":1523:1540   */\n  add\n    /* \"#utility.yul\":1514:1520   */\n  dup5\n    /* \"#utility.yul\":1470:1541   */\n  tag_24\n  jump\t// in\ntag_44:\n    /* \"#utility.yul\":1326:1548   */\n  swap3\n  swap2\n  pop\n  pop\n  jump\t// out\n    /* \"DonationPlatform.sol\":967:2316  contract DonationPlatform is ERC2771Context, Ownable, ReceiverManager, AllowedTokenManager {... */\ntag_15:\n  mload(0x80)\n  codecopy(0x00, dataOffset(sub_0), dataSize(sub_0))\n  0x00\n  assignImmutable(\"0xce6ad7a82c579f00c8c2ec78b19ce4bf9bed540bc4f74d7d6c4bb7ad14cb5db6\")\n  return(0x00, dataSize(sub_0))\nstop\n\nsub_0: assembly {\n        /* \"DonationPlatform.sol\":967:2316  contract DonationPlatform is ERC2771Context, Ownable, ReceiverManager, AllowedTokenManager {... */\n      mstore(0x40, 0x80)\n      callvalue\n      dup1\n      iszero\n      tag_1\n      jumpi\n      revert(0x00, 0x00)\n    tag_1:\n      pop\n      jumpi(tag_2, lt(calldatasize, 0x04))\n      shr(0xe0, calldataload(0x00))\n      dup1\n      0x7da0a877\n      gt\n      tag_20\n      jumpi\n      dup1\n      0xc1cc7010\n      gt\n      tag_21\n      jumpi\n      dup1\n      0xc1cc7010\n      eq\n      tag_15\n      jumpi\n      dup1\n      0xe73c2019\n      eq\n      tag_16\n      jumpi\n      dup1\n      0xe7ee324f\n      eq\n      tag_17\n      jumpi\n      dup1\n      0xec7caddc\n      eq\n      tag_18\n      jumpi\n      dup1\n      0xf2fde38b\n      eq\n      tag_19\n      jumpi\n      jump(tag_2)\n    tag_21:\n      dup1\n      0x7da0a877\n      eq\n      tag_11\n      jumpi\n      dup1\n      0x8da5cb5b\n      eq\n      tag_12\n      jumpi\n      dup1\n      0x91ded8fa\n      eq\n      tag_13\n      jumpi\n      dup1\n      0xb7a8f2e4\n      eq\n      tag_14\n      jumpi\n      jump(tag_2)\n    tag_20:\n      dup1\n      0x572b6c05\n      gt\n      tag_22\n      jumpi\n      dup1\n      0x572b6c05\n      eq\n      tag_7\n      jumpi\n      dup1\n      0x5fa7b584\n      eq\n      tag_8\n      jumpi\n      dup1\n      0x6552d8b4\n      eq\n      tag_9\n      jumpi\n      dup1\n      0x715018a6\n      eq\n      tag_10\n      jumpi\n      jump(tag_2)\n    tag_22:\n      dup1\n      0x1bee1cbc\n      eq\n      tag_3\n      jumpi\n      dup1\n      0x2a5c792a\n      eq\n      tag_4\n      jumpi\n      dup1\n      0x488af8b7\n      eq\n      tag_5\n      jumpi\n      dup1\n      0x4ec7a998\n      eq\n      tag_6\n      jumpi\n    tag_2:\n      revert(0x00, 0x00)\n        /* \"ReceiverManager.sol\":1985:2235  function updateReceiverActivity(address receiverAddress) external onlyOwner isInvalidReceiverAddr(receiverAddress) isReceiverExists(receiverAddress, false){  ... */\n    tag_3:\n      tag_23\n      0x04\n      dup1\n      calldatasize\n      sub\n      dup2\n      add\n      swap1\n      tag_24\n      swap2\n      swap1\n      tag_25\n      jump\t// in\n    tag_24:\n      tag_26\n      jump\t// in\n    tag_23:\n      stop\n        /* \"AllowedTokenManager.sol\":3255:3621  function getAllTokens() external view returns (AllowedToken[] memory allowdTokenData) {... */\n    tag_4:\n      tag_27\n      tag_28\n      jump\t// in\n    tag_27:\n      mload(0x40)\n      tag_29\n      swap2\n      swap1\n      tag_30\n      jump\t// in\n    tag_29:\n      mload(0x40)\n      dup1\n      swap2\n      sub\n      swap1\n      return\n        /* \"AllowedTokenManager.sol\":3850:4470  function getAllTokensPaginated(uint256 startIndex, uint256 pageSize) external view returns (AllowedToken[] memory allowdTokenData) {... */\n    tag_5:\n      tag_31\n      0x04\n      dup1\n      calldatasize\n      sub\n      dup2\n      add\n      swap1\n      tag_32\n      swap2\n      swap1\n      tag_33\n      jump\t// in\n    tag_32:\n      tag_34\n      jump\t// in\n    tag_31:\n      mload(0x40)\n      tag_35\n      swap2\n      swap1\n      tag_30\n      jump\t// in\n    tag_35:\n      mload(0x40)\n      dup1\n      swap2\n      sub\n      swap1\n      return\n        /* \"ReceiverManager.sol\":3920:4510  function getAllReceiversPaginated(uint256 startIndex, uint256 pageSize) external view returns (Receiver[] memory receiverData) {... */\n    tag_6:\n      tag_36\n      0x04\n      dup1\n      calldatasize\n      sub\n      dup2\n      add\n      swap1\n      tag_37\n      swap2\n      swap1\n      tag_33\n      jump\t// in\n    tag_37:\n      tag_38\n      jump\t// in\n    tag_36:\n      mload(0x40)\n      tag_39\n      swap2\n      swap1\n      tag_40\n      jump\t// in\n    tag_39:\n      mload(0x40)\n      dup1\n      swap2\n      sub\n      swap1\n      return\n        /* \"@openzeppelin/contracts/metatx/ERC2771Context.sol\":1832:1969  function isTrustedForwarder(address forwarder) public view virtual returns (bool) {... */\n    tag_7:\n      tag_41\n      0x04\n      dup1\n      calldatasize\n      sub\n      dup2\n      add\n      swap1\n      tag_42\n      swap2\n      swap1\n      tag_25\n      jump\t// in\n    tag_42:\n      tag_43\n      jump\t// in\n    tag_41:\n      mload(0x40)\n      tag_44\n      swap2\n      swap1\n      tag_45\n      jump\t// in\n    tag_44:\n      mload(0x40)\n      dup1\n      swap2\n      sub\n      swap1\n      return\n        /* \"AllowedTokenManager.sol\":2300:2792  function removeToken(address tokenAddress) external onlyOwner isInvalidTokenAddr(tokenAddress) isTokenExists(tokenAddress, false){... */\n    tag_8:\n      tag_46\n      0x04\n      dup1\n      calldatasize\n      sub\n      dup2\n      add\n      swap1\n      tag_47\n      swap2\n      swap1\n      tag_25\n      jump\t// in\n    tag_47:\n      tag_48\n      jump\t// in\n    tag_46:\n      stop\n        /* \"ReceiverManager.sol\":2396:2890  function removeReceiver(address receiverAddress) external onlyOwner isInvalidReceiverAddr(receiverAddress) isReceiverExists(receiverAddress, false){... */\n    tag_9:\n      tag_49\n      0x04\n      dup1\n      calldatasize\n      sub\n      dup2\n      add\n      swap1\n      tag_50\n      swap2\n      swap1\n      tag_25\n      jump\t// in\n    tag_50:\n      tag_51\n      jump\t// in\n    tag_49:\n      stop\n        /* \"@openzeppelin/contracts/access/Ownable.sol\":2293:2394  function renounceOwnership() public virtual onlyOwner {... */\n    tag_10:\n      tag_52\n      tag_53\n      jump\t// in\n    tag_52:\n      stop\n        /* \"@openzeppelin/contracts/metatx/ERC2771Context.sol\":1624:1731  function trustedForwarder() public view virtual returns (address) {... */\n    tag_11:\n      tag_54\n      tag_55\n      jump\t// in\n    tag_54:\n      mload(0x40)\n      tag_56\n      swap2\n      swap1\n      tag_57\n      jump\t// in\n    tag_56:\n      mload(0x40)\n      dup1\n      swap2\n      sub\n      swap1\n      return\n        /* \"@openzeppelin/contracts/access/Ownable.sol\":1638:1723  function owner() public view virtual returns (address) {... */\n    tag_12:\n      tag_58\n      tag_59\n      jump\t// in\n    tag_58:\n      mload(0x40)\n      tag_60\n      swap2\n      swap1\n      tag_57\n      jump\t// in\n    tag_60:\n      mload(0x40)\n      dup1\n      swap2\n      sub\n      swap1\n      return\n        /* \"AllowedTokenManager.sol\":2983:3143  function getTokenByAddress(address tokenAddress) external view returns (AllowedToken memory allowdTokenData) {... */\n    tag_13:\n      tag_61\n      0x04\n      dup1\n      calldatasize\n      sub\n      dup2\n      add\n      swap1\n      tag_62\n      swap2\n      swap1\n      tag_25\n      jump\t// in\n    tag_62:\n      tag_63\n      jump\t// in\n    tag_61:\n      mload(0x40)\n      tag_64\n      swap2\n      swap1\n      tag_65\n      jump\t// in\n    tag_64:\n      mload(0x40)\n      dup1\n      swap2\n      sub\n      swap1\n      return\n        /* \"ReceiverManager.sol\":3088:3246  function getReceiverByAddress(address receiverAddress) external view returns (Receiver memory receiverData) {... */\n    tag_14:\n      tag_66\n      0x04\n      dup1\n      calldatasize\n      sub\n      dup2\n      add\n      swap1\n      tag_67\n      swap2\n      swap1\n      tag_25\n      jump\t// in\n    tag_67:\n      tag_68\n      jump\t// in\n    tag_66:\n      mload(0x40)\n      tag_69\n      swap2\n      swap1\n      tag_70\n      jump\t// in\n    tag_69:\n      mload(0x40)\n      dup1\n      swap2\n      sub\n      swap1\n      return\n        /* \"ReceiverManager.sol\":3355:3691  function getAllReceivers() external view returns (Receiver[] memory receiverData) {... */\n    tag_15:\n      tag_71\n      tag_72\n      jump\t// in\n    tag_71:\n      mload(0x40)\n      tag_73\n      swap2\n      swap1\n      tag_40\n      jump\t// in\n    tag_73:\n      mload(0x40)\n      dup1\n      swap2\n      sub\n      swap1\n      return\n        /* \"AllowedTokenManager.sol\":1321:1744  function addToken(address tokenAddress, string memory name, string memory symbol) external onlyOwner isInvalidTokenAddr(tokenAddress) isTokenExists(tokenAddress, true) {... */\n    tag_16:\n      tag_74\n      0x04\n      dup1\n      calldatasize\n      sub\n      dup2\n      add\n      swap1\n      tag_75\n      swap2\n      swap1\n      tag_76\n      jump\t// in\n    tag_75:\n      tag_77\n      jump\t// in\n    tag_74:\n      stop\n        /* \"ReceiverManager.sol\":1358:1816  function addReceiver(address receiverAddress, string calldata name, string calldata description) external onlyOwner isInvalidReceiverAddr(receiverAddress) isReceiverExists(receiverAddress, true) {... */\n    tag_17:\n      tag_78\n      0x04\n      dup1\n      calldatasize\n      sub\n      dup2\n      add\n      swap1\n      tag_79\n      swap2\n      swap1\n      tag_80\n      jump\t// in\n    tag_79:\n      tag_81\n      jump\t// in\n    tag_78:\n      stop\n        /* \"AllowedTokenManager.sol\":1904:2138  function updateTokenActivity(address tokenAddress) external onlyOwner isInvalidTokenAddr(tokenAddress) isTokenExists(tokenAddress, false){  ... */\n    tag_18:\n      tag_82\n      0x04\n      dup1\n      calldatasize\n      sub\n      dup2\n      add\n      swap1\n      tag_83\n      swap2\n      swap1\n      tag_25\n      jump\t// in\n    tag_83:\n      tag_84\n      jump\t// in\n    tag_82:\n      stop\n        /* \"@openzeppelin/contracts/access/Ownable.sol\":2543:2758  function transferOwnership(address newOwner) public virtual onlyOwner {... */\n    tag_19:\n      tag_85\n      0x04\n      dup1\n      calldatasize\n      sub\n      dup2\n      add\n      swap1\n      tag_86\n      swap2\n      swap1\n      tag_25\n      jump\t// in\n    tag_86:\n      tag_87\n      jump\t// in\n    tag_85:\n      stop\n        /* \"ReceiverManager.sol\":1985:2235  function updateReceiverActivity(address receiverAddress) external onlyOwner isInvalidReceiverAddr(receiverAddress) isReceiverExists(receiverAddress, false){  ... */\n    tag_26:\n        /* \"@openzeppelin/contracts/access/Ownable.sol\":1531:1544  _checkOwner() */\n      tag_89\n        /* \"@openzeppelin/contracts/access/Ownable.sol\":1531:1542  _checkOwner */\n      tag_90\n        /* \"@openzeppelin/contracts/access/Ownable.sol\":1531:1544  _checkOwner() */\n      jump\t// in\n    tag_89:\n        /* \"ReceiverManager.sol\":2083:2098  receiverAddress */\n      dup1\n        /* \"ReceiverManager.sol\":260:261  0 */\n      0x00\n        /* \"ReceiverManager.sol\":233:262  receiverAddress == address(0) */\n      0xffffffffffffffffffffffffffffffffffffffff\n      and\n        /* \"ReceiverManager.sol\":233:248  receiverAddress */\n      dup2\n        /* \"ReceiverManager.sol\":233:262  receiverAddress == address(0) */\n      0xffffffffffffffffffffffffffffffffffffffff\n      and\n      sub\n        /* \"ReceiverManager.sol\":229:324  if (receiverAddress == address(0)) {... */\n      tag_92\n      jumpi\n        /* \"ReceiverManager.sol\":278:313  revert (\"Invalid receiver address\") */\n      mload(0x40)\n      0x08c379a000000000000000000000000000000000000000000000000000000000\n      dup2\n      mstore\n      0x04\n      add\n      tag_93\n      swap1\n      tag_94\n      jump\t// in\n    tag_93:\n      mload(0x40)\n      dup1\n      swap2\n      sub\n      swap1\n      revert\n        /* \"ReceiverManager.sol\":229:324  if (receiverAddress == address(0)) {... */\n    tag_92:\n        /* \"ReceiverManager.sol\":2117:2132  receiverAddress */\n      dup2\n        /* \"ReceiverManager.sol\":2134:2139  false */\n      0x00\n        /* \"ReceiverManager.sol\":472:473  0 */\n      0x00\n        /* \"ReceiverManager.sol\":425:474  receivers[receiverAddress]._address != address(0) */\n      0xffffffffffffffffffffffffffffffffffffffff\n      and\n        /* \"ReceiverManager.sol\":425:434  receivers */\n      0x01\n        /* \"ReceiverManager.sol\":425:451  receivers[receiverAddress] */\n      0x00\n        /* \"ReceiverManager.sol\":435:450  receiverAddress */\n      dup5\n        /* \"ReceiverManager.sol\":425:451  receivers[receiverAddress] */\n      0xffffffffffffffffffffffffffffffffffffffff\n      and\n      0xffffffffffffffffffffffffffffffffffffffff\n      and\n      dup2\n      mstore\n      0x20\n      add\n      swap1\n      dup2\n      mstore\n      0x20\n      add\n      0x00\n      keccak256\n        /* \"ReceiverManager.sol\":425:460  receivers[receiverAddress]._address */\n      0x00\n      add\n      0x00\n      swap1\n      sload\n      swap1\n      0x0100\n      exp\n      swap1\n      div\n      0xffffffffffffffffffffffffffffffffffffffff\n      and\n        /* \"ReceiverManager.sol\":425:474  receivers[receiverAddress]._address != address(0) */\n      0xffffffffffffffffffffffffffffffffffffffff\n      and\n      eq\n      iszero\n        /* \"ReceiverManager.sol\":425:492  receivers[receiverAddress]._address != address(0) && status == true */\n      dup1\n      iszero\n      tag_96\n      jumpi\n      pop\n        /* \"ReceiverManager.sol\":488:492  true */\n      0x01\n        /* \"ReceiverManager.sol\":478:492  status == true */\n      iszero\n      iszero\n        /* \"ReceiverManager.sol\":478:484  status */\n      dup2\n        /* \"ReceiverManager.sol\":478:492  status == true */\n      iszero\n      iszero\n      eq\n        /* \"ReceiverManager.sol\":425:492  receivers[receiverAddress]._address != address(0) && status == true */\n    tag_96:\n        /* \"ReceiverManager.sol\":421:699  if (receivers[receiverAddress]._address != address(0) && status == true) {... */\n      iszero\n      tag_97\n      jumpi\n        /* \"ReceiverManager.sol\":508:542  revert (\"Receiver already exists\") */\n      mload(0x40)\n      0x08c379a000000000000000000000000000000000000000000000000000000000\n      dup2\n      mstore\n      0x04\n      add\n      tag_98\n      swap1\n      tag_99\n      jump\t// in\n    tag_98:\n      mload(0x40)\n      dup1\n      swap2\n      sub\n      swap1\n      revert\n        /* \"ReceiverManager.sol\":421:699  if (receivers[receiverAddress]._address != address(0) && status == true) {... */\n    tag_97:\n        /* \"ReceiverManager.sol\":618:619  0 */\n      0x00\n        /* \"ReceiverManager.sol\":571:620  receivers[receiverAddress]._address == address(0) */\n      0xffffffffffffffffffffffffffffffffffffffff\n      and\n        /* \"ReceiverManager.sol\":571:580  receivers */\n      0x01\n        /* \"ReceiverManager.sol\":571:597  receivers[receiverAddress] */\n      0x00\n        /* \"ReceiverManager.sol\":581:596  receiverAddress */\n      dup5\n        /* \"ReceiverManager.sol\":571:597  receivers[receiverAddress] */\n      0xffffffffffffffffffffffffffffffffffffffff\n      and\n      0xffffffffffffffffffffffffffffffffffffffff\n      and\n      dup2\n      mstore\n      0x20\n      add\n      swap1\n      dup2\n      mstore\n      0x20\n      add\n      0x00\n      keccak256\n        /* \"ReceiverManager.sol\":571:606  receivers[receiverAddress]._address */\n      0x00\n      add\n      0x00\n      swap1\n      sload\n      swap1\n      0x0100\n      exp\n      swap1\n      div\n      0xffffffffffffffffffffffffffffffffffffffff\n      and\n        /* \"ReceiverManager.sol\":571:620  receivers[receiverAddress]._address == address(0) */\n      0xffffffffffffffffffffffffffffffffffffffff\n      and\n      eq\n        /* \"ReceiverManager.sol\":571:639  receivers[receiverAddress]._address == address(0) && status == false */\n      dup1\n      iszero\n      tag_101\n      jumpi\n      pop\n        /* \"ReceiverManager.sol\":634:639  false */\n      0x00\n        /* \"ReceiverManager.sol\":624:639  status == false */\n      iszero\n      iszero\n        /* \"ReceiverManager.sol\":624:630  status */\n      dup2\n        /* \"ReceiverManager.sol\":624:639  status == false */\n      iszero\n      iszero\n      eq\n        /* \"ReceiverManager.sol\":571:639  receivers[receiverAddress]._address == address(0) && status == false */\n    tag_101:\n        /* \"ReceiverManager.sol\":567:699  if (receivers[receiverAddress]._address == address(0) && status == false) {... */\n      iszero\n      tag_102\n      jumpi\n        /* \"ReceiverManager.sol\":655:688  revert (\"Receiver is not exists\") */\n      mload(0x40)\n      0x08c379a000000000000000000000000000000000000000000000000000000000\n      dup2\n      mstore\n      0x04\n      add\n      tag_103\n      swap1\n      tag_104\n      jump\t// in\n    tag_103:\n      mload(0x40)\n      dup1\n      swap2\n      sub\n      swap1\n      revert\n        /* \"ReceiverManager.sol\":567:699  if (receivers[receiverAddress]._address == address(0) && status == false) {... */\n    tag_102:\n        /* \"ReceiverManager.sol\":2192:2201  receivers */\n      0x01\n        /* \"ReceiverManager.sol\":2192:2218  receivers[receiverAddress] */\n      0x00\n        /* \"ReceiverManager.sol\":2202:2217  receiverAddress */\n      dup6\n        /* \"ReceiverManager.sol\":2192:2218  receivers[receiverAddress] */\n      0xffffffffffffffffffffffffffffffffffffffff\n      and\n      0xffffffffffffffffffffffffffffffffffffffff\n      and\n      dup2\n      mstore\n      0x20\n      add\n      swap1\n      dup2\n      mstore\n      0x20\n      add\n      0x00\n      keccak256\n        /* \"ReceiverManager.sol\":2192:2228  receivers[receiverAddress]._isActive */\n      0x03\n      add\n      0x00\n      swap1\n      sload\n      swap1\n      0x0100\n      exp\n      swap1\n      div\n      0xff\n      and\n        /* \"ReceiverManager.sol\":2191:2228  !receivers[receiverAddress]._isActive */\n      iszero\n        /* \"ReceiverManager.sol\":2152:2161  receivers */\n      0x01\n        /* \"ReceiverManager.sol\":2152:2178  receivers[receiverAddress] */\n      0x00\n        /* \"ReceiverManager.sol\":2162:2177  receiverAddress */\n      dup7\n        /* \"ReceiverManager.sol\":2152:2178  receivers[receiverAddress] */\n      0xffffffffffffffffffffffffffffffffffffffff\n      and\n      0xffffffffffffffffffffffffffffffffffffffff\n      and\n      dup2\n      mstore\n      0x20\n      add\n      swap1\n      dup2\n      mstore\n      0x20\n      add\n      0x00\n      keccak256\n        /* \"ReceiverManager.sol\":2152:2188  receivers[receiverAddress]._isActive */\n      0x03\n      add\n      0x00\n        /* \"ReceiverManager.sol\":2152:2228  receivers[receiverAddress]._isActive = !receivers[receiverAddress]._isActive */\n      0x0100\n      exp\n      dup2\n      sload\n      dup2\n      0xff\n      mul\n      not\n      and\n      swap1\n      dup4\n      iszero\n      iszero\n      mul\n      or\n      swap1\n      sstore\n      pop\n        /* \"ReceiverManager.sol\":333:334  _ */\n      pop\n      pop\n        /* \"@openzeppelin/contracts/access/Ownable.sol\":1554:1555  _ */\n      pop\n        /* \"ReceiverManager.sol\":1985:2235  function updateReceiverActivity(address receiverAddress) external onlyOwner isInvalidReceiverAddr(receiverAddress) isReceiverExists(receiverAddress, false){  ... */\n      pop\n      jump\t// out\n        /* \"AllowedTokenManager.sol\":3255:3621  function getAllTokens() external view returns (AllowedToken[] memory allowdTokenData) {... */\n    tag_28:\n        /* \"AllowedTokenManager.sol\":3302:3339  AllowedToken[] memory allowdTokenData */\n      0x60\n        /* \"AllowedTokenManager.sol\":3388:3408  allowedTokenAdresses */\n      0x04\n        /* \"AllowedTokenManager.sol\":3388:3415  allowedTokenAdresses.length */\n      dup1\n      sload\n      swap1\n      pop\n        /* \"AllowedTokenManager.sol\":3369:3416  new AllowedToken[](allowedTokenAdresses.length) */\n      0xffffffffffffffff\n      dup2\n      gt\n      iszero\n      tag_107\n      jumpi\n      tag_108\n      tag_109\n      jump\t// in\n    tag_108:\n    tag_107:\n      mload(0x40)\n      swap1\n      dup1\n      dup3\n      mstore\n      dup1\n      0x20\n      mul\n      0x20\n      add\n      dup3\n      add\n      0x40\n      mstore\n      dup1\n      iszero\n      tag_110\n      jumpi\n      dup2\n      0x20\n      add\n    tag_111:\n      tag_112\n      tag_113\n      jump\t// in\n    tag_112:\n      dup2\n      mstore\n      0x20\n      add\n      swap1\n      0x01\n      swap1\n      sub\n      swap1\n      dup2\n      tag_111\n      jumpi\n      swap1\n      pop\n    tag_110:\n      pop\n        /* \"AllowedTokenManager.sol\":3351:3416  allowdTokenData = new AllowedToken[](allowedTokenAdresses.length) */\n      swap1\n      pop\n        /* \"AllowedTokenManager.sol\":3440:3446  uint i */\n      0x00\n        /* \"AllowedTokenManager.sol\":3449:3450  0 */\n      0x00\n        /* \"AllowedTokenManager.sol\":3440:3450  uint i = 0 */\n      swap1\n      pop\n        /* \"AllowedTokenManager.sol\":3435:3574  for (uint i = 0; i < allowedTokenAdresses.length; i++) {... */\n    tag_114:\n        /* \"AllowedTokenManager.sol\":3456:3476  allowedTokenAdresses */\n      0x04\n        /* \"AllowedTokenManager.sol\":3456:3483  allowedTokenAdresses.length */\n      dup1\n      sload\n      swap1\n      pop\n        /* \"AllowedTokenManager.sol\":3452:3453  i */\n      dup2\n        /* \"AllowedTokenManager.sol\":3452:3483  i < allowedTokenAdresses.length */\n      lt\n        /* \"AllowedTokenManager.sol\":3435:3574  for (uint i = 0; i < allowedTokenAdresses.length; i++) {... */\n      iszero\n      tag_115\n      jumpi\n        /* \"AllowedTokenManager.sol\":3525:3538  allowedTokens */\n      0x03\n        /* \"AllowedTokenManager.sol\":3525:3563  allowedTokens[allowedTokenAdresses[i]] */\n      0x00\n        /* \"AllowedTokenManager.sol\":3539:3559  allowedTokenAdresses */\n      0x04\n        /* \"AllowedTokenManager.sol\":3560:3561  i */\n      dup4\n        /* \"AllowedTokenManager.sol\":3539:3562  allowedTokenAdresses[i] */\n      dup2\n      sload\n      dup2\n      lt\n      tag_117\n      jumpi\n      tag_118\n      tag_119\n      jump\t// in\n    tag_118:\n    tag_117:\n      swap1\n      0x00\n      mstore\n      keccak256(0x00, 0x20)\n      add\n      0x00\n      swap1\n      sload\n      swap1\n      0x0100\n      exp\n      swap1\n      div\n      0xffffffffffffffffffffffffffffffffffffffff\n      and\n        /* \"AllowedTokenManager.sol\":3525:3563  allowedTokens[allowedTokenAdresses[i]] */\n      0xffffffffffffffffffffffffffffffffffffffff\n      and\n      0xffffffffffffffffffffffffffffffffffffffff\n      and\n      dup2\n      mstore\n      0x20\n      add\n      swap1\n      dup2\n      mstore\n      0x20\n      add\n      0x00\n      keccak256\n        /* \"AllowedTokenManager.sol\":3504:3563  allowdTokenData[i] = allowedTokens[allowedTokenAdresses[i]] */\n      mload(0x40)\n      dup1\n      0xa0\n      add\n      0x40\n      mstore\n      swap1\n      dup2\n      0x00\n      dup3\n      add\n      0x00\n      swap1\n      sload\n      swap1\n      0x0100\n      exp\n      swap1\n      div\n      0xffffffffffffffffffffffffffffffffffffffff\n      and\n      0xffffffffffffffffffffffffffffffffffffffff\n      and\n      0xffffffffffffffffffffffffffffffffffffffff\n      and\n      dup2\n      mstore\n      0x20\n      add\n      0x01\n      dup3\n      add\n      dup1\n      sload\n      tag_121\n      swap1\n      tag_122\n      jump\t// in\n    tag_121:\n      dup1\n      0x1f\n      add\n      0x20\n      dup1\n      swap2\n      div\n      mul\n      0x20\n      add\n      mload(0x40)\n      swap1\n      dup2\n      add\n      0x40\n      mstore\n      dup1\n      swap3\n      swap2\n      swap1\n      dup2\n      dup2\n      mstore\n      0x20\n      add\n      dup3\n      dup1\n      sload\n      tag_123\n      swap1\n      tag_122\n      jump\t// in\n    tag_123:\n      dup1\n      iszero\n      tag_124\n      jumpi\n      dup1\n      0x1f\n      lt\n      tag_125\n      jumpi\n      0x0100\n      dup1\n      dup4\n      sload\n      div\n      mul\n      dup4\n      mstore\n      swap2\n      0x20\n      add\n      swap2\n      jump(tag_124)\n    tag_125:\n      dup3\n      add\n      swap2\n      swap1\n      0x00\n      mstore\n      keccak256(0x00, 0x20)\n      swap1\n    tag_126:\n      dup2\n      sload\n      dup2\n      mstore\n      swap1\n      0x01\n      add\n      swap1\n      0x20\n      add\n      dup1\n      dup4\n      gt\n      tag_126\n      jumpi\n      dup3\n      swap1\n      sub\n      0x1f\n      and\n      dup3\n      add\n      swap2\n    tag_124:\n      pop\n      pop\n      pop\n      pop\n      pop\n      dup2\n      mstore\n      0x20\n      add\n      0x02\n      dup3\n      add\n      dup1\n      sload\n      tag_127\n      swap1\n      tag_122\n      jump\t// in\n    tag_127:\n      dup1\n      0x1f\n      add\n      0x20\n      dup1\n      swap2\n      div\n      mul\n      0x20\n      add\n      mload(0x40)\n      swap1\n      dup2\n      add\n      0x40\n      mstore\n      dup1\n      swap3\n      swap2\n      swap1\n      dup2\n      dup2\n      mstore\n      0x20\n      add\n      dup3\n      dup1\n      sload\n      tag_128\n      swap1\n      tag_122\n      jump\t// in\n    tag_128:\n      dup1\n      iszero\n      tag_129\n      jumpi\n      dup1\n      0x1f\n      lt\n      tag_130\n      jumpi\n      0x0100\n      dup1\n      dup4\n      sload\n      div\n      mul\n      dup4\n      mstore\n      swap2\n      0x20\n      add\n      swap2\n      jump(tag_129)\n    tag_130:\n      dup3\n      add\n      swap2\n      swap1\n      0x00\n      mstore\n      keccak256(0x00, 0x20)\n      swap1\n    tag_131:\n      dup2\n      sload\n      dup2\n      mstore\n      swap1\n      0x01\n      add\n      swap1\n      0x20\n      add\n      dup1\n      dup4\n      gt\n      tag_131\n      jumpi\n      dup3\n      swap1\n      sub\n      0x1f\n      and\n      dup3\n      add\n      swap2\n    tag_129:\n      pop\n      pop\n      pop\n      pop\n      pop\n      dup2\n      mstore\n      0x20\n      add\n      0x03\n      dup3\n      add\n      0x00\n      swap1\n      sload\n      swap1\n      0x0100\n      exp\n      swap1\n      div\n      0xff\n      and\n      iszero\n      iszero\n      iszero\n      iszero\n      dup2\n      mstore\n      0x20\n      add\n      0x04\n      dup3\n      add\n      sload\n      dup2\n      mstore\n      pop\n      pop\n        /* \"AllowedTokenManager.sol\":3504:3519  allowdTokenData */\n      dup3\n        /* \"AllowedTokenManager.sol\":3520:3521  i */\n      dup3\n        /* \"AllowedTokenManager.sol\":3504:3522  allowdTokenData[i] */\n      dup2\n      mload\n      dup2\n      lt\n      tag_132\n      jumpi\n      tag_133\n      tag_119\n      jump\t// in\n    tag_133:\n    tag_132:\n      0x20\n      mul\n      0x20\n      add\n      add\n        /* \"AllowedTokenManager.sol\":3504:3563  allowdTokenData[i] = allowedTokens[allowedTokenAdresses[i]] */\n      dup2\n      swap1\n      mstore\n      pop\n        /* \"AllowedTokenManager.sol\":3485:3488  i++ */\n      dup1\n      dup1\n      0x01\n      add\n      swap2\n      pop\n      pop\n        /* \"AllowedTokenManager.sol\":3435:3574  for (uint i = 0; i < allowedTokenAdresses.length; i++) {... */\n      jump(tag_114)\n    tag_115:\n      pop\n        /* \"AllowedTokenManager.sol\":3255:3621  function getAllTokens() external view returns (AllowedToken[] memory allowdTokenData) {... */\n      swap1\n      jump\t// out\n        /* \"AllowedTokenManager.sol\":3850:4470  function getAllTokensPaginated(uint256 startIndex, uint256 pageSize) external view returns (AllowedToken[] memory allowdTokenData) {... */\n    tag_34:\n        /* \"AllowedTokenManager.sol\":3942:3979  AllowedToken[] memory allowdTokenData */\n      0x60\n        /* \"AllowedTokenManager.sol\":3991:4007  uint256 endIndex */\n      0x00\n        /* \"AllowedTokenManager.sol\":4023:4031  pageSize */\n      dup3\n        /* \"AllowedTokenManager.sol\":4010:4020  startIndex */\n      dup5\n        /* \"AllowedTokenManager.sol\":4010:4031  startIndex + pageSize */\n      tag_135\n      swap2\n      swap1\n      tag_136\n      jump\t// in\n    tag_135:\n        /* \"AllowedTokenManager.sol\":3991:4031  uint256 endIndex = startIndex + pageSize */\n      swap1\n      pop\n        /* \"AllowedTokenManager.sol\":4056:4076  allowedTokenAdresses */\n      0x04\n        /* \"AllowedTokenManager.sol\":4056:4083  allowedTokenAdresses.length */\n      dup1\n      sload\n      swap1\n      pop\n        /* \"AllowedTokenManager.sol\":4045:4053  endIndex */\n      dup2\n        /* \"AllowedTokenManager.sol\":4045:4083  endIndex > allowedTokenAdresses.length */\n      gt\n        /* \"AllowedTokenManager.sol\":4041:4148  if (endIndex > allowedTokenAdresses.length) {... */\n      iszero\n      tag_137\n      jumpi\n        /* \"AllowedTokenManager.sol\":4110:4130  allowedTokenAdresses */\n      0x04\n        /* \"AllowedTokenManager.sol\":4110:4137  allowedTokenAdresses.length */\n      dup1\n      sload\n      swap1\n      pop\n        /* \"AllowedTokenManager.sol\":4099:4137  endIndex = allowedTokenAdresses.length */\n      swap1\n      pop\n        /* \"AllowedTokenManager.sol\":4041:4148  if (endIndex > allowedTokenAdresses.length) {... */\n    tag_137:\n        /* \"AllowedTokenManager.sol\":4157:4175  uint256 resultSize */\n      0x00\n        /* \"AllowedTokenManager.sol\":4189:4199  startIndex */\n      dup5\n        /* \"AllowedTokenManager.sol\":4178:4186  endIndex */\n      dup3\n        /* \"AllowedTokenManager.sol\":4178:4199  endIndex - startIndex */\n      tag_138\n      swap2\n      swap1\n      tag_139\n      jump\t// in\n    tag_138:\n        /* \"AllowedTokenManager.sol\":4157:4199  uint256 resultSize = endIndex - startIndex */\n      swap1\n      pop\n        /* \"AllowedTokenManager.sol\":4255:4265  resultSize */\n      dup1\n        /* \"AllowedTokenManager.sol\":4236:4266  new AllowedToken[](resultSize) */\n      0xffffffffffffffff\n      dup2\n      gt\n      iszero\n      tag_140\n      jumpi\n      tag_141\n      tag_109\n      jump\t// in\n    tag_141:\n    tag_140:\n      mload(0x40)\n      swap1\n      dup1\n      dup3\n      mstore\n      dup1\n      0x20\n      mul\n      0x20\n      add\n      dup3\n      add\n      0x40\n      mstore\n      dup1\n      iszero\n      tag_142\n      jumpi\n      dup2\n      0x20\n      add\n    tag_143:\n      tag_144\n      tag_113\n      jump\t// in\n    tag_144:\n      dup2\n      mstore\n      0x20\n      add\n      swap1\n      0x01\n      swap1\n      sub\n      swap1\n      dup2\n      tag_143\n      jumpi\n      swap1\n      pop\n    tag_142:\n      pop\n        /* \"AllowedTokenManager.sol\":4218:4266  allowdTokenData = new AllowedToken[](resultSize) */\n      swap3\n      pop\n        /* \"AllowedTokenManager.sol\":4290:4299  uint256 i */\n      0x00\n        /* \"AllowedTokenManager.sol\":4302:4303  0 */\n      0x00\n        /* \"AllowedTokenManager.sol\":4290:4303  uint256 i = 0 */\n      swap1\n      pop\n        /* \"AllowedTokenManager.sol\":4285:4423  for (uint256 i = 0; i < resultSize; i++) {... */\n    tag_145:\n        /* \"AllowedTokenManager.sol\":4309:4319  resultSize */\n      dup2\n        /* \"AllowedTokenManager.sol\":4305:4306  i */\n      dup2\n        /* \"AllowedTokenManager.sol\":4305:4319  i < resultSize */\n      lt\n        /* \"AllowedTokenManager.sol\":4285:4423  for (uint256 i = 0; i < resultSize; i++) {... */\n      iszero\n      tag_146\n      jumpi\n        /* \"AllowedTokenManager.sol\":4361:4374  allowedTokens */\n      0x03\n        /* \"AllowedTokenManager.sol\":4361:4412  allowedTokens[allowedTokenAdresses[startIndex + i]] */\n      0x00\n        /* \"AllowedTokenManager.sol\":4375:4395  allowedTokenAdresses */\n      0x04\n        /* \"AllowedTokenManager.sol\":4409:4410  i */\n      dup4\n        /* \"AllowedTokenManager.sol\":4396:4406  startIndex */\n      dup10\n        /* \"AllowedTokenManager.sol\":4396:4410  startIndex + i */\n      tag_148\n      swap2\n      swap1\n      tag_136\n      jump\t// in\n    tag_148:\n        /* \"AllowedTokenManager.sol\":4375:4411  allowedTokenAdresses[startIndex + i] */\n      dup2\n      sload\n      dup2\n      lt\n      tag_149\n      jumpi\n      tag_150\n      tag_119\n      jump\t// in\n    tag_150:\n    tag_149:\n      swap1\n      0x00\n      mstore\n      keccak256(0x00, 0x20)\n      add\n      0x00\n      swap1\n      sload\n      swap1\n      0x0100\n      exp\n      swap1\n      div\n      0xffffffffffffffffffffffffffffffffffffffff\n      and\n        /* \"AllowedTokenManager.sol\":4361:4412  allowedTokens[allowedTokenAdresses[startIndex + i]] */\n      0xffffffffffffffffffffffffffffffffffffffff\n      and\n      0xffffffffffffffffffffffffffffffffffffffff\n      and\n      dup2\n      mstore\n      0x20\n      add\n      swap1\n      dup2\n      mstore\n      0x20\n      add\n      0x00\n      keccak256\n        /* \"AllowedTokenManager.sol\":4340:4412  allowdTokenData[i] = allowedTokens[allowedTokenAdresses[startIndex + i]] */\n      mload(0x40)\n      dup1\n      0xa0\n      add\n      0x40\n      mstore\n      swap1\n      dup2\n      0x00\n      dup3\n      add\n      0x00\n      swap1\n      sload\n      swap1\n      0x0100\n      exp\n      swap1\n      div\n      0xffffffffffffffffffffffffffffffffffffffff\n      and\n      0xffffffffffffffffffffffffffffffffffffffff\n      and\n      0xffffffffffffffffffffffffffffffffffffffff\n      and\n      dup2\n      mstore\n      0x20\n      add\n      0x01\n      dup3\n      add\n      dup1\n      sload\n      tag_152\n      swap1\n      tag_122\n      jump\t// in\n    tag_152:\n      dup1\n      0x1f\n      add\n      0x20\n      dup1\n      swap2\n      div\n      mul\n      0x20\n      add\n      mload(0x40)\n      swap1\n      dup2\n      add\n      0x40\n      mstore\n      dup1\n      swap3\n      swap2\n      swap1\n      dup2\n      dup2\n      mstore\n      0x20\n      add\n      dup3\n      dup1\n      sload\n      tag_153\n      swap1\n      tag_122\n      jump\t// in\n    tag_153:\n      dup1\n      iszero\n      tag_154\n      jumpi\n      dup1\n      0x1f\n      lt\n      tag_155\n      jumpi\n      0x0100\n      dup1\n      dup4\n      sload\n      div\n      mul\n      dup4\n      mstore\n      swap2\n      0x20\n      add\n      swap2\n      jump(tag_154)\n    tag_155:\n      dup3\n      add\n      swap2\n      swap1\n      0x00\n      mstore\n      keccak256(0x00, 0x20)\n      swap1\n    tag_156:\n      dup2\n      sload\n      dup2\n      mstore\n      swap1\n      0x01\n      add\n      swap1\n      0x20\n      add\n      dup1\n      dup4\n      gt\n      tag_156\n      jumpi\n      dup3\n      swap1\n      sub\n      0x1f\n      and\n      dup3\n      add\n      swap2\n    tag_154:\n      pop\n      pop\n      pop\n      pop\n      pop\n      dup2\n      mstore\n      0x20\n      add\n      0x02\n      dup3\n      add\n      dup1\n      sload\n      tag_157\n      swap1\n      tag_122\n      jump\t// in\n    tag_157:\n      dup1\n      0x1f\n      add\n      0x20\n      dup1\n      swap2\n      div\n      mul\n      0x20\n      add\n      mload(0x40)\n      swap1\n      dup2\n      add\n      0x40\n      mstore\n      dup1\n      swap3\n      swap2\n      swap1\n      dup2\n      dup2\n      mstore\n      0x20\n      add\n      dup3\n      dup1\n      sload\n      tag_158\n      swap1\n      tag_122\n      jump\t// in\n    tag_158:\n      dup1\n      iszero\n      tag_159\n      jumpi\n      dup1\n      0x1f\n      lt\n      tag_160\n      jumpi\n      0x0100\n      dup1\n      dup4\n      sload\n      div\n      mul\n      dup4\n      mstore\n      swap2\n      0x20\n      add\n      swap2\n      jump(tag_159)\n    tag_160:\n      dup3\n      add\n      swap2\n      swap1\n      0x00\n      mstore\n      keccak256(0x00, 0x20)\n      swap1\n    tag_161:\n      dup2\n      sload\n      dup2\n      mstore\n      swap1\n      0x01\n      add\n      swap1\n      0x20\n      add\n      dup1\n      dup4\n      gt\n      tag_161\n      jumpi\n      dup3\n      swap1\n      sub\n      0x1f\n      and\n      dup3\n      add\n      swap2\n    tag_159:\n      pop\n      pop\n      pop\n      pop\n      pop\n      dup2\n      mstore\n      0x20\n      add\n      0x03\n      dup3\n      add\n      0x00\n      swap1\n      sload\n      swap1\n      0x0100\n      exp\n      swap1\n      div\n      0xff\n      and\n      iszero\n      iszero\n      iszero\n      iszero\n      dup2\n      mstore\n      0x20\n      add\n      0x04\n      dup3\n      add\n      sload\n      dup2\n      mstore\n      pop\n      pop\n        /* \"AllowedTokenManager.sol\":4340:4355  allowdTokenData */\n      dup5\n        /* \"AllowedTokenManager.sol\":4356:4357  i */\n      dup3\n        /* \"AllowedTokenManager.sol\":4340:4358  allowdTokenData[i] */\n      dup2\n      mload\n      dup2\n      lt\n      tag_162\n      jumpi\n      tag_163\n      tag_119\n      jump\t// in\n    tag_163:\n    tag_162:\n      0x20\n      mul\n      0x20\n      add\n      add\n        /* \"AllowedTokenManager.sol\":4340:4412  allowdTokenData[i] = allowedTokens[allowedTokenAdresses[startIndex + i]] */\n      dup2\n      swap1\n      mstore\n      pop\n        /* \"AllowedTokenManager.sol\":4321:4324  i++ */\n      dup1\n      dup1\n      0x01\n      add\n      swap2\n      pop\n      pop\n        /* \"AllowedTokenManager.sol\":4285:4423  for (uint256 i = 0; i < resultSize; i++) {... */\n      jump(tag_145)\n    tag_146:\n      pop\n        /* \"AllowedTokenManager.sol\":4441:4463  return allowdTokenData */\n      pop\n      pop\n        /* \"AllowedTokenManager.sol\":3850:4470  function getAllTokensPaginated(uint256 startIndex, uint256 pageSize) external view returns (AllowedToken[] memory allowdTokenData) {... */\n      swap3\n      swap2\n      pop\n      pop\n      jump\t// out\n        /* \"ReceiverManager.sol\":3920:4510  function getAllReceiversPaginated(uint256 startIndex, uint256 pageSize) external view returns (Receiver[] memory receiverData) {... */\n    tag_38:\n        /* \"ReceiverManager.sol\":4015:4045  Receiver[] memory receiverData */\n      0x60\n        /* \"ReceiverManager.sol\":4057:4073  uint256 endIndex */\n      0x00\n        /* \"ReceiverManager.sol\":4089:4097  pageSize */\n      dup3\n        /* \"ReceiverManager.sol\":4076:4086  startIndex */\n      dup5\n        /* \"ReceiverManager.sol\":4076:4097  startIndex + pageSize */\n      tag_165\n      swap2\n      swap1\n      tag_136\n      jump\t// in\n    tag_165:\n        /* \"ReceiverManager.sol\":4057:4097  uint256 endIndex = startIndex + pageSize */\n      swap1\n      pop\n        /* \"ReceiverManager.sol\":4122:4139  receiverAddresses */\n      0x02\n        /* \"ReceiverManager.sol\":4122:4146  receiverAddresses.length */\n      dup1\n      sload\n      swap1\n      pop\n        /* \"ReceiverManager.sol\":4111:4119  endIndex */\n      dup2\n        /* \"ReceiverManager.sol\":4111:4146  endIndex > receiverAddresses.length */\n      gt\n        /* \"ReceiverManager.sol\":4107:4208  if (endIndex > receiverAddresses.length) {... */\n      iszero\n      tag_166\n      jumpi\n        /* \"ReceiverManager.sol\":4173:4190  receiverAddresses */\n      0x02\n        /* \"ReceiverManager.sol\":4173:4197  receiverAddresses.length */\n      dup1\n      sload\n      swap1\n      pop\n        /* \"ReceiverManager.sol\":4162:4197  endIndex = receiverAddresses.length */\n      swap1\n      pop\n        /* \"ReceiverManager.sol\":4107:4208  if (endIndex > receiverAddresses.length) {... */\n    tag_166:\n        /* \"ReceiverManager.sol\":4217:4235  uint256 resultSize */\n      0x00\n        /* \"ReceiverManager.sol\":4249:4259  startIndex */\n      dup5\n        /* \"ReceiverManager.sol\":4238:4246  endIndex */\n      dup3\n        /* \"ReceiverManager.sol\":4238:4259  endIndex - startIndex */\n      tag_167\n      swap2\n      swap1\n      tag_139\n      jump\t// in\n    tag_167:\n        /* \"ReceiverManager.sol\":4217:4259  uint256 resultSize = endIndex - startIndex */\n      swap1\n      pop\n        /* \"ReceiverManager.sol\":4308:4318  resultSize */\n      dup1\n        /* \"ReceiverManager.sol\":4293:4319  new Receiver[](resultSize) */\n      0xffffffffffffffff\n      dup2\n      gt\n      iszero\n      tag_168\n      jumpi\n      tag_169\n      tag_109\n      jump\t// in\n    tag_169:\n    tag_168:\n      mload(0x40)\n      swap1\n      dup1\n      dup3\n      mstore\n      dup1\n      0x20\n      mul\n      0x20\n      add\n      dup3\n      add\n      0x40\n      mstore\n      dup1\n      iszero\n      tag_170\n      jumpi\n      dup2\n      0x20\n      add\n    tag_171:\n      tag_172\n      tag_173\n      jump\t// in\n    tag_172:\n      dup2\n      mstore\n      0x20\n      add\n      swap1\n      0x01\n      swap1\n      sub\n      swap1\n      dup2\n      tag_171\n      jumpi\n      swap1\n      pop\n    tag_170:\n      pop\n        /* \"ReceiverManager.sol\":4278:4319  receiverData = new Receiver[](resultSize) */\n      swap3\n      pop\n        /* \"ReceiverManager.sol\":4343:4352  uint256 i */\n      0x00\n        /* \"ReceiverManager.sol\":4355:4356  0 */\n      0x00\n        /* \"ReceiverManager.sol\":4343:4356  uint256 i = 0 */\n      swap1\n      pop\n        /* \"ReceiverManager.sol\":4338:4466  for (uint256 i = 0; i < resultSize; i++) {... */\n    tag_174:\n        /* \"ReceiverManager.sol\":4362:4372  resultSize */\n      dup2\n        /* \"ReceiverManager.sol\":4358:4359  i */\n      dup2\n        /* \"ReceiverManager.sol\":4358:4372  i < resultSize */\n      lt\n        /* \"ReceiverManager.sol\":4338:4466  for (uint256 i = 0; i < resultSize; i++) {... */\n      iszero\n      tag_175\n      jumpi\n        /* \"ReceiverManager.sol\":4411:4420  receivers */\n      0x01\n        /* \"ReceiverManager.sol\":4411:4455  receivers[receiverAddresses[startIndex + i]] */\n      0x00\n        /* \"ReceiverManager.sol\":4421:4438  receiverAddresses */\n      0x02\n        /* \"ReceiverManager.sol\":4452:4453  i */\n      dup4\n        /* \"ReceiverManager.sol\":4439:4449  startIndex */\n      dup10\n        /* \"ReceiverManager.sol\":4439:4453  startIndex + i */\n      tag_177\n      swap2\n      swap1\n      tag_136\n      jump\t// in\n    tag_177:\n        /* \"ReceiverManager.sol\":4421:4454  receiverAddresses[startIndex + i] */\n      dup2\n      sload\n      dup2\n      lt\n      tag_178\n      jumpi\n      tag_179\n      tag_119\n      jump\t// in\n    tag_179:\n    tag_178:\n      swap1\n      0x00\n      mstore\n      keccak256(0x00, 0x20)\n      add\n      0x00\n      swap1\n      sload\n      swap1\n      0x0100\n      exp\n      swap1\n      div\n      0xffffffffffffffffffffffffffffffffffffffff\n      and\n        /* \"ReceiverManager.sol\":4411:4455  receivers[receiverAddresses[startIndex + i]] */\n      0xffffffffffffffffffffffffffffffffffffffff\n      and\n      0xffffffffffffffffffffffffffffffffffffffff\n      and\n      dup2\n      mstore\n      0x20\n      add\n      swap1\n      dup2\n      mstore\n      0x20\n      add\n      0x00\n      keccak256\n        /* \"ReceiverManager.sol\":4393:4455  receiverData[i] = receivers[receiverAddresses[startIndex + i]] */\n      mload(0x40)\n      dup1\n      0xa0\n      add\n      0x40\n      mstore\n      swap1\n      dup2\n      0x00\n      dup3\n      add\n      0x00\n      swap1\n      sload\n      swap1\n      0x0100\n      exp\n      swap1\n      div\n      0xffffffffffffffffffffffffffffffffffffffff\n      and\n      0xffffffffffffffffffffffffffffffffffffffff\n      and\n      0xffffffffffffffffffffffffffffffffffffffff\n      and\n      dup2\n      mstore\n      0x20\n      add\n      0x01\n      dup3\n      add\n      dup1\n      sload\n      tag_181\n      swap1\n      tag_122\n      jump\t// in\n    tag_181:\n      dup1\n      0x1f\n      add\n      0x20\n      dup1\n      swap2\n      div\n      mul\n      0x20\n      add\n      mload(0x40)\n      swap1\n      dup2\n      add\n      0x40\n      mstore\n      dup1\n      swap3\n      swap2\n      swap1\n      dup2\n      dup2\n      mstore\n      0x20\n      add\n      dup3\n      dup1\n      sload\n      tag_182\n      swap1\n      tag_122\n      jump\t// in\n    tag_182:\n      dup1\n      iszero\n      tag_183\n      jumpi\n      dup1\n      0x1f\n      lt\n      tag_184\n      jumpi\n      0x0100\n      dup1\n      dup4\n      sload\n      div\n      mul\n      dup4\n      mstore\n      swap2\n      0x20\n      add\n      swap2\n      jump(tag_183)\n    tag_184:\n      dup3\n      add\n      swap2\n      swap1\n      0x00\n      mstore\n      keccak256(0x00, 0x20)\n      swap1\n    tag_185:\n      dup2\n      sload\n      dup2\n      mstore\n      swap1\n      0x01\n      add\n      swap1\n      0x20\n      add\n      dup1\n      dup4\n      gt\n      tag_185\n      jumpi\n      dup3\n      swap1\n      sub\n      0x1f\n      and\n      dup3\n      add\n      swap2\n    tag_183:\n      pop\n      pop\n      pop\n      pop\n      pop\n      dup2\n      mstore\n      0x20\n      add\n      0x02\n      dup3\n      add\n      dup1\n      sload\n      tag_186\n      swap1\n      tag_122\n      jump\t// in\n    tag_186:\n      dup1\n      0x1f\n      add\n      0x20\n      dup1\n      swap2\n      div\n      mul\n      0x20\n      add\n      mload(0x40)\n      swap1\n      dup2\n      add\n      0x40\n      mstore\n      dup1\n      swap3\n      swap2\n      swap1\n      dup2\n      dup2\n      mstore\n      0x20\n      add\n      dup3\n      dup1\n      sload\n      tag_187\n      swap1\n      tag_122\n      jump\t// in\n    tag_187:\n      dup1\n      iszero\n      tag_188\n      jumpi\n      dup1\n      0x1f\n      lt\n      tag_189\n      jumpi\n      0x0100\n      dup1\n      dup4\n      sload\n      div\n      mul\n      dup4\n      mstore\n      swap2\n      0x20\n      add\n      swap2\n      jump(tag_188)\n    tag_189:\n      dup3\n      add\n      swap2\n      swap1\n      0x00\n      mstore\n      keccak256(0x00, 0x20)\n      swap1\n    tag_190:\n      dup2\n      sload\n      dup2\n      mstore\n      swap1\n      0x01\n      add\n      swap1\n      0x20\n      add\n      dup1\n      dup4\n      gt\n      tag_190\n      jumpi\n      dup3\n      swap1\n      sub\n      0x1f\n      and\n      dup3\n      add\n      swap2\n    tag_188:\n      pop\n      pop\n      pop\n      pop\n      pop\n      dup2\n      mstore\n      0x20\n      add\n      0x03\n      dup3\n      add\n      0x00\n      swap1\n      sload\n      swap1\n      0x0100\n      exp\n      swap1\n      div\n      0xff\n      and\n      iszero\n      iszero\n      iszero\n      iszero\n      dup2\n      mstore\n      0x20\n      add\n      0x04\n      dup3\n      add\n      sload\n      dup2\n      mstore\n      pop\n      pop\n        /* \"ReceiverManager.sol\":4393:4405  receiverData */\n      dup5\n        /* \"ReceiverManager.sol\":4406:4407  i */\n      dup3\n        /* \"ReceiverManager.sol\":4393:4408  receiverData[i] */\n      dup2\n      mload\n      dup2\n      lt\n      tag_191\n      jumpi\n      tag_192\n      tag_119\n      jump\t// in\n    tag_192:\n    tag_191:\n      0x20\n      mul\n      0x20\n      add\n      add\n        /* \"ReceiverManager.sol\":4393:4455  receiverData[i] = receivers[receiverAddresses[startIndex + i]] */\n      dup2\n      swap1\n      mstore\n      pop\n        /* \"ReceiverManager.sol\":4374:4377  i++ */\n      dup1\n      dup1\n      0x01\n      add\n      swap2\n      pop\n      pop\n        /* \"ReceiverManager.sol\":4338:4466  for (uint256 i = 0; i < resultSize; i++) {... */\n      jump(tag_174)\n    tag_175:\n      pop\n        /* \"ReceiverManager.sol\":4484:4503  return receiverData */\n      pop\n      pop\n        /* \"ReceiverManager.sol\":3920:4510  function getAllReceiversPaginated(uint256 startIndex, uint256 pageSize) external view returns (Receiver[] memory receiverData) {... */\n      swap3\n      swap2\n      pop\n      pop\n      jump\t// out\n        /* \"@openzeppelin/contracts/metatx/ERC2771Context.sol\":1832:1969  function isTrustedForwarder(address forwarder) public view virtual returns (bool) {... */\n    tag_43:\n        /* \"@openzeppelin/contracts/metatx/ERC2771Context.sol\":1908:1912  bool */\n      0x00\n        /* \"@openzeppelin/contracts/metatx/ERC2771Context.sol\":1944:1962  trustedForwarder() */\n      tag_194\n        /* \"@openzeppelin/contracts/metatx/ERC2771Context.sol\":1944:1960  trustedForwarder */\n      tag_55\n        /* \"@openzeppelin/contracts/metatx/ERC2771Context.sol\":1944:1962  trustedForwarder() */\n      jump\t// in\n    tag_194:\n        /* \"@openzeppelin/contracts/metatx/ERC2771Context.sol\":1931:1962  forwarder == trustedForwarder() */\n      0xffffffffffffffffffffffffffffffffffffffff\n      and\n        /* \"@openzeppelin/contracts/metatx/ERC2771Context.sol\":1931:1940  forwarder */\n      dup3\n        /* \"@openzeppelin/contracts/metatx/ERC2771Context.sol\":1931:1962  forwarder == trustedForwarder() */\n      0xffffffffffffffffffffffffffffffffffffffff\n      and\n      eq\n        /* \"@openzeppelin/contracts/metatx/ERC2771Context.sol\":1924:1962  return forwarder == trustedForwarder() */\n      swap1\n      pop\n        /* \"@openzeppelin/contracts/metatx/ERC2771Context.sol\":1832:1969  function isTrustedForwarder(address forwarder) public view virtual returns (bool) {... */\n      swap2\n      swap1\n      pop\n      jump\t// out\n        /* \"AllowedTokenManager.sol\":2300:2792  function removeToken(address tokenAddress) external onlyOwner isInvalidTokenAddr(tokenAddress) isTokenExists(tokenAddress, false){... */\n    tag_48:\n        /* \"@openzeppelin/contracts/access/Ownable.sol\":1531:1544  _checkOwner() */\n      tag_196\n        /* \"@openzeppelin/contracts/access/Ownable.sol\":1531:1542  _checkOwner */\n      tag_90\n        /* \"@openzeppelin/contracts/access/Ownable.sol\":1531:1544  _checkOwner() */\n      jump\t// in\n    tag_196:\n        /* \"AllowedTokenManager.sol\":2381:2393  tokenAddress */\n      dup1\n        /* \"AllowedTokenManager.sol\":255:256  0 */\n      0x00\n        /* \"AllowedTokenManager.sol\":231:257  tokenAddress == address(0) */\n      0xffffffffffffffffffffffffffffffffffffffff\n      and\n        /* \"AllowedTokenManager.sol\":231:243  tokenAddress */\n      dup2\n        /* \"AllowedTokenManager.sol\":231:257  tokenAddress == address(0) */\n      0xffffffffffffffffffffffffffffffffffffffff\n      and\n      sub\n        /* \"AllowedTokenManager.sol\":227:316  if (tokenAddress == address(0)) {... */\n      tag_198\n      jumpi\n        /* \"AllowedTokenManager.sol\":273:305  revert (\"Invalid token address\") */\n      mload(0x40)\n      0x08c379a000000000000000000000000000000000000000000000000000000000\n      dup2\n      mstore\n      0x04\n      add\n      tag_199\n      swap1\n      tag_200\n      jump\t// in\n    tag_199:\n      mload(0x40)\n      dup1\n      swap2\n      sub\n      swap1\n      revert\n        /* \"AllowedTokenManager.sol\":227:316  if (tokenAddress == address(0)) {... */\n    tag_198:\n        /* \"AllowedTokenManager.sol\":2409:2421  tokenAddress */\n      dup2\n        /* \"AllowedTokenManager.sol\":2423:2428  false */\n      0x00\n        /* \"AllowedTokenManager.sol\":459:460  0 */\n      0x00\n        /* \"AllowedTokenManager.sol\":411:461  allowedTokens[tokenAddress]._address != address(0) */\n      0xffffffffffffffffffffffffffffffffffffffff\n      and\n        /* \"AllowedTokenManager.sol\":411:424  allowedTokens */\n      0x03\n        /* \"AllowedTokenManager.sol\":411:438  allowedTokens[tokenAddress] */\n      0x00\n        /* \"AllowedTokenManager.sol\":425:437  tokenAddress */\n      dup5\n        /* \"AllowedTokenManager.sol\":411:438  allowedTokens[tokenAddress] */\n      0xffffffffffffffffffffffffffffffffffffffff\n      and\n      0xffffffffffffffffffffffffffffffffffffffff\n      and\n      dup2\n      mstore\n      0x20\n      add\n      swap1\n      dup2\n      mstore\n      0x20\n      add\n      0x00\n      keccak256\n        /* \"AllowedTokenManager.sol\":411:447  allowedTokens[tokenAddress]._address */\n      0x00\n      add\n      0x00\n      swap1\n      sload\n      swap1\n      0x0100\n      exp\n      swap1\n      div\n      0xffffffffffffffffffffffffffffffffffffffff\n      and\n        /* \"AllowedTokenManager.sol\":411:461  allowedTokens[tokenAddress]._address != address(0) */\n      0xffffffffffffffffffffffffffffffffffffffff\n      and\n      eq\n      iszero\n        /* \"AllowedTokenManager.sol\":411:479  allowedTokens[tokenAddress]._address != address(0) && status == true */\n      dup1\n      iszero\n      tag_202\n      jumpi\n      pop\n        /* \"AllowedTokenManager.sol\":475:479  true */\n      0x01\n        /* \"AllowedTokenManager.sol\":465:479  status == true */\n      iszero\n      iszero\n        /* \"AllowedTokenManager.sol\":465:471  status */\n      dup2\n        /* \"AllowedTokenManager.sol\":465:479  status == true */\n      iszero\n      iszero\n      eq\n        /* \"AllowedTokenManager.sol\":411:479  allowedTokens[tokenAddress]._address != address(0) && status == true */\n    tag_202:\n        /* \"AllowedTokenManager.sol\":407:681  if (allowedTokens[tokenAddress]._address != address(0) && status == true) {... */\n      iszero\n      tag_203\n      jumpi\n        /* \"AllowedTokenManager.sol\":495:526  revert (\"Token already exists\") */\n      mload(0x40)\n      0x08c379a000000000000000000000000000000000000000000000000000000000\n      dup2\n      mstore\n      0x04\n      add\n      tag_204\n      swap1\n      tag_205\n      jump\t// in\n    tag_204:\n      mload(0x40)\n      dup1\n      swap2\n      sub\n      swap1\n      revert\n        /* \"AllowedTokenManager.sol\":407:681  if (allowedTokens[tokenAddress]._address != address(0) && status == true) {... */\n    tag_203:\n        /* \"AllowedTokenManager.sol\":603:604  0 */\n      0x00\n        /* \"AllowedTokenManager.sol\":555:605  allowedTokens[tokenAddress]._address == address(0) */\n      0xffffffffffffffffffffffffffffffffffffffff\n      and\n        /* \"AllowedTokenManager.sol\":555:568  allowedTokens */\n      0x03\n        /* \"AllowedTokenManager.sol\":555:582  allowedTokens[tokenAddress] */\n      0x00\n        /* \"AllowedTokenManager.sol\":569:581  tokenAddress */\n      dup5\n        /* \"AllowedTokenManager.sol\":555:582  allowedTokens[tokenAddress] */\n      0xffffffffffffffffffffffffffffffffffffffff\n      and\n      0xffffffffffffffffffffffffffffffffffffffff\n      and\n      dup2\n      mstore\n      0x20\n      add\n      swap1\n      dup2\n      mstore\n      0x20\n      add\n      0x00\n      keccak256\n        /* \"AllowedTokenManager.sol\":555:591  allowedTokens[tokenAddress]._address */\n      0x00\n      add\n      0x00\n      swap1\n      sload\n      swap1\n      0x0100\n      exp\n      swap1\n      div\n      0xffffffffffffffffffffffffffffffffffffffff\n      and\n        /* \"AllowedTokenManager.sol\":555:605  allowedTokens[tokenAddress]._address == address(0) */\n      0xffffffffffffffffffffffffffffffffffffffff\n      and\n      eq\n        /* \"AllowedTokenManager.sol\":555:624  allowedTokens[tokenAddress]._address == address(0) && status == false */\n      dup1\n      iszero\n      tag_207\n      jumpi\n      pop\n        /* \"AllowedTokenManager.sol\":619:624  false */\n      0x00\n        /* \"AllowedTokenManager.sol\":609:624  status == false */\n      iszero\n      iszero\n        /* \"AllowedTokenManager.sol\":609:615  status */\n      dup2\n        /* \"AllowedTokenManager.sol\":609:624  status == false */\n      iszero\n      iszero\n      eq\n        /* \"AllowedTokenManager.sol\":555:624  allowedTokens[tokenAddress]._address == address(0) && status == false */\n    tag_207:\n        /* \"AllowedTokenManager.sol\":551:681  if (allowedTokens[tokenAddress]._address == address(0) && status == false) {... */\n      iszero\n      tag_208\n      jumpi\n        /* \"AllowedTokenManager.sol\":640:670  revert (\"Token is not exists\") */\n      mload(0x40)\n      0x08c379a000000000000000000000000000000000000000000000000000000000\n      dup2\n      mstore\n      0x04\n      add\n      tag_209\n      swap1\n      tag_210\n      jump\t// in\n    tag_209:\n      mload(0x40)\n      dup1\n      swap2\n      sub\n      swap1\n      revert\n        /* \"AllowedTokenManager.sol\":551:681  if (allowedTokens[tokenAddress]._address == address(0) && status == false) {... */\n    tag_208:\n        /* \"AllowedTokenManager.sol\":2446:2459  allowedTokens */\n      0x03\n        /* \"AllowedTokenManager.sol\":2446:2473  allowedTokens[tokenAddress] */\n      0x00\n        /* \"AllowedTokenManager.sol\":2460:2472  tokenAddress */\n      dup6\n        /* \"AllowedTokenManager.sol\":2446:2473  allowedTokens[tokenAddress] */\n      0xffffffffffffffffffffffffffffffffffffffff\n      and\n      0xffffffffffffffffffffffffffffffffffffffff\n      and\n      dup2\n      mstore\n      0x20\n      add\n      swap1\n      dup2\n      mstore\n      0x20\n      add\n      0x00\n      keccak256\n      0x00\n        /* \"AllowedTokenManager.sol\":2439:2473  delete allowedTokens[tokenAddress] */\n      0x00\n      dup3\n      add\n      exp(0x0100, 0x00)\n      dup2\n      sload\n      swap1\n      0xffffffffffffffffffffffffffffffffffffffff\n      mul\n      not\n      and\n      swap1\n      sstore\n      0x01\n      dup3\n      add\n      0x00\n      tag_212\n      swap2\n      swap1\n      tag_213\n      jump\t// in\n    tag_212:\n      0x02\n      dup3\n      add\n      0x00\n      tag_214\n      swap2\n      swap1\n      tag_213\n      jump\t// in\n    tag_214:\n      0x03\n      dup3\n      add\n      exp(0x0100, 0x00)\n      dup2\n      sload\n      swap1\n      0xff\n      mul\n      not\n      and\n      swap1\n      sstore\n      0x04\n      dup3\n      add\n      0x00\n      swap1\n      sstore\n      pop\n      pop\n        /* \"AllowedTokenManager.sol\":2488:2494  uint i */\n      0x00\n        /* \"AllowedTokenManager.sol\":2497:2498  0 */\n      0x00\n        /* \"AllowedTokenManager.sol\":2488:2498  uint i = 0 */\n      swap1\n      pop\n        /* \"AllowedTokenManager.sol\":2483:2786  for (uint i = 0; i < allowedTokenAdresses.length; i++) {... */\n    tag_215:\n        /* \"AllowedTokenManager.sol\":2504:2524  allowedTokenAdresses */\n      0x04\n        /* \"AllowedTokenManager.sol\":2504:2531  allowedTokenAdresses.length */\n      dup1\n      sload\n      swap1\n      pop\n        /* \"AllowedTokenManager.sol\":2500:2501  i */\n      dup2\n        /* \"AllowedTokenManager.sol\":2500:2531  i < allowedTokenAdresses.length */\n      lt\n        /* \"AllowedTokenManager.sol\":2483:2786  for (uint i = 0; i < allowedTokenAdresses.length; i++) {... */\n      iszero\n      tag_216\n      jumpi\n        /* \"AllowedTokenManager.sol\":2583:2595  tokenAddress */\n      dup5\n        /* \"AllowedTokenManager.sol\":2556:2595  allowedTokenAdresses[i] == tokenAddress */\n      0xffffffffffffffffffffffffffffffffffffffff\n      and\n        /* \"AllowedTokenManager.sol\":2556:2576  allowedTokenAdresses */\n      0x04\n        /* \"AllowedTokenManager.sol\":2577:2578  i */\n      dup3\n        /* \"AllowedTokenManager.sol\":2556:2579  allowedTokenAdresses[i] */\n      dup2\n      sload\n      dup2\n      lt\n      tag_218\n      jumpi\n      tag_219\n      tag_119\n      jump\t// in\n    tag_219:\n    tag_218:\n      swap1\n      0x00\n      mstore\n      keccak256(0x00, 0x20)\n      add\n      0x00\n      swap1\n      sload\n      swap1\n      0x0100\n      exp\n      swap1\n      div\n      0xffffffffffffffffffffffffffffffffffffffff\n      and\n        /* \"AllowedTokenManager.sol\":2556:2595  allowedTokenAdresses[i] == tokenAddress */\n      0xffffffffffffffffffffffffffffffffffffffff\n      and\n      sub\n        /* \"AllowedTokenManager.sol\":2552:2776  if (allowedTokenAdresses[i] == tokenAddress) {... */\n      tag_221\n      jumpi\n        /* \"AllowedTokenManager.sol\":2641:2661  allowedTokenAdresses */\n      0x04\n        /* \"AllowedTokenManager.sol\":2692:2693  1 */\n      0x01\n        /* \"AllowedTokenManager.sol\":2662:2682  allowedTokenAdresses */\n      0x04\n        /* \"AllowedTokenManager.sol\":2662:2689  allowedTokenAdresses.length */\n      dup1\n      sload\n      swap1\n      pop\n        /* \"AllowedTokenManager.sol\":2662:2693  allowedTokenAdresses.length - 1 */\n      tag_222\n      swap2\n      swap1\n      tag_139\n      jump\t// in\n    tag_222:\n        /* \"AllowedTokenManager.sol\":2641:2694  allowedTokenAdresses[allowedTokenAdresses.length - 1] */\n      dup2\n      sload\n      dup2\n      lt\n      tag_223\n      jumpi\n      tag_224\n      tag_119\n      jump\t// in\n    tag_224:\n    tag_223:\n      swap1\n      0x00\n      mstore\n      keccak256(0x00, 0x20)\n      add\n      0x00\n      swap1\n      sload\n      swap1\n      0x0100\n      exp\n      swap1\n      div\n      0xffffffffffffffffffffffffffffffffffffffff\n      and\n        /* \"AllowedTokenManager.sol\":2615:2635  allowedTokenAdresses */\n      0x04\n        /* \"AllowedTokenManager.sol\":2636:2637  i */\n      dup3\n        /* \"AllowedTokenManager.sol\":2615:2638  allowedTokenAdresses[i] */\n      dup2\n      sload\n      dup2\n      lt\n      tag_226\n      jumpi\n      tag_227\n      tag_119\n      jump\t// in\n    tag_227:\n    tag_226:\n      swap1\n      0x00\n      mstore\n      keccak256(0x00, 0x20)\n      add\n      0x00\n        /* \"AllowedTokenManager.sol\":2615:2694  allowedTokenAdresses[i] = allowedTokenAdresses[allowedTokenAdresses.length - 1] */\n      0x0100\n      exp\n      dup2\n      sload\n      dup2\n      0xffffffffffffffffffffffffffffffffffffffff\n      mul\n      not\n      and\n      swap1\n      dup4\n      0xffffffffffffffffffffffffffffffffffffffff\n      and\n      mul\n      or\n      swap1\n      sstore\n      pop\n        /* \"AllowedTokenManager.sol\":2712:2732  allowedTokenAdresses */\n      0x04\n        /* \"AllowedTokenManager.sol\":2712:2738  allowedTokenAdresses.pop() */\n      dup1\n      sload\n      dup1\n      tag_229\n      jumpi\n      tag_230\n      tag_231\n      jump\t// in\n    tag_230:\n    tag_229:\n      0x01\n      swap1\n      sub\n      dup2\n      dup2\n      swap1\n      0x00\n      mstore\n      keccak256(0x00, 0x20)\n      add\n      exp(0x0100, 0x00)\n      dup2\n      sload\n      swap1\n      0xffffffffffffffffffffffffffffffffffffffff\n      mul\n      not\n      and\n      swap1\n      sstore\n      swap1\n      sstore\n        /* \"AllowedTokenManager.sol\":2756:2761  break */\n      jump(tag_216)\n        /* \"AllowedTokenManager.sol\":2552:2776  if (allowedTokenAdresses[i] == tokenAddress) {... */\n    tag_221:\n        /* \"AllowedTokenManager.sol\":2533:2536  i++ */\n      dup1\n      dup1\n      0x01\n      add\n      swap2\n      pop\n      pop\n        /* \"AllowedTokenManager.sol\":2483:2786  for (uint i = 0; i < allowedTokenAdresses.length; i++) {... */\n      jump(tag_215)\n    tag_216:\n      pop\n        /* \"AllowedTokenManager.sol\":325:326  _ */\n      pop\n      pop\n        /* \"@openzeppelin/contracts/access/Ownable.sol\":1554:1555  _ */\n      pop\n        /* \"AllowedTokenManager.sol\":2300:2792  function removeToken(address tokenAddress) external onlyOwner isInvalidTokenAddr(tokenAddress) isTokenExists(tokenAddress, false){... */\n      pop\n      jump\t// out\n        /* \"ReceiverManager.sol\":2396:2890  function removeReceiver(address receiverAddress) external onlyOwner isInvalidReceiverAddr(receiverAddress) isReceiverExists(receiverAddress, false){... */\n    tag_51:\n        /* \"@openzeppelin/contracts/access/Ownable.sol\":1531:1544  _checkOwner() */\n      tag_234\n        /* \"@openzeppelin/contracts/access/Ownable.sol\":1531:1542  _checkOwner */\n      tag_90\n        /* \"@openzeppelin/contracts/access/Ownable.sol\":1531:1544  _checkOwner() */\n      jump\t// in\n    tag_234:\n        /* \"ReceiverManager.sol\":2486:2501  receiverAddress */\n      dup1\n        /* \"ReceiverManager.sol\":260:261  0 */\n      0x00\n        /* \"ReceiverManager.sol\":233:262  receiverAddress == address(0) */\n      0xffffffffffffffffffffffffffffffffffffffff\n      and\n        /* \"ReceiverManager.sol\":233:248  receiverAddress */\n      dup2\n        /* \"ReceiverManager.sol\":233:262  receiverAddress == address(0) */\n      0xffffffffffffffffffffffffffffffffffffffff\n      and\n      sub\n        /* \"ReceiverManager.sol\":229:324  if (receiverAddress == address(0)) {... */\n      tag_236\n      jumpi\n        /* \"ReceiverManager.sol\":278:313  revert (\"Invalid receiver address\") */\n      mload(0x40)\n      0x08c379a000000000000000000000000000000000000000000000000000000000\n      dup2\n      mstore\n      0x04\n      add\n      tag_237\n      swap1\n      tag_94\n      jump\t// in\n    tag_237:\n      mload(0x40)\n      dup1\n      swap2\n      sub\n      swap1\n      revert\n        /* \"ReceiverManager.sol\":229:324  if (receiverAddress == address(0)) {... */\n    tag_236:\n        /* \"ReceiverManager.sol\":2520:2535  receiverAddress */\n      dup2\n        /* \"ReceiverManager.sol\":2537:2542  false */\n      0x00\n        /* \"ReceiverManager.sol\":472:473  0 */\n      0x00\n        /* \"ReceiverManager.sol\":425:474  receivers[receiverAddress]._address != address(0) */\n      0xffffffffffffffffffffffffffffffffffffffff\n      and\n        /* \"ReceiverManager.sol\":425:434  receivers */\n      0x01\n        /* \"ReceiverManager.sol\":425:451  receivers[receiverAddress] */\n      0x00\n        /* \"ReceiverManager.sol\":435:450  receiverAddress */\n      dup5\n        /* \"ReceiverManager.sol\":425:451  receivers[receiverAddress] */\n      0xffffffffffffffffffffffffffffffffffffffff\n      and\n      0xffffffffffffffffffffffffffffffffffffffff\n      and\n      dup2\n      mstore\n      0x20\n      add\n      swap1\n      dup2\n      mstore\n      0x20\n      add\n      0x00\n      keccak256\n        /* \"ReceiverManager.sol\":425:460  receivers[receiverAddress]._address */\n      0x00\n      add\n      0x00\n      swap1\n      sload\n      swap1\n      0x0100\n      exp\n      swap1\n      div\n      0xffffffffffffffffffffffffffffffffffffffff\n      and\n        /* \"ReceiverManager.sol\":425:474  receivers[receiverAddress]._address != address(0) */\n      0xffffffffffffffffffffffffffffffffffffffff\n      and\n      eq\n      iszero\n        /* \"ReceiverManager.sol\":425:492  receivers[receiverAddress]._address != address(0) && status == true */\n      dup1\n      iszero\n      tag_239\n      jumpi\n      pop\n        /* \"ReceiverManager.sol\":488:492  true */\n      0x01\n        /* \"ReceiverManager.sol\":478:492  status == true */\n      iszero\n      iszero\n        /* \"ReceiverManager.sol\":478:484  status */\n      dup2\n        /* \"ReceiverManager.sol\":478:492  status == true */\n      iszero\n      iszero\n      eq\n        /* \"ReceiverManager.sol\":425:492  receivers[receiverAddress]._address != address(0) && status == true */\n    tag_239:\n        /* \"ReceiverManager.sol\":421:699  if (receivers[receiverAddress]._address != address(0) && status == true) {... */\n      iszero\n      tag_240\n      jumpi\n        /* \"ReceiverManager.sol\":508:542  revert (\"Receiver already exists\") */\n      mload(0x40)\n      0x08c379a000000000000000000000000000000000000000000000000000000000\n      dup2\n      mstore\n      0x04\n      add\n      tag_241\n      swap1\n      tag_99\n      jump\t// in\n    tag_241:\n      mload(0x40)\n      dup1\n      swap2\n      sub\n      swap1\n      revert\n        /* \"ReceiverManager.sol\":421:699  if (receivers[receiverAddress]._address != address(0) && status == true) {... */\n    tag_240:\n        /* \"ReceiverManager.sol\":618:619  0 */\n      0x00\n        /* \"ReceiverManager.sol\":571:620  receivers[receiverAddress]._address == address(0) */\n      0xffffffffffffffffffffffffffffffffffffffff\n      and\n        /* \"ReceiverManager.sol\":571:580  receivers */\n      0x01\n        /* \"ReceiverManager.sol\":571:597  receivers[receiverAddress] */\n      0x00\n        /* \"ReceiverManager.sol\":581:596  receiverAddress */\n      dup5\n        /* \"ReceiverManager.sol\":571:597  receivers[receiverAddress] */\n      0xffffffffffffffffffffffffffffffffffffffff\n      and\n      0xffffffffffffffffffffffffffffffffffffffff\n      and\n      dup2\n      mstore\n      0x20\n      add\n      swap1\n      dup2\n      mstore\n      0x20\n      add\n      0x00\n      keccak256\n        /* \"ReceiverManager.sol\":571:606  receivers[receiverAddress]._address */\n      0x00\n      add\n      0x00\n      swap1\n      sload\n      swap1\n      0x0100\n      exp\n      swap1\n      div\n      0xffffffffffffffffffffffffffffffffffffffff\n      and\n        /* \"ReceiverManager.sol\":571:620  receivers[receiverAddress]._address == address(0) */\n      0xffffffffffffffffffffffffffffffffffffffff\n      and\n      eq\n        /* \"ReceiverManager.sol\":571:639  receivers[receiverAddress]._address == address(0) && status == false */\n      dup1\n      iszero\n      tag_243\n      jumpi\n      pop\n        /* \"ReceiverManager.sol\":634:639  false */\n      0x00\n        /* \"ReceiverManager.sol\":624:639  status == false */\n      iszero\n      iszero\n        /* \"ReceiverManager.sol\":624:630  status */\n      dup2\n        /* \"ReceiverManager.sol\":624:639  status == false */\n      iszero\n      iszero\n      eq\n        /* \"ReceiverManager.sol\":571:639  receivers[receiverAddress]._address == address(0) && status == false */\n    tag_243:\n        /* \"ReceiverManager.sol\":567:699  if (receivers[receiverAddress]._address == address(0) && status == false) {... */\n      iszero\n      tag_244\n      jumpi\n        /* \"ReceiverManager.sol\":655:688  revert (\"Receiver is not exists\") */\n      mload(0x40)\n      0x08c379a000000000000000000000000000000000000000000000000000000000\n      dup2\n      mstore\n      0x04\n      add\n      tag_245\n      swap1\n      tag_104\n      jump\t// in\n    tag_245:\n      mload(0x40)\n      dup1\n      swap2\n      sub\n      swap1\n      revert\n        /* \"ReceiverManager.sol\":567:699  if (receivers[receiverAddress]._address == address(0) && status == false) {... */\n    tag_244:\n        /* \"ReceiverManager.sol\":2560:2569  receivers */\n      0x01\n        /* \"ReceiverManager.sol\":2560:2586  receivers[receiverAddress] */\n      0x00\n        /* \"ReceiverManager.sol\":2570:2585  receiverAddress */\n      dup6\n        /* \"ReceiverManager.sol\":2560:2586  receivers[receiverAddress] */\n      0xffffffffffffffffffffffffffffffffffffffff\n      and\n      0xffffffffffffffffffffffffffffffffffffffff\n      and\n      dup2\n      mstore\n      0x20\n      add\n      swap1\n      dup2\n      mstore\n      0x20\n      add\n      0x00\n      keccak256\n      0x00\n        /* \"ReceiverManager.sol\":2553:2586  delete receivers[receiverAddress] */\n      0x00\n      dup3\n      add\n      exp(0x0100, 0x00)\n      dup2\n      sload\n      swap1\n      0xffffffffffffffffffffffffffffffffffffffff\n      mul\n      not\n      and\n      swap1\n      sstore\n      0x01\n      dup3\n      add\n      0x00\n      tag_247\n      swap2\n      swap1\n      tag_213\n      jump\t// in\n    tag_247:\n      0x02\n      dup3\n      add\n      0x00\n      tag_248\n      swap2\n      swap1\n      tag_213\n      jump\t// in\n    tag_248:\n      0x03\n      dup3\n      add\n      exp(0x0100, 0x00)\n      dup2\n      sload\n      swap1\n      0xff\n      mul\n      not\n      and\n      swap1\n      sstore\n      0x04\n      dup3\n      add\n      0x00\n      swap1\n      sstore\n      pop\n      pop\n        /* \"ReceiverManager.sol\":2601:2607  uint i */\n      0x00\n        /* \"ReceiverManager.sol\":2610:2611  0 */\n      0x00\n        /* \"ReceiverManager.sol\":2601:2611  uint i = 0 */\n      swap1\n      pop\n        /* \"ReceiverManager.sol\":2596:2884  for (uint i = 0; i < receiverAddresses.length; i++) {... */\n    tag_249:\n        /* \"ReceiverManager.sol\":2617:2634  receiverAddresses */\n      0x02\n        /* \"ReceiverManager.sol\":2617:2641  receiverAddresses.length */\n      dup1\n      sload\n      swap1\n      pop\n        /* \"ReceiverManager.sol\":2613:2614  i */\n      dup2\n        /* \"ReceiverManager.sol\":2613:2641  i < receiverAddresses.length */\n      lt\n        /* \"ReceiverManager.sol\":2596:2884  for (uint i = 0; i < receiverAddresses.length; i++) {... */\n      iszero\n      tag_250\n      jumpi\n        /* \"ReceiverManager.sol\":2690:2705  receiverAddress */\n      dup5\n        /* \"ReceiverManager.sol\":2666:2705  receiverAddresses[i] == receiverAddress */\n      0xffffffffffffffffffffffffffffffffffffffff\n      and\n        /* \"ReceiverManager.sol\":2666:2683  receiverAddresses */\n      0x02\n        /* \"ReceiverManager.sol\":2684:2685  i */\n      dup3\n        /* \"ReceiverManager.sol\":2666:2686  receiverAddresses[i] */\n      dup2\n      sload\n      dup2\n      lt\n      tag_252\n      jumpi\n      tag_253\n      tag_119\n      jump\t// in\n    tag_253:\n    tag_252:\n      swap1\n      0x00\n      mstore\n      keccak256(0x00, 0x20)\n      add\n      0x00\n      swap1\n      sload\n      swap1\n      0x0100\n      exp\n      swap1\n      div\n      0xffffffffffffffffffffffffffffffffffffffff\n      and\n        /* \"ReceiverManager.sol\":2666:2705  receiverAddresses[i] == receiverAddress */\n      0xffffffffffffffffffffffffffffffffffffffff\n      and\n      sub\n        /* \"ReceiverManager.sol\":2662:2874  if (receiverAddresses[i] == receiverAddress) {... */\n      tag_255\n      jumpi\n        /* \"ReceiverManager.sol\":2748:2765  receiverAddresses */\n      0x02\n        /* \"ReceiverManager.sol\":2793:2794  1 */\n      0x01\n        /* \"ReceiverManager.sol\":2766:2783  receiverAddresses */\n      0x02\n        /* \"ReceiverManager.sol\":2766:2790  receiverAddresses.length */\n      dup1\n      sload\n      swap1\n      pop\n        /* \"ReceiverManager.sol\":2766:2794  receiverAddresses.length - 1 */\n      tag_256\n      swap2\n      swap1\n      tag_139\n      jump\t// in\n    tag_256:\n        /* \"ReceiverManager.sol\":2748:2795  receiverAddresses[receiverAddresses.length - 1] */\n      dup2\n      sload\n      dup2\n      lt\n      tag_257\n      jumpi\n      tag_258\n      tag_119\n      jump\t// in\n    tag_258:\n    tag_257:\n      swap1\n      0x00\n      mstore\n      keccak256(0x00, 0x20)\n      add\n      0x00\n      swap1\n      sload\n      swap1\n      0x0100\n      exp\n      swap1\n      div\n      0xffffffffffffffffffffffffffffffffffffffff\n      and\n        /* \"ReceiverManager.sol\":2725:2742  receiverAddresses */\n      0x02\n        /* \"ReceiverManager.sol\":2743:2744  i */\n      dup3\n        /* \"ReceiverManager.sol\":2725:2745  receiverAddresses[i] */\n      dup2\n      sload\n      dup2\n      lt\n      tag_260\n      jumpi\n      tag_261\n      tag_119\n      jump\t// in\n    tag_261:\n    tag_260:\n      swap1\n      0x00\n      mstore\n      keccak256(0x00, 0x20)\n      add\n      0x00\n        /* \"ReceiverManager.sol\":2725:2795  receiverAddresses[i] = receiverAddresses[receiverAddresses.length - 1] */\n      0x0100\n      exp\n      dup2\n      sload\n      dup2\n      0xffffffffffffffffffffffffffffffffffffffff\n      mul\n      not\n      and\n      swap1\n      dup4\n      0xffffffffffffffffffffffffffffffffffffffff\n      and\n      mul\n      or\n      swap1\n      sstore\n      pop\n        /* \"ReceiverManager.sol\":2813:2830  receiverAddresses */\n      0x02\n        /* \"ReceiverManager.sol\":2813:2836  receiverAddresses.pop() */\n      dup1\n      sload\n      dup1\n      tag_263\n      jumpi\n      tag_264\n      tag_231\n      jump\t// in\n    tag_264:\n    tag_263:\n      0x01\n      swap1\n      sub\n      dup2\n      dup2\n      swap1\n      0x00\n      mstore\n      keccak256(0x00, 0x20)\n      add\n      exp(0x0100, 0x00)\n      dup2\n      sload\n      swap1\n      0xffffffffffffffffffffffffffffffffffffffff\n      mul\n      not\n      and\n      swap1\n      sstore\n      swap1\n      sstore\n        /* \"ReceiverManager.sol\":2854:2859  break */\n      jump(tag_250)\n        /* \"ReceiverManager.sol\":2662:2874  if (receiverAddresses[i] == receiverAddress) {... */\n    tag_255:\n        /* \"ReceiverManager.sol\":2643:2646  i++ */\n      dup1\n      dup1\n      0x01\n      add\n      swap2\n      pop\n      pop\n        /* \"ReceiverManager.sol\":2596:2884  for (uint i = 0; i < receiverAddresses.length; i++) {... */\n      jump(tag_249)\n    tag_250:\n      pop\n        /* \"ReceiverManager.sol\":333:334  _ */\n      pop\n      pop\n        /* \"@openzeppelin/contracts/access/Ownable.sol\":1554:1555  _ */\n      pop\n        /* \"ReceiverManager.sol\":2396:2890  function removeReceiver(address receiverAddress) external onlyOwner isInvalidReceiverAddr(receiverAddress) isReceiverExists(receiverAddress, false){... */\n      pop\n      jump\t// out\n        /* \"@openzeppelin/contracts/access/Ownable.sol\":2293:2394  function renounceOwnership() public virtual onlyOwner {... */\n    tag_53:\n        /* \"@openzeppelin/contracts/access/Ownable.sol\":1531:1544  _checkOwner() */\n      tag_267\n        /* \"@openzeppelin/contracts/access/Ownable.sol\":1531:1542  _checkOwner */\n      tag_90\n        /* \"@openzeppelin/contracts/access/Ownable.sol\":1531:1544  _checkOwner() */\n      jump\t// in\n    tag_267:\n        /* \"@openzeppelin/contracts/access/Ownable.sol\":2357:2387  _transferOwnership(address(0)) */\n      tag_269\n        /* \"@openzeppelin/contracts/access/Ownable.sol\":2384:2385  0 */\n      0x00\n        /* \"@openzeppelin/contracts/access/Ownable.sol\":2357:2375  _transferOwnership */\n      tag_270\n        /* \"@openzeppelin/contracts/access/Ownable.sol\":2357:2387  _transferOwnership(address(0)) */\n      jump\t// in\n    tag_269:\n        /* \"@openzeppelin/contracts/access/Ownable.sol\":2293:2394  function renounceOwnership() public virtual onlyOwner {... */\n      jump\t// out\n        /* \"@openzeppelin/contracts/metatx/ERC2771Context.sol\":1624:1731  function trustedForwarder() public view virtual returns (address) {... */\n    tag_55:\n        /* \"@openzeppelin/contracts/metatx/ERC2771Context.sol\":1681:1688  address */\n      0x00\n        /* \"@openzeppelin/contracts/metatx/ERC2771Context.sol\":1707:1724  _trustedForwarder */\n      immutable(\"0xce6ad7a82c579f00c8c2ec78b19ce4bf9bed540bc4f74d7d6c4bb7ad14cb5db6\")\n        /* \"@openzeppelin/contracts/metatx/ERC2771Context.sol\":1700:1724  return _trustedForwarder */\n      swap1\n      pop\n        /* \"@openzeppelin/contracts/metatx/ERC2771Context.sol\":1624:1731  function trustedForwarder() public view virtual returns (address) {... */\n      swap1\n      jump\t// out\n        /* \"@openzeppelin/contracts/access/Ownable.sol\":1638:1723  function owner() public view virtual returns (address) {... */\n    tag_59:\n        /* \"@openzeppelin/contracts/access/Ownable.sol\":1684:1691  address */\n      0x00\n        /* \"@openzeppelin/contracts/access/Ownable.sol\":1710:1716  _owner */\n      0x00\n      0x00\n      swap1\n      sload\n      swap1\n      0x0100\n      exp\n      swap1\n      div\n      0xffffffffffffffffffffffffffffffffffffffff\n      and\n        /* \"@openzeppelin/contracts/access/Ownable.sol\":1703:1716  return _owner */\n      swap1\n      pop\n        /* \"@openzeppelin/contracts/access/Ownable.sol\":1638:1723  function owner() public view virtual returns (address) {... */\n      swap1\n      jump\t// out\n        /* \"AllowedTokenManager.sol\":2983:3143  function getTokenByAddress(address tokenAddress) external view returns (AllowedToken memory allowdTokenData) {... */\n    tag_63:\n        /* \"AllowedTokenManager.sol\":3055:3090  AllowedToken memory allowdTokenData */\n      tag_273\n      tag_113\n      jump\t// in\n    tag_273:\n        /* \"AllowedTokenManager.sol\":3109:3122  allowedTokens */\n      0x03\n        /* \"AllowedTokenManager.sol\":3109:3136  allowedTokens[tokenAddress] */\n      0x00\n        /* \"AllowedTokenManager.sol\":3123:3135  tokenAddress */\n      dup4\n        /* \"AllowedTokenManager.sol\":3109:3136  allowedTokens[tokenAddress] */\n      0xffffffffffffffffffffffffffffffffffffffff\n      and\n      0xffffffffffffffffffffffffffffffffffffffff\n      and\n      dup2\n      mstore\n      0x20\n      add\n      swap1\n      dup2\n      mstore\n      0x20\n      add\n      0x00\n      keccak256\n        /* \"AllowedTokenManager.sol\":3102:3136  return allowedTokens[tokenAddress] */\n      mload(0x40)\n      dup1\n      0xa0\n      add\n      0x40\n      mstore\n      swap1\n      dup2\n      0x00\n      dup3\n      add\n      0x00\n      swap1\n      sload\n      swap1\n      0x0100\n      exp\n      swap1\n      div\n      0xffffffffffffffffffffffffffffffffffffffff\n      and\n      0xffffffffffffffffffffffffffffffffffffffff\n      and\n      0xffffffffffffffffffffffffffffffffffffffff\n      and\n      dup2\n      mstore\n      0x20\n      add\n      0x01\n      dup3\n      add\n      dup1\n      sload\n      tag_275\n      swap1\n      tag_122\n      jump\t// in\n    tag_275:\n      dup1\n      0x1f\n      add\n      0x20\n      dup1\n      swap2\n      div\n      mul\n      0x20\n      add\n      mload(0x40)\n      swap1\n      dup2\n      add\n      0x40\n      mstore\n      dup1\n      swap3\n      swap2\n      swap1\n      dup2\n      dup2\n      mstore\n      0x20\n      add\n      dup3\n      dup1\n      sload\n      tag_276\n      swap1\n      tag_122\n      jump\t// in\n    tag_276:\n      dup1\n      iszero\n      tag_277\n      jumpi\n      dup1\n      0x1f\n      lt\n      tag_278\n      jumpi\n      0x0100\n      dup1\n      dup4\n      sload\n      div\n      mul\n      dup4\n      mstore\n      swap2\n      0x20\n      add\n      swap2\n      jump(tag_277)\n    tag_278:\n      dup3\n      add\n      swap2\n      swap1\n      0x00\n      mstore\n      keccak256(0x00, 0x20)\n      swap1\n    tag_279:\n      dup2\n      sload\n      dup2\n      mstore\n      swap1\n      0x01\n      add\n      swap1\n      0x20\n      add\n      dup1\n      dup4\n      gt\n      tag_279\n      jumpi\n      dup3\n      swap1\n      sub\n      0x1f\n      and\n      dup3\n      add\n      swap2\n    tag_277:\n      pop\n      pop\n      pop\n      pop\n      pop\n      dup2\n      mstore\n      0x20\n      add\n      0x02\n      dup3\n      add\n      dup1\n      sload\n      tag_280\n      swap1\n      tag_122\n      jump\t// in\n    tag_280:\n      dup1\n      0x1f\n      add\n      0x20\n      dup1\n      swap2\n      div\n      mul\n      0x20\n      add\n      mload(0x40)\n      swap1\n      dup2\n      add\n      0x40\n      mstore\n      dup1\n      swap3\n      swap2\n      swap1\n      dup2\n      dup2\n      mstore\n      0x20\n      add\n      dup3\n      dup1\n      sload\n      tag_281\n      swap1\n      tag_122\n      jump\t// in\n    tag_281:\n      dup1\n      iszero\n      tag_282\n      jumpi\n      dup1\n      0x1f\n      lt\n      tag_283\n      jumpi\n      0x0100\n      dup1\n      dup4\n      sload\n      div\n      mul\n      dup4\n      mstore\n      swap2\n      0x20\n      add\n      swap2\n      jump(tag_282)\n    tag_283:\n      dup3\n      add\n      swap2\n      swap1\n      0x00\n      mstore\n      keccak256(0x00, 0x20)\n      swap1\n    tag_284:\n      dup2\n      sload\n      dup2\n      mstore\n      swap1\n      0x01\n      add\n      swap1\n      0x20\n      add\n      dup1\n      dup4\n      gt\n      tag_284\n      jumpi\n      dup3\n      swap1\n      sub\n      0x1f\n      and\n      dup3\n      add\n      swap2\n    tag_282:\n      pop\n      pop\n      pop\n      pop\n      pop\n      dup2\n      mstore\n      0x20\n      add\n      0x03\n      dup3\n      add\n      0x00\n      swap1\n      sload\n      swap1\n      0x0100\n      exp\n      swap1\n      div\n      0xff\n      and\n      iszero\n      iszero\n      iszero\n      iszero\n      dup2\n      mstore\n      0x20\n      add\n      0x04\n      dup3\n      add\n      sload\n      dup2\n      mstore\n      pop\n      pop\n      swap1\n      pop\n        /* \"AllowedTokenManager.sol\":2983:3143  function getTokenByAddress(address tokenAddress) external view returns (AllowedToken memory allowdTokenData) {... */\n      swap2\n      swap1\n      pop\n      jump\t// out\n        /* \"ReceiverManager.sol\":3088:3246  function getReceiverByAddress(address receiverAddress) external view returns (Receiver memory receiverData) {... */\n    tag_68:\n        /* \"ReceiverManager.sol\":3166:3194  Receiver memory receiverData */\n      tag_285\n      tag_173\n      jump\t// in\n    tag_285:\n        /* \"ReceiverManager.sol\":3213:3222  receivers */\n      0x01\n        /* \"ReceiverManager.sol\":3213:3239  receivers[receiverAddress] */\n      0x00\n        /* \"ReceiverManager.sol\":3223:3238  receiverAddress */\n      dup4\n        /* \"ReceiverManager.sol\":3213:3239  receivers[receiverAddress] */\n      0xffffffffffffffffffffffffffffffffffffffff\n      and\n      0xffffffffffffffffffffffffffffffffffffffff\n      and\n      dup2\n      mstore\n      0x20\n      add\n      swap1\n      dup2\n      mstore\n      0x20\n      add\n      0x00\n      keccak256\n        /* \"ReceiverManager.sol\":3206:3239  return receivers[receiverAddress] */\n      mload(0x40)\n      dup1\n      0xa0\n      add\n      0x40\n      mstore\n      swap1\n      dup2\n      0x00\n      dup3\n      add\n      0x00\n      swap1\n      sload\n      swap1\n      0x0100\n      exp\n      swap1\n      div\n      0xffffffffffffffffffffffffffffffffffffffff\n      and\n      0xffffffffffffffffffffffffffffffffffffffff\n      and\n      0xffffffffffffffffffffffffffffffffffffffff\n      and\n      dup2\n      mstore\n      0x20\n      add\n      0x01\n      dup3\n      add\n      dup1\n      sload\n      tag_287\n      swap1\n      tag_122\n      jump\t// in\n    tag_287:\n      dup1\n      0x1f\n      add\n      0x20\n      dup1\n      swap2\n      div\n      mul\n      0x20\n      add\n      mload(0x40)\n      swap1\n      dup2\n      add\n      0x40\n      mstore\n      dup1\n      swap3\n      swap2\n      swap1\n      dup2\n      dup2\n      mstore\n      0x20\n      add\n      dup3\n      dup1\n      sload\n      tag_288\n      swap1\n      tag_122\n      jump\t// in\n    tag_288:\n      dup1\n      iszero\n      tag_289\n      jumpi\n      dup1\n      0x1f\n      lt\n      tag_290\n      jumpi\n      0x0100\n      dup1\n      dup4\n      sload\n      div\n      mul\n      dup4\n      mstore\n      swap2\n      0x20\n      add\n      swap2\n      jump(tag_289)\n    tag_290:\n      dup3\n      add\n      swap2\n      swap1\n      0x00\n      mstore\n      keccak256(0x00, 0x20)\n      swap1\n    tag_291:\n      dup2\n      sload\n      dup2\n      mstore\n      swap1\n      0x01\n      add\n      swap1\n      0x20\n      add\n      dup1\n      dup4\n      gt\n      tag_291\n      jumpi\n      dup3\n      swap1\n      sub\n      0x1f\n      and\n      dup3\n      add\n      swap2\n    tag_289:\n      pop\n      pop\n      pop\n      pop\n      pop\n      dup2\n      mstore\n      0x20\n      add\n      0x02\n      dup3\n      add\n      dup1\n      sload\n      tag_292\n      swap1\n      tag_122\n      jump\t// in\n    tag_292:\n      dup1\n      0x1f\n      add\n      0x20\n      dup1\n      swap2\n      div\n      mul\n      0x20\n      add\n      mload(0x40)\n      swap1\n      dup2\n      add\n      0x40\n      mstore\n      dup1\n      swap3\n      swap2\n      swap1\n      dup2\n      dup2\n      mstore\n      0x20\n      add\n      dup3\n      dup1\n      sload\n      tag_293\n      swap1\n      tag_122\n      jump\t// in\n    tag_293:\n      dup1\n      iszero\n      tag_294\n      jumpi\n      dup1\n      0x1f\n      lt\n      tag_295\n      jumpi\n      0x0100\n      dup1\n      dup4\n      sload\n      div\n      mul\n      dup4\n      mstore\n      swap2\n      0x20\n      add\n      swap2\n      jump(tag_294)\n    tag_295:\n      dup3\n      add\n      swap2\n      swap1\n      0x00\n      mstore\n      keccak256(0x00, 0x20)\n      swap1\n    tag_296:\n      dup2\n      sload\n      dup2\n      mstore\n      swap1\n      0x01\n      add\n      swap1\n      0x20\n      add\n      dup1\n      dup4\n      gt\n      tag_296\n      jumpi\n      dup3\n      swap1\n      sub\n      0x1f\n      and\n      dup3\n      add\n      swap2\n    tag_294:\n      pop\n      pop\n      pop\n      pop\n      pop\n      dup2\n      mstore\n      0x20\n      add\n      0x03\n      dup3\n      add\n      0x00\n      swap1\n      sload\n      swap1\n      0x0100\n      exp\n      swap1\n      div\n      0xff\n      and\n      iszero\n      iszero\n      iszero\n      iszero\n      dup2\n      mstore\n      0x20\n      add\n      0x04\n      dup3\n      add\n      sload\n      dup2\n      mstore\n      pop\n      pop\n      swap1\n      pop\n        /* \"ReceiverManager.sol\":3088:3246  function getReceiverByAddress(address receiverAddress) external view returns (Receiver memory receiverData) {... */\n      swap2\n      swap1\n      pop\n      jump\t// out\n        /* \"ReceiverManager.sol\":3355:3691  function getAllReceivers() external view returns (Receiver[] memory receiverData) {... */\n    tag_72:\n        /* \"ReceiverManager.sol\":3405:3435  Receiver[] memory receiverData */\n      0x60\n        /* \"ReceiverManager.sol\":3477:3494  receiverAddresses */\n      0x02\n        /* \"ReceiverManager.sol\":3477:3501  receiverAddresses.length */\n      dup1\n      sload\n      swap1\n      pop\n        /* \"ReceiverManager.sol\":3462:3502  new Receiver[](receiverAddresses.length) */\n      0xffffffffffffffff\n      dup2\n      gt\n      iszero\n      tag_298\n      jumpi\n      tag_299\n      tag_109\n      jump\t// in\n    tag_299:\n    tag_298:\n      mload(0x40)\n      swap1\n      dup1\n      dup3\n      mstore\n      dup1\n      0x20\n      mul\n      0x20\n      add\n      dup3\n      add\n      0x40\n      mstore\n      dup1\n      iszero\n      tag_300\n      jumpi\n      dup2\n      0x20\n      add\n    tag_301:\n      tag_302\n      tag_173\n      jump\t// in\n    tag_302:\n      dup2\n      mstore\n      0x20\n      add\n      swap1\n      0x01\n      swap1\n      sub\n      swap1\n      dup2\n      tag_301\n      jumpi\n      swap1\n      pop\n    tag_300:\n      pop\n        /* \"ReceiverManager.sol\":3447:3502  receiverData = new Receiver[](receiverAddresses.length) */\n      swap1\n      pop\n        /* \"ReceiverManager.sol\":3526:3532  uint i */\n      0x00\n        /* \"ReceiverManager.sol\":3535:3536  0 */\n      0x00\n        /* \"ReceiverManager.sol\":3526:3536  uint i = 0 */\n      swap1\n      pop\n        /* \"ReceiverManager.sol\":3521:3647  for (uint i = 0; i < receiverAddresses.length; i++) {... */\n    tag_303:\n        /* \"ReceiverManager.sol\":3542:3559  receiverAddresses */\n      0x02\n        /* \"ReceiverManager.sol\":3542:3566  receiverAddresses.length */\n      dup1\n      sload\n      swap1\n      pop\n        /* \"ReceiverManager.sol\":3538:3539  i */\n      dup2\n        /* \"ReceiverManager.sol\":3538:3566  i < receiverAddresses.length */\n      lt\n        /* \"ReceiverManager.sol\":3521:3647  for (uint i = 0; i < receiverAddresses.length; i++) {... */\n      iszero\n      tag_304\n      jumpi\n        /* \"ReceiverManager.sol\":3605:3614  receivers */\n      0x01\n        /* \"ReceiverManager.sol\":3605:3636  receivers[receiverAddresses[i]] */\n      0x00\n        /* \"ReceiverManager.sol\":3615:3632  receiverAddresses */\n      0x02\n        /* \"ReceiverManager.sol\":3633:3634  i */\n      dup4\n        /* \"ReceiverManager.sol\":3615:3635  receiverAddresses[i] */\n      dup2\n      sload\n      dup2\n      lt\n      tag_306\n      jumpi\n      tag_307\n      tag_119\n      jump\t// in\n    tag_307:\n    tag_306:\n      swap1\n      0x00\n      mstore\n      keccak256(0x00, 0x20)\n      add\n      0x00\n      swap1\n      sload\n      swap1\n      0x0100\n      exp\n      swap1\n      div\n      0xffffffffffffffffffffffffffffffffffffffff\n      and\n        /* \"ReceiverManager.sol\":3605:3636  receivers[receiverAddresses[i]] */\n      0xffffffffffffffffffffffffffffffffffffffff\n      and\n      0xffffffffffffffffffffffffffffffffffffffff\n      and\n      dup2\n      mstore\n      0x20\n      add\n      swap1\n      dup2\n      mstore\n      0x20\n      add\n      0x00\n      keccak256\n        /* \"ReceiverManager.sol\":3587:3636  receiverData[i] = receivers[receiverAddresses[i]] */\n      mload(0x40)\n      dup1\n      0xa0\n      add\n      0x40\n      mstore\n      swap1\n      dup2\n      0x00\n      dup3\n      add\n      0x00\n      swap1\n      sload\n      swap1\n      0x0100\n      exp\n      swap1\n      div\n      0xffffffffffffffffffffffffffffffffffffffff\n      and\n      0xffffffffffffffffffffffffffffffffffffffff\n      and\n      0xffffffffffffffffffffffffffffffffffffffff\n      and\n      dup2\n      mstore\n      0x20\n      add\n      0x01\n      dup3\n      add\n      dup1\n      sload\n      tag_309\n      swap1\n      tag_122\n      jump\t// in\n    tag_309:\n      dup1\n      0x1f\n      add\n      0x20\n      dup1\n      swap2\n      div\n      mul\n      0x20\n      add\n      mload(0x40)\n      swap1\n      dup2\n      add\n      0x40\n      mstore\n      dup1\n      swap3\n      swap2\n      swap1\n      dup2\n      dup2\n      mstore\n      0x20\n      add\n      dup3\n      dup1\n      sload\n      tag_310\n      swap1\n      tag_122\n      jump\t// in\n    tag_310:\n      dup1\n      iszero\n      tag_311\n      jumpi\n      dup1\n      0x1f\n      lt\n      tag_312\n      jumpi\n      0x0100\n      dup1\n      dup4\n      sload\n      div\n      mul\n      dup4\n      mstore\n      swap2\n      0x20\n      add\n      swap2\n      jump(tag_311)\n    tag_312:\n      dup3\n      add\n      swap2\n      swap1\n      0x00\n      mstore\n      keccak256(0x00, 0x20)\n      swap1\n    tag_313:\n      dup2\n      sload\n      dup2\n      mstore\n      swap1\n      0x01\n      add\n      swap1\n      0x20\n      add\n      dup1\n      dup4\n      gt\n      tag_313\n      jumpi\n      dup3\n      swap1\n      sub\n      0x1f\n      and\n      dup3\n      add\n      swap2\n    tag_311:\n      pop\n      pop\n      pop\n      pop\n      pop\n      dup2\n      mstore\n      0x20\n      add\n      0x02\n      dup3\n      add\n      dup1\n      sload\n      tag_314\n      swap1\n      tag_122\n      jump\t// in\n    tag_314:\n      dup1\n      0x1f\n      add\n      0x20\n      dup1\n      swap2\n      div\n      mul\n      0x20\n      add\n      mload(0x40)\n      swap1\n      dup2\n      add\n      0x40\n      mstore\n      dup1\n      swap3\n      swap2\n      swap1\n      dup2\n      dup2\n      mstore\n      0x20\n      add\n      dup3\n      dup1\n      sload\n      tag_315\n      swap1\n      tag_122\n      jump\t// in\n    tag_315:\n      dup1\n      iszero\n      tag_316\n      jumpi\n      dup1\n      0x1f\n      lt\n      tag_317\n      jumpi\n      0x0100\n      dup1\n      dup4\n      sload\n      div\n      mul\n      dup4\n      mstore\n      swap2\n      0x20\n      add\n      swap2\n      jump(tag_316)\n    tag_317:\n      dup3\n      add\n      swap2\n      swap1\n      0x00\n      mstore\n      keccak256(0x00, 0x20)\n      swap1\n    tag_318:\n      dup2\n      sload\n      dup2\n      mstore\n      swap1\n      0x01\n      add\n      swap1\n      0x20\n      add\n      dup1\n      dup4\n      gt\n      tag_318\n      jumpi\n      dup3\n      swap1\n      sub\n      0x1f\n      and\n      dup3\n      add\n      swap2\n    tag_316:\n      pop\n      pop\n      pop\n      pop\n      pop\n      dup2\n      mstore\n      0x20\n      add\n      0x03\n      dup3\n      add\n      0x00\n      swap1\n      sload\n      swap1\n      0x0100\n      exp\n      swap1\n      div\n      0xff\n      and\n      iszero\n      iszero\n      iszero\n      iszero\n      dup2\n      mstore\n      0x20\n      add\n      0x04\n      dup3\n      add\n      sload\n      dup2\n      mstore\n      pop\n      pop\n        /* \"ReceiverManager.sol\":3587:3599  receiverData */\n      dup3\n        /* \"ReceiverManager.sol\":3600:3601  i */\n      dup3\n        /* \"ReceiverManager.sol\":3587:3602  receiverData[i] */\n      dup2\n      mload\n      dup2\n      lt\n      tag_319\n      jumpi\n      tag_320\n      tag_119\n      jump\t// in\n    tag_320:\n    tag_319:\n      0x20\n      mul\n      0x20\n      add\n      add\n        /* \"ReceiverManager.sol\":3587:3636  receiverData[i] = receivers[receiverAddresses[i]] */\n      dup2\n      swap1\n      mstore\n      pop\n        /* \"ReceiverManager.sol\":3568:3571  i++ */\n      dup1\n      dup1\n      0x01\n      add\n      swap2\n      pop\n      pop\n        /* \"ReceiverManager.sol\":3521:3647  for (uint i = 0; i < receiverAddresses.length; i++) {... */\n      jump(tag_303)\n    tag_304:\n      pop\n        /* \"ReceiverManager.sol\":3355:3691  function getAllReceivers() external view returns (Receiver[] memory receiverData) {... */\n      swap1\n      jump\t// out\n        /* \"AllowedTokenManager.sol\":1321:1744  function addToken(address tokenAddress, string memory name, string memory symbol) external onlyOwner isInvalidTokenAddr(tokenAddress) isTokenExists(tokenAddress, true) {... */\n    tag_77:\n        /* \"@openzeppelin/contracts/access/Ownable.sol\":1531:1544  _checkOwner() */\n      tag_322\n        /* \"@openzeppelin/contracts/access/Ownable.sol\":1531:1542  _checkOwner */\n      tag_90\n        /* \"@openzeppelin/contracts/access/Ownable.sol\":1531:1544  _checkOwner() */\n      jump\t// in\n    tag_322:\n        /* \"AllowedTokenManager.sol\":1441:1453  tokenAddress */\n      dup3\n        /* \"AllowedTokenManager.sol\":255:256  0 */\n      0x00\n        /* \"AllowedTokenManager.sol\":231:257  tokenAddress == address(0) */\n      0xffffffffffffffffffffffffffffffffffffffff\n      and\n        /* \"AllowedTokenManager.sol\":231:243  tokenAddress */\n      dup2\n        /* \"AllowedTokenManager.sol\":231:257  tokenAddress == address(0) */\n      0xffffffffffffffffffffffffffffffffffffffff\n      and\n      sub\n        /* \"AllowedTokenManager.sol\":227:316  if (tokenAddress == address(0)) {... */\n      tag_324\n      jumpi\n        /* \"AllowedTokenManager.sol\":273:305  revert (\"Invalid token address\") */\n      mload(0x40)\n      0x08c379a000000000000000000000000000000000000000000000000000000000\n      dup2\n      mstore\n      0x04\n      add\n      tag_325\n      swap1\n      tag_200\n      jump\t// in\n    tag_325:\n      mload(0x40)\n      dup1\n      swap2\n      sub\n      swap1\n      revert\n        /* \"AllowedTokenManager.sol\":227:316  if (tokenAddress == address(0)) {... */\n    tag_324:\n        /* \"AllowedTokenManager.sol\":1469:1481  tokenAddress */\n      dup4\n        /* \"AllowedTokenManager.sol\":1483:1487  true */\n      0x01\n        /* \"AllowedTokenManager.sol\":459:460  0 */\n      0x00\n        /* \"AllowedTokenManager.sol\":411:461  allowedTokens[tokenAddress]._address != address(0) */\n      0xffffffffffffffffffffffffffffffffffffffff\n      and\n        /* \"AllowedTokenManager.sol\":411:424  allowedTokens */\n      0x03\n        /* \"AllowedTokenManager.sol\":411:438  allowedTokens[tokenAddress] */\n      0x00\n        /* \"AllowedTokenManager.sol\":425:437  tokenAddress */\n      dup5\n        /* \"AllowedTokenManager.sol\":411:438  allowedTokens[tokenAddress] */\n      0xffffffffffffffffffffffffffffffffffffffff\n      and\n      0xffffffffffffffffffffffffffffffffffffffff\n      and\n      dup2\n      mstore\n      0x20\n      add\n      swap1\n      dup2\n      mstore\n      0x20\n      add\n      0x00\n      keccak256\n        /* \"AllowedTokenManager.sol\":411:447  allowedTokens[tokenAddress]._address */\n      0x00\n      add\n      0x00\n      swap1\n      sload\n      swap1\n      0x0100\n      exp\n      swap1\n      div\n      0xffffffffffffffffffffffffffffffffffffffff\n      and\n        /* \"AllowedTokenManager.sol\":411:461  allowedTokens[tokenAddress]._address != address(0) */\n      0xffffffffffffffffffffffffffffffffffffffff\n      and\n      eq\n      iszero\n        /* \"AllowedTokenManager.sol\":411:479  allowedTokens[tokenAddress]._address != address(0) && status == true */\n      dup1\n      iszero\n      tag_327\n      jumpi\n      pop\n        /* \"AllowedTokenManager.sol\":475:479  true */\n      0x01\n        /* \"AllowedTokenManager.sol\":465:479  status == true */\n      iszero\n      iszero\n        /* \"AllowedTokenManager.sol\":465:471  status */\n      dup2\n        /* \"AllowedTokenManager.sol\":465:479  status == true */\n      iszero\n      iszero\n      eq\n        /* \"AllowedTokenManager.sol\":411:479  allowedTokens[tokenAddress]._address != address(0) && status == true */\n    tag_327:\n        /* \"AllowedTokenManager.sol\":407:681  if (allowedTokens[tokenAddress]._address != address(0) && status == true) {... */\n      iszero\n      tag_328\n      jumpi\n        /* \"AllowedTokenManager.sol\":495:526  revert (\"Token already exists\") */\n      mload(0x40)\n      0x08c379a000000000000000000000000000000000000000000000000000000000\n      dup2\n      mstore\n      0x04\n      add\n      tag_329\n      swap1\n      tag_205\n      jump\t// in\n    tag_329:\n      mload(0x40)\n      dup1\n      swap2\n      sub\n      swap1\n      revert\n        /* \"AllowedTokenManager.sol\":407:681  if (allowedTokens[tokenAddress]._address != address(0) && status == true) {... */\n    tag_328:\n        /* \"AllowedTokenManager.sol\":603:604  0 */\n      0x00\n        /* \"AllowedTokenManager.sol\":555:605  allowedTokens[tokenAddress]._address == address(0) */\n      0xffffffffffffffffffffffffffffffffffffffff\n      and\n        /* \"AllowedTokenManager.sol\":555:568  allowedTokens */\n      0x03\n        /* \"AllowedTokenManager.sol\":555:582  allowedTokens[tokenAddress] */\n      0x00\n        /* \"AllowedTokenManager.sol\":569:581  tokenAddress */\n      dup5\n        /* \"AllowedTokenManager.sol\":555:582  allowedTokens[tokenAddress] */\n      0xffffffffffffffffffffffffffffffffffffffff\n      and\n      0xffffffffffffffffffffffffffffffffffffffff\n      and\n      dup2\n      mstore\n      0x20\n      add\n      swap1\n      dup2\n      mstore\n      0x20\n      add\n      0x00\n      keccak256\n        /* \"AllowedTokenManager.sol\":555:591  allowedTokens[tokenAddress]._address */\n      0x00\n      add\n      0x00\n      swap1\n      sload\n      swap1\n      0x0100\n      exp\n      swap1\n      div\n      0xffffffffffffffffffffffffffffffffffffffff\n      and\n        /* \"AllowedTokenManager.sol\":555:605  allowedTokens[tokenAddress]._address == address(0) */\n      0xffffffffffffffffffffffffffffffffffffffff\n      and\n      eq\n        /* \"AllowedTokenManager.sol\":555:624  allowedTokens[tokenAddress]._address == address(0) && status == false */\n      dup1\n      iszero\n      tag_331\n      jumpi\n      pop\n        /* \"AllowedTokenManager.sol\":619:624  false */\n      0x00\n        /* \"AllowedTokenManager.sol\":609:624  status == false */\n      iszero\n      iszero\n        /* \"AllowedTokenManager.sol\":609:615  status */\n      dup2\n        /* \"AllowedTokenManager.sol\":609:624  status == false */\n      iszero\n      iszero\n      eq\n        /* \"AllowedTokenManager.sol\":555:624  allowedTokens[tokenAddress]._address == address(0) && status == false */\n    tag_331:\n        /* \"AllowedTokenManager.sol\":551:681  if (allowedTokens[tokenAddress]._address == address(0) && status == false) {... */\n      iszero\n      tag_332\n      jumpi\n        /* \"AllowedTokenManager.sol\":640:670  revert (\"Token is not exists\") */\n      mload(0x40)\n      0x08c379a000000000000000000000000000000000000000000000000000000000\n      dup2\n      mstore\n      0x04\n      add\n      tag_333\n      swap1\n      tag_210\n      jump\t// in\n    tag_333:\n      mload(0x40)\n      dup1\n      swap2\n      sub\n      swap1\n      revert\n        /* \"AllowedTokenManager.sol\":551:681  if (allowedTokens[tokenAddress]._address == address(0) && status == false) {... */\n    tag_332:\n        /* \"AllowedTokenManager.sol\":1528:1529  0 */\n      0x00\n        /* \"AllowedTokenManager.sol\":1513:1517  name */\n      dup6\n        /* \"AllowedTokenManager.sol\":1507:1525  bytes(name).length */\n      mload\n        /* \"AllowedTokenManager.sol\":1507:1529  bytes(name).length > 0 */\n      gt\n        /* \"AllowedTokenManager.sol\":1507:1557  bytes(name).length > 0 && bytes(symbol).length > 0 */\n      dup1\n      iszero\n      tag_335\n      jumpi\n      pop\n        /* \"AllowedTokenManager.sol\":1556:1557  0 */\n      0x00\n        /* \"AllowedTokenManager.sol\":1539:1545  symbol */\n      dup5\n        /* \"AllowedTokenManager.sol\":1533:1553  bytes(symbol).length */\n      mload\n        /* \"AllowedTokenManager.sol\":1533:1557  bytes(symbol).length > 0 */\n      gt\n        /* \"AllowedTokenManager.sol\":1507:1557  bytes(name).length > 0 && bytes(symbol).length > 0 */\n    tag_335:\n        /* \"AllowedTokenManager.sol\":1499:1598  require(bytes(name).length > 0 && bytes(symbol).length > 0, \"Missing receiver name or description\") */\n      tag_336\n      jumpi\n      mload(0x40)\n      0x08c379a000000000000000000000000000000000000000000000000000000000\n      dup2\n      mstore\n      0x04\n      add\n      tag_337\n      swap1\n      tag_338\n      jump\t// in\n    tag_337:\n      mload(0x40)\n      dup1\n      swap2\n      sub\n      swap1\n      revert\n    tag_336:\n        /* \"AllowedTokenManager.sol\":1639:1688  AllowedToken(tokenAddress, name, symbol, true, 0) */\n      mload(0x40)\n      dup1\n      0xa0\n      add\n      0x40\n      mstore\n      dup1\n        /* \"AllowedTokenManager.sol\":1652:1664  tokenAddress */\n      dup8\n        /* \"AllowedTokenManager.sol\":1639:1688  AllowedToken(tokenAddress, name, symbol, true, 0) */\n      0xffffffffffffffffffffffffffffffffffffffff\n      and\n      dup2\n      mstore\n      0x20\n      add\n        /* \"AllowedTokenManager.sol\":1666:1670  name */\n      dup7\n        /* \"AllowedTokenManager.sol\":1639:1688  AllowedToken(tokenAddress, name, symbol, true, 0) */\n      dup2\n      mstore\n      0x20\n      add\n        /* \"AllowedTokenManager.sol\":1672:1678  symbol */\n      dup6\n        /* \"AllowedTokenManager.sol\":1639:1688  AllowedToken(tokenAddress, name, symbol, true, 0) */\n      dup2\n      mstore\n      0x20\n      add\n        /* \"AllowedTokenManager.sol\":1680:1684  true */\n      0x01\n        /* \"AllowedTokenManager.sol\":1639:1688  AllowedToken(tokenAddress, name, symbol, true, 0) */\n      iszero\n      iszero\n      dup2\n      mstore\n      0x20\n      add\n        /* \"AllowedTokenManager.sol\":1686:1687  0 */\n      0x00\n        /* \"AllowedTokenManager.sol\":1639:1688  AllowedToken(tokenAddress, name, symbol, true, 0) */\n      dup2\n      mstore\n      pop\n        /* \"AllowedTokenManager.sol\":1609:1622  allowedTokens */\n      0x03\n        /* \"AllowedTokenManager.sol\":1609:1636  allowedTokens[tokenAddress] */\n      0x00\n        /* \"AllowedTokenManager.sol\":1623:1635  tokenAddress */\n      dup9\n        /* \"AllowedTokenManager.sol\":1609:1636  allowedTokens[tokenAddress] */\n      0xffffffffffffffffffffffffffffffffffffffff\n      and\n      0xffffffffffffffffffffffffffffffffffffffff\n      and\n      dup2\n      mstore\n      0x20\n      add\n      swap1\n      dup2\n      mstore\n      0x20\n      add\n      0x00\n      keccak256\n        /* \"AllowedTokenManager.sol\":1609:1688  allowedTokens[tokenAddress] = AllowedToken(tokenAddress, name, symbol, true, 0) */\n      0x00\n      dup3\n      add\n      mload\n      dup2\n      0x00\n      add\n      exp(0x0100, 0x00)\n      dup2\n      sload\n      dup2\n      0xffffffffffffffffffffffffffffffffffffffff\n      mul\n      not\n      and\n      swap1\n      dup4\n      0xffffffffffffffffffffffffffffffffffffffff\n      and\n      mul\n      or\n      swap1\n      sstore\n      pop\n      0x20\n      dup3\n      add\n      mload\n      dup2\n      0x01\n      add\n      swap1\n      dup2\n      tag_339\n      swap2\n      swap1\n      tag_340\n      jump\t// in\n    tag_339:\n      pop\n      0x40\n      dup3\n      add\n      mload\n      dup2\n      0x02\n      add\n      swap1\n      dup2\n      tag_341\n      swap2\n      swap1\n      tag_340\n      jump\t// in\n    tag_341:\n      pop\n      0x60\n      dup3\n      add\n      mload\n      dup2\n      0x03\n      add\n      exp(0x0100, 0x00)\n      dup2\n      sload\n      dup2\n      0xff\n      mul\n      not\n      and\n      swap1\n      dup4\n      iszero\n      iszero\n      mul\n      or\n      swap1\n      sstore\n      pop\n      0x80\n      dup3\n      add\n      mload\n      dup2\n      0x04\n      add\n      sstore\n      swap1\n      pop\n      pop\n        /* \"AllowedTokenManager.sol\":1698:1718  allowedTokenAdresses */\n      0x04\n        /* \"AllowedTokenManager.sol\":1724:1736  tokenAddress */\n      dup7\n        /* \"AllowedTokenManager.sol\":1698:1737  allowedTokenAdresses.push(tokenAddress) */\n      swap1\n      dup1\n      0x01\n      dup2\n      sload\n      add\n      dup1\n      dup3\n      sstore\n      dup1\n      swap2\n      pop\n      pop\n      0x01\n      swap1\n      sub\n      swap1\n      0x00\n      mstore\n      keccak256(0x00, 0x20)\n      add\n      0x00\n      swap1\n      swap2\n      swap1\n      swap2\n      swap1\n      swap2\n      0x0100\n      exp\n      dup2\n      sload\n      dup2\n      0xffffffffffffffffffffffffffffffffffffffff\n      mul\n      not\n      and\n      swap1\n      dup4\n      0xffffffffffffffffffffffffffffffffffffffff\n      and\n      mul\n      or\n      swap1\n      sstore\n      pop\n        /* \"AllowedTokenManager.sol\":325:326  _ */\n      pop\n      pop\n        /* \"@openzeppelin/contracts/access/Ownable.sol\":1554:1555  _ */\n      pop\n        /* \"AllowedTokenManager.sol\":1321:1744  function addToken(address tokenAddress, string memory name, string memory symbol) external onlyOwner isInvalidTokenAddr(tokenAddress) isTokenExists(tokenAddress, true) {... */\n      pop\n      pop\n      pop\n      jump\t// out\n        /* \"ReceiverManager.sol\":1358:1816  function addReceiver(address receiverAddress, string calldata name, string calldata description) external onlyOwner isInvalidReceiverAddr(receiverAddress) isReceiverExists(receiverAddress, true) {... */\n    tag_81:\n        /* \"@openzeppelin/contracts/access/Ownable.sol\":1531:1544  _checkOwner() */\n      tag_344\n        /* \"@openzeppelin/contracts/access/Ownable.sol\":1531:1542  _checkOwner */\n      tag_90\n        /* \"@openzeppelin/contracts/access/Ownable.sol\":1531:1544  _checkOwner() */\n      jump\t// in\n    tag_344:\n        /* \"ReceiverManager.sol\":1496:1511  receiverAddress */\n      dup5\n        /* \"ReceiverManager.sol\":260:261  0 */\n      0x00\n        /* \"ReceiverManager.sol\":233:262  receiverAddress == address(0) */\n      0xffffffffffffffffffffffffffffffffffffffff\n      and\n        /* \"ReceiverManager.sol\":233:248  receiverAddress */\n      dup2\n        /* \"ReceiverManager.sol\":233:262  receiverAddress == address(0) */\n      0xffffffffffffffffffffffffffffffffffffffff\n      and\n      sub\n        /* \"ReceiverManager.sol\":229:324  if (receiverAddress == address(0)) {... */\n      tag_346\n      jumpi\n        /* \"ReceiverManager.sol\":278:313  revert (\"Invalid receiver address\") */\n      mload(0x40)\n      0x08c379a000000000000000000000000000000000000000000000000000000000\n      dup2\n      mstore\n      0x04\n      add\n      tag_347\n      swap1\n      tag_94\n      jump\t// in\n    tag_347:\n      mload(0x40)\n      dup1\n      swap2\n      sub\n      swap1\n      revert\n        /* \"ReceiverManager.sol\":229:324  if (receiverAddress == address(0)) {... */\n    tag_346:\n        /* \"ReceiverManager.sol\":1530:1545  receiverAddress */\n      dup6\n        /* \"ReceiverManager.sol\":1547:1551  true */\n      0x01\n        /* \"ReceiverManager.sol\":472:473  0 */\n      0x00\n        /* \"ReceiverManager.sol\":425:474  receivers[receiverAddress]._address != address(0) */\n      0xffffffffffffffffffffffffffffffffffffffff\n      and\n        /* \"ReceiverManager.sol\":425:434  receivers */\n      0x01\n        /* \"ReceiverManager.sol\":425:451  receivers[receiverAddress] */\n      0x00\n        /* \"ReceiverManager.sol\":435:450  receiverAddress */\n      dup5\n        /* \"ReceiverManager.sol\":425:451  receivers[receiverAddress] */\n      0xffffffffffffffffffffffffffffffffffffffff\n      and\n      0xffffffffffffffffffffffffffffffffffffffff\n      and\n      dup2\n      mstore\n      0x20\n      add\n      swap1\n      dup2\n      mstore\n      0x20\n      add\n      0x00\n      keccak256\n        /* \"ReceiverManager.sol\":425:460  receivers[receiverAddress]._address */\n      0x00\n      add\n      0x00\n      swap1\n      sload\n      swap1\n      0x0100\n      exp\n      swap1\n      div\n      0xffffffffffffffffffffffffffffffffffffffff\n      and\n        /* \"ReceiverManager.sol\":425:474  receivers[receiverAddress]._address != address(0) */\n      0xffffffffffffffffffffffffffffffffffffffff\n      and\n      eq\n      iszero\n        /* \"ReceiverManager.sol\":425:492  receivers[receiverAddress]._address != address(0) && status == true */\n      dup1\n      iszero\n      tag_349\n      jumpi\n      pop\n        /* \"ReceiverManager.sol\":488:492  true */\n      0x01\n        /* \"ReceiverManager.sol\":478:492  status == true */\n      iszero\n      iszero\n        /* \"ReceiverManager.sol\":478:484  status */\n      dup2\n        /* \"ReceiverManager.sol\":478:492  status == true */\n      iszero\n      iszero\n      eq\n        /* \"ReceiverManager.sol\":425:492  receivers[receiverAddress]._address != address(0) && status == true */\n    tag_349:\n        /* \"ReceiverManager.sol\":421:699  if (receivers[receiverAddress]._address != address(0) && status == true) {... */\n      iszero\n      tag_350\n      jumpi\n        /* \"ReceiverManager.sol\":508:542  revert (\"Receiver already exists\") */\n      mload(0x40)\n      0x08c379a000000000000000000000000000000000000000000000000000000000\n      dup2\n      mstore\n      0x04\n      add\n      tag_351\n      swap1\n      tag_99\n      jump\t// in\n    tag_351:\n      mload(0x40)\n      dup1\n      swap2\n      sub\n      swap1\n      revert\n        /* \"ReceiverManager.sol\":421:699  if (receivers[receiverAddress]._address != address(0) && status == true) {... */\n    tag_350:\n        /* \"ReceiverManager.sol\":618:619  0 */\n      0x00\n        /* \"ReceiverManager.sol\":571:620  receivers[receiverAddress]._address == address(0) */\n      0xffffffffffffffffffffffffffffffffffffffff\n      and\n        /* \"ReceiverManager.sol\":571:580  receivers */\n      0x01\n        /* \"ReceiverManager.sol\":571:597  receivers[receiverAddress] */\n      0x00\n        /* \"ReceiverManager.sol\":581:596  receiverAddress */\n      dup5\n        /* \"ReceiverManager.sol\":571:597  receivers[receiverAddress] */\n      0xffffffffffffffffffffffffffffffffffffffff\n      and\n      0xffffffffffffffffffffffffffffffffffffffff\n      and\n      dup2\n      mstore\n      0x20\n      add\n      swap1\n      dup2\n      mstore\n      0x20\n      add\n      0x00\n      keccak256\n        /* \"ReceiverManager.sol\":571:606  receivers[receiverAddress]._address */\n      0x00\n      add\n      0x00\n      swap1\n      sload\n      swap1\n      0x0100\n      exp\n      swap1\n      div\n      0xffffffffffffffffffffffffffffffffffffffff\n      and\n        /* \"ReceiverManager.sol\":571:620  receivers[receiverAddress]._address == address(0) */\n      0xffffffffffffffffffffffffffffffffffffffff\n      and\n      eq\n        /* \"ReceiverManager.sol\":571:639  receivers[receiverAddress]._address == address(0) && status == false */\n      dup1\n      iszero\n      tag_353\n      jumpi\n      pop\n        /* \"ReceiverManager.sol\":634:639  false */\n      0x00\n        /* \"ReceiverManager.sol\":624:639  status == false */\n      iszero\n      iszero\n        /* \"ReceiverManager.sol\":624:630  status */\n      dup2\n        /* \"ReceiverManager.sol\":624:639  status == false */\n      iszero\n      iszero\n      eq\n        /* \"ReceiverManager.sol\":571:639  receivers[receiverAddress]._address == address(0) && status == false */\n    tag_353:\n        /* \"ReceiverManager.sol\":567:699  if (receivers[receiverAddress]._address == address(0) && status == false) {... */\n      iszero\n      tag_354\n      jumpi\n        /* \"ReceiverManager.sol\":655:688  revert (\"Receiver is not exists\") */\n      mload(0x40)\n      0x08c379a000000000000000000000000000000000000000000000000000000000\n      dup2\n      mstore\n      0x04\n      add\n      tag_355\n      swap1\n      tag_104\n      jump\t// in\n    tag_355:\n      mload(0x40)\n      dup1\n      swap2\n      sub\n      swap1\n      revert\n        /* \"ReceiverManager.sol\":567:699  if (receivers[receiverAddress]._address == address(0) && status == false) {... */\n    tag_354:\n        /* \"ReceiverManager.sol\":1592:1593  0 */\n      0x00\n        /* \"ReceiverManager.sol\":1577:1581  name */\n      dup8\n      dup8\n        /* \"ReceiverManager.sol\":1571:1589  bytes(name).length */\n      swap1\n      pop\n        /* \"ReceiverManager.sol\":1571:1593  bytes(name).length > 0 */\n      gt\n        /* \"ReceiverManager.sol\":1571:1626  bytes(name).length > 0 && bytes(description).length > 0 */\n      dup1\n      iszero\n      tag_357\n      jumpi\n      pop\n        /* \"ReceiverManager.sol\":1625:1626  0 */\n      0x00\n        /* \"ReceiverManager.sol\":1603:1614  description */\n      dup6\n      dup6\n        /* \"ReceiverManager.sol\":1597:1622  bytes(description).length */\n      swap1\n      pop\n        /* \"ReceiverManager.sol\":1597:1626  bytes(description).length > 0 */\n      gt\n        /* \"ReceiverManager.sol\":1571:1626  bytes(name).length > 0 && bytes(description).length > 0 */\n    tag_357:\n        /* \"ReceiverManager.sol\":1563:1667  require(bytes(name).length > 0 && bytes(description).length > 0, \"Missing receiver name or description\") */\n      tag_358\n      jumpi\n      mload(0x40)\n      0x08c379a000000000000000000000000000000000000000000000000000000000\n      dup2\n      mstore\n      0x04\n      add\n      tag_359\n      swap1\n      tag_338\n      jump\t// in\n    tag_359:\n      mload(0x40)\n      dup1\n      swap2\n      sub\n      swap1\n      revert\n    tag_358:\n        /* \"ReceiverManager.sol\":1707:1760  Receiver(receiverAddress, name, description, true, 0) */\n      mload(0x40)\n      dup1\n      0xa0\n      add\n      0x40\n      mstore\n      dup1\n        /* \"ReceiverManager.sol\":1716:1731  receiverAddress */\n      dup10\n        /* \"ReceiverManager.sol\":1707:1760  Receiver(receiverAddress, name, description, true, 0) */\n      0xffffffffffffffffffffffffffffffffffffffff\n      and\n      dup2\n      mstore\n      0x20\n      add\n        /* \"ReceiverManager.sol\":1733:1737  name */\n      dup9\n      dup9\n        /* \"ReceiverManager.sol\":1707:1760  Receiver(receiverAddress, name, description, true, 0) */\n      dup1\n      dup1\n      0x1f\n      add\n      0x20\n      dup1\n      swap2\n      div\n      mul\n      0x20\n      add\n      mload(0x40)\n      swap1\n      dup2\n      add\n      0x40\n      mstore\n      dup1\n      swap4\n      swap3\n      swap2\n      swap1\n      dup2\n      dup2\n      mstore\n      0x20\n      add\n      dup4\n      dup4\n      dup1\n      dup3\n      dup5\n      calldatacopy\n      0x00\n      dup2\n      dup5\n      add\n      mstore\n      not(0x1f)\n      0x1f\n      dup3\n      add\n      and\n      swap1\n      pop\n      dup1\n      dup4\n      add\n      swap3\n      pop\n      pop\n      pop\n      pop\n      pop\n      pop\n      pop\n      dup2\n      mstore\n      0x20\n      add\n        /* \"ReceiverManager.sol\":1739:1750  description */\n      dup7\n      dup7\n        /* \"ReceiverManager.sol\":1707:1760  Receiver(receiverAddress, name, description, true, 0) */\n      dup1\n      dup1\n      0x1f\n      add\n      0x20\n      dup1\n      swap2\n      div\n      mul\n      0x20\n      add\n      mload(0x40)\n      swap1\n      dup2\n      add\n      0x40\n      mstore\n      dup1\n      swap4\n      swap3\n      swap2\n      swap1\n      dup2\n      dup2\n      mstore\n      0x20\n      add\n      dup4\n      dup4\n      dup1\n      dup3\n      dup5\n      calldatacopy\n      0x00\n      dup2\n      dup5\n      add\n      mstore\n      not(0x1f)\n      0x1f\n      dup3\n      add\n      and\n      swap1\n      pop\n      dup1\n      dup4\n      add\n      swap3\n      pop\n      pop\n      pop\n      pop\n      pop\n      pop\n      pop\n      dup2\n      mstore\n      0x20\n      add\n        /* \"ReceiverManager.sol\":1752:1756  true */\n      0x01\n        /* \"ReceiverManager.sol\":1707:1760  Receiver(receiverAddress, name, description, true, 0) */\n      iszero\n      iszero\n      dup2\n      mstore\n      0x20\n      add\n        /* \"ReceiverManager.sol\":1758:1759  0 */\n      0x00\n        /* \"ReceiverManager.sol\":1707:1760  Receiver(receiverAddress, name, description, true, 0) */\n      dup2\n      mstore\n      pop\n        /* \"ReceiverManager.sol\":1678:1687  receivers */\n      0x01\n        /* \"ReceiverManager.sol\":1678:1704  receivers[receiverAddress] */\n      0x00\n        /* \"ReceiverManager.sol\":1688:1703  receiverAddress */\n      dup11\n        /* \"ReceiverManager.sol\":1678:1704  receivers[receiverAddress] */\n      0xffffffffffffffffffffffffffffffffffffffff\n      and\n      0xffffffffffffffffffffffffffffffffffffffff\n      and\n      dup2\n      mstore\n      0x20\n      add\n      swap1\n      dup2\n      mstore\n      0x20\n      add\n      0x00\n      keccak256\n        /* \"ReceiverManager.sol\":1678:1760  receivers[receiverAddress] = Receiver(receiverAddress, name, description, true, 0) */\n      0x00\n      dup3\n      add\n      mload\n      dup2\n      0x00\n      add\n      exp(0x0100, 0x00)\n      dup2\n      sload\n      dup2\n      0xffffffffffffffffffffffffffffffffffffffff\n      mul\n      not\n      and\n      swap1\n      dup4\n      0xffffffffffffffffffffffffffffffffffffffff\n      and\n      mul\n      or\n      swap1\n      sstore\n      pop\n      0x20\n      dup3\n      add\n      mload\n      dup2\n      0x01\n      add\n      swap1\n      dup2\n      tag_360\n      swap2\n      swap1\n      tag_340\n      jump\t// in\n    tag_360:\n      pop\n      0x40\n      dup3\n      add\n      mload\n      dup2\n      0x02\n      add\n      swap1\n      dup2\n      tag_361\n      swap2\n      swap1\n      tag_340\n      jump\t// in\n    tag_361:\n      pop\n      0x60\n      dup3\n      add\n      mload\n      dup2\n      0x03\n      add\n      exp(0x0100, 0x00)\n      dup2\n      sload\n      dup2\n      0xff\n      mul\n      not\n      and\n      swap1\n      dup4\n      iszero\n      iszero\n      mul\n      or\n      swap1\n      sstore\n      pop\n      0x80\n      dup3\n      add\n      mload\n      dup2\n      0x04\n      add\n      sstore\n      swap1\n      pop\n      pop\n        /* \"ReceiverManager.sol\":1770:1787  receiverAddresses */\n      0x02\n        /* \"ReceiverManager.sol\":1793:1808  receiverAddress */\n      dup9\n        /* \"ReceiverManager.sol\":1770:1809  receiverAddresses.push(receiverAddress) */\n      swap1\n      dup1\n      0x01\n      dup2\n      sload\n      add\n      dup1\n      dup3\n      sstore\n      dup1\n      swap2\n      pop\n      pop\n      0x01\n      swap1\n      sub\n      swap1\n      0x00\n      mstore\n      keccak256(0x00, 0x20)\n      add\n      0x00\n      swap1\n      swap2\n      swap1\n      swap2\n      swap1\n      swap2\n      0x0100\n      exp\n      dup2\n      sload\n      dup2\n      0xffffffffffffffffffffffffffffffffffffffff\n      mul\n      not\n      and\n      swap1\n      dup4\n      0xffffffffffffffffffffffffffffffffffffffff\n      and\n      mul\n      or\n      swap1\n      sstore\n      pop\n        /* \"ReceiverManager.sol\":333:334  _ */\n      pop\n      pop\n        /* \"@openzeppelin/contracts/access/Ownable.sol\":1554:1555  _ */\n      pop\n        /* \"ReceiverManager.sol\":1358:1816  function addReceiver(address receiverAddress, string calldata name, string calldata description) external onlyOwner isInvalidReceiverAddr(receiverAddress) isReceiverExists(receiverAddress, true) {... */\n      pop\n      pop\n      pop\n      pop\n      pop\n      jump\t// out\n        /* \"AllowedTokenManager.sol\":1904:2138  function updateTokenActivity(address tokenAddress) external onlyOwner isInvalidTokenAddr(tokenAddress) isTokenExists(tokenAddress, false){  ... */\n    tag_84:\n        /* \"@openzeppelin/contracts/access/Ownable.sol\":1531:1544  _checkOwner() */\n      tag_364\n        /* \"@openzeppelin/contracts/access/Ownable.sol\":1531:1542  _checkOwner */\n      tag_90\n        /* \"@openzeppelin/contracts/access/Ownable.sol\":1531:1544  _checkOwner() */\n      jump\t// in\n    tag_364:\n        /* \"AllowedTokenManager.sol\":1993:2005  tokenAddress */\n      dup1\n        /* \"AllowedTokenManager.sol\":255:256  0 */\n      0x00\n        /* \"AllowedTokenManager.sol\":231:257  tokenAddress == address(0) */\n      0xffffffffffffffffffffffffffffffffffffffff\n      and\n        /* \"AllowedTokenManager.sol\":231:243  tokenAddress */\n      dup2\n        /* \"AllowedTokenManager.sol\":231:257  tokenAddress == address(0) */\n      0xffffffffffffffffffffffffffffffffffffffff\n      and\n      sub\n        /* \"AllowedTokenManager.sol\":227:316  if (tokenAddress == address(0)) {... */\n      tag_366\n      jumpi\n        /* \"AllowedTokenManager.sol\":273:305  revert (\"Invalid token address\") */\n      mload(0x40)\n      0x08c379a000000000000000000000000000000000000000000000000000000000\n      dup2\n      mstore\n      0x04\n      add\n      tag_367\n      swap1\n      tag_200\n      jump\t// in\n    tag_367:\n      mload(0x40)\n      dup1\n      swap2\n      sub\n      swap1\n      revert\n        /* \"AllowedTokenManager.sol\":227:316  if (tokenAddress == address(0)) {... */\n    tag_366:\n        /* \"AllowedTokenManager.sol\":2021:2033  tokenAddress */\n      dup2\n        /* \"AllowedTokenManager.sol\":2035:2040  false */\n      0x00\n        /* \"AllowedTokenManager.sol\":459:460  0 */\n      0x00\n        /* \"AllowedTokenManager.sol\":411:461  allowedTokens[tokenAddress]._address != address(0) */\n      0xffffffffffffffffffffffffffffffffffffffff\n      and\n        /* \"AllowedTokenManager.sol\":411:424  allowedTokens */\n      0x03\n        /* \"AllowedTokenManager.sol\":411:438  allowedTokens[tokenAddress] */\n      0x00\n        /* \"AllowedTokenManager.sol\":425:437  tokenAddress */\n      dup5\n        /* \"AllowedTokenManager.sol\":411:438  allowedTokens[tokenAddress] */\n      0xffffffffffffffffffffffffffffffffffffffff\n      and\n      0xffffffffffffffffffffffffffffffffffffffff\n      and\n      dup2\n      mstore\n      0x20\n      add\n      swap1\n      dup2\n      mstore\n      0x20\n      add\n      0x00\n      keccak256\n        /* \"AllowedTokenManager.sol\":411:447  allowedTokens[tokenAddress]._address */\n      0x00\n      add\n      0x00\n      swap1\n      sload\n      swap1\n      0x0100\n      exp\n      swap1\n      div\n      0xffffffffffffffffffffffffffffffffffffffff\n      and\n        /* \"AllowedTokenManager.sol\":411:461  allowedTokens[tokenAddress]._address != address(0) */\n      0xffffffffffffffffffffffffffffffffffffffff\n      and\n      eq\n      iszero\n        /* \"AllowedTokenManager.sol\":411:479  allowedTokens[tokenAddress]._address != address(0) && status == true */\n      dup1\n      iszero\n      tag_369\n      jumpi\n      pop\n        /* \"AllowedTokenManager.sol\":475:479  true */\n      0x01\n        /* \"AllowedTokenManager.sol\":465:479  status == true */\n      iszero\n      iszero\n        /* \"AllowedTokenManager.sol\":465:471  status */\n      dup2\n        /* \"AllowedTokenManager.sol\":465:479  status == true */\n      iszero\n      iszero\n      eq\n        /* \"AllowedTokenManager.sol\":411:479  allowedTokens[tokenAddress]._address != address(0) && status == true */\n    tag_369:\n        /* \"AllowedTokenManager.sol\":407:681  if (allowedTokens[tokenAddress]._address != address(0) && status == true) {... */\n      iszero\n      tag_370\n      jumpi\n        /* \"AllowedTokenManager.sol\":495:526  revert (\"Token already exists\") */\n      mload(0x40)\n      0x08c379a000000000000000000000000000000000000000000000000000000000\n      dup2\n      mstore\n      0x04\n      add\n      tag_371\n      swap1\n      tag_205\n      jump\t// in\n    tag_371:\n      mload(0x40)\n      dup1\n      swap2\n      sub\n      swap1\n      revert\n        /* \"AllowedTokenManager.sol\":407:681  if (allowedTokens[tokenAddress]._address != address(0) && status == true) {... */\n    tag_370:\n        /* \"AllowedTokenManager.sol\":603:604  0 */\n      0x00\n        /* \"AllowedTokenManager.sol\":555:605  allowedTokens[tokenAddress]._address == address(0) */\n      0xffffffffffffffffffffffffffffffffffffffff\n      and\n        /* \"AllowedTokenManager.sol\":555:568  allowedTokens */\n      0x03\n        /* \"AllowedTokenManager.sol\":555:582  allowedTokens[tokenAddress] */\n      0x00\n        /* \"AllowedTokenManager.sol\":569:581  tokenAddress */\n      dup5\n        /* \"AllowedTokenManager.sol\":555:582  allowedTokens[tokenAddress] */\n      0xffffffffffffffffffffffffffffffffffffffff\n      and\n      0xffffffffffffffffffffffffffffffffffffffff\n      and\n      dup2\n      mstore\n      0x20\n      add\n      swap1\n      dup2\n      mstore\n      0x20\n      add\n      0x00\n      keccak256\n        /* \"AllowedTokenManager.sol\":555:591  allowedTokens[tokenAddress]._address */\n      0x00\n      add\n      0x00\n      swap1\n      sload\n      swap1\n      0x0100\n      exp\n      swap1\n      div\n      0xffffffffffffffffffffffffffffffffffffffff\n      and\n        /* \"AllowedTokenManager.sol\":555:605  allowedTokens[tokenAddress]._address == address(0) */\n      0xffffffffffffffffffffffffffffffffffffffff\n      and\n      eq\n        /* \"AllowedTokenManager.sol\":555:624  allowedTokens[tokenAddress]._address == address(0) && status == false */\n      dup1\n      iszero\n      tag_373\n      jumpi\n      pop\n        /* \"AllowedTokenManager.sol\":619:624  false */\n      0x00\n        /* \"AllowedTokenManager.sol\":609:624  status == false */\n      iszero\n      iszero\n        /* \"AllowedTokenManager.sol\":609:615  status */\n      dup2\n        /* \"AllowedTokenManager.sol\":609:624  status == false */\n      iszero\n      iszero\n      eq\n        /* \"AllowedTokenManager.sol\":555:624  allowedTokens[tokenAddress]._address == address(0) && status == false */\n    tag_373:\n        /* \"AllowedTokenManager.sol\":551:681  if (allowedTokens[tokenAddress]._address == address(0) && status == false) {... */\n      iszero\n      tag_374\n      jumpi\n        /* \"AllowedTokenManager.sol\":640:670  revert (\"Token is not exists\") */\n      mload(0x40)\n      0x08c379a000000000000000000000000000000000000000000000000000000000\n      dup2\n      mstore\n      0x04\n      add\n      tag_375\n      swap1\n      tag_210\n      jump\t// in\n    tag_375:\n      mload(0x40)\n      dup1\n      swap2\n      sub\n      swap1\n      revert\n        /* \"AllowedTokenManager.sol\":551:681  if (allowedTokens[tokenAddress]._address == address(0) && status == false) {... */\n    tag_374:\n        /* \"AllowedTokenManager.sol\":2094:2107  allowedTokens */\n      0x03\n        /* \"AllowedTokenManager.sol\":2094:2121  allowedTokens[tokenAddress] */\n      0x00\n        /* \"AllowedTokenManager.sol\":2108:2120  tokenAddress */\n      dup6\n        /* \"AllowedTokenManager.sol\":2094:2121  allowedTokens[tokenAddress] */\n      0xffffffffffffffffffffffffffffffffffffffff\n      and\n      0xffffffffffffffffffffffffffffffffffffffff\n      and\n      dup2\n      mstore\n      0x20\n      add\n      swap1\n      dup2\n      mstore\n      0x20\n      add\n      0x00\n      keccak256\n        /* \"AllowedTokenManager.sol\":2094:2131  allowedTokens[tokenAddress]._isActive */\n      0x03\n      add\n      0x00\n      swap1\n      sload\n      swap1\n      0x0100\n      exp\n      swap1\n      div\n      0xff\n      and\n        /* \"AllowedTokenManager.sol\":2093:2131  !allowedTokens[tokenAddress]._isActive */\n      iszero\n        /* \"AllowedTokenManager.sol\":2053:2066  allowedTokens */\n      0x03\n        /* \"AllowedTokenManager.sol\":2053:2080  allowedTokens[tokenAddress] */\n      0x00\n        /* \"AllowedTokenManager.sol\":2067:2079  tokenAddress */\n      dup7\n        /* \"AllowedTokenManager.sol\":2053:2080  allowedTokens[tokenAddress] */\n      0xffffffffffffffffffffffffffffffffffffffff\n      and\n      0xffffffffffffffffffffffffffffffffffffffff\n      and\n      dup2\n      mstore\n      0x20\n      add\n      swap1\n      dup2\n      mstore\n      0x20\n      add\n      0x00\n      keccak256\n        /* \"AllowedTokenManager.sol\":2053:2090  allowedTokens[tokenAddress]._isActive */\n      0x03\n      add\n      0x00\n        /* \"AllowedTokenManager.sol\":2053:2131  allowedTokens[tokenAddress]._isActive = !allowedTokens[tokenAddress]._isActive */\n      0x0100\n      exp\n      dup2\n      sload\n      dup2\n      0xff\n      mul\n      not\n      and\n      swap1\n      dup4\n      iszero\n      iszero\n      mul\n      or\n      swap1\n      sstore\n      pop\n        /* \"AllowedTokenManager.sol\":325:326  _ */\n      pop\n      pop\n        /* \"@openzeppelin/contracts/access/Ownable.sol\":1554:1555  _ */\n      pop\n        /* \"AllowedTokenManager.sol\":1904:2138  function updateTokenActivity(address tokenAddress) external onlyOwner isInvalidTokenAddr(tokenAddress) isTokenExists(tokenAddress, false){  ... */\n      pop\n      jump\t// out\n        /* \"@openzeppelin/contracts/access/Ownable.sol\":2543:2758  function transferOwnership(address newOwner) public virtual onlyOwner {... */\n    tag_87:\n        /* \"@openzeppelin/contracts/access/Ownable.sol\":1531:1544  _checkOwner() */\n      tag_378\n        /* \"@openzeppelin/contracts/access/Ownable.sol\":1531:1542  _checkOwner */\n      tag_90\n        /* \"@openzeppelin/contracts/access/Ownable.sol\":1531:1544  _checkOwner() */\n      jump\t// in\n    tag_378:\n        /* \"@openzeppelin/contracts/access/Ownable.sol\":2647:2648  0 */\n      0x00\n        /* \"@openzeppelin/contracts/access/Ownable.sol\":2627:2649  newOwner == address(0) */\n      0xffffffffffffffffffffffffffffffffffffffff\n      and\n        /* \"@openzeppelin/contracts/access/Ownable.sol\":2627:2635  newOwner */\n      dup2\n        /* \"@openzeppelin/contracts/access/Ownable.sol\":2627:2649  newOwner == address(0) */\n      0xffffffffffffffffffffffffffffffffffffffff\n      and\n      sub\n        /* \"@openzeppelin/contracts/access/Ownable.sol\":2623:2714  if (newOwner == address(0)) {... */\n      tag_380\n      jumpi\n        /* \"@openzeppelin/contracts/access/Ownable.sol\":2700:2701  0 */\n      0x00\n        /* \"@openzeppelin/contracts/access/Ownable.sol\":2672:2703  OwnableInvalidOwner(address(0)) */\n      mload(0x40)\n      0x1e4fbdf700000000000000000000000000000000000000000000000000000000\n      dup2\n      mstore\n      0x04\n      add\n      tag_381\n      swap2\n      swap1\n      tag_57\n      jump\t// in\n    tag_381:\n      mload(0x40)\n      dup1\n      swap2\n      sub\n      swap1\n      revert\n        /* \"@openzeppelin/contracts/access/Ownable.sol\":2623:2714  if (newOwner == address(0)) {... */\n    tag_380:\n        /* \"@openzeppelin/contracts/access/Ownable.sol\":2723:2751  _transferOwnership(newOwner) */\n      tag_382\n        /* \"@openzeppelin/contracts/access/Ownable.sol\":2742:2750  newOwner */\n      dup2\n        /* \"@openzeppelin/contracts/access/Ownable.sol\":2723:2741  _transferOwnership */\n      tag_270\n        /* \"@openzeppelin/contracts/access/Ownable.sol\":2723:2751  _transferOwnership(newOwner) */\n      jump\t// in\n    tag_382:\n        /* \"@openzeppelin/contracts/access/Ownable.sol\":2543:2758  function transferOwnership(address newOwner) public virtual onlyOwner {... */\n      pop\n      jump\t// out\n        /* \"@openzeppelin/contracts/access/Ownable.sol\":1796:1958  function _checkOwner() internal view virtual {... */\n    tag_90:\n        /* \"@openzeppelin/contracts/access/Ownable.sol\":1866:1878  _msgSender() */\n      tag_384\n        /* \"@openzeppelin/contracts/access/Ownable.sol\":1866:1876  _msgSender */\n      tag_385\n        /* \"@openzeppelin/contracts/access/Ownable.sol\":1866:1878  _msgSender() */\n      jump\t// in\n    tag_384:\n        /* \"@openzeppelin/contracts/access/Ownable.sol\":1855:1878  owner() != _msgSender() */\n      0xffffffffffffffffffffffffffffffffffffffff\n      and\n        /* \"@openzeppelin/contracts/access/Ownable.sol\":1855:1862  owner() */\n      tag_386\n        /* \"@openzeppelin/contracts/access/Ownable.sol\":1855:1860  owner */\n      tag_59\n        /* \"@openzeppelin/contracts/access/Ownable.sol\":1855:1862  owner() */\n      jump\t// in\n    tag_386:\n        /* \"@openzeppelin/contracts/access/Ownable.sol\":1855:1878  owner() != _msgSender() */\n      0xffffffffffffffffffffffffffffffffffffffff\n      and\n      eq\n        /* \"@openzeppelin/contracts/access/Ownable.sol\":1851:1952  if (owner() != _msgSender()) {... */\n      tag_387\n      jumpi\n        /* \"@openzeppelin/contracts/access/Ownable.sol\":1928:1940  _msgSender() */\n      tag_388\n        /* \"@openzeppelin/contracts/access/Ownable.sol\":1928:1938  _msgSender */\n      tag_385\n        /* \"@openzeppelin/contracts/access/Ownable.sol\":1928:1940  _msgSender() */\n      jump\t// in\n    tag_388:\n        /* \"@openzeppelin/contracts/access/Ownable.sol\":1901:1941  OwnableUnauthorizedAccount(_msgSender()) */\n      mload(0x40)\n      0x118cdaa700000000000000000000000000000000000000000000000000000000\n      dup2\n      mstore\n      0x04\n      add\n      tag_389\n      swap2\n      swap1\n      tag_57\n      jump\t// in\n    tag_389:\n      mload(0x40)\n      dup1\n      swap2\n      sub\n      swap1\n      revert\n        /* \"@openzeppelin/contracts/access/Ownable.sol\":1851:1952  if (owner() != _msgSender()) {... */\n    tag_387:\n        /* \"@openzeppelin/contracts/access/Ownable.sol\":1796:1958  function _checkOwner() internal view virtual {... */\n      jump\t// out\n        /* \"@openzeppelin/contracts/access/Ownable.sol\":2912:3099  function _transferOwnership(address newOwner) internal virtual {... */\n    tag_270:\n        /* \"@openzeppelin/contracts/access/Ownable.sol\":2985:3001  address oldOwner */\n      0x00\n        /* \"@openzeppelin/contracts/access/Ownable.sol\":3004:3010  _owner */\n      0x00\n      0x00\n      swap1\n      sload\n      swap1\n      0x0100\n      exp\n      swap1\n      div\n      0xffffffffffffffffffffffffffffffffffffffff\n      and\n        /* \"@openzeppelin/contracts/access/Ownable.sol\":2985:3010  address oldOwner = _owner */\n      swap1\n      pop\n        /* \"@openzeppelin/contracts/access/Ownable.sol\":3029:3037  newOwner */\n      dup2\n        /* \"@openzeppelin/contracts/access/Ownable.sol\":3020:3026  _owner */\n      0x00\n      0x00\n        /* \"@openzeppelin/contracts/access/Ownable.sol\":3020:3037  _owner = newOwner */\n      0x0100\n      exp\n      dup2\n      sload\n      dup2\n      0xffffffffffffffffffffffffffffffffffffffff\n      mul\n      not\n      and\n      swap1\n      dup4\n      0xffffffffffffffffffffffffffffffffffffffff\n      and\n      mul\n      or\n      swap1\n      sstore\n      pop\n        /* \"@openzeppelin/contracts/access/Ownable.sol\":3083:3091  newOwner */\n      dup2\n        /* \"@openzeppelin/contracts/access/Ownable.sol\":3052:3092  OwnershipTransferred(oldOwner, newOwner) */\n      0xffffffffffffffffffffffffffffffffffffffff\n      and\n        /* \"@openzeppelin/contracts/access/Ownable.sol\":3073:3081  oldOwner */\n      dup2\n        /* \"@openzeppelin/contracts/access/Ownable.sol\":3052:3092  OwnershipTransferred(oldOwner, newOwner) */\n      0xffffffffffffffffffffffffffffffffffffffff\n      and\n      0x8be0079c531659141344cd1fd0a4f28419497f9722a3daafe3b4186f6b6457e0\n      mload(0x40)\n      mload(0x40)\n      dup1\n      swap2\n      sub\n      swap1\n      log3\n        /* \"@openzeppelin/contracts/access/Ownable.sol\":2975:3099  {... */\n      pop\n        /* \"@openzeppelin/contracts/access/Ownable.sol\":2912:3099  function _transferOwnership(address newOwner) internal virtual {... */\n      pop\n      jump\t// out\n        /* \"DonationPlatform.sol\":1676:1822  function _msgSender() internal view override(ERC2771Context, Context) returns (address sender) {... */\n    tag_385:\n        /* \"DonationPlatform.sol\":1755:1769  address sender */\n      0x00\n        /* \"DonationPlatform.sol\":1788:1815  ERC2771Context._msgSender() */\n      tag_392\n        /* \"DonationPlatform.sol\":1788:1813  ERC2771Context._msgSender */\n      tag_393\n        /* \"DonationPlatform.sol\":1788:1815  ERC2771Context._msgSender() */\n      jump\t// in\n    tag_392:\n        /* \"DonationPlatform.sol\":1781:1815  return ERC2771Context._msgSender() */\n      swap1\n      pop\n        /* \"DonationPlatform.sol\":1676:1822  function _msgSender() internal view override(ERC2771Context, Context) returns (address sender) {... */\n      swap1\n      jump\t// out\n        /* \"@openzeppelin/contracts/metatx/ERC2771Context.sol\":2206:2635  function _msgSender() internal view virtual override returns (address) {... */\n    tag_393:\n        /* \"@openzeppelin/contracts/metatx/ERC2771Context.sol\":2268:2275  address */\n      0x00\n        /* \"@openzeppelin/contracts/metatx/ERC2771Context.sol\":2287:2309  uint256 calldataLength */\n      0x00\n        /* \"@openzeppelin/contracts/metatx/ERC2771Context.sol\":2312:2320  msg.data */\n      0x00\n      calldatasize\n        /* \"@openzeppelin/contracts/metatx/ERC2771Context.sol\":2312:2327  msg.data.length */\n      swap1\n      pop\n        /* \"@openzeppelin/contracts/metatx/ERC2771Context.sol\":2287:2327  uint256 calldataLength = msg.data.length */\n      swap1\n      pop\n        /* \"@openzeppelin/contracts/metatx/ERC2771Context.sol\":2337:2364  uint256 contextSuffixLength */\n      0x00\n        /* \"@openzeppelin/contracts/metatx/ERC2771Context.sol\":2367:2389  _contextSuffixLength() */\n      tag_395\n        /* \"@openzeppelin/contracts/metatx/ERC2771Context.sol\":2367:2387  _contextSuffixLength */\n      tag_396\n        /* \"@openzeppelin/contracts/metatx/ERC2771Context.sol\":2367:2389  _contextSuffixLength() */\n      jump\t// in\n    tag_395:\n        /* \"@openzeppelin/contracts/metatx/ERC2771Context.sol\":2337:2389  uint256 contextSuffixLength = _contextSuffixLength() */\n      swap1\n      pop\n        /* \"@openzeppelin/contracts/metatx/ERC2771Context.sol\":2403:2433  isTrustedForwarder(msg.sender) */\n      tag_397\n        /* \"@openzeppelin/contracts/metatx/ERC2771Context.sol\":2422:2432  msg.sender */\n      caller\n        /* \"@openzeppelin/contracts/metatx/ERC2771Context.sol\":2403:2421  isTrustedForwarder */\n      tag_43\n        /* \"@openzeppelin/contracts/metatx/ERC2771Context.sol\":2403:2433  isTrustedForwarder(msg.sender) */\n      jump\t// in\n    tag_397:\n        /* \"@openzeppelin/contracts/metatx/ERC2771Context.sol\":2403:2474  isTrustedForwarder(msg.sender) && calldataLength >= contextSuffixLength */\n      dup1\n      iszero\n      tag_398\n      jumpi\n      pop\n        /* \"@openzeppelin/contracts/metatx/ERC2771Context.sol\":2455:2474  contextSuffixLength */\n      dup1\n        /* \"@openzeppelin/contracts/metatx/ERC2771Context.sol\":2437:2451  calldataLength */\n      dup3\n        /* \"@openzeppelin/contracts/metatx/ERC2771Context.sol\":2437:2474  calldataLength >= contextSuffixLength */\n      lt\n      iszero\n        /* \"@openzeppelin/contracts/metatx/ERC2771Context.sol\":2403:2474  isTrustedForwarder(msg.sender) && calldataLength >= contextSuffixLength */\n    tag_398:\n        /* \"@openzeppelin/contracts/metatx/ERC2771Context.sol\":2399:2629  if (isTrustedForwarder(msg.sender) && calldataLength >= contextSuffixLength) {... */\n      iszero\n      tag_399\n      jumpi\n        /* \"@openzeppelin/contracts/metatx/ERC2771Context.sol\":2513:2521  msg.data */\n      0x00\n      calldatasize\n        /* \"@openzeppelin/contracts/metatx/ERC2771Context.sol\":2539:2558  contextSuffixLength */\n      dup3\n        /* \"@openzeppelin/contracts/metatx/ERC2771Context.sol\":2522:2536  calldataLength */\n      dup5\n        /* \"@openzeppelin/contracts/metatx/ERC2771Context.sol\":2522:2558  calldataLength - contextSuffixLength */\n      tag_400\n      swap2\n      swap1\n      tag_139\n      jump\t// in\n    tag_400:\n        /* \"@openzeppelin/contracts/metatx/ERC2771Context.sol\":2513:2560  msg.data[calldataLength - contextSuffixLength:] */\n      swap1\n      dup1\n      swap3\n      tag_401\n      swap4\n      swap3\n      swap2\n      swap1\n      tag_402\n      jump\t// in\n    tag_401:\n        /* \"@openzeppelin/contracts/metatx/ERC2771Context.sol\":2505:2561  bytes20(msg.data[calldataLength - contextSuffixLength:]) */\n      swap1\n      tag_403\n      swap2\n      swap1\n      tag_404\n      jump\t// in\n    tag_403:\n        /* \"@openzeppelin/contracts/metatx/ERC2771Context.sol\":2497:2562  address(bytes20(msg.data[calldataLength - contextSuffixLength:])) */\n      0x60\n      shr\n        /* \"@openzeppelin/contracts/metatx/ERC2771Context.sol\":2490:2562  return address(bytes20(msg.data[calldataLength - contextSuffixLength:])) */\n      swap3\n      pop\n      pop\n      pop\n      jump(tag_394)\n        /* \"@openzeppelin/contracts/metatx/ERC2771Context.sol\":2399:2629  if (isTrustedForwarder(msg.sender) && calldataLength >= contextSuffixLength) {... */\n    tag_399:\n        /* \"@openzeppelin/contracts/metatx/ERC2771Context.sol\":2600:2618  super._msgSender() */\n      tag_406\n        /* \"@openzeppelin/contracts/metatx/ERC2771Context.sol\":2600:2616  super._msgSender */\n      tag_407\n        /* \"@openzeppelin/contracts/metatx/ERC2771Context.sol\":2600:2618  super._msgSender() */\n      jump\t// in\n    tag_406:\n        /* \"@openzeppelin/contracts/metatx/ERC2771Context.sol\":2593:2618  return super._msgSender() */\n      swap3\n      pop\n      pop\n      pop\n        /* \"@openzeppelin/contracts/metatx/ERC2771Context.sol\":2206:2635  function _msgSender() internal view virtual override returns (address) {... */\n    tag_394:\n      swap1\n      jump\t// out\n        /* \"DonationPlatform.sol\":2155:2314  function _contextSuffixLength() internal view override(ERC2771Context, Context) returns (uint256) {... */\n    tag_396:\n        /* \"DonationPlatform.sol\":2244:2251  uint256 */\n      0x00\n        /* \"DonationPlatform.sol\":2270:2307  ERC2771Context._contextSuffixLength() */\n      tag_409\n        /* \"DonationPlatform.sol\":2270:2305  ERC2771Context._contextSuffixLength */\n      tag_410\n        /* \"DonationPlatform.sol\":2270:2307  ERC2771Context._contextSuffixLength() */\n      jump\t// in\n    tag_409:\n        /* \"DonationPlatform.sol\":2263:2307  return ERC2771Context._contextSuffixLength() */\n      swap1\n      pop\n        /* \"DonationPlatform.sol\":2155:2314  function _contextSuffixLength() internal view override(ERC2771Context, Context) returns (uint256) {... */\n      swap1\n      jump\t// out\n        /* \"@openzeppelin/contracts/utils/Context.sol\":656:752  function _msgSender() internal view virtual returns (address) {... */\n    tag_407:\n        /* \"@openzeppelin/contracts/utils/Context.sol\":709:716  address */\n      0x00\n        /* \"@openzeppelin/contracts/utils/Context.sol\":735:745  msg.sender */\n      caller\n        /* \"@openzeppelin/contracts/utils/Context.sol\":728:745  return msg.sender */\n      swap1\n      pop\n        /* \"@openzeppelin/contracts/utils/Context.sol\":656:752  function _msgSender() internal view virtual returns (address) {... */\n      swap1\n      jump\t// out\n        /* \"@openzeppelin/contracts/metatx/ERC2771Context.sol\":3385:3492  function _contextSuffixLength() internal view virtual override returns (uint256) {... */\n    tag_410:\n        /* \"@openzeppelin/contracts/metatx/ERC2771Context.sol\":3457:3464  uint256 */\n      0x00\n        /* \"@openzeppelin/contracts/metatx/ERC2771Context.sol\":3483:3485  20 */\n      0x14\n        /* \"@openzeppelin/contracts/metatx/ERC2771Context.sol\":3476:3485  return 20 */\n      swap1\n      pop\n        /* \"@openzeppelin/contracts/metatx/ERC2771Context.sol\":3385:3492  function _contextSuffixLength() internal view virtual override returns (uint256) {... */\n      swap1\n      jump\t// out\n    tag_113:\n      mload(0x40)\n      dup1\n      0xa0\n      add\n      0x40\n      mstore\n      dup1\n      and(0xffffffffffffffffffffffffffffffffffffffff, 0x00)\n      dup2\n      mstore\n      0x20\n      add\n      0x60\n      dup2\n      mstore\n      0x20\n      add\n      0x60\n      dup2\n      mstore\n      0x20\n      add\n      iszero(iszero(0x00))\n      dup2\n      mstore\n      0x20\n      add\n      0x00\n      dup2\n      mstore\n      pop\n      swap1\n      jump\t// out\n    tag_173:\n      mload(0x40)\n      dup1\n      0xa0\n      add\n      0x40\n      mstore\n      dup1\n      and(0xffffffffffffffffffffffffffffffffffffffff, 0x00)\n      dup2\n      mstore\n      0x20\n      add\n      0x60\n      dup2\n      mstore\n      0x20\n      add\n      0x60\n      dup2\n      mstore\n      0x20\n      add\n      iszero(iszero(0x00))\n      dup2\n      mstore\n      0x20\n      add\n      0x00\n      dup2\n      mstore\n      pop\n      swap1\n      jump\t// out\n    tag_213:\n      pop\n      dup1\n      sload\n      tag_413\n      swap1\n      tag_122\n      jump\t// in\n    tag_413:\n      0x00\n      dup3\n      sstore\n      dup1\n      0x1f\n      lt\n      tag_415\n      jumpi\n      pop\n      jump(tag_414)\n    tag_415:\n      0x1f\n      add\n      0x20\n      swap1\n      div\n      swap1\n      0x00\n      mstore\n      keccak256(0x00, 0x20)\n      swap1\n      dup2\n      add\n      swap1\n      tag_416\n      swap2\n      swap1\n      tag_417\n      jump\t// in\n    tag_416:\n    tag_414:\n      pop\n      jump\t// out\n    tag_417:\n    tag_418:\n      dup1\n      dup3\n      gt\n      iszero\n      tag_419\n      jumpi\n      0x00\n      dup2\n      0x00\n      swap1\n      sstore\n      pop\n      0x01\n      add\n      jump(tag_418)\n    tag_419:\n      pop\n      swap1\n      jump\t// out\n        /* \"#utility.yul\":7:82   */\n    tag_420:\n        /* \"#utility.yul\":40:46   */\n      0x00\n        /* \"#utility.yul\":73:75   */\n      0x40\n        /* \"#utility.yul\":67:76   */\n      mload\n        /* \"#utility.yul\":57:76   */\n      swap1\n      pop\n        /* \"#utility.yul\":7:82   */\n      swap1\n      jump\t// out\n        /* \"#utility.yul\":88:205   */\n    tag_421:\n        /* \"#utility.yul\":197:198   */\n      0x00\n        /* \"#utility.yul\":194:195   */\n      0x00\n        /* \"#utility.yul\":187:199   */\n      revert\n        /* \"#utility.yul\":211:328   */\n    tag_422:\n        /* \"#utility.yul\":320:321   */\n      0x00\n        /* \"#utility.yul\":317:318   */\n      0x00\n        /* \"#utility.yul\":310:322   */\n      revert\n        /* \"#utility.yul\":334:460   */\n    tag_423:\n        /* \"#utility.yul\":371:378   */\n      0x00\n        /* \"#utility.yul\":411:453   */\n      0xffffffffffffffffffffffffffffffffffffffff\n        /* \"#utility.yul\":404:409   */\n      dup3\n        /* \"#utility.yul\":400:454   */\n      and\n        /* \"#utility.yul\":389:454   */\n      swap1\n      pop\n        /* \"#utility.yul\":334:460   */\n      swap2\n      swap1\n      pop\n      jump\t// out\n        /* \"#utility.yul\":466:562   */\n    tag_424:\n        /* \"#utility.yul\":503:510   */\n      0x00\n        /* \"#utility.yul\":532:556   */\n      tag_511\n        /* \"#utility.yul\":550:555   */\n      dup3\n        /* \"#utility.yul\":532:556   */\n      tag_423\n      jump\t// in\n    tag_511:\n        /* \"#utility.yul\":521:556   */\n      swap1\n      pop\n        /* \"#utility.yul\":466:562   */\n      swap2\n      swap1\n      pop\n      jump\t// out\n        /* \"#utility.yul\":568:690   */\n    tag_425:\n        /* \"#utility.yul\":641:665   */\n      tag_513\n        /* \"#utility.yul\":659:664   */\n      dup2\n        /* \"#utility.yul\":641:665   */\n      tag_424\n      jump\t// in\n    tag_513:\n        /* \"#utility.yul\":634:639   */\n      dup2\n        /* \"#utility.yul\":631:666   */\n      eq\n        /* \"#utility.yul\":621:684   */\n      tag_514\n      jumpi\n        /* \"#utility.yul\":680:681   */\n      0x00\n        /* \"#utility.yul\":677:678   */\n      0x00\n        /* \"#utility.yul\":670:682   */\n      revert\n        /* \"#utility.yul\":621:684   */\n    tag_514:\n        /* \"#utility.yul\":568:690   */\n      pop\n      jump\t// out\n        /* \"#utility.yul\":696:835   */\n    tag_426:\n        /* \"#utility.yul\":742:747   */\n      0x00\n        /* \"#utility.yul\":780:786   */\n      dup2\n        /* \"#utility.yul\":767:787   */\n      calldataload\n        /* \"#utility.yul\":758:787   */\n      swap1\n      pop\n        /* \"#utility.yul\":796:829   */\n      tag_516\n        /* \"#utility.yul\":823:828   */\n      dup2\n        /* \"#utility.yul\":796:829   */\n      tag_425\n      jump\t// in\n    tag_516:\n        /* \"#utility.yul\":696:835   */\n      swap3\n      swap2\n      pop\n      pop\n      jump\t// out\n        /* \"#utility.yul\":841:1170   */\n    tag_25:\n        /* \"#utility.yul\":900:906   */\n      0x00\n        /* \"#utility.yul\":949:951   */\n      0x20\n        /* \"#utility.yul\":937:946   */\n      dup3\n        /* \"#utility.yul\":928:935   */\n      dup5\n        /* \"#utility.yul\":924:947   */\n      sub\n        /* \"#utility.yul\":920:952   */\n      slt\n        /* \"#utility.yul\":917:1036   */\n      iszero\n      tag_518\n      jumpi\n        /* \"#utility.yul\":955:1034   */\n      tag_519\n      tag_421\n      jump\t// in\n    tag_519:\n        /* \"#utility.yul\":917:1036   */\n    tag_518:\n        /* \"#utility.yul\":1075:1076   */\n      0x00\n        /* \"#utility.yul\":1100:1153   */\n      tag_520\n        /* \"#utility.yul\":1145:1152   */\n      dup5\n        /* \"#utility.yul\":1136:1142   */\n      dup3\n        /* \"#utility.yul\":1125:1134   */\n      dup6\n        /* \"#utility.yul\":1121:1143   */\n      add\n        /* \"#utility.yul\":1100:1153   */\n      tag_426\n      jump\t// in\n    tag_520:\n        /* \"#utility.yul\":1090:1153   */\n      swap2\n      pop\n        /* \"#utility.yul\":1046:1163   */\n      pop\n        /* \"#utility.yul\":841:1170   */\n      swap3\n      swap2\n      pop\n      pop\n      jump\t// out\n        /* \"#utility.yul\":1176:1320   */\n    tag_427:\n        /* \"#utility.yul\":1273:1279   */\n      0x00\n        /* \"#utility.yul\":1307:1312   */\n      dup2\n        /* \"#utility.yul\":1301:1313   */\n      mload\n        /* \"#utility.yul\":1291:1313   */\n      swap1\n      pop\n        /* \"#utility.yul\":1176:1320   */\n      swap2\n      swap1\n      pop\n      jump\t// out\n        /* \"#utility.yul\":1326:1540   */\n    tag_428:\n        /* \"#utility.yul\":1455:1466   */\n      0x00\n        /* \"#utility.yul\":1489:1495   */\n      dup3\n        /* \"#utility.yul\":1484:1487   */\n      dup3\n        /* \"#utility.yul\":1477:1496   */\n      mstore\n        /* \"#utility.yul\":1529:1533   */\n      0x20\n        /* \"#utility.yul\":1524:1527   */\n      dup3\n        /* \"#utility.yul\":1520:1534   */\n      add\n        /* \"#utility.yul\":1505:1534   */\n      swap1\n      pop\n        /* \"#utility.yul\":1326:1540   */\n      swap3\n      swap2\n      pop\n      pop\n      jump\t// out\n        /* \"#utility.yul\":1546:1708   */\n    tag_429:\n        /* \"#utility.yul\":1643:1647   */\n      0x00\n        /* \"#utility.yul\":1666:1669   */\n      dup2\n        /* \"#utility.yul\":1658:1669   */\n      swap1\n      pop\n        /* \"#utility.yul\":1696:1700   */\n      0x20\n        /* \"#utility.yul\":1691:1694   */\n      dup3\n        /* \"#utility.yul\":1687:1701   */\n      add\n        /* \"#utility.yul\":1679:1701   */\n      swap1\n      pop\n        /* \"#utility.yul\":1546:1708   */\n      swap2\n      swap1\n      pop\n      jump\t// out\n        /* \"#utility.yul\":1714:1822   */\n    tag_430:\n        /* \"#utility.yul\":1791:1815   */\n      tag_525\n        /* \"#utility.yul\":1809:1814   */\n      dup2\n        /* \"#utility.yul\":1791:1815   */\n      tag_424\n      jump\t// in\n    tag_525:\n        /* \"#utility.yul\":1786:1789   */\n      dup3\n        /* \"#utility.yul\":1779:1816   */\n      mstore\n        /* \"#utility.yul\":1714:1822   */\n      pop\n      pop\n      jump\t// out\n        /* \"#utility.yul\":1828:1927   */\n    tag_431:\n        /* \"#utility.yul\":1880:1886   */\n      0x00\n        /* \"#utility.yul\":1914:1919   */\n      dup2\n        /* \"#utility.yul\":1908:1920   */\n      mload\n        /* \"#utility.yul\":1898:1920   */\n      swap1\n      pop\n        /* \"#utility.yul\":1828:1927   */\n      swap2\n      swap1\n      pop\n      jump\t// out\n        /* \"#utility.yul\":1933:2092   */\n    tag_432:\n        /* \"#utility.yul\":2007:2018   */\n      0x00\n        /* \"#utility.yul\":2041:2047   */\n      dup3\n        /* \"#utility.yul\":2036:2039   */\n      dup3\n        /* \"#utility.yul\":2029:2048   */\n      mstore\n        /* \"#utility.yul\":2081:2085   */\n      0x20\n        /* \"#utility.yul\":2076:2079   */\n      dup3\n        /* \"#utility.yul\":2072:2086   */\n      add\n        /* \"#utility.yul\":2057:2086   */\n      swap1\n      pop\n        /* \"#utility.yul\":1933:2092   */\n      swap3\n      swap2\n      pop\n      pop\n      jump\t// out\n        /* \"#utility.yul\":2098:2237   */\n    tag_433:\n        /* \"#utility.yul\":2187:2193   */\n      dup3\n        /* \"#utility.yul\":2182:2185   */\n      dup2\n        /* \"#utility.yul\":2177:2180   */\n      dup4\n        /* \"#utility.yul\":2171:2194   */\n      mcopy\n        /* \"#utility.yul\":2228:2229   */\n      0x00\n        /* \"#utility.yul\":2219:2225   */\n      dup4\n        /* \"#utility.yul\":2214:2217   */\n      dup4\n        /* \"#utility.yul\":2210:2226   */\n      add\n        /* \"#utility.yul\":2203:2230   */\n      mstore\n        /* \"#utility.yul\":2098:2237   */\n      pop\n      pop\n      pop\n      jump\t// out\n        /* \"#utility.yul\":2243:2345   */\n    tag_434:\n        /* \"#utility.yul\":2284:2290   */\n      0x00\n        /* \"#utility.yul\":2335:2337   */\n      0x1f\n        /* \"#utility.yul\":2331:2338   */\n      not\n        /* \"#utility.yul\":2326:2328   */\n      0x1f\n        /* \"#utility.yul\":2319:2324   */\n      dup4\n        /* \"#utility.yul\":2315:2329   */\n      add\n        /* \"#utility.yul\":2311:2339   */\n      and\n        /* \"#utility.yul\":2301:2339   */\n      swap1\n      pop\n        /* \"#utility.yul\":2243:2345   */\n      swap2\n      swap1\n      pop\n      jump\t// out\n        /* \"#utility.yul\":2351:2708   */\n    tag_435:\n        /* \"#utility.yul\":2429:2432   */\n      0x00\n        /* \"#utility.yul\":2457:2496   */\n      tag_531\n        /* \"#utility.yul\":2490:2495   */\n      dup3\n        /* \"#utility.yul\":2457:2496   */\n      tag_431\n      jump\t// in\n    tag_531:\n        /* \"#utility.yul\":2512:2573   */\n      tag_532\n        /* \"#utility.yul\":2566:2572   */\n      dup2\n        /* \"#utility.yul\":2561:2564   */\n      dup6\n        /* \"#utility.yul\":2512:2573   */\n      tag_432\n      jump\t// in\n    tag_532:\n        /* \"#utility.yul\":2505:2573   */\n      swap4\n      pop\n        /* \"#utility.yul\":2582:2647   */\n      tag_533\n        /* \"#utility.yul\":2640:2646   */\n      dup2\n        /* \"#utility.yul\":2635:2638   */\n      dup6\n        /* \"#utility.yul\":2628:2632   */\n      0x20\n        /* \"#utility.yul\":2621:2626   */\n      dup7\n        /* \"#utility.yul\":2617:2633   */\n      add\n        /* \"#utility.yul\":2582:2647   */\n      tag_433\n      jump\t// in\n    tag_533:\n        /* \"#utility.yul\":2672:2701   */\n      tag_534\n        /* \"#utility.yul\":2694:2700   */\n      dup2\n        /* \"#utility.yul\":2672:2701   */\n      tag_434\n      jump\t// in\n    tag_534:\n        /* \"#utility.yul\":2667:2670   */\n      dup5\n        /* \"#utility.yul\":2663:2702   */\n      add\n        /* \"#utility.yul\":2656:2702   */\n      swap2\n      pop\n        /* \"#utility.yul\":2433:2708   */\n      pop\n        /* \"#utility.yul\":2351:2708   */\n      swap3\n      swap2\n      pop\n      pop\n      jump\t// out\n        /* \"#utility.yul\":2714:2804   */\n    tag_436:\n        /* \"#utility.yul\":2748:2755   */\n      0x00\n        /* \"#utility.yul\":2791:2796   */\n      dup2\n        /* \"#utility.yul\":2784:2797   */\n      iszero\n        /* \"#utility.yul\":2777:2798   */\n      iszero\n        /* \"#utility.yul\":2766:2798   */\n      swap1\n      pop\n        /* \"#utility.yul\":2714:2804   */\n      swap2\n      swap1\n      pop\n      jump\t// out\n        /* \"#utility.yul\":2810:2909   */\n    tag_437:\n        /* \"#utility.yul\":2881:2902   */\n      tag_537\n        /* \"#utility.yul\":2896:2901   */\n      dup2\n        /* \"#utility.yul\":2881:2902   */\n      tag_436\n      jump\t// in\n    tag_537:\n        /* \"#utility.yul\":2876:2879   */\n      dup3\n        /* \"#utility.yul\":2869:2903   */\n      mstore\n        /* \"#utility.yul\":2810:2909   */\n      pop\n      pop\n      jump\t// out\n        /* \"#utility.yul\":2915:2992   */\n    tag_438:\n        /* \"#utility.yul\":2952:2959   */\n      0x00\n        /* \"#utility.yul\":2981:2986   */\n      dup2\n        /* \"#utility.yul\":2970:2986   */\n      swap1\n      pop\n        /* \"#utility.yul\":2915:2992   */\n      swap2\n      swap1\n      pop\n      jump\t// out\n        /* \"#utility.yul\":2998:3106   */\n    tag_439:\n        /* \"#utility.yul\":3075:3099   */\n      tag_540\n        /* \"#utility.yul\":3093:3098   */\n      dup2\n        /* \"#utility.yul\":3075:3099   */\n      tag_438\n      jump\t// in\n    tag_540:\n        /* \"#utility.yul\":3070:3073   */\n      dup3\n        /* \"#utility.yul\":3063:3100   */\n      mstore\n        /* \"#utility.yul\":2998:3106   */\n      pop\n      pop\n      jump\t// out\n        /* \"#utility.yul\":3202:4424   */\n    tag_440:\n        /* \"#utility.yul\":3321:3324   */\n      0x00\n        /* \"#utility.yul\":3357:3361   */\n      0xa0\n        /* \"#utility.yul\":3352:3355   */\n      dup4\n        /* \"#utility.yul\":3348:3362   */\n      add\n        /* \"#utility.yul\":3448:3452   */\n      0x00\n        /* \"#utility.yul\":3441:3446   */\n      dup4\n        /* \"#utility.yul\":3437:3453   */\n      add\n        /* \"#utility.yul\":3431:3454   */\n      mload\n        /* \"#utility.yul\":3467:3530   */\n      tag_542\n        /* \"#utility.yul\":3524:3528   */\n      0x00\n        /* \"#utility.yul\":3519:3522   */\n      dup7\n        /* \"#utility.yul\":3515:3529   */\n      add\n        /* \"#utility.yul\":3501:3513   */\n      dup3\n        /* \"#utility.yul\":3467:3530   */\n      tag_430\n      jump\t// in\n    tag_542:\n        /* \"#utility.yul\":3372:3540   */\n      pop\n        /* \"#utility.yul\":3623:3627   */\n      0x20\n        /* \"#utility.yul\":3616:3621   */\n      dup4\n        /* \"#utility.yul\":3612:3628   */\n      add\n        /* \"#utility.yul\":3606:3629   */\n      mload\n        /* \"#utility.yul\":3676:3679   */\n      dup5\n        /* \"#utility.yul\":3670:3674   */\n      dup3\n        /* \"#utility.yul\":3666:3680   */\n      sub\n        /* \"#utility.yul\":3659:3663   */\n      0x20\n        /* \"#utility.yul\":3654:3657   */\n      dup7\n        /* \"#utility.yul\":3650:3664   */\n      add\n        /* \"#utility.yul\":3643:3681   */\n      mstore\n        /* \"#utility.yul\":3702:3775   */\n      tag_543\n        /* \"#utility.yul\":3770:3774   */\n      dup3\n        /* \"#utility.yul\":3756:3768   */\n      dup3\n        /* \"#utility.yul\":3702:3775   */\n      tag_435\n      jump\t// in\n    tag_543:\n        /* \"#utility.yul\":3694:3775   */\n      swap2\n      pop\n        /* \"#utility.yul\":3550:3786   */\n      pop\n        /* \"#utility.yul\":3871:3875   */\n      0x40\n        /* \"#utility.yul\":3864:3869   */\n      dup4\n        /* \"#utility.yul\":3860:3876   */\n      add\n        /* \"#utility.yul\":3854:3877   */\n      mload\n        /* \"#utility.yul\":3924:3927   */\n      dup5\n        /* \"#utility.yul\":3918:3922   */\n      dup3\n        /* \"#utility.yul\":3914:3928   */\n      sub\n        /* \"#utility.yul\":3907:3911   */\n      0x40\n        /* \"#utility.yul\":3902:3905   */\n      dup7\n        /* \"#utility.yul\":3898:3912   */\n      add\n        /* \"#utility.yul\":3891:3929   */\n      mstore\n        /* \"#utility.yul\":3950:4023   */\n      tag_544\n        /* \"#utility.yul\":4018:4022   */\n      dup3\n        /* \"#utility.yul\":4004:4016   */\n      dup3\n        /* \"#utility.yul\":3950:4023   */\n      tag_435\n      jump\t// in\n    tag_544:\n        /* \"#utility.yul\":3942:4023   */\n      swap2\n      pop\n        /* \"#utility.yul\":3796:4034   */\n      pop\n        /* \"#utility.yul\":4121:4125   */\n      0x60\n        /* \"#utility.yul\":4114:4119   */\n      dup4\n        /* \"#utility.yul\":4110:4126   */\n      add\n        /* \"#utility.yul\":4104:4127   */\n      mload\n        /* \"#utility.yul\":4140:4197   */\n      tag_545\n        /* \"#utility.yul\":4191:4195   */\n      0x60\n        /* \"#utility.yul\":4186:4189   */\n      dup7\n        /* \"#utility.yul\":4182:4196   */\n      add\n        /* \"#utility.yul\":4168:4180   */\n      dup3\n        /* \"#utility.yul\":4140:4197   */\n      tag_437\n      jump\t// in\n    tag_545:\n        /* \"#utility.yul\":4044:4207   */\n      pop\n        /* \"#utility.yul\":4305:4309   */\n      0x80\n        /* \"#utility.yul\":4298:4303   */\n      dup4\n        /* \"#utility.yul\":4294:4310   */\n      add\n        /* \"#utility.yul\":4288:4311   */\n      mload\n        /* \"#utility.yul\":4324:4387   */\n      tag_546\n        /* \"#utility.yul\":4381:4385   */\n      0x80\n        /* \"#utility.yul\":4376:4379   */\n      dup7\n        /* \"#utility.yul\":4372:4386   */\n      add\n        /* \"#utility.yul\":4358:4370   */\n      dup3\n        /* \"#utility.yul\":4324:4387   */\n      tag_439\n      jump\t// in\n    tag_546:\n        /* \"#utility.yul\":4217:4397   */\n      pop\n        /* \"#utility.yul\":4414:4418   */\n      dup1\n        /* \"#utility.yul\":4407:4418   */\n      swap2\n      pop\n        /* \"#utility.yul\":3326:4424   */\n      pop\n        /* \"#utility.yul\":3202:4424   */\n      swap3\n      swap2\n      pop\n      pop\n      jump\t// out\n        /* \"#utility.yul\":4430:4706   */\n    tag_441:\n        /* \"#utility.yul\":4559:4569   */\n      0x00\n        /* \"#utility.yul\":4594:4700   */\n      tag_548\n        /* \"#utility.yul\":4696:4699   */\n      dup4\n        /* \"#utility.yul\":4688:4694   */\n      dup4\n        /* \"#utility.yul\":4594:4700   */\n      tag_440\n      jump\t// in\n    tag_548:\n        /* \"#utility.yul\":4580:4700   */\n      swap1\n      pop\n        /* \"#utility.yul\":4430:4706   */\n      swap3\n      swap2\n      pop\n      pop\n      jump\t// out\n        /* \"#utility.yul\":4712:4855   */\n    tag_442:\n        /* \"#utility.yul\":4812:4816   */\n      0x00\n        /* \"#utility.yul\":4844:4848   */\n      0x20\n        /* \"#utility.yul\":4839:4842   */\n      dup3\n        /* \"#utility.yul\":4835:4849   */\n      add\n        /* \"#utility.yul\":4827:4849   */\n      swap1\n      pop\n        /* \"#utility.yul\":4712:4855   */\n      swap2\n      swap1\n      pop\n      jump\t// out\n        /* \"#utility.yul\":4955:6106   */\n    tag_443:\n        /* \"#utility.yul\":5134:5137   */\n      0x00\n        /* \"#utility.yul\":5163:5247   */\n      tag_551\n        /* \"#utility.yul\":5241:5246   */\n      dup3\n        /* \"#utility.yul\":5163:5247   */\n      tag_427\n      jump\t// in\n    tag_551:\n        /* \"#utility.yul\":5263:5379   */\n      tag_552\n        /* \"#utility.yul\":5372:5378   */\n      dup2\n        /* \"#utility.yul\":5367:5370   */\n      dup6\n        /* \"#utility.yul\":5263:5379   */\n      tag_428\n      jump\t// in\n    tag_552:\n        /* \"#utility.yul\":5256:5379   */\n      swap4\n      pop\n        /* \"#utility.yul\":5405:5408   */\n      dup4\n        /* \"#utility.yul\":5450:5454   */\n      0x20\n        /* \"#utility.yul\":5442:5448   */\n      dup3\n        /* \"#utility.yul\":5438:5455   */\n      mul\n        /* \"#utility.yul\":5433:5436   */\n      dup6\n        /* \"#utility.yul\":5429:5456   */\n      add\n        /* \"#utility.yul\":5480:5566   */\n      tag_553\n        /* \"#utility.yul\":5560:5565   */\n      dup6\n        /* \"#utility.yul\":5480:5566   */\n      tag_429\n      jump\t// in\n    tag_553:\n        /* \"#utility.yul\":5589:5596   */\n      dup1\n        /* \"#utility.yul\":5620:5621   */\n      0x00\n        /* \"#utility.yul\":5605:6061   */\n    tag_554:\n        /* \"#utility.yul\":5630:5636   */\n      dup6\n        /* \"#utility.yul\":5627:5628   */\n      dup2\n        /* \"#utility.yul\":5624:5637   */\n      lt\n        /* \"#utility.yul\":5605:6061   */\n      iszero\n      tag_556\n      jumpi\n        /* \"#utility.yul\":5701:5710   */\n      dup5\n        /* \"#utility.yul\":5695:5699   */\n      dup5\n        /* \"#utility.yul\":5691:5711   */\n      sub\n        /* \"#utility.yul\":5686:5689   */\n      dup10\n        /* \"#utility.yul\":5679:5712   */\n      mstore\n        /* \"#utility.yul\":5752:5758   */\n      dup2\n        /* \"#utility.yul\":5746:5759   */\n      mload\n        /* \"#utility.yul\":5780:5904   */\n      tag_557\n        /* \"#utility.yul\":5899:5903   */\n      dup6\n        /* \"#utility.yul\":5884:5897   */\n      dup3\n        /* \"#utility.yul\":5780:5904   */\n      tag_441\n      jump\t// in\n    tag_557:\n        /* \"#utility.yul\":5772:5904   */\n      swap5\n      pop\n        /* \"#utility.yul\":5927:6017   */\n      tag_558\n        /* \"#utility.yul\":6010:6016   */\n      dup4\n        /* \"#utility.yul\":5927:6017   */\n      tag_442\n      jump\t// in\n    tag_558:\n        /* \"#utility.yul\":5917:6017   */\n      swap3\n      pop\n        /* \"#utility.yul\":6046:6050   */\n      0x20\n        /* \"#utility.yul\":6041:6044   */\n      dup11\n        /* \"#utility.yul\":6037:6051   */\n      add\n        /* \"#utility.yul\":6030:6051   */\n      swap10\n      pop\n        /* \"#utility.yul\":5665:6061   */\n      pop\n        /* \"#utility.yul\":5652:5653   */\n      0x01\n        /* \"#utility.yul\":5649:5650   */\n      dup2\n        /* \"#utility.yul\":5645:5654   */\n      add\n        /* \"#utility.yul\":5640:5654   */\n      swap1\n      pop\n        /* \"#utility.yul\":5605:6061   */\n      jump(tag_554)\n    tag_556:\n        /* \"#utility.yul\":5609:5623   */\n      pop\n        /* \"#utility.yul\":6077:6081   */\n      dup3\n        /* \"#utility.yul\":6070:6081   */\n      swap8\n      pop\n        /* \"#utility.yul\":6097:6100   */\n      dup8\n        /* \"#utility.yul\":6090:6100   */\n      swap6\n      pop\n        /* \"#utility.yul\":5139:6106   */\n      pop\n      pop\n      pop\n      pop\n      pop\n        /* \"#utility.yul\":4955:6106   */\n      swap3\n      swap2\n      pop\n      pop\n      jump\t// out\n        /* \"#utility.yul\":6112:6605   */\n    tag_30:\n        /* \"#utility.yul\":6315:6319   */\n      0x00\n        /* \"#utility.yul\":6353:6355   */\n      0x20\n        /* \"#utility.yul\":6342:6351   */\n      dup3\n        /* \"#utility.yul\":6338:6356   */\n      add\n        /* \"#utility.yul\":6330:6356   */\n      swap1\n      pop\n        /* \"#utility.yul\":6402:6411   */\n      dup2\n        /* \"#utility.yul\":6396:6400   */\n      dup2\n        /* \"#utility.yul\":6392:6412   */\n      sub\n        /* \"#utility.yul\":6388:6389   */\n      0x00\n        /* \"#utility.yul\":6377:6386   */\n      dup4\n        /* \"#utility.yul\":6373:6390   */\n      add\n        /* \"#utility.yul\":6366:6413   */\n      mstore\n        /* \"#utility.yul\":6430:6598   */\n      tag_560\n        /* \"#utility.yul\":6593:6597   */\n      dup2\n        /* \"#utility.yul\":6584:6590   */\n      dup5\n        /* \"#utility.yul\":6430:6598   */\n      tag_443\n      jump\t// in\n    tag_560:\n        /* \"#utility.yul\":6422:6598   */\n      swap1\n      pop\n        /* \"#utility.yul\":6112:6605   */\n      swap3\n      swap2\n      pop\n      pop\n      jump\t// out\n        /* \"#utility.yul\":6611:6733   */\n    tag_444:\n        /* \"#utility.yul\":6684:6708   */\n      tag_562\n        /* \"#utility.yul\":6702:6707   */\n      dup2\n        /* \"#utility.yul\":6684:6708   */\n      tag_438\n      jump\t// in\n    tag_562:\n        /* \"#utility.yul\":6677:6682   */\n      dup2\n        /* \"#utility.yul\":6674:6709   */\n      eq\n        /* \"#utility.yul\":6664:6727   */\n      tag_563\n      jumpi\n        /* \"#utility.yul\":6723:6724   */\n      0x00\n        /* \"#utility.yul\":6720:6721   */\n      0x00\n        /* \"#utility.yul\":6713:6725   */\n      revert\n        /* \"#utility.yul\":6664:6727   */\n    tag_563:\n        /* \"#utility.yul\":6611:6733   */\n      pop\n      jump\t// out\n        /* \"#utility.yul\":6739:6878   */\n    tag_445:\n        /* \"#utility.yul\":6785:6790   */\n      0x00\n        /* \"#utility.yul\":6823:6829   */\n      dup2\n        /* \"#utility.yul\":6810:6830   */\n      calldataload\n        /* \"#utility.yul\":6801:6830   */\n      swap1\n      pop\n        /* \"#utility.yul\":6839:6872   */\n      tag_565\n        /* \"#utility.yul\":6866:6871   */\n      dup2\n        /* \"#utility.yul\":6839:6872   */\n      tag_444\n      jump\t// in\n    tag_565:\n        /* \"#utility.yul\":6739:6878   */\n      swap3\n      swap2\n      pop\n      pop\n      jump\t// out\n        /* \"#utility.yul\":6884:7358   */\n    tag_33:\n        /* \"#utility.yul\":6952:6958   */\n      0x00\n        /* \"#utility.yul\":6960:6966   */\n      0x00\n        /* \"#utility.yul\":7009:7011   */\n      0x40\n        /* \"#utility.yul\":6997:7006   */\n      dup4\n        /* \"#utility.yul\":6988:6995   */\n      dup6\n        /* \"#utility.yul\":6984:7007   */\n      sub\n        /* \"#utility.yul\":6980:7012   */\n      slt\n        /* \"#utility.yul\":6977:7096   */\n      iszero\n      tag_567\n      jumpi\n        /* \"#utility.yul\":7015:7094   */\n      tag_568\n      tag_421\n      jump\t// in\n    tag_568:\n        /* \"#utility.yul\":6977:7096   */\n    tag_567:\n        /* \"#utility.yul\":7135:7136   */\n      0x00\n        /* \"#utility.yul\":7160:7213   */\n      tag_569\n        /* \"#utility.yul\":7205:7212   */\n      dup6\n        /* \"#utility.yul\":7196:7202   */\n      dup3\n        /* \"#utility.yul\":7185:7194   */\n      dup7\n        /* \"#utility.yul\":7181:7203   */\n      add\n        /* \"#utility.yul\":7160:7213   */\n      tag_445\n      jump\t// in\n    tag_569:\n        /* \"#utility.yul\":7150:7213   */\n      swap3\n      pop\n        /* \"#utility.yul\":7106:7223   */\n      pop\n        /* \"#utility.yul\":7262:7264   */\n      0x20\n        /* \"#utility.yul\":7288:7341   */\n      tag_570\n        /* \"#utility.yul\":7333:7340   */\n      dup6\n        /* \"#utility.yul\":7324:7330   */\n      dup3\n        /* \"#utility.yul\":7313:7322   */\n      dup7\n        /* \"#utility.yul\":7309:7331   */\n      add\n        /* \"#utility.yul\":7288:7341   */\n      tag_445\n      jump\t// in\n    tag_570:\n        /* \"#utility.yul\":7278:7341   */\n      swap2\n      pop\n        /* \"#utility.yul\":7233:7351   */\n      pop\n        /* \"#utility.yul\":6884:7358   */\n      swap3\n      pop\n      swap3\n      swap1\n      pop\n      jump\t// out\n        /* \"#utility.yul\":7364:7504   */\n    tag_446:\n        /* \"#utility.yul\":7457:7463   */\n      0x00\n        /* \"#utility.yul\":7491:7496   */\n      dup2\n        /* \"#utility.yul\":7485:7497   */\n      mload\n        /* \"#utility.yul\":7475:7497   */\n      swap1\n      pop\n        /* \"#utility.yul\":7364:7504   */\n      swap2\n      swap1\n      pop\n      jump\t// out\n        /* \"#utility.yul\":7510:7720   */\n    tag_447:\n        /* \"#utility.yul\":7635:7646   */\n      0x00\n        /* \"#utility.yul\":7669:7675   */\n      dup3\n        /* \"#utility.yul\":7664:7667   */\n      dup3\n        /* \"#utility.yul\":7657:7676   */\n      mstore\n        /* \"#utility.yul\":7709:7713   */\n      0x20\n        /* \"#utility.yul\":7704:7707   */\n      dup3\n        /* \"#utility.yul\":7700:7714   */\n      add\n        /* \"#utility.yul\":7685:7714   */\n      swap1\n      pop\n        /* \"#utility.yul\":7510:7720   */\n      swap3\n      swap2\n      pop\n      pop\n      jump\t// out\n        /* \"#utility.yul\":7726:7884   */\n    tag_448:\n        /* \"#utility.yul\":7819:7823   */\n      0x00\n        /* \"#utility.yul\":7842:7845   */\n      dup2\n        /* \"#utility.yul\":7834:7845   */\n      swap1\n      pop\n        /* \"#utility.yul\":7872:7876   */\n      0x20\n        /* \"#utility.yul\":7867:7870   */\n      dup3\n        /* \"#utility.yul\":7863:7877   */\n      add\n        /* \"#utility.yul\":7855:7877   */\n      swap1\n      pop\n        /* \"#utility.yul\":7726:7884   */\n      swap2\n      swap1\n      pop\n      jump\t// out\n        /* \"#utility.yul\":7964:9183   */\n    tag_449:\n        /* \"#utility.yul\":8075:8078   */\n      0x00\n        /* \"#utility.yul\":8111:8115   */\n      0xa0\n        /* \"#utility.yul\":8106:8109   */\n      dup4\n        /* \"#utility.yul\":8102:8116   */\n      add\n        /* \"#utility.yul\":8202:8206   */\n      0x00\n        /* \"#utility.yul\":8195:8200   */\n      dup4\n        /* \"#utility.yul\":8191:8207   */\n      add\n        /* \"#utility.yul\":8185:8208   */\n      mload\n        /* \"#utility.yul\":8221:8284   */\n      tag_575\n        /* \"#utility.yul\":8278:8282   */\n      0x00\n        /* \"#utility.yul\":8273:8276   */\n      dup7\n        /* \"#utility.yul\":8269:8283   */\n      add\n        /* \"#utility.yul\":8255:8267   */\n      dup3\n        /* \"#utility.yul\":8221:8284   */\n      tag_430\n      jump\t// in\n    tag_575:\n        /* \"#utility.yul\":8126:8294   */\n      pop\n        /* \"#utility.yul\":8377:8381   */\n      0x20\n        /* \"#utility.yul\":8370:8375   */\n      dup4\n        /* \"#utility.yul\":8366:8382   */\n      add\n        /* \"#utility.yul\":8360:8383   */\n      mload\n        /* \"#utility.yul\":8430:8433   */\n      dup5\n        /* \"#utility.yul\":8424:8428   */\n      dup3\n        /* \"#utility.yul\":8420:8434   */\n      sub\n        /* \"#utility.yul\":8413:8417   */\n      0x20\n        /* \"#utility.yul\":8408:8411   */\n      dup7\n        /* \"#utility.yul\":8404:8418   */\n      add\n        /* \"#utility.yul\":8397:8435   */\n      mstore\n        /* \"#utility.yul\":8456:8529   */\n      tag_576\n        /* \"#utility.yul\":8524:8528   */\n      dup3\n        /* \"#utility.yul\":8510:8522   */\n      dup3\n        /* \"#utility.yul\":8456:8529   */\n      tag_435\n      jump\t// in\n    tag_576:\n        /* \"#utility.yul\":8448:8529   */\n      swap2\n      pop\n        /* \"#utility.yul\":8304:8540   */\n      pop\n        /* \"#utility.yul\":8630:8634   */\n      0x40\n        /* \"#utility.yul\":8623:8628   */\n      dup4\n        /* \"#utility.yul\":8619:8635   */\n      add\n        /* \"#utility.yul\":8613:8636   */\n      mload\n        /* \"#utility.yul\":8683:8686   */\n      dup5\n        /* \"#utility.yul\":8677:8681   */\n      dup3\n        /* \"#utility.yul\":8673:8687   */\n      sub\n        /* \"#utility.yul\":8666:8670   */\n      0x40\n        /* \"#utility.yul\":8661:8664   */\n      dup7\n        /* \"#utility.yul\":8657:8671   */\n      add\n        /* \"#utility.yul\":8650:8688   */\n      mstore\n        /* \"#utility.yul\":8709:8782   */\n      tag_577\n        /* \"#utility.yul\":8777:8781   */\n      dup3\n        /* \"#utility.yul\":8763:8775   */\n      dup3\n        /* \"#utility.yul\":8709:8782   */\n      tag_435\n      jump\t// in\n    tag_577:\n        /* \"#utility.yul\":8701:8782   */\n      swap2\n      pop\n        /* \"#utility.yul\":8550:8793   */\n      pop\n        /* \"#utility.yul\":8880:8884   */\n      0x60\n        /* \"#utility.yul\":8873:8878   */\n      dup4\n        /* \"#utility.yul\":8869:8885   */\n      add\n        /* \"#utility.yul\":8863:8886   */\n      mload\n        /* \"#utility.yul\":8899:8956   */\n      tag_578\n        /* \"#utility.yul\":8950:8954   */\n      0x60\n        /* \"#utility.yul\":8945:8948   */\n      dup7\n        /* \"#utility.yul\":8941:8955   */\n      add\n        /* \"#utility.yul\":8927:8939   */\n      dup3\n        /* \"#utility.yul\":8899:8956   */\n      tag_437\n      jump\t// in\n    tag_578:\n        /* \"#utility.yul\":8803:8966   */\n      pop\n        /* \"#utility.yul\":9064:9068   */\n      0x80\n        /* \"#utility.yul\":9057:9062   */\n      dup4\n        /* \"#utility.yul\":9053:9069   */\n      add\n        /* \"#utility.yul\":9047:9070   */\n      mload\n        /* \"#utility.yul\":9083:9146   */\n      tag_579\n        /* \"#utility.yul\":9140:9144   */\n      0x80\n        /* \"#utility.yul\":9135:9138   */\n      dup7\n        /* \"#utility.yul\":9131:9145   */\n      add\n        /* \"#utility.yul\":9117:9129   */\n      dup3\n        /* \"#utility.yul\":9083:9146   */\n      tag_439\n      jump\t// in\n    tag_579:\n        /* \"#utility.yul\":8976:9156   */\n      pop\n        /* \"#utility.yul\":9173:9177   */\n      dup1\n        /* \"#utility.yul\":9166:9177   */\n      swap2\n      pop\n        /* \"#utility.yul\":8080:9183   */\n      pop\n        /* \"#utility.yul\":7964:9183   */\n      swap3\n      swap2\n      pop\n      pop\n      jump\t// out\n        /* \"#utility.yul\":9189:9449   */\n    tag_450:\n        /* \"#utility.yul\":9310:9320   */\n      0x00\n        /* \"#utility.yul\":9345:9443   */\n      tag_581\n        /* \"#utility.yul\":9439:9442   */\n      dup4\n        /* \"#utility.yul\":9431:9437   */\n      dup4\n        /* \"#utility.yul\":9345:9443   */\n      tag_449\n      jump\t// in\n    tag_581:\n        /* \"#utility.yul\":9331:9443   */\n      swap1\n      pop\n        /* \"#utility.yul\":9189:9449   */\n      swap3\n      swap2\n      pop\n      pop\n      jump\t// out\n        /* \"#utility.yul\":9455:9594   */\n    tag_451:\n        /* \"#utility.yul\":9551:9555   */\n      0x00\n        /* \"#utility.yul\":9583:9587   */\n      0x20\n        /* \"#utility.yul\":9578:9581   */\n      dup3\n        /* \"#utility.yul\":9574:9588   */\n      add\n        /* \"#utility.yul\":9566:9588   */\n      swap1\n      pop\n        /* \"#utility.yul\":9455:9594   */\n      swap2\n      swap1\n      pop\n      jump\t// out\n        /* \"#utility.yul\":9678:10797   */\n    tag_452:\n        /* \"#utility.yul\":9849:9852   */\n      0x00\n        /* \"#utility.yul\":9878:9958   */\n      tag_584\n        /* \"#utility.yul\":9952:9957   */\n      dup3\n        /* \"#utility.yul\":9878:9958   */\n      tag_446\n      jump\t// in\n    tag_584:\n        /* \"#utility.yul\":9974:10086   */\n      tag_585\n        /* \"#utility.yul\":10079:10085   */\n      dup2\n        /* \"#utility.yul\":10074:10077   */\n      dup6\n        /* \"#utility.yul\":9974:10086   */\n      tag_447\n      jump\t// in\n    tag_585:\n        /* \"#utility.yul\":9967:10086   */\n      swap4\n      pop\n        /* \"#utility.yul\":10112:10115   */\n      dup4\n        /* \"#utility.yul\":10157:10161   */\n      0x20\n        /* \"#utility.yul\":10149:10155   */\n      dup3\n        /* \"#utility.yul\":10145:10162   */\n      mul\n        /* \"#utility.yul\":10140:10143   */\n      dup6\n        /* \"#utility.yul\":10136:10163   */\n      add\n        /* \"#utility.yul\":10187:10269   */\n      tag_586\n        /* \"#utility.yul\":10263:10268   */\n      dup6\n        /* \"#utility.yul\":10187:10269   */\n      tag_448\n      jump\t// in\n    tag_586:\n        /* \"#utility.yul\":10292:10299   */\n      dup1\n        /* \"#utility.yul\":10323:10324   */\n      0x00\n        /* \"#utility.yul\":10308:10752   */\n    tag_587:\n        /* \"#utility.yul\":10333:10339   */\n      dup6\n        /* \"#utility.yul\":10330:10331   */\n      dup2\n        /* \"#utility.yul\":10327:10340   */\n      lt\n        /* \"#utility.yul\":10308:10752   */\n      iszero\n      tag_589\n      jumpi\n        /* \"#utility.yul\":10404:10413   */\n      dup5\n        /* \"#utility.yul\":10398:10402   */\n      dup5\n        /* \"#utility.yul\":10394:10414   */\n      sub\n        /* \"#utility.yul\":10389:10392   */\n      dup10\n        /* \"#utility.yul\":10382:10415   */\n      mstore\n        /* \"#utility.yul\":10455:10461   */\n      dup2\n        /* \"#utility.yul\":10449:10462   */\n      mload\n        /* \"#utility.yul\":10483:10599   */\n      tag_590\n        /* \"#utility.yul\":10594:10598   */\n      dup6\n        /* \"#utility.yul\":10579:10592   */\n      dup3\n        /* \"#utility.yul\":10483:10599   */\n      tag_450\n      jump\t// in\n    tag_590:\n        /* \"#utility.yul\":10475:10599   */\n      swap5\n      pop\n        /* \"#utility.yul\":10622:10708   */\n      tag_591\n        /* \"#utility.yul\":10701:10707   */\n      dup4\n        /* \"#utility.yul\":10622:10708   */\n      tag_451\n      jump\t// in\n    tag_591:\n        /* \"#utility.yul\":10612:10708   */\n      swap3\n      pop\n        /* \"#utility.yul\":10737:10741   */\n      0x20\n        /* \"#utility.yul\":10732:10735   */\n      dup11\n        /* \"#utility.yul\":10728:10742   */\n      add\n        /* \"#utility.yul\":10721:10742   */\n      swap10\n      pop\n        /* \"#utility.yul\":10368:10752   */\n      pop\n        /* \"#utility.yul\":10355:10356   */\n      0x01\n        /* \"#utility.yul\":10352:10353   */\n      dup2\n        /* \"#utility.yul\":10348:10357   */\n      add\n        /* \"#utility.yul\":10343:10357   */\n      swap1\n      pop\n        /* \"#utility.yul\":10308:10752   */\n      jump(tag_587)\n    tag_589:\n        /* \"#utility.yul\":10312:10326   */\n      pop\n        /* \"#utility.yul\":10768:10772   */\n      dup3\n        /* \"#utility.yul\":10761:10772   */\n      swap8\n      pop\n        /* \"#utility.yul\":10788:10791   */\n      dup8\n        /* \"#utility.yul\":10781:10791   */\n      swap6\n      pop\n        /* \"#utility.yul\":9854:10797   */\n      pop\n      pop\n      pop\n      pop\n      pop\n        /* \"#utility.yul\":9678:10797   */\n      swap3\n      swap2\n      pop\n      pop\n      jump\t// out\n        /* \"#utility.yul\":10803:11280   */\n    tag_40:\n        /* \"#utility.yul\":10998:11002   */\n      0x00\n        /* \"#utility.yul\":11036:11038   */\n      0x20\n        /* \"#utility.yul\":11025:11034   */\n      dup3\n        /* \"#utility.yul\":11021:11039   */\n      add\n        /* \"#utility.yul\":11013:11039   */\n      swap1\n      pop\n        /* \"#utility.yul\":11085:11094   */\n      dup2\n        /* \"#utility.yul\":11079:11083   */\n      dup2\n        /* \"#utility.yul\":11075:11095   */\n      sub\n        /* \"#utility.yul\":11071:11072   */\n      0x00\n        /* \"#utility.yul\":11060:11069   */\n      dup4\n        /* \"#utility.yul\":11056:11073   */\n      add\n        /* \"#utility.yul\":11049:11096   */\n      mstore\n        /* \"#utility.yul\":11113:11273   */\n      tag_593\n        /* \"#utility.yul\":11268:11272   */\n      dup2\n        /* \"#utility.yul\":11259:11265   */\n      dup5\n        /* \"#utility.yul\":11113:11273   */\n      tag_452\n      jump\t// in\n    tag_593:\n        /* \"#utility.yul\":11105:11273   */\n      swap1\n      pop\n        /* \"#utility.yul\":10803:11280   */\n      swap3\n      swap2\n      pop\n      pop\n      jump\t// out\n        /* \"#utility.yul\":11286:11395   */\n    tag_453:\n        /* \"#utility.yul\":11367:11388   */\n      tag_595\n        /* \"#utility.yul\":11382:11387   */\n      dup2\n        /* \"#utility.yul\":11367:11388   */\n      tag_436\n      jump\t// in\n    tag_595:\n        /* \"#utility.yul\":11362:11365   */\n      dup3\n        /* \"#utility.yul\":11355:11389   */\n      mstore\n        /* \"#utility.yul\":11286:11395   */\n      pop\n      pop\n      jump\t// out\n        /* \"#utility.yul\":11401:11611   */\n    tag_45:\n        /* \"#utility.yul\":11488:11492   */\n      0x00\n        /* \"#utility.yul\":11526:11528   */\n      0x20\n        /* \"#utility.yul\":11515:11524   */\n      dup3\n        /* \"#utility.yul\":11511:11529   */\n      add\n        /* \"#utility.yul\":11503:11529   */\n      swap1\n      pop\n        /* \"#utility.yul\":11539:11604   */\n      tag_597\n        /* \"#utility.yul\":11601:11602   */\n      0x00\n        /* \"#utility.yul\":11590:11599   */\n      dup4\n        /* \"#utility.yul\":11586:11603   */\n      add\n        /* \"#utility.yul\":11577:11583   */\n      dup5\n        /* \"#utility.yul\":11539:11604   */\n      tag_453\n      jump\t// in\n    tag_597:\n        /* \"#utility.yul\":11401:11611   */\n      swap3\n      swap2\n      pop\n      pop\n      jump\t// out\n        /* \"#utility.yul\":11617:11735   */\n    tag_454:\n        /* \"#utility.yul\":11704:11728   */\n      tag_599\n        /* \"#utility.yul\":11722:11727   */\n      dup2\n        /* \"#utility.yul\":11704:11728   */\n      tag_424\n      jump\t// in\n    tag_599:\n        /* \"#utility.yul\":11699:11702   */\n      dup3\n        /* \"#utility.yul\":11692:11729   */\n      mstore\n        /* \"#utility.yul\":11617:11735   */\n      pop\n      pop\n      jump\t// out\n        /* \"#utility.yul\":11741:11963   */\n    tag_57:\n        /* \"#utility.yul\":11834:11838   */\n      0x00\n        /* \"#utility.yul\":11872:11874   */\n      0x20\n        /* \"#utility.yul\":11861:11870   */\n      dup3\n        /* \"#utility.yul\":11857:11875   */\n      add\n        /* \"#utility.yul\":11849:11875   */\n      swap1\n      pop\n        /* \"#utility.yul\":11885:11956   */\n      tag_601\n        /* \"#utility.yul\":11953:11954   */\n      0x00\n        /* \"#utility.yul\":11942:11951   */\n      dup4\n        /* \"#utility.yul\":11938:11955   */\n      add\n        /* \"#utility.yul\":11929:11935   */\n      dup5\n        /* \"#utility.yul\":11885:11956   */\n      tag_454\n      jump\t// in\n    tag_601:\n        /* \"#utility.yul\":11741:11963   */\n      swap3\n      swap2\n      pop\n      pop\n      jump\t// out\n        /* \"#utility.yul\":12059:13291   */\n    tag_455:\n        /* \"#utility.yul\":12188:12191   */\n      0x00\n        /* \"#utility.yul\":12224:12228   */\n      0xa0\n        /* \"#utility.yul\":12219:12222   */\n      dup4\n        /* \"#utility.yul\":12215:12229   */\n      add\n        /* \"#utility.yul\":12315:12319   */\n      0x00\n        /* \"#utility.yul\":12308:12313   */\n      dup4\n        /* \"#utility.yul\":12304:12320   */\n      add\n        /* \"#utility.yul\":12298:12321   */\n      mload\n        /* \"#utility.yul\":12334:12397   */\n      tag_603\n        /* \"#utility.yul\":12391:12395   */\n      0x00\n        /* \"#utility.yul\":12386:12389   */\n      dup7\n        /* \"#utility.yul\":12382:12396   */\n      add\n        /* \"#utility.yul\":12368:12380   */\n      dup3\n        /* \"#utility.yul\":12334:12397   */\n      tag_430\n      jump\t// in\n    tag_603:\n        /* \"#utility.yul\":12239:12407   */\n      pop\n        /* \"#utility.yul\":12490:12494   */\n      0x20\n        /* \"#utility.yul\":12483:12488   */\n      dup4\n        /* \"#utility.yul\":12479:12495   */\n      add\n        /* \"#utility.yul\":12473:12496   */\n      mload\n        /* \"#utility.yul\":12543:12546   */\n      dup5\n        /* \"#utility.yul\":12537:12541   */\n      dup3\n        /* \"#utility.yul\":12533:12547   */\n      sub\n        /* \"#utility.yul\":12526:12530   */\n      0x20\n        /* \"#utility.yul\":12521:12524   */\n      dup7\n        /* \"#utility.yul\":12517:12531   */\n      add\n        /* \"#utility.yul\":12510:12548   */\n      mstore\n        /* \"#utility.yul\":12569:12642   */\n      tag_604\n        /* \"#utility.yul\":12637:12641   */\n      dup3\n        /* \"#utility.yul\":12623:12635   */\n      dup3\n        /* \"#utility.yul\":12569:12642   */\n      tag_435\n      jump\t// in\n    tag_604:\n        /* \"#utility.yul\":12561:12642   */\n      swap2\n      pop\n        /* \"#utility.yul\":12417:12653   */\n      pop\n        /* \"#utility.yul\":12738:12742   */\n      0x40\n        /* \"#utility.yul\":12731:12736   */\n      dup4\n        /* \"#utility.yul\":12727:12743   */\n      add\n        /* \"#utility.yul\":12721:12744   */\n      mload\n        /* \"#utility.yul\":12791:12794   */\n      dup5\n        /* \"#utility.yul\":12785:12789   */\n      dup3\n        /* \"#utility.yul\":12781:12795   */\n      sub\n        /* \"#utility.yul\":12774:12778   */\n      0x40\n        /* \"#utility.yul\":12769:12772   */\n      dup7\n        /* \"#utility.yul\":12765:12779   */\n      add\n        /* \"#utility.yul\":12758:12796   */\n      mstore\n        /* \"#utility.yul\":12817:12890   */\n      tag_605\n        /* \"#utility.yul\":12885:12889   */\n      dup3\n        /* \"#utility.yul\":12871:12883   */\n      dup3\n        /* \"#utility.yul\":12817:12890   */\n      tag_435\n      jump\t// in\n    tag_605:\n        /* \"#utility.yul\":12809:12890   */\n      swap2\n      pop\n        /* \"#utility.yul\":12663:12901   */\n      pop\n        /* \"#utility.yul\":12988:12992   */\n      0x60\n        /* \"#utility.yul\":12981:12986   */\n      dup4\n        /* \"#utility.yul\":12977:12993   */\n      add\n        /* \"#utility.yul\":12971:12994   */\n      mload\n        /* \"#utility.yul\":13007:13064   */\n      tag_606\n        /* \"#utility.yul\":13058:13062   */\n      0x60\n        /* \"#utility.yul\":13053:13056   */\n      dup7\n        /* \"#utility.yul\":13049:13063   */\n      add\n        /* \"#utility.yul\":13035:13047   */\n      dup3\n        /* \"#utility.yul\":13007:13064   */\n      tag_437\n      jump\t// in\n    tag_606:\n        /* \"#utility.yul\":12911:13074   */\n      pop\n        /* \"#utility.yul\":13172:13176   */\n      0x80\n        /* \"#utility.yul\":13165:13170   */\n      dup4\n        /* \"#utility.yul\":13161:13177   */\n      add\n        /* \"#utility.yul\":13155:13178   */\n      mload\n        /* \"#utility.yul\":13191:13254   */\n      tag_607\n        /* \"#utility.yul\":13248:13252   */\n      0x80\n        /* \"#utility.yul\":13243:13246   */\n      dup7\n        /* \"#utility.yul\":13239:13253   */\n      add\n        /* \"#utility.yul\":13225:13237   */\n      dup3\n        /* \"#utility.yul\":13191:13254   */\n      tag_439\n      jump\t// in\n    tag_607:\n        /* \"#utility.yul\":13084:13264   */\n      pop\n        /* \"#utility.yul\":13281:13285   */\n      dup1\n        /* \"#utility.yul\":13274:13285   */\n      swap2\n      pop\n        /* \"#utility.yul\":12193:13291   */\n      pop\n        /* \"#utility.yul\":12059:13291   */\n      swap3\n      swap2\n      pop\n      pop\n      jump\t// out\n        /* \"#utility.yul\":13297:13690   */\n    tag_65:\n        /* \"#utility.yul\":13450:13454   */\n      0x00\n        /* \"#utility.yul\":13488:13490   */\n      0x20\n        /* \"#utility.yul\":13477:13486   */\n      dup3\n        /* \"#utility.yul\":13473:13491   */\n      add\n        /* \"#utility.yul\":13465:13491   */\n      swap1\n      pop\n        /* \"#utility.yul\":13537:13546   */\n      dup2\n        /* \"#utility.yul\":13531:13535   */\n      dup2\n        /* \"#utility.yul\":13527:13547   */\n      sub\n        /* \"#utility.yul\":13523:13524   */\n      0x00\n        /* \"#utility.yul\":13512:13521   */\n      dup4\n        /* \"#utility.yul\":13508:13525   */\n      add\n        /* \"#utility.yul\":13501:13548   */\n      mstore\n        /* \"#utility.yul\":13565:13683   */\n      tag_609\n        /* \"#utility.yul\":13678:13682   */\n      dup2\n        /* \"#utility.yul\":13669:13675   */\n      dup5\n        /* \"#utility.yul\":13565:13683   */\n      tag_455\n      jump\t// in\n    tag_609:\n        /* \"#utility.yul\":13557:13683   */\n      swap1\n      pop\n        /* \"#utility.yul\":13297:13690   */\n      swap3\n      swap2\n      pop\n      pop\n      jump\t// out\n        /* \"#utility.yul\":13770:14999   */\n    tag_456:\n        /* \"#utility.yul\":13891:13894   */\n      0x00\n        /* \"#utility.yul\":13927:13931   */\n      0xa0\n        /* \"#utility.yul\":13922:13925   */\n      dup4\n        /* \"#utility.yul\":13918:13932   */\n      add\n        /* \"#utility.yul\":14018:14022   */\n      0x00\n        /* \"#utility.yul\":14011:14016   */\n      dup4\n        /* \"#utility.yul\":14007:14023   */\n      add\n        /* \"#utility.yul\":14001:14024   */\n      mload\n        /* \"#utility.yul\":14037:14100   */\n      tag_611\n        /* \"#utility.yul\":14094:14098   */\n      0x00\n        /* \"#utility.yul\":14089:14092   */\n      dup7\n        /* \"#utility.yul\":14085:14099   */\n      add\n        /* \"#utility.yul\":14071:14083   */\n      dup3\n        /* \"#utility.yul\":14037:14100   */\n      tag_430\n      jump\t// in\n    tag_611:\n        /* \"#utility.yul\":13942:14110   */\n      pop\n        /* \"#utility.yul\":14193:14197   */\n      0x20\n        /* \"#utility.yul\":14186:14191   */\n      dup4\n        /* \"#utility.yul\":14182:14198   */\n      add\n        /* \"#utility.yul\":14176:14199   */\n      mload\n        /* \"#utility.yul\":14246:14249   */\n      dup5\n        /* \"#utility.yul\":14240:14244   */\n      dup3\n        /* \"#utility.yul\":14236:14250   */\n      sub\n        /* \"#utility.yul\":14229:14233   */\n      0x20\n        /* \"#utility.yul\":14224:14227   */\n      dup7\n        /* \"#utility.yul\":14220:14234   */\n      add\n        /* \"#utility.yul\":14213:14251   */\n      mstore\n        /* \"#utility.yul\":14272:14345   */\n      tag_612\n        /* \"#utility.yul\":14340:14344   */\n      dup3\n        /* \"#utility.yul\":14326:14338   */\n      dup3\n        /* \"#utility.yul\":14272:14345   */\n      tag_435\n      jump\t// in\n    tag_612:\n        /* \"#utility.yul\":14264:14345   */\n      swap2\n      pop\n        /* \"#utility.yul\":14120:14356   */\n      pop\n        /* \"#utility.yul\":14446:14450   */\n      0x40\n        /* \"#utility.yul\":14439:14444   */\n      dup4\n        /* \"#utility.yul\":14435:14451   */\n      add\n        /* \"#utility.yul\":14429:14452   */\n      mload\n        /* \"#utility.yul\":14499:14502   */\n      dup5\n        /* \"#utility.yul\":14493:14497   */\n      dup3\n        /* \"#utility.yul\":14489:14503   */\n      sub\n        /* \"#utility.yul\":14482:14486   */\n      0x40\n        /* \"#utility.yul\":14477:14480   */\n      dup7\n        /* \"#utility.yul\":14473:14487   */\n      add\n        /* \"#utility.yul\":14466:14504   */\n      mstore\n        /* \"#utility.yul\":14525:14598   */\n      tag_613\n        /* \"#utility.yul\":14593:14597   */\n      dup3\n        /* \"#utility.yul\":14579:14591   */\n      dup3\n        /* \"#utility.yul\":14525:14598   */\n      tag_435\n      jump\t// in\n    tag_613:\n        /* \"#utility.yul\":14517:14598   */\n      swap2\n      pop\n        /* \"#utility.yul\":14366:14609   */\n      pop\n        /* \"#utility.yul\":14696:14700   */\n      0x60\n        /* \"#utility.yul\":14689:14694   */\n      dup4\n        /* \"#utility.yul\":14685:14701   */\n      add\n        /* \"#utility.yul\":14679:14702   */\n      mload\n        /* \"#utility.yul\":14715:14772   */\n      tag_614\n        /* \"#utility.yul\":14766:14770   */\n      0x60\n        /* \"#utility.yul\":14761:14764   */\n      dup7\n        /* \"#utility.yul\":14757:14771   */\n      add\n        /* \"#utility.yul\":14743:14755   */\n      dup3\n        /* \"#utility.yul\":14715:14772   */\n      tag_437\n      jump\t// in\n    tag_614:\n        /* \"#utility.yul\":14619:14782   */\n      pop\n        /* \"#utility.yul\":14880:14884   */\n      0x80\n        /* \"#utility.yul\":14873:14878   */\n      dup4\n        /* \"#utility.yul\":14869:14885   */\n      add\n        /* \"#utility.yul\":14863:14886   */\n      mload\n        /* \"#utility.yul\":14899:14962   */\n      tag_615\n        /* \"#utility.yul\":14956:14960   */\n      0x80\n        /* \"#utility.yul\":14951:14954   */\n      dup7\n        /* \"#utility.yul\":14947:14961   */\n      add\n        /* \"#utility.yul\":14933:14945   */\n      dup3\n        /* \"#utility.yul\":14899:14962   */\n      tag_439\n      jump\t// in\n    tag_615:\n        /* \"#utility.yul\":14792:14972   */\n      pop\n        /* \"#utility.yul\":14989:14993   */\n      dup1\n        /* \"#utility.yul\":14982:14993   */\n      swap2\n      pop\n        /* \"#utility.yul\":13896:14999   */\n      pop\n        /* \"#utility.yul\":13770:14999   */\n      swap3\n      swap2\n      pop\n      pop\n      jump\t// out\n        /* \"#utility.yul\":15005:15382   */\n    tag_70:\n        /* \"#utility.yul\":15150:15154   */\n      0x00\n        /* \"#utility.yul\":15188:15190   */\n      0x20\n        /* \"#utility.yul\":15177:15186   */\n      dup3\n        /* \"#utility.yul\":15173:15191   */\n      add\n        /* \"#utility.yul\":15165:15191   */\n      swap1\n      pop\n        /* \"#utility.yul\":15237:15246   */\n      dup2\n        /* \"#utility.yul\":15231:15235   */\n      dup2\n        /* \"#utility.yul\":15227:15247   */\n      sub\n        /* \"#utility.yul\":15223:15224   */\n      0x00\n        /* \"#utility.yul\":15212:15221   */\n      dup4\n        /* \"#utility.yul\":15208:15225   */\n      add\n        /* \"#utility.yul\":15201:15248   */\n      mstore\n        /* \"#utility.yul\":15265:15375   */\n      tag_617\n        /* \"#utility.yul\":15370:15374   */\n      dup2\n        /* \"#utility.yul\":15361:15367   */\n      dup5\n        /* \"#utility.yul\":15265:15375   */\n      tag_456\n      jump\t// in\n    tag_617:\n        /* \"#utility.yul\":15257:15375   */\n      swap1\n      pop\n        /* \"#utility.yul\":15005:15382   */\n      swap3\n      swap2\n      pop\n      pop\n      jump\t// out\n        /* \"#utility.yul\":15388:15505   */\n    tag_457:\n        /* \"#utility.yul\":15497:15498   */\n      0x00\n        /* \"#utility.yul\":15494:15495   */\n      0x00\n        /* \"#utility.yul\":15487:15499   */\n      revert\n        /* \"#utility.yul\":15511:15628   */\n    tag_458:\n        /* \"#utility.yul\":15620:15621   */\n      0x00\n        /* \"#utility.yul\":15617:15618   */\n      0x00\n        /* \"#utility.yul\":15610:15622   */\n      revert\n        /* \"#utility.yul\":15634:15814   */\n    tag_109:\n        /* \"#utility.yul\":15682:15759   */\n      0x4e487b7100000000000000000000000000000000000000000000000000000000\n        /* \"#utility.yul\":15679:15680   */\n      0x00\n        /* \"#utility.yul\":15672:15760   */\n      mstore\n        /* \"#utility.yul\":15779:15783   */\n      0x41\n        /* \"#utility.yul\":15776:15777   */\n      0x04\n        /* \"#utility.yul\":15769:15784   */\n      mstore\n        /* \"#utility.yul\":15803:15807   */\n      0x24\n        /* \"#utility.yul\":15800:15801   */\n      0x00\n        /* \"#utility.yul\":15793:15808   */\n      revert\n        /* \"#utility.yul\":15820:16101   */\n    tag_459:\n        /* \"#utility.yul\":15903:15930   */\n      tag_622\n        /* \"#utility.yul\":15925:15929   */\n      dup3\n        /* \"#utility.yul\":15903:15930   */\n      tag_434\n      jump\t// in\n    tag_622:\n        /* \"#utility.yul\":15895:15901   */\n      dup2\n        /* \"#utility.yul\":15891:15931   */\n      add\n        /* \"#utility.yul\":16033:16039   */\n      dup2\n        /* \"#utility.yul\":16021:16031   */\n      dup2\n        /* \"#utility.yul\":16018:16040   */\n      lt\n        /* \"#utility.yul\":15997:16015   */\n      0xffffffffffffffff\n        /* \"#utility.yul\":15985:15995   */\n      dup3\n        /* \"#utility.yul\":15982:16016   */\n      gt\n        /* \"#utility.yul\":15979:16041   */\n      or\n        /* \"#utility.yul\":15976:16064   */\n      iszero\n      tag_623\n      jumpi\n        /* \"#utility.yul\":16044:16062   */\n      tag_624\n      tag_109\n      jump\t// in\n    tag_624:\n        /* \"#utility.yul\":15976:16064   */\n    tag_623:\n        /* \"#utility.yul\":16084:16094   */\n      dup1\n        /* \"#utility.yul\":16080:16082   */\n      0x40\n        /* \"#utility.yul\":16073:16095   */\n      mstore\n        /* \"#utility.yul\":15863:16101   */\n      pop\n        /* \"#utility.yul\":15820:16101   */\n      pop\n      pop\n      jump\t// out\n        /* \"#utility.yul\":16107:16236   */\n    tag_460:\n        /* \"#utility.yul\":16141:16147   */\n      0x00\n        /* \"#utility.yul\":16168:16188   */\n      tag_626\n      tag_420\n      jump\t// in\n    tag_626:\n        /* \"#utility.yul\":16158:16188   */\n      swap1\n      pop\n        /* \"#utility.yul\":16197:16230   */\n      tag_627\n        /* \"#utility.yul\":16225:16229   */\n      dup3\n        /* \"#utility.yul\":16217:16223   */\n      dup3\n        /* \"#utility.yul\":16197:16230   */\n      tag_459\n      jump\t// in\n    tag_627:\n        /* \"#utility.yul\":16107:16236   */\n      swap2\n      swap1\n      pop\n      jump\t// out\n        /* \"#utility.yul\":16242:16550   */\n    tag_461:\n        /* \"#utility.yul\":16304:16308   */\n      0x00\n        /* \"#utility.yul\":16394:16412   */\n      0xffffffffffffffff\n        /* \"#utility.yul\":16386:16392   */\n      dup3\n        /* \"#utility.yul\":16383:16413   */\n      gt\n        /* \"#utility.yul\":16380:16436   */\n      iszero\n      tag_629\n      jumpi\n        /* \"#utility.yul\":16416:16434   */\n      tag_630\n      tag_109\n      jump\t// in\n    tag_630:\n        /* \"#utility.yul\":16380:16436   */\n    tag_629:\n        /* \"#utility.yul\":16454:16483   */\n      tag_631\n        /* \"#utility.yul\":16476:16482   */\n      dup3\n        /* \"#utility.yul\":16454:16483   */\n      tag_434\n      jump\t// in\n    tag_631:\n        /* \"#utility.yul\":16446:16483   */\n      swap1\n      pop\n        /* \"#utility.yul\":16538:16542   */\n      0x20\n        /* \"#utility.yul\":16532:16536   */\n      dup2\n        /* \"#utility.yul\":16528:16543   */\n      add\n        /* \"#utility.yul\":16520:16543   */\n      swap1\n      pop\n        /* \"#utility.yul\":16242:16550   */\n      swap2\n      swap1\n      pop\n      jump\t// out\n        /* \"#utility.yul\":16556:16704   */\n    tag_462:\n        /* \"#utility.yul\":16654:16660   */\n      dup3\n        /* \"#utility.yul\":16649:16652   */\n      dup2\n        /* \"#utility.yul\":16644:16647   */\n      dup4\n        /* \"#utility.yul\":16631:16661   */\n      calldatacopy\n        /* \"#utility.yul\":16695:16696   */\n      0x00\n        /* \"#utility.yul\":16686:16692   */\n      dup4\n        /* \"#utility.yul\":16681:16684   */\n      dup4\n        /* \"#utility.yul\":16677:16693   */\n      add\n        /* \"#utility.yul\":16670:16697   */\n      mstore\n        /* \"#utility.yul\":16556:16704   */\n      pop\n      pop\n      pop\n      jump\t// out\n        /* \"#utility.yul\":16710:17135   */\n    tag_463:\n        /* \"#utility.yul\":16788:16793   */\n      0x00\n        /* \"#utility.yul\":16813:16879   */\n      tag_634\n        /* \"#utility.yul\":16829:16878   */\n      tag_635\n        /* \"#utility.yul\":16871:16877   */\n      dup5\n        /* \"#utility.yul\":16829:16878   */\n      tag_461\n      jump\t// in\n    tag_635:\n        /* \"#utility.yul\":16813:16879   */\n      tag_460\n      jump\t// in\n    tag_634:\n        /* \"#utility.yul\":16804:16879   */\n      swap1\n      pop\n        /* \"#utility.yul\":16902:16908   */\n      dup3\n        /* \"#utility.yul\":16895:16900   */\n      dup2\n        /* \"#utility.yul\":16888:16909   */\n      mstore\n        /* \"#utility.yul\":16940:16944   */\n      0x20\n        /* \"#utility.yul\":16933:16938   */\n      dup2\n        /* \"#utility.yul\":16929:16945   */\n      add\n        /* \"#utility.yul\":16978:16981   */\n      dup5\n        /* \"#utility.yul\":16969:16975   */\n      dup5\n        /* \"#utility.yul\":16964:16967   */\n      dup5\n        /* \"#utility.yul\":16960:16976   */\n      add\n        /* \"#utility.yul\":16957:16982   */\n      gt\n        /* \"#utility.yul\":16954:17066   */\n      iszero\n      tag_636\n      jumpi\n        /* \"#utility.yul\":16985:17064   */\n      tag_637\n      tag_458\n      jump\t// in\n    tag_637:\n        /* \"#utility.yul\":16954:17066   */\n    tag_636:\n        /* \"#utility.yul\":17075:17129   */\n      tag_638\n        /* \"#utility.yul\":17122:17128   */\n      dup5\n        /* \"#utility.yul\":17117:17120   */\n      dup3\n        /* \"#utility.yul\":17112:17115   */\n      dup6\n        /* \"#utility.yul\":17075:17129   */\n      tag_462\n      jump\t// in\n    tag_638:\n        /* \"#utility.yul\":16794:17135   */\n      pop\n        /* \"#utility.yul\":16710:17135   */\n      swap4\n      swap3\n      pop\n      pop\n      pop\n      jump\t// out\n        /* \"#utility.yul\":17155:17495   */\n    tag_464:\n        /* \"#utility.yul\":17211:17216   */\n      0x00\n        /* \"#utility.yul\":17260:17263   */\n      dup3\n        /* \"#utility.yul\":17253:17257   */\n      0x1f\n        /* \"#utility.yul\":17245:17251   */\n      dup4\n        /* \"#utility.yul\":17241:17258   */\n      add\n        /* \"#utility.yul\":17237:17264   */\n      slt\n        /* \"#utility.yul\":17227:17349   */\n      tag_640\n      jumpi\n        /* \"#utility.yul\":17268:17347   */\n      tag_641\n      tag_457\n      jump\t// in\n    tag_641:\n        /* \"#utility.yul\":17227:17349   */\n    tag_640:\n        /* \"#utility.yul\":17385:17391   */\n      dup2\n        /* \"#utility.yul\":17372:17392   */\n      calldataload\n        /* \"#utility.yul\":17410:17489   */\n      tag_642\n        /* \"#utility.yul\":17485:17488   */\n      dup5\n        /* \"#utility.yul\":17477:17483   */\n      dup3\n        /* \"#utility.yul\":17470:17474   */\n      0x20\n        /* \"#utility.yul\":17462:17468   */\n      dup7\n        /* \"#utility.yul\":17458:17475   */\n      add\n        /* \"#utility.yul\":17410:17489   */\n      tag_463\n      jump\t// in\n    tag_642:\n        /* \"#utility.yul\":17401:17489   */\n      swap2\n      pop\n        /* \"#utility.yul\":17217:17495   */\n      pop\n        /* \"#utility.yul\":17155:17495   */\n      swap3\n      swap2\n      pop\n      pop\n      jump\t// out\n        /* \"#utility.yul\":17501:18480   */\n    tag_76:\n        /* \"#utility.yul\":17598:17604   */\n      0x00\n        /* \"#utility.yul\":17606:17612   */\n      0x00\n        /* \"#utility.yul\":17614:17620   */\n      0x00\n        /* \"#utility.yul\":17663:17665   */\n      0x60\n        /* \"#utility.yul\":17651:17660   */\n      dup5\n        /* \"#utility.yul\":17642:17649   */\n      dup7\n        /* \"#utility.yul\":17638:17661   */\n      sub\n        /* \"#utility.yul\":17634:17666   */\n      slt\n        /* \"#utility.yul\":17631:17750   */\n      iszero\n      tag_644\n      jumpi\n        /* \"#utility.yul\":17669:17748   */\n      tag_645\n      tag_421\n      jump\t// in\n    tag_645:\n        /* \"#utility.yul\":17631:17750   */\n    tag_644:\n        /* \"#utility.yul\":17789:17790   */\n      0x00\n        /* \"#utility.yul\":17814:17867   */\n      tag_646\n        /* \"#utility.yul\":17859:17866   */\n      dup7\n        /* \"#utility.yul\":17850:17856   */\n      dup3\n        /* \"#utility.yul\":17839:17848   */\n      dup8\n        /* \"#utility.yul\":17835:17857   */\n      add\n        /* \"#utility.yul\":17814:17867   */\n      tag_426\n      jump\t// in\n    tag_646:\n        /* \"#utility.yul\":17804:17867   */\n      swap4\n      pop\n        /* \"#utility.yul\":17760:17877   */\n      pop\n        /* \"#utility.yul\":17944:17946   */\n      0x20\n        /* \"#utility.yul\":17933:17942   */\n      dup5\n        /* \"#utility.yul\":17929:17947   */\n      add\n        /* \"#utility.yul\":17916:17948   */\n      calldataload\n        /* \"#utility.yul\":17975:17993   */\n      0xffffffffffffffff\n        /* \"#utility.yul\":17967:17973   */\n      dup2\n        /* \"#utility.yul\":17964:17994   */\n      gt\n        /* \"#utility.yul\":17961:18078   */\n      iszero\n      tag_647\n      jumpi\n        /* \"#utility.yul\":17997:18076   */\n      tag_648\n      tag_422\n      jump\t// in\n    tag_648:\n        /* \"#utility.yul\":17961:18078   */\n    tag_647:\n        /* \"#utility.yul\":18102:18165   */\n      tag_649\n        /* \"#utility.yul\":18157:18164   */\n      dup7\n        /* \"#utility.yul\":18148:18154   */\n      dup3\n        /* \"#utility.yul\":18137:18146   */\n      dup8\n        /* \"#utility.yul\":18133:18155   */\n      add\n        /* \"#utility.yul\":18102:18165   */\n      tag_464\n      jump\t// in\n    tag_649:\n        /* \"#utility.yul\":18092:18165   */\n      swap3\n      pop\n        /* \"#utility.yul\":17887:18175   */\n      pop\n        /* \"#utility.yul\":18242:18244   */\n      0x40\n        /* \"#utility.yul\":18231:18240   */\n      dup5\n        /* \"#utility.yul\":18227:18245   */\n      add\n        /* \"#utility.yul\":18214:18246   */\n      calldataload\n        /* \"#utility.yul\":18273:18291   */\n      0xffffffffffffffff\n        /* \"#utility.yul\":18265:18271   */\n      dup2\n        /* \"#utility.yul\":18262:18292   */\n      gt\n        /* \"#utility.yul\":18259:18376   */\n      iszero\n      tag_650\n      jumpi\n        /* \"#utility.yul\":18295:18374   */\n      tag_651\n      tag_422\n      jump\t// in\n    tag_651:\n        /* \"#utility.yul\":18259:18376   */\n    tag_650:\n        /* \"#utility.yul\":18400:18463   */\n      tag_652\n        /* \"#utility.yul\":18455:18462   */\n      dup7\n        /* \"#utility.yul\":18446:18452   */\n      dup3\n        /* \"#utility.yul\":18435:18444   */\n      dup8\n        /* \"#utility.yul\":18431:18453   */\n      add\n        /* \"#utility.yul\":18400:18463   */\n      tag_464\n      jump\t// in\n    tag_652:\n        /* \"#utility.yul\":18390:18463   */\n      swap2\n      pop\n        /* \"#utility.yul\":18185:18473   */\n      pop\n        /* \"#utility.yul\":17501:18480   */\n      swap3\n      pop\n      swap3\n      pop\n      swap3\n      jump\t// out\n        /* \"#utility.yul\":18486:18603   */\n    tag_465:\n        /* \"#utility.yul\":18595:18596   */\n      0x00\n        /* \"#utility.yul\":18592:18593   */\n      0x00\n        /* \"#utility.yul\":18585:18597   */\n      revert\n        /* \"#utility.yul\":18609:18726   */\n    tag_466:\n        /* \"#utility.yul\":18718:18719   */\n      0x00\n        /* \"#utility.yul\":18715:18716   */\n      0x00\n        /* \"#utility.yul\":18708:18720   */\n      revert\n        /* \"#utility.yul\":18746:19299   */\n    tag_467:\n        /* \"#utility.yul\":18804:18812   */\n      0x00\n        /* \"#utility.yul\":18814:18820   */\n      0x00\n        /* \"#utility.yul\":18864:18867   */\n      dup4\n        /* \"#utility.yul\":18857:18861   */\n      0x1f\n        /* \"#utility.yul\":18849:18855   */\n      dup5\n        /* \"#utility.yul\":18845:18862   */\n      add\n        /* \"#utility.yul\":18841:18868   */\n      slt\n        /* \"#utility.yul\":18831:18953   */\n      tag_656\n      jumpi\n        /* \"#utility.yul\":18872:18951   */\n      tag_657\n      tag_457\n      jump\t// in\n    tag_657:\n        /* \"#utility.yul\":18831:18953   */\n    tag_656:\n        /* \"#utility.yul\":18985:18991   */\n      dup3\n        /* \"#utility.yul\":18972:18992   */\n      calldataload\n        /* \"#utility.yul\":18962:18992   */\n      swap1\n      pop\n        /* \"#utility.yul\":19015:19033   */\n      0xffffffffffffffff\n        /* \"#utility.yul\":19007:19013   */\n      dup2\n        /* \"#utility.yul\":19004:19034   */\n      gt\n        /* \"#utility.yul\":19001:19118   */\n      iszero\n      tag_658\n      jumpi\n        /* \"#utility.yul\":19037:19116   */\n      tag_659\n      tag_465\n      jump\t// in\n    tag_659:\n        /* \"#utility.yul\":19001:19118   */\n    tag_658:\n        /* \"#utility.yul\":19151:19155   */\n      0x20\n        /* \"#utility.yul\":19143:19149   */\n      dup4\n        /* \"#utility.yul\":19139:19156   */\n      add\n        /* \"#utility.yul\":19127:19156   */\n      swap2\n      pop\n        /* \"#utility.yul\":19205:19208   */\n      dup4\n        /* \"#utility.yul\":19197:19201   */\n      0x01\n        /* \"#utility.yul\":19189:19195   */\n      dup3\n        /* \"#utility.yul\":19185:19202   */\n      mul\n        /* \"#utility.yul\":19175:19183   */\n      dup4\n        /* \"#utility.yul\":19171:19203   */\n      add\n        /* \"#utility.yul\":19168:19209   */\n      gt\n        /* \"#utility.yul\":19165:19293   */\n      iszero\n      tag_660\n      jumpi\n        /* \"#utility.yul\":19212:19291   */\n      tag_661\n      tag_466\n      jump\t// in\n    tag_661:\n        /* \"#utility.yul\":19165:19293   */\n    tag_660:\n        /* \"#utility.yul\":18746:19299   */\n      swap3\n      pop\n      swap3\n      swap1\n      pop\n      jump\t// out\n        /* \"#utility.yul\":19305:20324   */\n    tag_80:\n        /* \"#utility.yul\":19406:19412   */\n      0x00\n        /* \"#utility.yul\":19414:19420   */\n      0x00\n        /* \"#utility.yul\":19422:19428   */\n      0x00\n        /* \"#utility.yul\":19430:19436   */\n      0x00\n        /* \"#utility.yul\":19438:19444   */\n      0x00\n        /* \"#utility.yul\":19487:19489   */\n      0x60\n        /* \"#utility.yul\":19475:19484   */\n      dup7\n        /* \"#utility.yul\":19466:19473   */\n      dup9\n        /* \"#utility.yul\":19462:19485   */\n      sub\n        /* \"#utility.yul\":19458:19490   */\n      slt\n        /* \"#utility.yul\":19455:19574   */\n      iszero\n      tag_663\n      jumpi\n        /* \"#utility.yul\":19493:19572   */\n      tag_664\n      tag_421\n      jump\t// in\n    tag_664:\n        /* \"#utility.yul\":19455:19574   */\n    tag_663:\n        /* \"#utility.yul\":19613:19614   */\n      0x00\n        /* \"#utility.yul\":19638:19691   */\n      tag_665\n        /* \"#utility.yul\":19683:19690   */\n      dup9\n        /* \"#utility.yul\":19674:19680   */\n      dup3\n        /* \"#utility.yul\":19663:19672   */\n      dup10\n        /* \"#utility.yul\":19659:19681   */\n      add\n        /* \"#utility.yul\":19638:19691   */\n      tag_426\n      jump\t// in\n    tag_665:\n        /* \"#utility.yul\":19628:19691   */\n      swap6\n      pop\n        /* \"#utility.yul\":19584:19701   */\n      pop\n        /* \"#utility.yul\":19768:19770   */\n      0x20\n        /* \"#utility.yul\":19757:19766   */\n      dup7\n        /* \"#utility.yul\":19753:19771   */\n      add\n        /* \"#utility.yul\":19740:19772   */\n      calldataload\n        /* \"#utility.yul\":19799:19817   */\n      0xffffffffffffffff\n        /* \"#utility.yul\":19791:19797   */\n      dup2\n        /* \"#utility.yul\":19788:19818   */\n      gt\n        /* \"#utility.yul\":19785:19902   */\n      iszero\n      tag_666\n      jumpi\n        /* \"#utility.yul\":19821:19900   */\n      tag_667\n      tag_422\n      jump\t// in\n    tag_667:\n        /* \"#utility.yul\":19785:19902   */\n    tag_666:\n        /* \"#utility.yul\":19934:19999   */\n      tag_668\n        /* \"#utility.yul\":19991:19998   */\n      dup9\n        /* \"#utility.yul\":19982:19988   */\n      dup3\n        /* \"#utility.yul\":19971:19980   */\n      dup10\n        /* \"#utility.yul\":19967:19989   */\n      add\n        /* \"#utility.yul\":19934:19999   */\n      tag_467\n      jump\t// in\n    tag_668:\n        /* \"#utility.yul\":19916:19999   */\n      swap5\n      pop\n      swap5\n      pop\n        /* \"#utility.yul\":19711:20009   */\n      pop\n        /* \"#utility.yul\":20076:20078   */\n      0x40\n        /* \"#utility.yul\":20065:20074   */\n      dup7\n        /* \"#utility.yul\":20061:20079   */\n      add\n        /* \"#utility.yul\":20048:20080   */\n      calldataload\n        /* \"#utility.yul\":20107:20125   */\n      0xffffffffffffffff\n        /* \"#utility.yul\":20099:20105   */\n      dup2\n        /* \"#utility.yul\":20096:20126   */\n      gt\n        /* \"#utility.yul\":20093:20210   */\n      iszero\n      tag_669\n      jumpi\n        /* \"#utility.yul\":20129:20208   */\n      tag_670\n      tag_422\n      jump\t// in\n    tag_670:\n        /* \"#utility.yul\":20093:20210   */\n    tag_669:\n        /* \"#utility.yul\":20242:20307   */\n      tag_671\n        /* \"#utility.yul\":20299:20306   */\n      dup9\n        /* \"#utility.yul\":20290:20296   */\n      dup3\n        /* \"#utility.yul\":20279:20288   */\n      dup10\n        /* \"#utility.yul\":20275:20297   */\n      add\n        /* \"#utility.yul\":20242:20307   */\n      tag_467\n      jump\t// in\n    tag_671:\n        /* \"#utility.yul\":20224:20307   */\n      swap3\n      pop\n      swap3\n      pop\n        /* \"#utility.yul\":20019:20317   */\n      pop\n        /* \"#utility.yul\":19305:20324   */\n      swap3\n      swap6\n      pop\n      swap3\n      swap6\n      swap1\n      swap4\n      pop\n      jump\t// out\n        /* \"#utility.yul\":20330:20499   */\n    tag_468:\n        /* \"#utility.yul\":20414:20425   */\n      0x00\n        /* \"#utility.yul\":20448:20454   */\n      dup3\n        /* \"#utility.yul\":20443:20446   */\n      dup3\n        /* \"#utility.yul\":20436:20455   */\n      mstore\n        /* \"#utility.yul\":20488:20492   */\n      0x20\n        /* \"#utility.yul\":20483:20486   */\n      dup3\n        /* \"#utility.yul\":20479:20493   */\n      add\n        /* \"#utility.yul\":20464:20493   */\n      swap1\n      pop\n        /* \"#utility.yul\":20330:20499   */\n      swap3\n      swap2\n      pop\n      pop\n      jump\t// out\n        /* \"#utility.yul\":20505:20679   */\n    tag_469:\n        /* \"#utility.yul\":20645:20671   */\n      0x496e76616c696420726563656976657220616464726573730000000000000000\n        /* \"#utility.yul\":20641:20642   */\n      0x00\n        /* \"#utility.yul\":20633:20639   */\n      dup3\n        /* \"#utility.yul\":20629:20643   */\n      add\n        /* \"#utility.yul\":20622:20672   */\n      mstore\n        /* \"#utility.yul\":20505:20679   */\n      pop\n      jump\t// out\n        /* \"#utility.yul\":20685:21051   */\n    tag_470:\n        /* \"#utility.yul\":20827:20830   */\n      0x00\n        /* \"#utility.yul\":20848:20915   */\n      tag_675\n        /* \"#utility.yul\":20912:20914   */\n      0x18\n        /* \"#utility.yul\":20907:20910   */\n      dup4\n        /* \"#utility.yul\":20848:20915   */\n      tag_468\n      jump\t// in\n    tag_675:\n        /* \"#utility.yul\":20841:20915   */\n      swap2\n      pop\n        /* \"#utility.yul\":20924:21017   */\n      tag_676\n        /* \"#utility.yul\":21013:21016   */\n      dup3\n        /* \"#utility.yul\":20924:21017   */\n      tag_469\n      jump\t// in\n    tag_676:\n        /* \"#utility.yul\":21042:21044   */\n      0x20\n        /* \"#utility.yul\":21037:21040   */\n      dup3\n        /* \"#utility.yul\":21033:21045   */\n      add\n        /* \"#utility.yul\":21026:21045   */\n      swap1\n      pop\n        /* \"#utility.yul\":20685:21051   */\n      swap2\n      swap1\n      pop\n      jump\t// out\n        /* \"#utility.yul\":21057:21476   */\n    tag_94:\n        /* \"#utility.yul\":21223:21227   */\n      0x00\n        /* \"#utility.yul\":21261:21263   */\n      0x20\n        /* \"#utility.yul\":21250:21259   */\n      dup3\n        /* \"#utility.yul\":21246:21264   */\n      add\n        /* \"#utility.yul\":21238:21264   */\n      swap1\n      pop\n        /* \"#utility.yul\":21310:21319   */\n      dup2\n        /* \"#utility.yul\":21304:21308   */\n      dup2\n        /* \"#utility.yul\":21300:21320   */\n      sub\n        /* \"#utility.yul\":21296:21297   */\n      0x00\n        /* \"#utility.yul\":21285:21294   */\n      dup4\n        /* \"#utility.yul\":21281:21298   */\n      add\n        /* \"#utility.yul\":21274:21321   */\n      mstore\n        /* \"#utility.yul\":21338:21469   */\n      tag_678\n        /* \"#utility.yul\":21464:21468   */\n      dup2\n        /* \"#utility.yul\":21338:21469   */\n      tag_470\n      jump\t// in\n    tag_678:\n        /* \"#utility.yul\":21330:21469   */\n      swap1\n      pop\n        /* \"#utility.yul\":21057:21476   */\n      swap2\n      swap1\n      pop\n      jump\t// out\n        /* \"#utility.yul\":21482:21655   */\n    tag_471:\n        /* \"#utility.yul\":21622:21647   */\n      0x526563656976657220616c726561647920657869737473000000000000000000\n        /* \"#utility.yul\":21618:21619   */\n      0x00\n        /* \"#utility.yul\":21610:21616   */\n      dup3\n        /* \"#utility.yul\":21606:21620   */\n      add\n        /* \"#utility.yul\":21599:21648   */\n      mstore\n        /* \"#utility.yul\":21482:21655   */\n      pop\n      jump\t// out\n        /* \"#utility.yul\":21661:22027   */\n    tag_472:\n        /* \"#utility.yul\":21803:21806   */\n      0x00\n        /* \"#utility.yul\":21824:21891   */\n      tag_681\n        /* \"#utility.yul\":21888:21890   */\n      0x17\n        /* \"#utility.yul\":21883:21886   */\n      dup4\n        /* \"#utility.yul\":21824:21891   */\n      tag_468\n      jump\t// in\n    tag_681:\n        /* \"#utility.yul\":21817:21891   */\n      swap2\n      pop\n        /* \"#utility.yul\":21900:21993   */\n      tag_682\n        /* \"#utility.yul\":21989:21992   */\n      dup3\n        /* \"#utility.yul\":21900:21993   */\n      tag_471\n      jump\t// in\n    tag_682:\n        /* \"#utility.yul\":22018:22020   */\n      0x20\n        /* \"#utility.yul\":22013:22016   */\n      dup3\n        /* \"#utility.yul\":22009:22021   */\n      add\n        /* \"#utility.yul\":22002:22021   */\n      swap1\n      pop\n        /* \"#utility.yul\":21661:22027   */\n      swap2\n      swap1\n      pop\n      jump\t// out\n        /* \"#utility.yul\":22033:22452   */\n    tag_99:\n        /* \"#utility.yul\":22199:22203   */\n      0x00\n        /* \"#utility.yul\":22237:22239   */\n      0x20\n        /* \"#utility.yul\":22226:22235   */\n      dup3\n        /* \"#utility.yul\":22222:22240   */\n      add\n        /* \"#utility.yul\":22214:22240   */\n      swap1\n      pop\n        /* \"#utility.yul\":22286:22295   */\n      dup2\n        /* \"#utility.yul\":22280:22284   */\n      dup2\n        /* \"#utility.yul\":22276:22296   */\n      sub\n        /* \"#utility.yul\":22272:22273   */\n      0x00\n        /* \"#utility.yul\":22261:22270   */\n      dup4\n        /* \"#utility.yul\":22257:22274   */\n      add\n        /* \"#utility.yul\":22250:22297   */\n      mstore\n        /* \"#utility.yul\":22314:22445   */\n      tag_684\n        /* \"#utility.yul\":22440:22444   */\n      dup2\n        /* \"#utility.yul\":22314:22445   */\n      tag_472\n      jump\t// in\n    tag_684:\n        /* \"#utility.yul\":22306:22445   */\n      swap1\n      pop\n        /* \"#utility.yul\":22033:22452   */\n      swap2\n      swap1\n      pop\n      jump\t// out\n        /* \"#utility.yul\":22458:22630   */\n    tag_473:\n        /* \"#utility.yul\":22598:22622   */\n      0x5265636569766572206973206e6f742065786973747300000000000000000000\n        /* \"#utility.yul\":22594:22595   */\n      0x00\n        /* \"#utility.yul\":22586:22592   */\n      dup3\n        /* \"#utility.yul\":22582:22596   */\n      add\n        /* \"#utility.yul\":22575:22623   */\n      mstore\n        /* \"#utility.yul\":22458:22630   */\n      pop\n      jump\t// out\n        /* \"#utility.yul\":22636:23002   */\n    tag_474:\n        /* \"#utility.yul\":22778:22781   */\n      0x00\n        /* \"#utility.yul\":22799:22866   */\n      tag_687\n        /* \"#utility.yul\":22863:22865   */\n      0x16\n        /* \"#utility.yul\":22858:22861   */\n      dup4\n        /* \"#utility.yul\":22799:22866   */\n      tag_468\n      jump\t// in\n    tag_687:\n        /* \"#utility.yul\":22792:22866   */\n      swap2\n      pop\n        /* \"#utility.yul\":22875:22968   */\n      tag_688\n        /* \"#utility.yul\":22964:22967   */\n      dup3\n        /* \"#utility.yul\":22875:22968   */\n      tag_473\n      jump\t// in\n    tag_688:\n        /* \"#utility.yul\":22993:22995   */\n      0x20\n        /* \"#utility.yul\":22988:22991   */\n      dup3\n        /* \"#utility.yul\":22984:22996   */\n      add\n        /* \"#utility.yul\":22977:22996   */\n      swap1\n      pop\n        /* \"#utility.yul\":22636:23002   */\n      swap2\n      swap1\n      pop\n      jump\t// out\n        /* \"#utility.yul\":23008:23427   */\n    tag_104:\n        /* \"#utility.yul\":23174:23178   */\n      0x00\n        /* \"#utility.yul\":23212:23214   */\n      0x20\n        /* \"#utility.yul\":23201:23210   */\n      dup3\n        /* \"#utility.yul\":23197:23215   */\n      add\n        /* \"#utility.yul\":23189:23215   */\n      swap1\n      pop\n        /* \"#utility.yul\":23261:23270   */\n      dup2\n        /* \"#utility.yul\":23255:23259   */\n      dup2\n        /* \"#utility.yul\":23251:23271   */\n      sub\n        /* \"#utility.yul\":23247:23248   */\n      0x00\n        /* \"#utility.yul\":23236:23245   */\n      dup4\n        /* \"#utility.yul\":23232:23249   */\n      add\n        /* \"#utility.yul\":23225:23272   */\n      mstore\n        /* \"#utility.yul\":23289:23420   */\n      tag_690\n        /* \"#utility.yul\":23415:23419   */\n      dup2\n        /* \"#utility.yul\":23289:23420   */\n      tag_474\n      jump\t// in\n    tag_690:\n        /* \"#utility.yul\":23281:23420   */\n      swap1\n      pop\n        /* \"#utility.yul\":23008:23427   */\n      swap2\n      swap1\n      pop\n      jump\t// out\n        /* \"#utility.yul\":23433:23613   */\n    tag_119:\n        /* \"#utility.yul\":23481:23558   */\n      0x4e487b7100000000000000000000000000000000000000000000000000000000\n        /* \"#utility.yul\":23478:23479   */\n      0x00\n        /* \"#utility.yul\":23471:23559   */\n      mstore\n        /* \"#utility.yul\":23578:23582   */\n      0x32\n        /* \"#utility.yul\":23575:23576   */\n      0x04\n        /* \"#utility.yul\":23568:23583   */\n      mstore\n        /* \"#utility.yul\":23602:23606   */\n      0x24\n        /* \"#utility.yul\":23599:23600   */\n      0x00\n        /* \"#utility.yul\":23592:23607   */\n      revert\n        /* \"#utility.yul\":23619:23799   */\n    tag_475:\n        /* \"#utility.yul\":23667:23744   */\n      0x4e487b7100000000000000000000000000000000000000000000000000000000\n        /* \"#utility.yul\":23664:23665   */\n      0x00\n        /* \"#utility.yul\":23657:23745   */\n      mstore\n        /* \"#utility.yul\":23764:23768   */\n      0x22\n        /* \"#utility.yul\":23761:23762   */\n      0x04\n        /* \"#utility.yul\":23754:23769   */\n      mstore\n        /* \"#utility.yul\":23788:23792   */\n      0x24\n        /* \"#utility.yul\":23785:23786   */\n      0x00\n        /* \"#utility.yul\":23778:23793   */\n      revert\n        /* \"#utility.yul\":23805:24125   */\n    tag_122:\n        /* \"#utility.yul\":23849:23855   */\n      0x00\n        /* \"#utility.yul\":23886:23887   */\n      0x02\n        /* \"#utility.yul\":23880:23884   */\n      dup3\n        /* \"#utility.yul\":23876:23888   */\n      div\n        /* \"#utility.yul\":23866:23888   */\n      swap1\n      pop\n        /* \"#utility.yul\":23933:23934   */\n      0x01\n        /* \"#utility.yul\":23927:23931   */\n      dup3\n        /* \"#utility.yul\":23923:23935   */\n      and\n        /* \"#utility.yul\":23954:23972   */\n      dup1\n        /* \"#utility.yul\":23944:24025   */\n      tag_694\n      jumpi\n        /* \"#utility.yul\":24010:24014   */\n      0x7f\n        /* \"#utility.yul\":24002:24008   */\n      dup3\n        /* \"#utility.yul\":23998:24015   */\n      and\n        /* \"#utility.yul\":23988:24015   */\n      swap2\n      pop\n        /* \"#utility.yul\":23944:24025   */\n    tag_694:\n        /* \"#utility.yul\":24072:24074   */\n      0x20\n        /* \"#utility.yul\":24064:24070   */\n      dup3\n        /* \"#utility.yul\":24061:24075   */\n      lt\n        /* \"#utility.yul\":24041:24059   */\n      dup2\n        /* \"#utility.yul\":24038:24076   */\n      sub\n        /* \"#utility.yul\":24035:24119   */\n      tag_695\n      jumpi\n        /* \"#utility.yul\":24091:24109   */\n      tag_696\n      tag_475\n      jump\t// in\n    tag_696:\n        /* \"#utility.yul\":24035:24119   */\n    tag_695:\n        /* \"#utility.yul\":23856:24125   */\n      pop\n        /* \"#utility.yul\":23805:24125   */\n      swap2\n      swap1\n      pop\n      jump\t// out\n        /* \"#utility.yul\":24131:24311   */\n    tag_476:\n        /* \"#utility.yul\":24179:24256   */\n      0x4e487b7100000000000000000000000000000000000000000000000000000000\n        /* \"#utility.yul\":24176:24177   */\n      0x00\n        /* \"#utility.yul\":24169:24257   */\n      mstore\n        /* \"#utility.yul\":24276:24280   */\n      0x11\n        /* \"#utility.yul\":24273:24274   */\n      0x04\n        /* \"#utility.yul\":24266:24281   */\n      mstore\n        /* \"#utility.yul\":24300:24304   */\n      0x24\n        /* \"#utility.yul\":24297:24298   */\n      0x00\n        /* \"#utility.yul\":24290:24305   */\n      revert\n        /* \"#utility.yul\":24317:24508   */\n    tag_136:\n        /* \"#utility.yul\":24357:24360   */\n      0x00\n        /* \"#utility.yul\":24376:24396   */\n      tag_699\n        /* \"#utility.yul\":24394:24395   */\n      dup3\n        /* \"#utility.yul\":24376:24396   */\n      tag_438\n      jump\t// in\n    tag_699:\n        /* \"#utility.yul\":24371:24396   */\n      swap2\n      pop\n        /* \"#utility.yul\":24410:24430   */\n      tag_700\n        /* \"#utility.yul\":24428:24429   */\n      dup4\n        /* \"#utility.yul\":24410:24430   */\n      tag_438\n      jump\t// in\n    tag_700:\n        /* \"#utility.yul\":24405:24430   */\n      swap3\n      pop\n        /* \"#utility.yul\":24453:24454   */\n      dup3\n        /* \"#utility.yul\":24450:24451   */\n      dup3\n        /* \"#utility.yul\":24446:24455   */\n      add\n        /* \"#utility.yul\":24439:24455   */\n      swap1\n      pop\n        /* \"#utility.yul\":24474:24477   */\n      dup1\n        /* \"#utility.yul\":24471:24472   */\n      dup3\n        /* \"#utility.yul\":24468:24478   */\n      gt\n        /* \"#utility.yul\":24465:24501   */\n      iszero\n      tag_701\n      jumpi\n        /* \"#utility.yul\":24481:24499   */\n      tag_702\n      tag_476\n      jump\t// in\n    tag_702:\n        /* \"#utility.yul\":24465:24501   */\n    tag_701:\n        /* \"#utility.yul\":24317:24508   */\n      swap3\n      swap2\n      pop\n      pop\n      jump\t// out\n        /* \"#utility.yul\":24514:24708   */\n    tag_139:\n        /* \"#utility.yul\":24554:24558   */\n      0x00\n        /* \"#utility.yul\":24574:24594   */\n      tag_704\n        /* \"#utility.yul\":24592:24593   */\n      dup3\n        /* \"#utility.yul\":24574:24594   */\n      tag_438\n      jump\t// in\n    tag_704:\n        /* \"#utility.yul\":24569:24594   */\n      swap2\n      pop\n        /* \"#utility.yul\":24608:24628   */\n      tag_705\n        /* \"#utility.yul\":24626:24627   */\n      dup4\n        /* \"#utility.yul\":24608:24628   */\n      tag_438\n      jump\t// in\n    tag_705:\n        /* \"#utility.yul\":24603:24628   */\n      swap3\n      pop\n        /* \"#utility.yul\":24652:24653   */\n      dup3\n        /* \"#utility.yul\":24649:24650   */\n      dup3\n        /* \"#utility.yul\":24645:24654   */\n      sub\n        /* \"#utility.yul\":24637:24654   */\n      swap1\n      pop\n        /* \"#utility.yul\":24676:24677   */\n      dup2\n        /* \"#utility.yul\":24670:24674   */\n      dup2\n        /* \"#utility.yul\":24667:24678   */\n      gt\n        /* \"#utility.yul\":24664:24701   */\n      iszero\n      tag_706\n      jumpi\n        /* \"#utility.yul\":24681:24699   */\n      tag_707\n      tag_476\n      jump\t// in\n    tag_707:\n        /* \"#utility.yul\":24664:24701   */\n    tag_706:\n        /* \"#utility.yul\":24514:24708   */\n      swap3\n      swap2\n      pop\n      pop\n      jump\t// out\n        /* \"#utility.yul\":24714:24885   */\n    tag_477:\n        /* \"#utility.yul\":24854:24877   */\n      0x496e76616c696420746f6b656e20616464726573730000000000000000000000\n        /* \"#utility.yul\":24850:24851   */\n      0x00\n        /* \"#utility.yul\":24842:24848   */\n      dup3\n        /* \"#utility.yul\":24838:24852   */\n      add\n        /* \"#utility.yul\":24831:24878   */\n      mstore\n        /* \"#utility.yul\":24714:24885   */\n      pop\n      jump\t// out\n        /* \"#utility.yul\":24891:25257   */\n    tag_478:\n        /* \"#utility.yul\":25033:25036   */\n      0x00\n        /* \"#utility.yul\":25054:25121   */\n      tag_710\n        /* \"#utility.yul\":25118:25120   */\n      0x15\n        /* \"#utility.yul\":25113:25116   */\n      dup4\n        /* \"#utility.yul\":25054:25121   */\n      tag_468\n      jump\t// in\n    tag_710:\n        /* \"#utility.yul\":25047:25121   */\n      swap2\n      pop\n        /* \"#utility.yul\":25130:25223   */\n      tag_711\n        /* \"#utility.yul\":25219:25222   */\n      dup3\n        /* \"#utility.yul\":25130:25223   */\n      tag_477\n      jump\t// in\n    tag_711:\n        /* \"#utility.yul\":25248:25250   */\n      0x20\n        /* \"#utility.yul\":25243:25246   */\n      dup3\n        /* \"#utility.yul\":25239:25251   */\n      add\n        /* \"#utility.yul\":25232:25251   */\n      swap1\n      pop\n        /* \"#utility.yul\":24891:25257   */\n      swap2\n      swap1\n      pop\n      jump\t// out\n        /* \"#utility.yul\":25263:25682   */\n    tag_200:\n        /* \"#utility.yul\":25429:25433   */\n      0x00\n        /* \"#utility.yul\":25467:25469   */\n      0x20\n        /* \"#utility.yul\":25456:25465   */\n      dup3\n        /* \"#utility.yul\":25452:25470   */\n      add\n        /* \"#utility.yul\":25444:25470   */\n      swap1\n      pop\n        /* \"#utility.yul\":25516:25525   */\n      dup2\n        /* \"#utility.yul\":25510:25514   */\n      dup2\n        /* \"#utility.yul\":25506:25526   */\n      sub\n        /* \"#utility.yul\":25502:25503   */\n      0x00\n        /* \"#utility.yul\":25491:25500   */\n      dup4\n        /* \"#utility.yul\":25487:25504   */\n      add\n        /* \"#utility.yul\":25480:25527   */\n      mstore\n        /* \"#utility.yul\":25544:25675   */\n      tag_713\n        /* \"#utility.yul\":25670:25674   */\n      dup2\n        /* \"#utility.yul\":25544:25675   */\n      tag_478\n      jump\t// in\n    tag_713:\n        /* \"#utility.yul\":25536:25675   */\n      swap1\n      pop\n        /* \"#utility.yul\":25263:25682   */\n      swap2\n      swap1\n      pop\n      jump\t// out\n        /* \"#utility.yul\":25688:25858   */\n    tag_479:\n        /* \"#utility.yul\":25828:25850   */\n      0x546f6b656e20616c726561647920657869737473000000000000000000000000\n        /* \"#utility.yul\":25824:25825   */\n      0x00\n        /* \"#utility.yul\":25816:25822   */\n      dup3\n        /* \"#utility.yul\":25812:25826   */\n      add\n        /* \"#utility.yul\":25805:25851   */\n      mstore\n        /* \"#utility.yul\":25688:25858   */\n      pop\n      jump\t// out\n        /* \"#utility.yul\":25864:26230   */\n    tag_480:\n        /* \"#utility.yul\":26006:26009   */\n      0x00\n        /* \"#utility.yul\":26027:26094   */\n      tag_716\n        /* \"#utility.yul\":26091:26093   */\n      0x14\n        /* \"#utility.yul\":26086:26089   */\n      dup4\n        /* \"#utility.yul\":26027:26094   */\n      tag_468\n      jump\t// in\n    tag_716:\n        /* \"#utility.yul\":26020:26094   */\n      swap2\n      pop\n        /* \"#utility.yul\":26103:26196   */\n      tag_717\n        /* \"#utility.yul\":26192:26195   */\n      dup3\n        /* \"#utility.yul\":26103:26196   */\n      tag_479\n      jump\t// in\n    tag_717:\n        /* \"#utility.yul\":26221:26223   */\n      0x20\n        /* \"#utility.yul\":26216:26219   */\n      dup3\n        /* \"#utility.yul\":26212:26224   */\n      add\n        /* \"#utility.yul\":26205:26224   */\n      swap1\n      pop\n        /* \"#utility.yul\":25864:26230   */\n      swap2\n      swap1\n      pop\n      jump\t// out\n        /* \"#utility.yul\":26236:26655   */\n    tag_205:\n        /* \"#utility.yul\":26402:26406   */\n      0x00\n        /* \"#utility.yul\":26440:26442   */\n      0x20\n        /* \"#utility.yul\":26429:26438   */\n      dup3\n        /* \"#utility.yul\":26425:26443   */\n      add\n        /* \"#utility.yul\":26417:26443   */\n      swap1\n      pop\n        /* \"#utility.yul\":26489:26498   */\n      dup2\n        /* \"#utility.yul\":26483:26487   */\n      dup2\n        /* \"#utility.yul\":26479:26499   */\n      sub\n        /* \"#utility.yul\":26475:26476   */\n      0x00\n        /* \"#utility.yul\":26464:26473   */\n      dup4\n        /* \"#utility.yul\":26460:26477   */\n      add\n        /* \"#utility.yul\":26453:26500   */\n      mstore\n        /* \"#utility.yul\":26517:26648   */\n      tag_719\n        /* \"#utility.yul\":26643:26647   */\n      dup2\n        /* \"#utility.yul\":26517:26648   */\n      tag_480\n      jump\t// in\n    tag_719:\n        /* \"#utility.yul\":26509:26648   */\n      swap1\n      pop\n        /* \"#utility.yul\":26236:26655   */\n      swap2\n      swap1\n      pop\n      jump\t// out\n        /* \"#utility.yul\":26661:26830   */\n    tag_481:\n        /* \"#utility.yul\":26801:26822   */\n      0x546f6b656e206973206e6f742065786973747300000000000000000000000000\n        /* \"#utility.yul\":26797:26798   */\n      0x00\n        /* \"#utility.yul\":26789:26795   */\n      dup3\n        /* \"#utility.yul\":26785:26799   */\n      add\n        /* \"#utility.yul\":26778:26823   */\n      mstore\n        /* \"#utility.yul\":26661:26830   */\n      pop\n      jump\t// out\n        /* \"#utility.yul\":26836:27202   */\n    tag_482:\n        /* \"#utility.yul\":26978:26981   */\n      0x00\n        /* \"#utility.yul\":26999:27066   */\n      tag_722\n        /* \"#utility.yul\":27063:27065   */\n      0x13\n        /* \"#utility.yul\":27058:27061   */\n      dup4\n        /* \"#utility.yul\":26999:27066   */\n      tag_468\n      jump\t// in\n    tag_722:\n        /* \"#utility.yul\":26992:27066   */\n      swap2\n      pop\n        /* \"#utility.yul\":27075:27168   */\n      tag_723\n        /* \"#utility.yul\":27164:27167   */\n      dup3\n        /* \"#utility.yul\":27075:27168   */\n      tag_481\n      jump\t// in\n    tag_723:\n        /* \"#utility.yul\":27193:27195   */\n      0x20\n        /* \"#utility.yul\":27188:27191   */\n      dup3\n        /* \"#utility.yul\":27184:27196   */\n      add\n        /* \"#utility.yul\":27177:27196   */\n      swap1\n      pop\n        /* \"#utility.yul\":26836:27202   */\n      swap2\n      swap1\n      pop\n      jump\t// out\n        /* \"#utility.yul\":27208:27627   */\n    tag_210:\n        /* \"#utility.yul\":27374:27378   */\n      0x00\n        /* \"#utility.yul\":27412:27414   */\n      0x20\n        /* \"#utility.yul\":27401:27410   */\n      dup3\n        /* \"#utility.yul\":27397:27415   */\n      add\n        /* \"#utility.yul\":27389:27415   */\n      swap1\n      pop\n        /* \"#utility.yul\":27461:27470   */\n      dup2\n        /* \"#utility.yul\":27455:27459   */\n      dup2\n        /* \"#utility.yul\":27451:27471   */\n      sub\n        /* \"#utility.yul\":27447:27448   */\n      0x00\n        /* \"#utility.yul\":27436:27445   */\n      dup4\n        /* \"#utility.yul\":27432:27449   */\n      add\n        /* \"#utility.yul\":27425:27472   */\n      mstore\n        /* \"#utility.yul\":27489:27620   */\n      tag_725\n        /* \"#utility.yul\":27615:27619   */\n      dup2\n        /* \"#utility.yul\":27489:27620   */\n      tag_482\n      jump\t// in\n    tag_725:\n        /* \"#utility.yul\":27481:27620   */\n      swap1\n      pop\n        /* \"#utility.yul\":27208:27627   */\n      swap2\n      swap1\n      pop\n      jump\t// out\n        /* \"#utility.yul\":27633:27813   */\n    tag_231:\n        /* \"#utility.yul\":27681:27758   */\n      0x4e487b7100000000000000000000000000000000000000000000000000000000\n        /* \"#utility.yul\":27678:27679   */\n      0x00\n        /* \"#utility.yul\":27671:27759   */\n      mstore\n        /* \"#utility.yul\":27778:27782   */\n      0x31\n        /* \"#utility.yul\":27775:27776   */\n      0x04\n        /* \"#utility.yul\":27768:27783   */\n      mstore\n        /* \"#utility.yul\":27802:27806   */\n      0x24\n        /* \"#utility.yul\":27799:27800   */\n      0x00\n        /* \"#utility.yul\":27792:27807   */\n      revert\n        /* \"#utility.yul\":27819:28042   */\n    tag_483:\n        /* \"#utility.yul\":27959:27993   */\n      0x4d697373696e67207265636569766572206e616d65206f722064657363726970\n        /* \"#utility.yul\":27955:27956   */\n      0x00\n        /* \"#utility.yul\":27947:27953   */\n      dup3\n        /* \"#utility.yul\":27943:27957   */\n      add\n        /* \"#utility.yul\":27936:27994   */\n      mstore\n        /* \"#utility.yul\":28028:28034   */\n      0x74696f6e00000000000000000000000000000000000000000000000000000000\n        /* \"#utility.yul\":28023:28025   */\n      0x20\n        /* \"#utility.yul\":28015:28021   */\n      dup3\n        /* \"#utility.yul\":28011:28026   */\n      add\n        /* \"#utility.yul\":28004:28035   */\n      mstore\n        /* \"#utility.yul\":27819:28042   */\n      pop\n      jump\t// out\n        /* \"#utility.yul\":28048:28414   */\n    tag_484:\n        /* \"#utility.yul\":28190:28193   */\n      0x00\n        /* \"#utility.yul\":28211:28278   */\n      tag_729\n        /* \"#utility.yul\":28275:28277   */\n      0x24\n        /* \"#utility.yul\":28270:28273   */\n      dup4\n        /* \"#utility.yul\":28211:28278   */\n      tag_468\n      jump\t// in\n    tag_729:\n        /* \"#utility.yul\":28204:28278   */\n      swap2\n      pop\n        /* \"#utility.yul\":28287:28380   */\n      tag_730\n        /* \"#utility.yul\":28376:28379   */\n      dup3\n        /* \"#utility.yul\":28287:28380   */\n      tag_483\n      jump\t// in\n    tag_730:\n        /* \"#utility.yul\":28405:28407   */\n      0x40\n        /* \"#utility.yul\":28400:28403   */\n      dup3\n        /* \"#utility.yul\":28396:28408   */\n      add\n        /* \"#utility.yul\":28389:28408   */\n      swap1\n      pop\n        /* \"#utility.yul\":28048:28414   */\n      swap2\n      swap1\n      pop\n      jump\t// out\n        /* \"#utility.yul\":28420:28839   */\n    tag_338:\n        /* \"#utility.yul\":28586:28590   */\n      0x00\n        /* \"#utility.yul\":28624:28626   */\n      0x20\n        /* \"#utility.yul\":28613:28622   */\n      dup3\n        /* \"#utility.yul\":28609:28627   */\n      add\n        /* \"#utility.yul\":28601:28627   */\n      swap1\n      pop\n        /* \"#utility.yul\":28673:28682   */\n      dup2\n        /* \"#utility.yul\":28667:28671   */\n      dup2\n        /* \"#utility.yul\":28663:28683   */\n      sub\n        /* \"#utility.yul\":28659:28660   */\n      0x00\n        /* \"#utility.yul\":28648:28657   */\n      dup4\n        /* \"#utility.yul\":28644:28661   */\n      add\n        /* \"#utility.yul\":28637:28684   */\n      mstore\n        /* \"#utility.yul\":28701:28832   */\n      tag_732\n        /* \"#utility.yul\":28827:28831   */\n      dup2\n        /* \"#utility.yul\":28701:28832   */\n      tag_484\n      jump\t// in\n    tag_732:\n        /* \"#utility.yul\":28693:28832   */\n      swap1\n      pop\n        /* \"#utility.yul\":28420:28839   */\n      swap2\n      swap1\n      pop\n      jump\t// out\n        /* \"#utility.yul\":28845:28986   */\n    tag_485:\n        /* \"#utility.yul\":28894:28898   */\n      0x00\n        /* \"#utility.yul\":28917:28920   */\n      dup2\n        /* \"#utility.yul\":28909:28920   */\n      swap1\n      pop\n        /* \"#utility.yul\":28940:28943   */\n      dup2\n        /* \"#utility.yul\":28937:28938   */\n      0x00\n        /* \"#utility.yul\":28930:28944   */\n      mstore\n        /* \"#utility.yul\":28974:28978   */\n      0x20\n        /* \"#utility.yul\":28971:28972   */\n      0x00\n        /* \"#utility.yul\":28961:28979   */\n      keccak256\n        /* \"#utility.yul\":28953:28979   */\n      swap1\n      pop\n        /* \"#utility.yul\":28845:28986   */\n      swap2\n      swap1\n      pop\n      jump\t// out\n        /* \"#utility.yul\":28992:29085   */\n    tag_486:\n        /* \"#utility.yul\":29029:29035   */\n      0x00\n        /* \"#utility.yul\":29076:29078   */\n      0x20\n        /* \"#utility.yul\":29071:29073   */\n      0x1f\n        /* \"#utility.yul\":29064:29069   */\n      dup4\n        /* \"#utility.yul\":29060:29074   */\n      add\n        /* \"#utility.yul\":29056:29079   */\n      div\n        /* \"#utility.yul\":29046:29079   */\n      swap1\n      pop\n        /* \"#utility.yul\":28992:29085   */\n      swap2\n      swap1\n      pop\n      jump\t// out\n        /* \"#utility.yul\":29091:29198   */\n    tag_487:\n        /* \"#utility.yul\":29135:29143   */\n      0x00\n        /* \"#utility.yul\":29185:29190   */\n      dup3\n        /* \"#utility.yul\":29179:29183   */\n      dup3\n        /* \"#utility.yul\":29175:29191   */\n      shl\n        /* \"#utility.yul\":29154:29191   */\n      swap1\n      pop\n        /* \"#utility.yul\":29091:29198   */\n      swap3\n      swap2\n      pop\n      pop\n      jump\t// out\n        /* \"#utility.yul\":29204:29597   */\n    tag_488:\n        /* \"#utility.yul\":29273:29279   */\n      0x00\n        /* \"#utility.yul\":29323:29324   */\n      0x08\n        /* \"#utility.yul\":29311:29321   */\n      dup4\n        /* \"#utility.yul\":29307:29325   */\n      mul\n        /* \"#utility.yul\":29346:29443   */\n      tag_737\n        /* \"#utility.yul\":29376:29442   */\n      0xffffffffffffffffffffffffffffffffffffffffffffffffffffffffffffffff\n        /* \"#utility.yul\":29365:29374   */\n      dup3\n        /* \"#utility.yul\":29346:29443   */\n      tag_487\n      jump\t// in\n    tag_737:\n        /* \"#utility.yul\":29464:29503   */\n      tag_738\n        /* \"#utility.yul\":29494:29502   */\n      dup7\n        /* \"#utility.yul\":29483:29492   */\n      dup4\n        /* \"#utility.yul\":29464:29503   */\n      tag_487\n      jump\t// in\n    tag_738:\n        /* \"#utility.yul\":29452:29503   */\n      swap6\n      pop\n        /* \"#utility.yul\":29536:29540   */\n      dup1\n        /* \"#utility.yul\":29532:29541   */\n      not\n        /* \"#utility.yul\":29525:29530   */\n      dup5\n        /* \"#utility.yul\":29521:29542   */\n      and\n        /* \"#utility.yul\":29512:29542   */\n      swap4\n      pop\n        /* \"#utility.yul\":29585:29589   */\n      dup1\n        /* \"#utility.yul\":29575:29583   */\n      dup7\n        /* \"#utility.yul\":29571:29590   */\n      and\n        /* \"#utility.yul\":29564:29569   */\n      dup5\n        /* \"#utility.yul\":29561:29591   */\n      or\n        /* \"#utility.yul\":29551:29591   */\n      swap3\n      pop\n        /* \"#utility.yul\":29280:29597   */\n      pop\n      pop\n        /* \"#utility.yul\":29204:29597   */\n      swap4\n      swap3\n      pop\n      pop\n      pop\n      jump\t// out\n        /* \"#utility.yul\":29603:29663   */\n    tag_489:\n        /* \"#utility.yul\":29631:29634   */\n      0x00\n        /* \"#utility.yul\":29652:29657   */\n      dup2\n        /* \"#utility.yul\":29645:29657   */\n      swap1\n      pop\n        /* \"#utility.yul\":29603:29663   */\n      swap2\n      swap1\n      pop\n      jump\t// out\n        /* \"#utility.yul\":29669:29811   */\n    tag_490:\n        /* \"#utility.yul\":29719:29728   */\n      0x00\n        /* \"#utility.yul\":29752:29805   */\n      tag_741\n        /* \"#utility.yul\":29770:29804   */\n      tag_742\n        /* \"#utility.yul\":29779:29803   */\n      tag_743\n        /* \"#utility.yul\":29797:29802   */\n      dup5\n        /* \"#utility.yul\":29779:29803   */\n      tag_438\n      jump\t// in\n    tag_743:\n        /* \"#utility.yul\":29770:29804   */\n      tag_489\n      jump\t// in\n    tag_742:\n        /* \"#utility.yul\":29752:29805   */\n      tag_438\n      jump\t// in\n    tag_741:\n        /* \"#utility.yul\":29739:29805   */\n      swap1\n      pop\n        /* \"#utility.yul\":29669:29811   */\n      swap2\n      swap1\n      pop\n      jump\t// out\n        /* \"#utility.yul\":29817:29892   */\n    tag_491:\n        /* \"#utility.yul\":29860:29863   */\n      0x00\n        /* \"#utility.yul\":29881:29886   */\n      dup2\n        /* \"#utility.yul\":29874:29886   */\n      swap1\n      pop\n        /* \"#utility.yul\":29817:29892   */\n      swap2\n      swap1\n      pop\n      jump\t// out\n        /* \"#utility.yul\":29898:30167   */\n    tag_492:\n        /* \"#utility.yul\":30008:30047   */\n      tag_746\n        /* \"#utility.yul\":30039:30046   */\n      dup4\n        /* \"#utility.yul\":30008:30047   */\n      tag_490\n      jump\t// in\n    tag_746:\n        /* \"#utility.yul\":30069:30160   */\n      tag_747\n        /* \"#utility.yul\":30118:30159   */\n      tag_748\n        /* \"#utility.yul\":30142:30158   */\n      dup3\n        /* \"#utility.yul\":30118:30159   */\n      tag_491\n      jump\t// in\n    tag_748:\n        /* \"#utility.yul\":30110:30116   */\n      dup5\n        /* \"#utility.yul\":30103:30107   */\n      dup5\n        /* \"#utility.yul\":30097:30108   */\n      sload\n        /* \"#utility.yul\":30069:30160   */\n      tag_488\n      jump\t// in\n    tag_747:\n        /* \"#utility.yul\":30063:30067   */\n      dup3\n        /* \"#utility.yul\":30056:30161   */\n      sstore\n        /* \"#utility.yul\":29974:30167   */\n      pop\n        /* \"#utility.yul\":29898:30167   */\n      pop\n      pop\n      pop\n      jump\t// out\n        /* \"#utility.yul\":30173:30246   */\n    tag_493:\n        /* \"#utility.yul\":30218:30221   */\n      0x00\n        /* \"#utility.yul\":30239:30240   */\n      0x00\n        /* \"#utility.yul\":30232:30240   */\n      swap1\n      pop\n        /* \"#utility.yul\":30173:30246   */\n      swap1\n      jump\t// out\n        /* \"#utility.yul\":30252:30441   */\n    tag_494:\n        /* \"#utility.yul\":30329:30361   */\n      tag_751\n      tag_493\n      jump\t// in\n    tag_751:\n        /* \"#utility.yul\":30370:30435   */\n      tag_752\n        /* \"#utility.yul\":30428:30434   */\n      dup2\n        /* \"#utility.yul\":30420:30426   */\n      dup5\n        /* \"#utility.yul\":30414:30418   */\n      dup5\n        /* \"#utility.yul\":30370:30435   */\n      tag_492\n      jump\t// in\n    tag_752:\n        /* \"#utility.yul\":30305:30441   */\n      pop\n        /* \"#utility.yul\":30252:30441   */\n      pop\n      pop\n      jump\t// out\n        /* \"#utility.yul\":30447:30633   */\n    tag_495:\n        /* \"#utility.yul\":30507:30627   */\n    tag_754:\n        /* \"#utility.yul\":30524:30527   */\n      dup2\n        /* \"#utility.yul\":30517:30522   */\n      dup2\n        /* \"#utility.yul\":30514:30528   */\n      lt\n        /* \"#utility.yul\":30507:30627   */\n      iszero\n      tag_756\n      jumpi\n        /* \"#utility.yul\":30578:30617   */\n      tag_757\n        /* \"#utility.yul\":30615:30616   */\n      0x00\n        /* \"#utility.yul\":30608:30613   */\n      dup3\n        /* \"#utility.yul\":30578:30617   */\n      tag_494\n      jump\t// in\n    tag_757:\n        /* \"#utility.yul\":30551:30552   */\n      0x01\n        /* \"#utility.yul\":30544:30549   */\n      dup2\n        /* \"#utility.yul\":30540:30553   */\n      add\n        /* \"#utility.yul\":30531:30553   */\n      swap1\n      pop\n        /* \"#utility.yul\":30507:30627   */\n      jump(tag_754)\n    tag_756:\n        /* \"#utility.yul\":30447:30633   */\n      pop\n      pop\n      jump\t// out\n        /* \"#utility.yul\":30639:31182   */\n    tag_496:\n        /* \"#utility.yul\":30740:30742   */\n      0x1f\n        /* \"#utility.yul\":30735:30738   */\n      dup3\n        /* \"#utility.yul\":30732:30743   */\n      gt\n        /* \"#utility.yul\":30729:31175   */\n      iszero\n      tag_759\n      jumpi\n        /* \"#utility.yul\":30774:30812   */\n      tag_760\n        /* \"#utility.yul\":30806:30811   */\n      dup2\n        /* \"#utility.yul\":30774:30812   */\n      tag_485\n      jump\t// in\n    tag_760:\n        /* \"#utility.yul\":30858:30887   */\n      tag_761\n        /* \"#utility.yul\":30876:30886   */\n      dup5\n        /* \"#utility.yul\":30858:30887   */\n      tag_486\n      jump\t// in\n    tag_761:\n        /* \"#utility.yul\":30848:30856   */\n      dup2\n        /* \"#utility.yul\":30844:30888   */\n      add\n        /* \"#utility.yul\":31041:31043   */\n      0x20\n        /* \"#utility.yul\":31029:31039   */\n      dup6\n        /* \"#utility.yul\":31026:31044   */\n      lt\n        /* \"#utility.yul\":31023:31072   */\n      iszero\n      tag_762\n      jumpi\n        /* \"#utility.yul\":31062:31070   */\n      dup2\n        /* \"#utility.yul\":31047:31070   */\n      swap1\n      pop\n        /* \"#utility.yul\":31023:31072   */\n    tag_762:\n        /* \"#utility.yul\":31085:31165   */\n      tag_763\n        /* \"#utility.yul\":31141:31163   */\n      tag_764\n        /* \"#utility.yul\":31159:31162   */\n      dup6\n        /* \"#utility.yul\":31141:31163   */\n      tag_486\n      jump\t// in\n    tag_764:\n        /* \"#utility.yul\":31131:31139   */\n      dup4\n        /* \"#utility.yul\":31127:31164   */\n      add\n        /* \"#utility.yul\":31114:31125   */\n      dup3\n        /* \"#utility.yul\":31085:31165   */\n      tag_495\n      jump\t// in\n    tag_763:\n        /* \"#utility.yul\":30744:31175   */\n      pop\n      pop\n        /* \"#utility.yul\":30729:31175   */\n    tag_759:\n        /* \"#utility.yul\":30639:31182   */\n      pop\n      pop\n      pop\n      jump\t// out\n        /* \"#utility.yul\":31188:31305   */\n    tag_497:\n        /* \"#utility.yul\":31242:31250   */\n      0x00\n        /* \"#utility.yul\":31292:31297   */\n      dup3\n        /* \"#utility.yul\":31286:31290   */\n      dup3\n        /* \"#utility.yul\":31282:31298   */\n      shr\n        /* \"#utility.yul\":31261:31298   */\n      swap1\n      pop\n        /* \"#utility.yul\":31188:31305   */\n      swap3\n      swap2\n      pop\n      pop\n      jump\t// out\n        /* \"#utility.yul\":31311:31480   */\n    tag_498:\n        /* \"#utility.yul\":31355:31361   */\n      0x00\n        /* \"#utility.yul\":31388:31439   */\n      tag_767\n        /* \"#utility.yul\":31436:31437   */\n      0x00\n        /* \"#utility.yul\":31432:31438   */\n      not\n        /* \"#utility.yul\":31424:31429   */\n      dup5\n        /* \"#utility.yul\":31421:31422   */\n      0x08\n        /* \"#utility.yul\":31417:31430   */\n      mul\n        /* \"#utility.yul\":31388:31439   */\n      tag_497\n      jump\t// in\n    tag_767:\n        /* \"#utility.yul\":31384:31440   */\n      not\n        /* \"#utility.yul\":31469:31473   */\n      dup1\n        /* \"#utility.yul\":31463:31467   */\n      dup4\n        /* \"#utility.yul\":31459:31474   */\n      and\n        /* \"#utility.yul\":31449:31474   */\n      swap2\n      pop\n        /* \"#utility.yul\":31362:31480   */\n      pop\n        /* \"#utility.yul\":31311:31480   */\n      swap3\n      swap2\n      pop\n      pop\n      jump\t// out\n        /* \"#utility.yul\":31485:31780   */\n    tag_499:\n        /* \"#utility.yul\":31561:31565   */\n      0x00\n        /* \"#utility.yul\":31707:31736   */\n      tag_769\n        /* \"#utility.yul\":31732:31735   */\n      dup4\n        /* \"#utility.yul\":31726:31730   */\n      dup4\n        /* \"#utility.yul\":31707:31736   */\n      tag_498\n      jump\t// in\n    tag_769:\n        /* \"#utility.yul\":31699:31736   */\n      swap2\n      pop\n        /* \"#utility.yul\":31769:31772   */\n      dup3\n        /* \"#utility.yul\":31766:31767   */\n      0x02\n        /* \"#utility.yul\":31762:31773   */\n      mul\n        /* \"#utility.yul\":31756:31760   */\n      dup3\n        /* \"#utility.yul\":31753:31774   */\n      or\n        /* \"#utility.yul\":31745:31774   */\n      swap1\n      pop\n        /* \"#utility.yul\":31485:31780   */\n      swap3\n      swap2\n      pop\n      pop\n      jump\t// out\n        /* \"#utility.yul\":31785:33180   */\n    tag_340:\n        /* \"#utility.yul\":31902:31939   */\n      tag_771\n        /* \"#utility.yul\":31935:31938   */\n      dup3\n        /* \"#utility.yul\":31902:31939   */\n      tag_431\n      jump\t// in\n    tag_771:\n        /* \"#utility.yul\":32004:32022   */\n      0xffffffffffffffff\n        /* \"#utility.yul\":31996:32002   */\n      dup2\n        /* \"#utility.yul\":31993:32023   */\n      gt\n        /* \"#utility.yul\":31990:32046   */\n      iszero\n      tag_772\n      jumpi\n        /* \"#utility.yul\":32026:32044   */\n      tag_773\n      tag_109\n      jump\t// in\n    tag_773:\n        /* \"#utility.yul\":31990:32046   */\n    tag_772:\n        /* \"#utility.yul\":32070:32108   */\n      tag_774\n        /* \"#utility.yul\":32102:32106   */\n      dup3\n        /* \"#utility.yul\":32096:32107   */\n      sload\n        /* \"#utility.yul\":32070:32108   */\n      tag_122\n      jump\t// in\n    tag_774:\n        /* \"#utility.yul\":32155:32222   */\n      tag_775\n        /* \"#utility.yul\":32215:32221   */\n      dup3\n        /* \"#utility.yul\":32207:32213   */\n      dup3\n        /* \"#utility.yul\":32201:32205   */\n      dup6\n        /* \"#utility.yul\":32155:32222   */\n      tag_496\n      jump\t// in\n    tag_775:\n        /* \"#utility.yul\":32249:32250   */\n      0x00\n        /* \"#utility.yul\":32273:32277   */\n      0x20\n        /* \"#utility.yul\":32260:32277   */\n      swap1\n      pop\n        /* \"#utility.yul\":32305:32307   */\n      0x1f\n        /* \"#utility.yul\":32297:32303   */\n      dup4\n        /* \"#utility.yul\":32294:32308   */\n      gt\n        /* \"#utility.yul\":32322:32323   */\n      0x01\n        /* \"#utility.yul\":32317:32935   */\n      dup2\n      eq\n      tag_777\n      jumpi\n        /* \"#utility.yul\":32979:32980   */\n      0x00\n        /* \"#utility.yul\":32996:33002   */\n      dup5\n        /* \"#utility.yul\":32993:33070   */\n      iszero\n      tag_778\n      jumpi\n        /* \"#utility.yul\":33045:33054   */\n      dup3\n        /* \"#utility.yul\":33040:33043   */\n      dup8\n        /* \"#utility.yul\":33036:33055   */\n      add\n        /* \"#utility.yul\":33030:33056   */\n      mload\n        /* \"#utility.yul\":33021:33056   */\n      swap1\n      pop\n        /* \"#utility.yul\":32993:33070   */\n    tag_778:\n        /* \"#utility.yul\":33096:33163   */\n      tag_779\n        /* \"#utility.yul\":33156:33162   */\n      dup6\n        /* \"#utility.yul\":33149:33154   */\n      dup3\n        /* \"#utility.yul\":33096:33163   */\n      tag_499\n      jump\t// in\n    tag_779:\n        /* \"#utility.yul\":33090:33094   */\n      dup7\n        /* \"#utility.yul\":33083:33164   */\n      sstore\n        /* \"#utility.yul\":32952:33174   */\n      pop\n        /* \"#utility.yul\":32287:33174   */\n      jump(tag_776)\n        /* \"#utility.yul\":32317:32935   */\n    tag_777:\n        /* \"#utility.yul\":32369:32373   */\n      0x1f\n        /* \"#utility.yul\":32365:32374   */\n      not\n        /* \"#utility.yul\":32357:32363   */\n      dup5\n        /* \"#utility.yul\":32353:32375   */\n      and\n        /* \"#utility.yul\":32403:32440   */\n      tag_780\n        /* \"#utility.yul\":32435:32439   */\n      dup7\n        /* \"#utility.yul\":32403:32440   */\n      tag_485\n      jump\t// in\n    tag_780:\n        /* \"#utility.yul\":32462:32463   */\n      0x00\n        /* \"#utility.yul\":32476:32684   */\n    tag_781:\n        /* \"#utility.yul\":32490:32497   */\n      dup3\n        /* \"#utility.yul\":32487:32488   */\n      dup2\n        /* \"#utility.yul\":32484:32498   */\n      lt\n        /* \"#utility.yul\":32476:32684   */\n      iszero\n      tag_783\n      jumpi\n        /* \"#utility.yul\":32569:32578   */\n      dup5\n        /* \"#utility.yul\":32564:32567   */\n      dup10\n        /* \"#utility.yul\":32560:32579   */\n      add\n        /* \"#utility.yul\":32554:32580   */\n      mload\n        /* \"#utility.yul\":32546:32552   */\n      dup3\n        /* \"#utility.yul\":32539:32581   */\n      sstore\n        /* \"#utility.yul\":32620:32621   */\n      0x01\n        /* \"#utility.yul\":32612:32618   */\n      dup3\n        /* \"#utility.yul\":32608:32622   */\n      add\n        /* \"#utility.yul\":32598:32622   */\n      swap2\n      pop\n        /* \"#utility.yul\":32667:32669   */\n      0x20\n        /* \"#utility.yul\":32656:32665   */\n      dup6\n        /* \"#utility.yul\":32652:32670   */\n      add\n        /* \"#utility.yul\":32639:32670   */\n      swap5\n      pop\n        /* \"#utility.yul\":32513:32517   */\n      0x20\n        /* \"#utility.yul\":32510:32511   */\n      dup2\n        /* \"#utility.yul\":32506:32518   */\n      add\n        /* \"#utility.yul\":32501:32518   */\n      swap1\n      pop\n        /* \"#utility.yul\":32476:32684   */\n      jump(tag_781)\n    tag_783:\n        /* \"#utility.yul\":32712:32718   */\n      dup7\n        /* \"#utility.yul\":32703:32710   */\n      dup4\n        /* \"#utility.yul\":32700:32719   */\n      lt\n        /* \"#utility.yul\":32697:32876   */\n      iszero\n      tag_784\n      jumpi\n        /* \"#utility.yul\":32770:32779   */\n      dup5\n        /* \"#utility.yul\":32765:32768   */\n      dup10\n        /* \"#utility.yul\":32761:32780   */\n      add\n        /* \"#utility.yul\":32755:32781   */\n      mload\n        /* \"#utility.yul\":32813:32861   */\n      tag_785\n        /* \"#utility.yul\":32855:32859   */\n      0x1f\n        /* \"#utility.yul\":32847:32853   */\n      dup10\n        /* \"#utility.yul\":32843:32860   */\n      and\n        /* \"#utility.yul\":32832:32841   */\n      dup3\n        /* \"#utility.yul\":32813:32861   */\n      tag_498\n      jump\t// in\n    tag_785:\n        /* \"#utility.yul\":32805:32811   */\n      dup4\n        /* \"#utility.yul\":32798:32862   */\n      sstore\n        /* \"#utility.yul\":32720:32876   */\n      pop\n        /* \"#utility.yul\":32697:32876   */\n    tag_784:\n        /* \"#utility.yul\":32922:32923   */\n      0x01\n        /* \"#utility.yul\":32918:32919   */\n      0x02\n        /* \"#utility.yul\":32910:32916   */\n      dup9\n        /* \"#utility.yul\":32906:32920   */\n      mul\n        /* \"#utility.yul\":32902:32924   */\n      add\n        /* \"#utility.yul\":32896:32900   */\n      dup9\n        /* \"#utility.yul\":32889:32925   */\n      sstore\n        /* \"#utility.yul\":32324:32935   */\n      pop\n      pop\n      pop\n        /* \"#utility.yul\":32287:33174   */\n    tag_776:\n      pop\n        /* \"#utility.yul\":31877:33180   */\n      pop\n      pop\n      pop\n        /* \"#utility.yul\":31785:33180   */\n      pop\n      pop\n      jump\t// out\n        /* \"#utility.yul\":33186:33303   */\n    tag_500:\n        /* \"#utility.yul\":33295:33296   */\n      0x00\n        /* \"#utility.yul\":33292:33293   */\n      0x00\n        /* \"#utility.yul\":33285:33297   */\n      revert\n        /* \"#utility.yul\":33309:33426   */\n    tag_501:\n        /* \"#utility.yul\":33418:33419   */\n      0x00\n        /* \"#utility.yul\":33415:33416   */\n      0x00\n        /* \"#utility.yul\":33408:33420   */\n      revert\n        /* \"#utility.yul\":33432:33901   */\n    tag_402:\n        /* \"#utility.yul\":33537:33546   */\n      0x00\n        /* \"#utility.yul\":33548:33557   */\n      0x00\n        /* \"#utility.yul\":33586:33594   */\n      dup6\n        /* \"#utility.yul\":33574:33584   */\n      dup6\n        /* \"#utility.yul\":33571:33595   */\n      gt\n        /* \"#utility.yul\":33568:33679   */\n      iszero\n      tag_789\n      jumpi\n        /* \"#utility.yul\":33598:33677   */\n      tag_790\n      tag_500\n      jump\t// in\n    tag_790:\n        /* \"#utility.yul\":33568:33679   */\n    tag_789:\n        /* \"#utility.yul\":33704:33710   */\n      dup4\n        /* \"#utility.yul\":33694:33702   */\n      dup7\n        /* \"#utility.yul\":33691:33711   */\n      gt\n        /* \"#utility.yul\":33688:33795   */\n      iszero\n      tag_791\n      jumpi\n        /* \"#utility.yul\":33714:33793   */\n      tag_792\n      tag_501\n      jump\t// in\n    tag_792:\n        /* \"#utility.yul\":33688:33795   */\n    tag_791:\n        /* \"#utility.yul\":33845:33846   */\n      0x01\n        /* \"#utility.yul\":33833:33843   */\n      dup6\n        /* \"#utility.yul\":33829:33847   */\n      mul\n        /* \"#utility.yul\":33821:33827   */\n      dup4\n        /* \"#utility.yul\":33817:33848   */\n      add\n        /* \"#utility.yul\":33804:33848   */\n      swap2\n      pop\n        /* \"#utility.yul\":33884:33894   */\n      dup5\n        /* \"#utility.yul\":33874:33882   */\n      dup7\n        /* \"#utility.yul\":33870:33895   */\n      sub\n        /* \"#utility.yul\":33857:33895   */\n      swap1\n      pop\n        /* \"#utility.yul\":33432:33901   */\n      swap5\n      pop\n      swap5\n      swap3\n      pop\n      pop\n      pop\n      jump\t// out\n        /* \"#utility.yul\":33907:34003   */\n    tag_502:\n        /* \"#utility.yul\":33965:33971   */\n      0x00\n        /* \"#utility.yul\":33993:33996   */\n      dup3\n        /* \"#utility.yul\":33983:33996   */\n      swap1\n      pop\n        /* \"#utility.yul\":33907:34003   */\n      swap3\n      swap2\n      pop\n      pop\n      jump\t// out\n        /* \"#utility.yul\":34101:34251   */\n    tag_504:\n        /* \"#utility.yul\":34138:34145   */\n      0x00\n        /* \"#utility.yul\":34178:34244   */\n      0xffffffffffffffffffffffffffffffffffffffff000000000000000000000000\n        /* \"#utility.yul\":34171:34176   */\n      dup3\n        /* \"#utility.yul\":34167:34245   */\n      and\n        /* \"#utility.yul\":34156:34245   */\n      swap1\n      pop\n        /* \"#utility.yul\":34101:34251   */\n      swap2\n      swap1\n      pop\n      jump\t// out\n        /* \"#utility.yul\":34257:34809   */\n    tag_404:\n        /* \"#utility.yul\":34348:34353   */\n      0x00\n        /* \"#utility.yul\":34379:34424   */\n      tag_797\n        /* \"#utility.yul\":34420:34423   */\n      dup4\n        /* \"#utility.yul\":34413:34418   */\n      dup4\n        /* \"#utility.yul\":34379:34424   */\n      tag_502\n      jump\t// in\n    tag_797:\n        /* \"#utility.yul\":34449:34454   */\n      dup3\n        /* \"#utility.yul\":34473:34514   */\n      tag_798\n        /* \"#utility.yul\":34504:34512   */\n      dup2\n        /* \"#utility.yul\":34491:34513   */\n      calldataload\n        /* \"#utility.yul\":34473:34514   */\n      tag_504\n      jump\t// in\n    tag_798:\n        /* \"#utility.yul\":34464:34514   */\n      swap3\n      pop\n        /* \"#utility.yul\":34538:34540   */\n      0x14\n        /* \"#utility.yul\":34530:34536   */\n      dup3\n        /* \"#utility.yul\":34527:34541   */\n      lt\n        /* \"#utility.yul\":34524:34802   */\n      iszero\n      tag_799\n      jumpi\n        /* \"#utility.yul\":34609:34778   */\n      tag_800\n        /* \"#utility.yul\":34694:34760   */\n      0xffffffffffffffffffffffffffffffffffffffff000000000000000000000000\n        /* \"#utility.yul\":34664:34670   */\n      dup4\n        /* \"#utility.yul\":34660:34662   */\n      0x14\n        /* \"#utility.yul\":34656:34671   */\n      sub\n        /* \"#utility.yul\":34653:34654   */\n      0x08\n        /* \"#utility.yul\":34649:34672   */\n      mul\n        /* \"#utility.yul\":34609:34778   */\n      tag_487\n      jump\t// in\n    tag_800:\n        /* \"#utility.yul\":34586:34591   */\n      dup4\n        /* \"#utility.yul\":34565:34792   */\n      and\n        /* \"#utility.yul\":34556:34792   */\n      swap3\n      pop\n        /* \"#utility.yul\":34524:34802   */\n    tag_799:\n        /* \"#utility.yul\":34354:34809   */\n      pop\n      pop\n        /* \"#utility.yul\":34257:34809   */\n      swap3\n      swap2\n      pop\n      pop\n      jump\t// out\n\n    auxdata: 0xa26469706673582212208eda4e40958b23b7ddb8cb8e349467f92c12549bb32b2836a6d1c05fd7fe07f564736f6c634300081e0033\n}\n",
				"bytecode": {
					"linkReferences": {},
					"object": "60a060405234801561000f575f5ffd5b5060405161401d38038061401d8339818101604052810190610031919061020d565b33818073ffffffffffffffffffffffffffffffffffffffff1660808173ffffffffffffffffffffffffffffffffffffffff1681525050505f73ffffffffffffffffffffffffffffffffffffffff168173ffffffffffffffffffffffffffffffffffffffff16036100d8575f6040517f1e4fbdf70000000000000000000000000000000000000000000000000000000081526004016100cf9190610247565b60405180910390fd5b6100e7816100ee60201b60201c565b5050610260565b5f5f5f9054906101000a900473ffffffffffffffffffffffffffffffffffffffff169050815f5f6101000a81548173ffffffffffffffffffffffffffffffffffffffff021916908373ffffffffffffffffffffffffffffffffffffffff1602179055508173ffffffffffffffffffffffffffffffffffffffff168173ffffffffffffffffffffffffffffffffffffffff167f8be0079c531659141344cd1fd0a4f28419497f9722a3daafe3b4186f6b6457e060405160405180910390a35050565b5f5ffd5b5f73ffffffffffffffffffffffffffffffffffffffff82169050919050565b5f6101dc826101b3565b9050919050565b6101ec816101d2565b81146101f6575f5ffd5b50565b5f81519050610207816101e3565b92915050565b5f60208284031215610222576102216101af565b5b5f61022f848285016101f9565b91505092915050565b610241816101d2565b82525050565b5f60208201905061025a5f830184610238565b92915050565b608051613da56102785f395f6117b90152613da55ff3fe608060405234801561000f575f5ffd5b5060043610610109575f3560e01c80637da0a877116100a0578063c1cc70101161006f578063c1cc7010146102b5578063e73c2019146102d3578063e7ee324f146102ef578063ec7caddc1461030b578063f2fde38b1461032757610109565b80637da0a877146102195780638da5cb5b1461023757806391ded8fa14610255578063b7a8f2e41461028557610109565b8063572b6c05116100dc578063572b6c05146101a75780635fa7b584146101d75780636552d8b4146101f3578063715018a61461020f57610109565b80631bee1cbc1461010d5780632a5c792a14610129578063488af8b7146101475780634ec7a99814610177575b5f5ffd5b61012760048036038101906101229190612dbf565b610343565b005b610131610620565b60405161013e9190612fd0565b60405180910390f35b610161600480360381019061015c919061301a565b6108d9565b60405161016e9190612fd0565b60405180910390f35b610191600480360381019061018c919061301a565b610bcc565b60405161019e919061318d565b60405180910390f35b6101c160048036038101906101bc9190612dbf565b610ebf565b6040516101ce91906131bc565b60405180910390f35b6101f160048036038101906101ec9190612dbf565b610efd565b005b61020d60048036038101906102089190612dbf565b611350565b005b6102176117a3565b005b6102216117b6565b60405161022e91906131e4565b60405180910390f35b61023f6117dd565b60405161024c91906131e4565b60405180910390f35b61026f600480360381019061026a9190612dbf565b611804565b60405161027c9190613277565b60405180910390f35b61029f600480360381019061029a9190612dbf565b6119f3565b6040516102ac9190613311565b60405180910390f35b6102bd611be2565b6040516102ca919061318d565b60405180910390f35b6102ed60048036038101906102e8919061345d565b611e9b565b005b61030960048036038101906103049190613542565b61229f565b005b61032560048036038101906103209190612dbf565b61272f565b005b610341600480360381019061033c9190612dbf565b612a0c565b005b61034b612a90565b805f73ffffffffffffffffffffffffffffffffffffffff168173ffffffffffffffffffffffffffffffffffffffff16036103ba576040517f08c379a00000000000000000000000000000000000000000000000000000000081526004016103b19061362d565b60405180910390fd5b815f5f73ffffffffffffffffffffffffffffffffffffffff1660015f8473ffffffffffffffffffffffffffffffffffffffff1673ffffffffffffffffffffffffffffffffffffffff1681526020019081526020015f205f015f9054906101000a900473ffffffffffffffffffffffffffffffffffffffff1673ffffffffffffffffffffffffffffffffffffffff161415801561045a575060011515811515145b1561049a576040517f08c379a000000000000000000000000000000000000000000000000000000000815260040161049190613695565b60405180910390fd5b5f73ffffffffffffffffffffffffffffffffffffffff1660015f8473ffffffffffffffffffffffffffffffffffffffff1673ffffffffffffffffffffffffffffffffffffffff1681526020019081526020015f205f015f9054906101000a900473ffffffffffffffffffffffffffffffffffffffff1673ffffffffffffffffffffffffffffffffffffffff1614801561053657505f1515811515145b15610576576040517f08c379a000000000000000000000000000000000000000000000000000000000815260040161056d906136fd565b60405180910390fd5b60015f8573ffffffffffffffffffffffffffffffffffffffff1673ffffffffffffffffffffffffffffffffffffffff1681526020019081526020015f206003015f9054906101000a900460ff161560015f8673ffffffffffffffffffffffffffffffffffffffff1673ffffffffffffffffffffffffffffffffffffffff1681526020019081526020015f206003015f6101000a81548160ff02191690831515021790555050505050565b606060048054905067ffffffffffffffff81111561064157610640613339565b5b60405190808252806020026020018201604052801561067a57816020015b610667612c74565b81526020019060019003908161065f5790505b5090505f5f90505b6004805490508110156108d55760035f600483815481106106a6576106a561371b565b5b905f5260205f20015f9054906101000a900473ffffffffffffffffffffffffffffffffffffffff1673ffffffffffffffffffffffffffffffffffffffff1673ffffffffffffffffffffffffffffffffffffffff1681526020019081526020015f206040518060a00160405290815f82015f9054906101000a900473ffffffffffffffffffffffffffffffffffffffff1673ffffffffffffffffffffffffffffffffffffffff1673ffffffffffffffffffffffffffffffffffffffff16815260200160018201805461077690613775565b80601f01602080910402602001604051908101604052809291908181526020018280546107a290613775565b80156107ed5780601f106107c4576101008083540402835291602001916107ed565b820191905f5260205f20905b8154815290600101906020018083116107d057829003601f168201915b5050505050815260200160028201805461080690613775565b80601f016020809104026020016040519081016040528092919081815260200182805461083290613775565b801561087d5780601f106108545761010080835404028352916020019161087d565b820191905f5260205f20905b81548152906001019060200180831161086057829003601f168201915b50505050508152602001600382015f9054906101000a900460ff161515151581526020016004820154815250508282815181106108bd576108bc61371b565b5b60200260200101819052508080600101915050610682565b5090565b60605f82846108e891906137d2565b90506004805490508111156109005760048054905090505b5f848261090d9190613805565b90508067ffffffffffffffff81111561092957610928613339565b5b60405190808252806020026020018201604052801561096257816020015b61094f612c74565b8152602001906001900390816109475790505b5092505f5f90505b81811015610bc35760035f6004838961098391906137d2565b815481106109945761099361371b565b5b905f5260205f20015f9054906101000a900473ffffffffffffffffffffffffffffffffffffffff1673ffffffffffffffffffffffffffffffffffffffff1673ffffffffffffffffffffffffffffffffffffffff1681526020019081526020015f206040518060a00160405290815f82015f9054906101000a900473ffffffffffffffffffffffffffffffffffffffff1673ffffffffffffffffffffffffffffffffffffffff1673ffffffffffffffffffffffffffffffffffffffff168152602001600182018054610a6490613775565b80601f0160208091040260200160405190810160405280929190818152602001828054610a9090613775565b8015610adb5780601f10610ab257610100808354040283529160200191610adb565b820191905f5260205f20905b815481529060010190602001808311610abe57829003601f168201915b50505050508152602001600282018054610af490613775565b80601f0160208091040260200160405190810160405280929190818152602001828054610b2090613775565b8015610b6b5780601f10610b4257610100808354040283529160200191610b6b565b820191905f5260205f20905b815481529060010190602001808311610b4e57829003601f168201915b50505050508152602001600382015f9054906101000a900460ff16151515158152602001600482015481525050848281518110610bab57610baa61371b565b5b6020026020010181905250808060010191505061096a565b50505092915050565b60605f8284610bdb91906137d2565b9050600280549050811115610bf35760028054905090505b5f8482610c009190613805565b90508067ffffffffffffffff811115610c1c57610c1b613339565b5b604051908082528060200260200182016040528015610c5557816020015b610c42612cb8565b815260200190600190039081610c3a5790505b5092505f5f90505b81811015610eb65760015f60028389610c7691906137d2565b81548110610c8757610c8661371b565b5b905f5260205f20015f9054906101000a900473ffffffffffffffffffffffffffffffffffffffff1673ffffffffffffffffffffffffffffffffffffffff1673ffffffffffffffffffffffffffffffffffffffff1681526020019081526020015f206040518060a00160405290815f82015f9054906101000a900473ffffffffffffffffffffffffffffffffffffffff1673ffffffffffffffffffffffffffffffffffffffff1673ffffffffffffffffffffffffffffffffffffffff168152602001600182018054610d5790613775565b80601f0160208091040260200160405190810160405280929190818152602001828054610d8390613775565b8015610dce5780601f10610da557610100808354040283529160200191610dce565b820191905f5260205f20905b815481529060010190602001808311610db157829003601f168201915b50505050508152602001600282018054610de790613775565b80601f0160208091040260200160405190810160405280929190818152602001828054610e1390613775565b8015610e5e5780601f10610e3557610100808354040283529160200191610e5e565b820191905f5260205f20905b815481529060010190602001808311610e4157829003601f168201915b50505050508152602001600382015f9054906101000a900460ff16151515158152602001600482015481525050848281518110610e9e57610e9d61371b565b5b60200260200101819052508080600101915050610c5d565b50505092915050565b5f610ec86117b6565b73ffffffffffffffffffffffffffffffffffffffff168273ffffffffffffffffffffffffffffffffffffffff16149050919050565b610f05612a90565b805f73ffffffffffffffffffffffffffffffffffffffff168173ffffffffffffffffffffffffffffffffffffffff1603610f74576040517f08c379a0000000000000000000000000000000000000000000000000000000008152600401610f6b90613882565b60405180910390fd5b815f5f73ffffffffffffffffffffffffffffffffffffffff1660035f8473ffffffffffffffffffffffffffffffffffffffff1673ffffffffffffffffffffffffffffffffffffffff1681526020019081526020015f205f015f9054906101000a900473ffffffffffffffffffffffffffffffffffffffff1673ffffffffffffffffffffffffffffffffffffffff1614158015611014575060011515811515145b15611054576040517f08c379a000000000000000000000000000000000000000000000000000000000815260040161104b906138ea565b60405180910390fd5b5f73ffffffffffffffffffffffffffffffffffffffff1660035f8473ffffffffffffffffffffffffffffffffffffffff1673ffffffffffffffffffffffffffffffffffffffff1681526020019081526020015f205f015f9054906101000a900473ffffffffffffffffffffffffffffffffffffffff1673ffffffffffffffffffffffffffffffffffffffff161480156110f057505f1515811515145b15611130576040517f08c379a000000000000000000000000000000000000000000000000000000000815260040161112790613952565b60405180910390fd5b60035f8573ffffffffffffffffffffffffffffffffffffffff1673ffffffffffffffffffffffffffffffffffffffff1681526020019081526020015f205f5f82015f6101000a81549073ffffffffffffffffffffffffffffffffffffffff0219169055600182015f6111a29190612cfc565b600282015f6111b19190612cfc565b600382015f6101000a81549060ff0219169055600482015f905550505f5f90505b600480549050811015611349578473ffffffffffffffffffffffffffffffffffffffff166004828154811061120a5761120961371b565b5b905f5260205f20015f9054906101000a900473ffffffffffffffffffffffffffffffffffffffff1673ffffffffffffffffffffffffffffffffffffffff160361133c57600460016004805490506112619190613805565b815481106112725761127161371b565b5b905f5260205f20015f9054906101000a900473ffffffffffffffffffffffffffffffffffffffff16600482815481106112ae576112ad61371b565b5b905f5260205f20015f6101000a81548173ffffffffffffffffffffffffffffffffffffffff021916908373ffffffffffffffffffffffffffffffffffffffff160217905550600480548061130557611304613970565b5b600190038181905f5260205f20015f6101000a81549073ffffffffffffffffffffffffffffffffffffffff02191690559055611349565b80806001019150506111d2565b5050505050565b611358612a90565b805f73ffffffffffffffffffffffffffffffffffffffff168173ffffffffffffffffffffffffffffffffffffffff16036113c7576040517f08c379a00000000000000000000000000000000000000000000000000000000081526004016113be9061362d565b60405180910390fd5b815f5f73ffffffffffffffffffffffffffffffffffffffff1660015f8473ffffffffffffffffffffffffffffffffffffffff1673ffffffffffffffffffffffffffffffffffffffff1681526020019081526020015f205f015f9054906101000a900473ffffffffffffffffffffffffffffffffffffffff1673ffffffffffffffffffffffffffffffffffffffff1614158015611467575060011515811515145b156114a7576040517f08c379a000000000000000000000000000000000000000000000000000000000815260040161149e90613695565b60405180910390fd5b5f73ffffffffffffffffffffffffffffffffffffffff1660015f8473ffffffffffffffffffffffffffffffffffffffff1673ffffffffffffffffffffffffffffffffffffffff1681526020019081526020015f205f015f9054906101000a900473ffffffffffffffffffffffffffffffffffffffff1673ffffffffffffffffffffffffffffffffffffffff1614801561154357505f1515811515145b15611583576040517f08c379a000000000000000000000000000000000000000000000000000000000815260040161157a906136fd565b60405180910390fd5b60015f8573ffffffffffffffffffffffffffffffffffffffff1673ffffffffffffffffffffffffffffffffffffffff1681526020019081526020015f205f5f82015f6101000a81549073ffffffffffffffffffffffffffffffffffffffff0219169055600182015f6115f59190612cfc565b600282015f6116049190612cfc565b600382015f6101000a81549060ff0219169055600482015f905550505f5f90505b60028054905081101561179c578473ffffffffffffffffffffffffffffffffffffffff166002828154811061165d5761165c61371b565b5b905f5260205f20015f9054906101000a900473ffffffffffffffffffffffffffffffffffffffff1673ffffffffffffffffffffffffffffffffffffffff160361178f57600260016002805490506116b49190613805565b815481106116c5576116c461371b565b5b905f5260205f20015f9054906101000a900473ffffffffffffffffffffffffffffffffffffffff16600282815481106117015761170061371b565b5b905f5260205f20015f6101000a81548173ffffffffffffffffffffffffffffffffffffffff021916908373ffffffffffffffffffffffffffffffffffffffff160217905550600280548061175857611757613970565b5b600190038181905f5260205f20015f6101000a81549073ffffffffffffffffffffffffffffffffffffffff0219169055905561179c565b8080600101915050611625565b5050505050565b6117ab612a90565b6117b45f612b17565b565b5f7f0000000000000000000000000000000000000000000000000000000000000000905090565b5f5f5f9054906101000a900473ffffffffffffffffffffffffffffffffffffffff16905090565b61180c612c74565b60035f8373ffffffffffffffffffffffffffffffffffffffff1673ffffffffffffffffffffffffffffffffffffffff1681526020019081526020015f206040518060a00160405290815f82015f9054906101000a900473ffffffffffffffffffffffffffffffffffffffff1673ffffffffffffffffffffffffffffffffffffffff1673ffffffffffffffffffffffffffffffffffffffff1681526020016001820180546118b890613775565b80601f01602080910402602001604051908101604052809291908181526020018280546118e490613775565b801561192f5780601f106119065761010080835404028352916020019161192f565b820191905f5260205f20905b81548152906001019060200180831161191257829003601f168201915b5050505050815260200160028201805461194890613775565b80601f016020809104026020016040519081016040528092919081815260200182805461197490613775565b80156119bf5780601f10611996576101008083540402835291602001916119bf565b820191905f5260205f20905b8154815290600101906020018083116119a257829003601f168201915b50505050508152602001600382015f9054906101000a900460ff161515151581526020016004820154815250509050919050565b6119fb612cb8565b60015f8373ffffffffffffffffffffffffffffffffffffffff1673ffffffffffffffffffffffffffffffffffffffff1681526020019081526020015f206040518060a00160405290815f82015f9054906101000a900473ffffffffffffffffffffffffffffffffffffffff1673ffffffffffffffffffffffffffffffffffffffff1673ffffffffffffffffffffffffffffffffffffffff168152602001600182018054611aa790613775565b80601f0160208091040260200160405190810160405280929190818152602001828054611ad390613775565b8015611b1e5780601f10611af557610100808354040283529160200191611b1e565b820191905f5260205f20905b815481529060010190602001808311611b0157829003601f168201915b50505050508152602001600282018054611b3790613775565b80601f0160208091040260200160405190810160405280929190818152602001828054611b6390613775565b8015611bae5780601f10611b8557610100808354040283529160200191611bae565b820191905f5260205f20905b815481529060010190602001808311611b9157829003601f168201915b50505050508152602001600382015f9054906101000a900460ff161515151581526020016004820154815250509050919050565b606060028054905067ffffffffffffffff811115611c0357611c02613339565b5b604051908082528060200260200182016040528015611c3c57816020015b611c29612cb8565b815260200190600190039081611c215790505b5090505f5f90505b600280549050811015611e975760015f60028381548110611c6857611c6761371b565b5b905f5260205f20015f9054906101000a900473ffffffffffffffffffffffffffffffffffffffff1673ffffffffffffffffffffffffffffffffffffffff1673ffffffffffffffffffffffffffffffffffffffff1681526020019081526020015f206040518060a00160405290815f82015f9054906101000a900473ffffffffffffffffffffffffffffffffffffffff1673ffffffffffffffffffffffffffffffffffffffff1673ffffffffffffffffffffffffffffffffffffffff168152602001600182018054611d3890613775565b80601f0160208091040260200160405190810160405280929190818152602001828054611d6490613775565b8015611daf5780601f10611d8657610100808354040283529160200191611daf565b820191905f5260205f20905b815481529060010190602001808311611d9257829003601f168201915b50505050508152602001600282018054611dc890613775565b80601f0160208091040260200160405190810160405280929190818152602001828054611df490613775565b8015611e3f5780601f10611e1657610100808354040283529160200191611e3f565b820191905f5260205f20905b815481529060010190602001808311611e2257829003601f168201915b50505050508152602001600382015f9054906101000a900460ff16151515158152602001600482015481525050828281518110611e7f57611e7e61371b565b5b60200260200101819052508080600101915050611c44565b5090565b611ea3612a90565b825f73ffffffffffffffffffffffffffffffffffffffff168173ffffffffffffffffffffffffffffffffffffffff1603611f12576040517f08c379a0000000000000000000000000000000000000000000000000000000008152600401611f0990613882565b60405180910390fd5b8360015f73ffffffffffffffffffffffffffffffffffffffff1660035f8473ffffffffffffffffffffffffffffffffffffffff1673ffffffffffffffffffffffffffffffffffffffff1681526020019081526020015f205f015f9054906101000a900473ffffffffffffffffffffffffffffffffffffffff1673ffffffffffffffffffffffffffffffffffffffff1614158015611fb3575060011515811515145b15611ff3576040517f08c379a0000000000000000000000000000000000000000000000000000000008152600401611fea906138ea565b60405180910390fd5b5f73ffffffffffffffffffffffffffffffffffffffff1660035f8473ffffffffffffffffffffffffffffffffffffffff1673ffffffffffffffffffffffffffffffffffffffff1681526020019081526020015f205f015f9054906101000a900473ffffffffffffffffffffffffffffffffffffffff1673ffffffffffffffffffffffffffffffffffffffff1614801561208f57505f1515811515145b156120cf576040517f08c379a00000000000000000000000000000000000000000000000000000000081526004016120c690613952565b60405180910390fd5b5f85511180156120df57505f8451115b61211e576040517f08c379a000000000000000000000000000000000000000000000000000000000815260040161211590613a0d565b60405180910390fd5b6040518060a001604052808773ffffffffffffffffffffffffffffffffffffffff1681526020018681526020018581526020016001151581526020015f81525060035f8873ffffffffffffffffffffffffffffffffffffffff1673ffffffffffffffffffffffffffffffffffffffff1681526020019081526020015f205f820151815f015f6101000a81548173ffffffffffffffffffffffffffffffffffffffff021916908373ffffffffffffffffffffffffffffffffffffffff16021790555060208201518160010190816121f49190613bcb565b50604082015181600201908161220a9190613bcb565b506060820151816003015f6101000a81548160ff02191690831515021790555060808201518160040155905050600486908060018154018082558091505060019003905f5260205f20015f9091909190916101000a81548173ffffffffffffffffffffffffffffffffffffffff021916908373ffffffffffffffffffffffffffffffffffffffff160217905550505050505050565b6122a7612a90565b845f73ffffffffffffffffffffffffffffffffffffffff168173ffffffffffffffffffffffffffffffffffffffff1603612316576040517f08c379a000000000000000000000000000000000000000000000000000000000815260040161230d9061362d565b60405180910390fd5b8560015f73ffffffffffffffffffffffffffffffffffffffff1660015f8473ffffffffffffffffffffffffffffffffffffffff1673ffffffffffffffffffffffffffffffffffffffff1681526020019081526020015f205f015f9054906101000a900473ffffffffffffffffffffffffffffffffffffffff1673ffffffffffffffffffffffffffffffffffffffff16141580156123b7575060011515811515145b156123f7576040517f08c379a00000000000000000000000000000000000000000000000000000000081526004016123ee90613695565b60405180910390fd5b5f73ffffffffffffffffffffffffffffffffffffffff1660015f8473ffffffffffffffffffffffffffffffffffffffff1673ffffffffffffffffffffffffffffffffffffffff1681526020019081526020015f205f015f9054906101000a900473ffffffffffffffffffffffffffffffffffffffff1673ffffffffffffffffffffffffffffffffffffffff1614801561249357505f1515811515145b156124d3576040517f08c379a00000000000000000000000000000000000000000000000000000000081526004016124ca906136fd565b60405180910390fd5b5f878790501180156124e757505f85859050115b612526576040517f08c379a000000000000000000000000000000000000000000000000000000000815260040161251d90613a0d565b60405180910390fd5b6040518060a001604052808973ffffffffffffffffffffffffffffffffffffffff16815260200188888080601f0160208091040260200160405190810160405280939291908181526020018383808284375f81840152601f19601f82011690508083019250505050505050815260200186868080601f0160208091040260200160405190810160405280939291908181526020018383808284375f81840152601f19601f8201169050808301925050505050505081526020016001151581526020015f81525060015f8a73ffffffffffffffffffffffffffffffffffffffff1673ffffffffffffffffffffffffffffffffffffffff1681526020019081526020015f205f820151815f015f6101000a81548173ffffffffffffffffffffffffffffffffffffffff021916908373ffffffffffffffffffffffffffffffffffffffff16021790555060208201518160010190816126829190613bcb565b5060408201518160020190816126989190613bcb565b506060820151816003015f6101000a81548160ff02191690831515021790555060808201518160040155905050600288908060018154018082558091505060019003905f5260205f20015f9091909190916101000a81548173ffffffffffffffffffffffffffffffffffffffff021916908373ffffffffffffffffffffffffffffffffffffffff1602179055505050505050505050565b612737612a90565b805f73ffffffffffffffffffffffffffffffffffffffff168173ffffffffffffffffffffffffffffffffffffffff16036127a6576040517f08c379a000000000000000000000000000000000000000000000000000000000815260040161279d90613882565b60405180910390fd5b815f5f73ffffffffffffffffffffffffffffffffffffffff1660035f8473ffffffffffffffffffffffffffffffffffffffff1673ffffffffffffffffffffffffffffffffffffffff1681526020019081526020015f205f015f9054906101000a900473ffffffffffffffffffffffffffffffffffffffff1673ffffffffffffffffffffffffffffffffffffffff1614158015612846575060011515811515145b15612886576040517f08c379a000000000000000000000000000000000000000000000000000000000815260040161287d906138ea565b60405180910390fd5b5f73ffffffffffffffffffffffffffffffffffffffff1660035f8473ffffffffffffffffffffffffffffffffffffffff1673ffffffffffffffffffffffffffffffffffffffff1681526020019081526020015f205f015f9054906101000a900473ffffffffffffffffffffffffffffffffffffffff1673ffffffffffffffffffffffffffffffffffffffff1614801561292257505f1515811515145b15612962576040517f08c379a000000000000000000000000000000000000000000000000000000000815260040161295990613952565b60405180910390fd5b60035f8573ffffffffffffffffffffffffffffffffffffffff1673ffffffffffffffffffffffffffffffffffffffff1681526020019081526020015f206003015f9054906101000a900460ff161560035f8673ffffffffffffffffffffffffffffffffffffffff1673ffffffffffffffffffffffffffffffffffffffff1681526020019081526020015f206003015f6101000a81548160ff02191690831515021790555050505050565b612a14612a90565b5f73ffffffffffffffffffffffffffffffffffffffff168173ffffffffffffffffffffffffffffffffffffffff1603612a84575f6040517f1e4fbdf7000000000000000000000000000000000000000000000000000000008152600401612a7b91906131e4565b60405180910390fd5b612a8d81612b17565b50565b612a98612bd8565b73ffffffffffffffffffffffffffffffffffffffff16612ab66117dd565b73ffffffffffffffffffffffffffffffffffffffff1614612b1557612ad9612bd8565b6040517f118cdaa7000000000000000000000000000000000000000000000000000000008152600401612b0c91906131e4565b60405180910390fd5b565b5f5f5f9054906101000a900473ffffffffffffffffffffffffffffffffffffffff169050815f5f6101000a81548173ffffffffffffffffffffffffffffffffffffffff021916908373ffffffffffffffffffffffffffffffffffffffff1602179055508173ffffffffffffffffffffffffffffffffffffffff168173ffffffffffffffffffffffffffffffffffffffff167f8be0079c531659141344cd1fd0a4f28419497f9722a3daafe3b4186f6b6457e060405160405180910390a35050565b5f612be1612be6565b905090565b5f5f5f36905090505f612bf7612c57565b9050612c0233610ebf565b8015612c0e5750808210155b15612c47575f368284612c219190613805565b908092612c3093929190613ca2565b90612c3b9190613d11565b60601c92505050612c54565b612c4f612c65565b925050505b90565b5f612c60612c6c565b905090565b5f33905090565b5f6014905090565b6040518060a001604052805f73ffffffffffffffffffffffffffffffffffffffff16815260200160608152602001606081526020015f151581526020015f81525090565b6040518060a001604052805f73ffffffffffffffffffffffffffffffffffffffff16815260200160608152602001606081526020015f151581526020015f81525090565b508054612d0890613775565b5f825580601f10612d195750612d36565b601f0160209004905f5260205f2090810190612d359190612d39565b5b50565b5b80821115612d50575f815f905550600101612d3a565b5090565b5f604051905090565b5f5ffd5b5f5ffd5b5f73ffffffffffffffffffffffffffffffffffffffff82169050919050565b5f612d8e82612d65565b9050919050565b612d9e81612d84565b8114612da8575f5ffd5b50565b5f81359050612db981612d95565b92915050565b5f60208284031215612dd457612dd3612d5d565b5b5f612de184828501612dab565b91505092915050565b5f81519050919050565b5f82825260208201905092915050565b5f819050602082019050919050565b612e1c81612d84565b82525050565b5f81519050919050565b5f82825260208201905092915050565b8281835e5f83830152505050565b5f601f19601f8301169050919050565b5f612e6482612e22565b612e6e8185612e2c565b9350612e7e818560208601612e3c565b612e8781612e4a565b840191505092915050565b5f8115159050919050565b612ea681612e92565b82525050565b5f819050919050565b612ebe81612eac565b82525050565b5f60a083015f830151612ed95f860182612e13565b5060208301518482036020860152612ef18282612e5a565b91505060408301518482036040860152612f0b8282612e5a565b9150506060830151612f206060860182612e9d565b506080830151612f336080860182612eb5565b508091505092915050565b5f612f498383612ec4565b905092915050565b5f602082019050919050565b5f612f6782612dea565b612f718185612df4565b935083602082028501612f8385612e04565b805f5b85811015612fbe5784840389528151612f9f8582612f3e565b9450612faa83612f51565b925060208a01995050600181019050612f86565b50829750879550505050505092915050565b5f6020820190508181035f830152612fe88184612f5d565b905092915050565b612ff981612eac565b8114613003575f5ffd5b50565b5f8135905061301481612ff0565b92915050565b5f5f604083850312156130305761302f612d5d565b5b5f61303d85828601613006565b925050602061304e85828601613006565b9150509250929050565b5f81519050919050565b5f82825260208201905092915050565b5f819050602082019050919050565b5f60a083015f8301516130965f860182612e13565b50602083015184820360208601526130ae8282612e5a565b915050604083015184820360408601526130c88282612e5a565b91505060608301516130dd6060860182612e9d565b5060808301516130f06080860182612eb5565b508091505092915050565b5f6131068383613081565b905092915050565b5f602082019050919050565b5f61312482613058565b61312e8185613062565b93508360208202850161314085613072565b805f5b8581101561317b578484038952815161315c85826130fb565b94506131678361310e565b925060208a01995050600181019050613143565b50829750879550505050505092915050565b5f6020820190508181035f8301526131a5818461311a565b905092915050565b6131b681612e92565b82525050565b5f6020820190506131cf5f8301846131ad565b92915050565b6131de81612d84565b82525050565b5f6020820190506131f75f8301846131d5565b92915050565b5f60a083015f8301516132125f860182612e13565b506020830151848203602086015261322a8282612e5a565b915050604083015184820360408601526132448282612e5a565b91505060608301516132596060860182612e9d565b50608083015161326c6080860182612eb5565b508091505092915050565b5f6020820190508181035f83015261328f81846131fd565b905092915050565b5f60a083015f8301516132ac5f860182612e13565b50602083015184820360208601526132c48282612e5a565b915050604083015184820360408601526132de8282612e5a565b91505060608301516132f36060860182612e9d565b5060808301516133066080860182612eb5565b508091505092915050565b5f6020820190508181035f8301526133298184613297565b905092915050565b5f5ffd5b5f5ffd5b7f4e487b71000000000000000000000000000000000000000000000000000000005f52604160045260245ffd5b61336f82612e4a565b810181811067ffffffffffffffff8211171561338e5761338d613339565b5b80604052505050565b5f6133a0612d54565b90506133ac8282613366565b919050565b5f67ffffffffffffffff8211156133cb576133ca613339565b5b6133d482612e4a565b9050602081019050919050565b828183375f83830152505050565b5f6134016133fc846133b1565b613397565b90508281526020810184848401111561341d5761341c613335565b5b6134288482856133e1565b509392505050565b5f82601f83011261344457613443613331565b5b81356134548482602086016133ef565b91505092915050565b5f5f5f6060848603121561347457613473612d5d565b5b5f61348186828701612dab565b935050602084013567ffffffffffffffff8111156134a2576134a1612d61565b5b6134ae86828701613430565b925050604084013567ffffffffffffffff8111156134cf576134ce612d61565b5b6134db86828701613430565b9150509250925092565b5f5ffd5b5f5ffd5b5f5f83601f84011261350257613501613331565b5b8235905067ffffffffffffffff81111561351f5761351e6134e5565b5b60208301915083600182028301111561353b5761353a6134e9565b5b9250929050565b5f5f5f5f5f6060868803121561355b5761355a612d5d565b5b5f61356888828901612dab565b955050602086013567ffffffffffffffff81111561358957613588612d61565b5b613595888289016134ed565b9450945050604086013567ffffffffffffffff8111156135b8576135b7612d61565b5b6135c4888289016134ed565b92509250509295509295909350565b5f82825260208201905092915050565b7f496e76616c6964207265636569766572206164647265737300000000000000005f82015250565b5f6136176018836135d3565b9150613622826135e3565b602082019050919050565b5f6020820190508181035f8301526136448161360b565b9050919050565b7f526563656976657220616c7265616479206578697374730000000000000000005f82015250565b5f61367f6017836135d3565b915061368a8261364b565b602082019050919050565b5f6020820190508181035f8301526136ac81613673565b9050919050565b7f5265636569766572206973206e6f7420657869737473000000000000000000005f82015250565b5f6136e76016836135d3565b91506136f2826136b3565b602082019050919050565b5f6020820190508181035f830152613714816136db565b9050919050565b7f4e487b71000000000000000000000000000000000000000000000000000000005f52603260045260245ffd5b7f4e487b71000000000000000000000000000000000000000000000000000000005f52602260045260245ffd5b5f600282049050600182168061378c57607f821691505b60208210810361379f5761379e613748565b5b50919050565b7f4e487b71000000000000000000000000000000000000000000000000000000005f52601160045260245ffd5b5f6137dc82612eac565b91506137e783612eac565b92508282019050808211156137ff576137fe6137a5565b5b92915050565b5f61380f82612eac565b915061381a83612eac565b9250828203905081811115613832576138316137a5565b5b92915050565b7f496e76616c696420746f6b656e206164647265737300000000000000000000005f82015250565b5f61386c6015836135d3565b915061387782613838565b602082019050919050565b5f6020820190508181035f83015261389981613860565b9050919050565b7f546f6b656e20616c7265616479206578697374730000000000000000000000005f82015250565b5f6138d46014836135d3565b91506138df826138a0565b602082019050919050565b5f6020820190508181035f830152613901816138c8565b9050919050565b7f546f6b656e206973206e6f7420657869737473000000000000000000000000005f82015250565b5f61393c6013836135d3565b915061394782613908565b602082019050919050565b5f6020820190508181035f83015261396981613930565b9050919050565b7f4e487b71000000000000000000000000000000000000000000000000000000005f52603160045260245ffd5b7f4d697373696e67207265636569766572206e616d65206f7220646573637269705f8201527f74696f6e00000000000000000000000000000000000000000000000000000000602082015250565b5f6139f76024836135d3565b9150613a028261399d565b604082019050919050565b5f6020820190508181035f830152613a24816139eb565b9050919050565b5f819050815f5260205f209050919050565b5f6020601f8301049050919050565b5f82821b905092915050565b5f60088302613a877fffffffffffffffffffffffffffffffffffffffffffffffffffffffffffffffff82613a4c565b613a918683613a4c565b95508019841693508086168417925050509392505050565b5f819050919050565b5f613acc613ac7613ac284612eac565b613aa9565b612eac565b9050919050565b5f819050919050565b613ae583613ab2565b613af9613af182613ad3565b848454613a58565b825550505050565b5f5f905090565b613b10613b01565b613b1b818484613adc565b505050565b5b81811015613b3e57613b335f82613b08565b600181019050613b21565b5050565b601f821115613b8357613b5481613a2b565b613b5d84613a3d565b81016020851015613b6c578190505b613b80613b7885613a3d565b830182613b20565b50505b505050565b5f82821c905092915050565b5f613ba35f1984600802613b88565b1980831691505092915050565b5f613bbb8383613b94565b9150826002028217905092915050565b613bd482612e22565b67ffffffffffffffff811115613bed57613bec613339565b5b613bf78254613775565b613c02828285613b42565b5f60209050601f831160018114613c33575f8415613c21578287015190505b613c2b8582613bb0565b865550613c92565b601f198416613c4186613a2b565b5f5b82811015613c6857848901518255600182019150602085019450602081019050613c43565b86831015613c855784890151613c81601f891682613b94565b8355505b6001600288020188555050505b505050505050565b5f5ffd5b5f5ffd5b5f5f85851115613cb557613cb4613c9a565b5b83861115613cc657613cc5613c9e565b5b6001850283019150848603905094509492505050565b5f82905092915050565b5f7fffffffffffffffffffffffffffffffffffffffff00000000000000000000000082169050919050565b5f613d1c8383613cdc565b82613d278135613ce6565b92506014821015613d6757613d627fffffffffffffffffffffffffffffffffffffffff00000000000000000000000083601403600802613a4c565b831692505b50509291505056fea26469706673582212208eda4e40958b23b7ddb8cb8e349467f92c12549bb32b2836a6d1c05fd7fe07f564736f6c634300081e0033",
					"opcodes": "PUSH1 0xA0 PUSH1 0x40 MSTORE CALLVALUE DUP1 ISZERO PUSH2 0xF JUMPI PUSH0 PUSH0 REVERT JUMPDEST POP PUSH1 0x40 MLOAD PUSH2 0x401D CODESIZE SUB DUP1 PUSH2 0x401D DUP4 CODECOPY DUP2 DUP2 ADD PUSH1 0x40 MSTORE DUP2 ADD SWAP1 PUSH2 0x31 SWAP2 SWAP1 PUSH2 0x20D JUMP JUMPDEST CALLER DUP2 DUP1 PUSH20 0xFFFFFFFFFFFFFFFFFFFFFFFFFFFFFFFFFFFFFFFF AND PUSH1 0x80 DUP2 PUSH20 0xFFFFFFFFFFFFFFFFFFFFFFFFFFFFFFFFFFFFFFFF AND DUP2 MSTORE POP POP POP PUSH0 PUSH20 0xFFFFFFFFFFFFFFFFFFFFFFFFFFFFFFFFFFFFFFFF AND DUP2 PUSH20 0xFFFFFFFFFFFFFFFFFFFFFFFFFFFFFFFFFFFFFFFF AND SUB PUSH2 0xD8 JUMPI PUSH0 PUSH1 0x40 MLOAD PUSH32 0x1E4FBDF700000000000000000000000000000000000000000000000000000000 DUP2 MSTORE PUSH1 0x4 ADD PUSH2 0xCF SWAP2 SWAP1 PUSH2 0x247 JUMP JUMPDEST PUSH1 0x40 MLOAD DUP1 SWAP2 SUB SWAP1 REVERT JUMPDEST PUSH2 0xE7 DUP2 PUSH2 0xEE PUSH1 0x20 SHL PUSH1 0x20 SHR JUMP JUMPDEST POP POP PUSH2 0x260 JUMP JUMPDEST PUSH0 PUSH0 PUSH0 SWAP1 SLOAD SWAP1 PUSH2 0x100 EXP SWAP1 DIV PUSH20 0xFFFFFFFFFFFFFFFFFFFFFFFFFFFFFFFFFFFFFFFF AND SWAP1 POP DUP2 PUSH0 PUSH0 PUSH2 0x100 EXP DUP2 SLOAD DUP2 PUSH20 0xFFFFFFFFFFFFFFFFFFFFFFFFFFFFFFFFFFFFFFFF MUL NOT AND SWAP1 DUP4 PUSH20 0xFFFFFFFFFFFFFFFFFFFFFFFFFFFFFFFFFFFFFFFF AND MUL OR SWAP1 SSTORE POP DUP2 PUSH20 0xFFFFFFFFFFFFFFFFFFFFFFFFFFFFFFFFFFFFFFFF AND DUP2 PUSH20 0xFFFFFFFFFFFFFFFFFFFFFFFFFFFFFFFFFFFFFFFF AND PUSH32 0x8BE0079C531659141344CD1FD0A4F28419497F9722A3DAAFE3B4186F6B6457E0 PUSH1 0x40 MLOAD PUSH1 0x40 MLOAD DUP1 SWAP2 SUB SWAP1 LOG3 POP POP JUMP JUMPDEST PUSH0 PUSH0 REVERT JUMPDEST PUSH0 PUSH20 0xFFFFFFFFFFFFFFFFFFFFFFFFFFFFFFFFFFFFFFFF DUP3 AND SWAP1 POP SWAP2 SWAP1 POP JUMP JUMPDEST PUSH0 PUSH2 0x1DC DUP3 PUSH2 0x1B3 JUMP JUMPDEST SWAP1 POP SWAP2 SWAP1 POP JUMP JUMPDEST PUSH2 0x1EC DUP2 PUSH2 0x1D2 JUMP JUMPDEST DUP2 EQ PUSH2 0x1F6 JUMPI PUSH0 PUSH0 REVERT JUMPDEST POP JUMP JUMPDEST PUSH0 DUP2 MLOAD SWAP1 POP PUSH2 0x207 DUP2 PUSH2 0x1E3 JUMP JUMPDEST SWAP3 SWAP2 POP POP JUMP JUMPDEST PUSH0 PUSH1 0x20 DUP3 DUP5 SUB SLT ISZERO PUSH2 0x222 JUMPI PUSH2 0x221 PUSH2 0x1AF JUMP JUMPDEST JUMPDEST PUSH0 PUSH2 0x22F DUP5 DUP3 DUP6 ADD PUSH2 0x1F9 JUMP JUMPDEST SWAP2 POP POP SWAP3 SWAP2 POP POP JUMP JUMPDEST PUSH2 0x241 DUP2 PUSH2 0x1D2 JUMP JUMPDEST DUP3 MSTORE POP POP JUMP JUMPDEST PUSH0 PUSH1 0x20 DUP3 ADD SWAP1 POP PUSH2 0x25A PUSH0 DUP4 ADD DUP5 PUSH2 0x238 JUMP JUMPDEST SWAP3 SWAP2 POP POP JUMP JUMPDEST PUSH1 0x80 MLOAD PUSH2 0x3DA5 PUSH2 0x278 PUSH0 CODECOPY PUSH0 PUSH2 0x17B9 ADD MSTORE PUSH2 0x3DA5 PUSH0 RETURN INVALID PUSH1 0x80 PUSH1 0x40 MSTORE CALLVALUE DUP1 ISZERO PUSH2 0xF JUMPI PUSH0 PUSH0 REVERT JUMPDEST POP PUSH1 0x4 CALLDATASIZE LT PUSH2 0x109 JUMPI PUSH0 CALLDATALOAD PUSH1 0xE0 SHR DUP1 PUSH4 0x7DA0A877 GT PUSH2 0xA0 JUMPI DUP1 PUSH4 0xC1CC7010 GT PUSH2 0x6F JUMPI DUP1 PUSH4 0xC1CC7010 EQ PUSH2 0x2B5 JUMPI DUP1 PUSH4 0xE73C2019 EQ PUSH2 0x2D3 JUMPI DUP1 PUSH4 0xE7EE324F EQ PUSH2 0x2EF JUMPI DUP1 PUSH4 0xEC7CADDC EQ PUSH2 0x30B JUMPI DUP1 PUSH4 0xF2FDE38B EQ PUSH2 0x327 JUMPI PUSH2 0x109 JUMP JUMPDEST DUP1 PUSH4 0x7DA0A877 EQ PUSH2 0x219 JUMPI DUP1 PUSH4 0x8DA5CB5B EQ PUSH2 0x237 JUMPI DUP1 PUSH4 0x91DED8FA EQ PUSH2 0x255 JUMPI DUP1 PUSH4 0xB7A8F2E4 EQ PUSH2 0x285 JUMPI PUSH2 0x109 JUMP JUMPDEST DUP1 PUSH4 0x572B6C05 GT PUSH2 0xDC JUMPI DUP1 PUSH4 0x572B6C05 EQ PUSH2 0x1A7 JUMPI DUP1 PUSH4 0x5FA7B584 EQ PUSH2 0x1D7 JUMPI DUP1 PUSH4 0x6552D8B4 EQ PUSH2 0x1F3 JUMPI DUP1 PUSH4 0x715018A6 EQ PUSH2 0x20F JUMPI PUSH2 0x109 JUMP JUMPDEST DUP1 PUSH4 0x1BEE1CBC EQ PUSH2 0x10D JUMPI DUP1 PUSH4 0x2A5C792A EQ PUSH2 0x129 JUMPI DUP1 PUSH4 0x488AF8B7 EQ PUSH2 0x147 JUMPI DUP1 PUSH4 0x4EC7A998 EQ PUSH2 0x177 JUMPI JUMPDEST PUSH0 PUSH0 REVERT JUMPDEST PUSH2 0x127 PUSH1 0x4 DUP1 CALLDATASIZE SUB DUP2 ADD SWAP1 PUSH2 0x122 SWAP2 SWAP1 PUSH2 0x2DBF JUMP JUMPDEST PUSH2 0x343 JUMP JUMPDEST STOP JUMPDEST PUSH2 0x131 PUSH2 0x620 JUMP JUMPDEST PUSH1 0x40 MLOAD PUSH2 0x13E SWAP2 SWAP1 PUSH2 0x2FD0 JUMP JUMPDEST PUSH1 0x40 MLOAD DUP1 SWAP2 SUB SWAP1 RETURN JUMPDEST PUSH2 0x161 PUSH1 0x4 DUP1 CALLDATASIZE SUB DUP2 ADD SWAP1 PUSH2 0x15C SWAP2 SWAP1 PUSH2 0x301A JUMP JUMPDEST PUSH2 0x8D9 JUMP JUMPDEST PUSH1 0x40 MLOAD PUSH2 0x16E SWAP2 SWAP1 PUSH2 0x2FD0 JUMP JUMPDEST PUSH1 0x40 MLOAD DUP1 SWAP2 SUB SWAP1 RETURN JUMPDEST PUSH2 0x191 PUSH1 0x4 DUP1 CALLDATASIZE SUB DUP2 ADD SWAP1 PUSH2 0x18C SWAP2 SWAP1 PUSH2 0x301A JUMP JUMPDEST PUSH2 0xBCC JUMP JUMPDEST PUSH1 0x40 MLOAD PUSH2 0x19E SWAP2 SWAP1 PUSH2 0x318D JUMP JUMPDEST PUSH1 0x40 MLOAD DUP1 SWAP2 SUB SWAP1 RETURN JUMPDEST PUSH2 0x1C1 PUSH1 0x4 DUP1 CALLDATASIZE SUB DUP2 ADD SWAP1 PUSH2 0x1BC SWAP2 SWAP1 PUSH2 0x2DBF JUMP JUMPDEST PUSH2 0xEBF JUMP JUMPDEST PUSH1 0x40 MLOAD PUSH2 0x1CE SWAP2 SWAP1 PUSH2 0x31BC JUMP JUMPDEST PUSH1 0x40 MLOAD DUP1 SWAP2 SUB SWAP1 RETURN JUMPDEST PUSH2 0x1F1 PUSH1 0x4 DUP1 CALLDATASIZE SUB DUP2 ADD SWAP1 PUSH2 0x1EC SWAP2 SWAP1 PUSH2 0x2DBF JUMP JUMPDEST PUSH2 0xEFD JUMP JUMPDEST STOP JUMPDEST PUSH2 0x20D PUSH1 0x4 DUP1 CALLDATASIZE SUB DUP2 ADD SWAP1 PUSH2 0x208 SWAP2 SWAP1 PUSH2 0x2DBF JUMP JUMPDEST PUSH2 0x1350 JUMP JUMPDEST STOP JUMPDEST PUSH2 0x217 PUSH2 0x17A3 JUMP JUMPDEST STOP JUMPDEST PUSH2 0x221 PUSH2 0x17B6 JUMP JUMPDEST PUSH1 0x40 MLOAD PUSH2 0x22E SWAP2 SWAP1 PUSH2 0x31E4 JUMP JUMPDEST PUSH1 0x40 MLOAD DUP1 SWAP2 SUB SWAP1 RETURN JUMPDEST PUSH2 0x23F PUSH2 0x17DD JUMP JUMPDEST PUSH1 0x40 MLOAD PUSH2 0x24C SWAP2 SWAP1 PUSH2 0x31E4 JUMP JUMPDEST PUSH1 0x40 MLOAD DUP1 SWAP2 SUB SWAP1 RETURN JUMPDEST PUSH2 0x26F PUSH1 0x4 DUP1 CALLDATASIZE SUB DUP2 ADD SWAP1 PUSH2 0x26A SWAP2 SWAP1 PUSH2 0x2DBF JUMP JUMPDEST PUSH2 0x1804 JUMP JUMPDEST PUSH1 0x40 MLOAD PUSH2 0x27C SWAP2 SWAP1 PUSH2 0x3277 JUMP JUMPDEST PUSH1 0x40 MLOAD DUP1 SWAP2 SUB SWAP1 RETURN JUMPDEST PUSH2 0x29F PUSH1 0x4 DUP1 CALLDATASIZE SUB DUP2 ADD SWAP1 PUSH2 0x29A SWAP2 SWAP1 PUSH2 0x2DBF JUMP JUMPDEST PUSH2 0x19F3 JUMP JUMPDEST PUSH1 0x40 MLOAD PUSH2 0x2AC SWAP2 SWAP1 PUSH2 0x3311 JUMP JUMPDEST PUSH1 0x40 MLOAD DUP1 SWAP2 SUB SWAP1 RETURN JUMPDEST PUSH2 0x2BD PUSH2 0x1BE2 JUMP JUMPDEST PUSH1 0x40 MLOAD PUSH2 0x2CA SWAP2 SWAP1 PUSH2 0x318D JUMP JUMPDEST PUSH1 0x40 MLOAD DUP1 SWAP2 SUB SWAP1 RETURN JUMPDEST PUSH2 0x2ED PUSH1 0x4 DUP1 CALLDATASIZE SUB DUP2 ADD SWAP1 PUSH2 0x2E8 SWAP2 SWAP1 PUSH2 0x345D JUMP JUMPDEST PUSH2 0x1E9B JUMP JUMPDEST STOP JUMPDEST PUSH2 0x309 PUSH1 0x4 DUP1 CALLDATASIZE SUB DUP2 ADD SWAP1 PUSH2 0x304 SWAP2 SWAP1 PUSH2 0x3542 JUMP JUMPDEST PUSH2 0x229F JUMP JUMPDEST STOP JUMPDEST PUSH2 0x325 PUSH1 0x4 DUP1 CALLDATASIZE SUB DUP2 ADD SWAP1 PUSH2 0x320 SWAP2 SWAP1 PUSH2 0x2DBF JUMP JUMPDEST PUSH2 0x272F JUMP JUMPDEST STOP JUMPDEST PUSH2 0x341 PUSH1 0x4 DUP1 CALLDATASIZE SUB DUP2 ADD SWAP1 PUSH2 0x33C SWAP2 SWAP1 PUSH2 0x2DBF JUMP JUMPDEST PUSH2 0x2A0C JUMP JUMPDEST STOP JUMPDEST PUSH2 0x34B PUSH2 0x2A90 JUMP JUMPDEST DUP1 PUSH0 PUSH20 0xFFFFFFFFFFFFFFFFFFFFFFFFFFFFFFFFFFFFFFFF AND DUP2 PUSH20 0xFFFFFFFFFFFFFFFFFFFFFFFFFFFFFFFFFFFFFFFF AND SUB PUSH2 0x3BA JUMPI PUSH1 0x40 MLOAD PUSH32 0x8C379A000000000000000000000000000000000000000000000000000000000 DUP2 MSTORE PUSH1 0x4 ADD PUSH2 0x3B1 SWAP1 PUSH2 0x362D JUMP JUMPDEST PUSH1 0x40 MLOAD DUP1 SWAP2 SUB SWAP1 REVERT JUMPDEST DUP2 PUSH0 PUSH0 PUSH20 0xFFFFFFFFFFFFFFFFFFFFFFFFFFFFFFFFFFFFFFFF AND PUSH1 0x1 PUSH0 DUP5 PUSH20 0xFFFFFFFFFFFFFFFFFFFFFFFFFFFFFFFFFFFFFFFF AND PUSH20 0xFFFFFFFFFFFFFFFFFFFFFFFFFFFFFFFFFFFFFFFF AND DUP2 MSTORE PUSH1 0x20 ADD SWAP1 DUP2 MSTORE PUSH1 0x20 ADD PUSH0 KECCAK256 PUSH0 ADD PUSH0 SWAP1 SLOAD SWAP1 PUSH2 0x100 EXP SWAP1 DIV PUSH20 0xFFFFFFFFFFFFFFFFFFFFFFFFFFFFFFFFFFFFFFFF AND PUSH20 0xFFFFFFFFFFFFFFFFFFFFFFFFFFFFFFFFFFFFFFFF AND EQ ISZERO DUP1 ISZERO PUSH2 0x45A JUMPI POP PUSH1 0x1 ISZERO ISZERO DUP2 ISZERO ISZERO EQ JUMPDEST ISZERO PUSH2 0x49A JUMPI PUSH1 0x40 MLOAD PUSH32 0x8C379A000000000000000000000000000000000000000000000000000000000 DUP2 MSTORE PUSH1 0x4 ADD PUSH2 0x491 SWAP1 PUSH2 0x3695 JUMP JUMPDEST PUSH1 0x40 MLOAD DUP1 SWAP2 SUB SWAP1 REVERT JUMPDEST PUSH0 PUSH20 0xFFFFFFFFFFFFFFFFFFFFFFFFFFFFFFFFFFFFFFFF AND PUSH1 0x1 PUSH0 DUP5 PUSH20 0xFFFFFFFFFFFFFFFFFFFFFFFFFFFFFFFFFFFFFFFF AND PUSH20 0xFFFFFFFFFFFFFFFFFFFFFFFFFFFFFFFFFFFFFFFF AND DUP2 MSTORE PUSH1 0x20 ADD SWAP1 DUP2 MSTORE PUSH1 0x20 ADD PUSH0 KECCAK256 PUSH0 ADD PUSH0 SWAP1 SLOAD SWAP1 PUSH2 0x100 EXP SWAP1 DIV PUSH20 0xFFFFFFFFFFFFFFFFFFFFFFFFFFFFFFFFFFFFFFFF AND PUSH20 0xFFFFFFFFFFFFFFFFFFFFFFFFFFFFFFFFFFFFFFFF AND EQ DUP1 ISZERO PUSH2 0x536 JUMPI POP PUSH0 ISZERO ISZERO DUP2 ISZERO ISZERO EQ JUMPDEST ISZERO PUSH2 0x576 JUMPI PUSH1 0x40 MLOAD PUSH32 0x8C379A000000000000000000000000000000000000000000000000000000000 DUP2 MSTORE PUSH1 0x4 ADD PUSH2 0x56D SWAP1 PUSH2 0x36FD JUMP JUMPDEST PUSH1 0x40 MLOAD DUP1 SWAP2 SUB SWAP1 REVERT JUMPDEST PUSH1 0x1 PUSH0 DUP6 PUSH20 0xFFFFFFFFFFFFFFFFFFFFFFFFFFFFFFFFFFFFFFFF AND PUSH20 0xFFFFFFFFFFFFFFFFFFFFFFFFFFFFFFFFFFFFFFFF AND DUP2 MSTORE PUSH1 0x20 ADD SWAP1 DUP2 MSTORE PUSH1 0x20 ADD PUSH0 KECCAK256 PUSH1 0x3 ADD PUSH0 SWAP1 SLOAD SWAP1 PUSH2 0x100 EXP SWAP1 DIV PUSH1 0xFF AND ISZERO PUSH1 0x1 PUSH0 DUP7 PUSH20 0xFFFFFFFFFFFFFFFFFFFFFFFFFFFFFFFFFFFFFFFF AND PUSH20 0xFFFFFFFFFFFFFFFFFFFFFFFFFFFFFFFFFFFFFFFF AND DUP2 MSTORE PUSH1 0x20 ADD SWAP1 DUP2 MSTORE PUSH1 0x20 ADD PUSH0 KECCAK256 PUSH1 0x3 ADD PUSH0 PUSH2 0x100 EXP DUP2 SLOAD DUP2 PUSH1 0xFF MUL NOT AND SWAP1 DUP4 ISZERO ISZERO MUL OR SWAP1 SSTORE POP POP POP POP POP JUMP JUMPDEST PUSH1 0x60 PUSH1 0x4 DUP1 SLOAD SWAP1 POP PUSH8 0xFFFFFFFFFFFFFFFF DUP2 GT ISZERO PUSH2 0x641 JUMPI PUSH2 0x640 PUSH2 0x3339 JUMP JUMPDEST JUMPDEST PUSH1 0x40 MLOAD SWAP1 DUP1 DUP3 MSTORE DUP1 PUSH1 0x20 MUL PUSH1 0x20 ADD DUP3 ADD PUSH1 0x40 MSTORE DUP1 ISZERO PUSH2 0x67A JUMPI DUP2 PUSH1 0x20 ADD JUMPDEST PUSH2 0x667 PUSH2 0x2C74 JUMP JUMPDEST DUP2 MSTORE PUSH1 0x20 ADD SWAP1 PUSH1 0x1 SWAP1 SUB SWAP1 DUP2 PUSH2 0x65F JUMPI SWAP1 POP JUMPDEST POP SWAP1 POP PUSH0 PUSH0 SWAP1 POP JUMPDEST PUSH1 0x4 DUP1 SLOAD SWAP1 POP DUP2 LT ISZERO PUSH2 0x8D5 JUMPI PUSH1 0x3 PUSH0 PUSH1 0x4 DUP4 DUP2 SLOAD DUP2 LT PUSH2 0x6A6 JUMPI PUSH2 0x6A5 PUSH2 0x371B JUMP JUMPDEST JUMPDEST SWAP1 PUSH0 MSTORE PUSH1 0x20 PUSH0 KECCAK256 ADD PUSH0 SWAP1 SLOAD SWAP1 PUSH2 0x100 EXP SWAP1 DIV PUSH20 0xFFFFFFFFFFFFFFFFFFFFFFFFFFFFFFFFFFFFFFFF AND PUSH20 0xFFFFFFFFFFFFFFFFFFFFFFFFFFFFFFFFFFFFFFFF AND PUSH20 0xFFFFFFFFFFFFFFFFFFFFFFFFFFFFFFFFFFFFFFFF AND DUP2 MSTORE PUSH1 0x20 ADD SWAP1 DUP2 MSTORE PUSH1 0x20 ADD PUSH0 KECCAK256 PUSH1 0x40 MLOAD DUP1 PUSH1 0xA0 ADD PUSH1 0x40 MSTORE SWAP1 DUP2 PUSH0 DUP3 ADD PUSH0 SWAP1 SLOAD SWAP1 PUSH2 0x100 EXP SWAP1 DIV PUSH20 0xFFFFFFFFFFFFFFFFFFFFFFFFFFFFFFFFFFFFFFFF AND PUSH20 0xFFFFFFFFFFFFFFFFFFFFFFFFFFFFFFFFFFFFFFFF AND PUSH20 0xFFFFFFFFFFFFFFFFFFFFFFFFFFFFFFFFFFFFFFFF AND DUP2 MSTORE PUSH1 0x20 ADD PUSH1 0x1 DUP3 ADD DUP1 SLOAD PUSH2 0x776 SWAP1 PUSH2 0x3775 JUMP JUMPDEST DUP1 PUSH1 0x1F ADD PUSH1 0x20 DUP1 SWAP2 DIV MUL PUSH1 0x20 ADD PUSH1 0x40 MLOAD SWAP1 DUP2 ADD PUSH1 0x40 MSTORE DUP1 SWAP3 SWAP2 SWAP1 DUP2 DUP2 MSTORE PUSH1 0x20 ADD DUP3 DUP1 SLOAD PUSH2 0x7A2 SWAP1 PUSH2 0x3775 JUMP JUMPDEST DUP1 ISZERO PUSH2 0x7ED JUMPI DUP1 PUSH1 0x1F LT PUSH2 0x7C4 JUMPI PUSH2 0x100 DUP1 DUP4 SLOAD DIV MUL DUP4 MSTORE SWAP2 PUSH1 0x20 ADD SWAP2 PUSH2 0x7ED JUMP JUMPDEST DUP3 ADD SWAP2 SWAP1 PUSH0 MSTORE PUSH1 0x20 PUSH0 KECCAK256 SWAP1 JUMPDEST DUP2 SLOAD DUP2 MSTORE SWAP1 PUSH1 0x1 ADD SWAP1 PUSH1 0x20 ADD DUP1 DUP4 GT PUSH2 0x7D0 JUMPI DUP3 SWAP1 SUB PUSH1 0x1F AND DUP3 ADD SWAP2 JUMPDEST POP POP POP POP POP DUP2 MSTORE PUSH1 0x20 ADD PUSH1 0x2 DUP3 ADD DUP1 SLOAD PUSH2 0x806 SWAP1 PUSH2 0x3775 JUMP JUMPDEST DUP1 PUSH1 0x1F ADD PUSH1 0x20 DUP1 SWAP2 DIV MUL PUSH1 0x20 ADD PUSH1 0x40 MLOAD SWAP1 DUP2 ADD PUSH1 0x40 MSTORE DUP1 SWAP3 SWAP2 SWAP1 DUP2 DUP2 MSTORE PUSH1 0x20 ADD DUP3 DUP1 SLOAD PUSH2 0x832 SWAP1 PUSH2 0x3775 JUMP JUMPDEST DUP1 ISZERO PUSH2 0x87D JUMPI DUP1 PUSH1 0x1F LT PUSH2 0x854 JUMPI PUSH2 0x100 DUP1 DUP4 SLOAD DIV MUL DUP4 MSTORE SWAP2 PUSH1 0x20 ADD SWAP2 PUSH2 0x87D JUMP JUMPDEST DUP3 ADD SWAP2 SWAP1 PUSH0 MSTORE PUSH1 0x20 PUSH0 KECCAK256 SWAP1 JUMPDEST DUP2 SLOAD DUP2 MSTORE SWAP1 PUSH1 0x1 ADD SWAP1 PUSH1 0x20 ADD DUP1 DUP4 GT PUSH2 0x860 JUMPI DUP3 SWAP1 SUB PUSH1 0x1F AND DUP3 ADD SWAP2 JUMPDEST POP POP POP POP POP DUP2 MSTORE PUSH1 0x20 ADD PUSH1 0x3 DUP3 ADD PUSH0 SWAP1 SLOAD SWAP1 PUSH2 0x100 EXP SWAP1 DIV PUSH1 0xFF AND ISZERO ISZERO ISZERO ISZERO DUP2 MSTORE PUSH1 0x20 ADD PUSH1 0x4 DUP3 ADD SLOAD DUP2 MSTORE POP POP DUP3 DUP3 DUP2 MLOAD DUP2 LT PUSH2 0x8BD JUMPI PUSH2 0x8BC PUSH2 0x371B JUMP JUMPDEST JUMPDEST PUSH1 0x20 MUL PUSH1 0x20 ADD ADD DUP2 SWAP1 MSTORE POP DUP1 DUP1 PUSH1 0x1 ADD SWAP2 POP POP PUSH2 0x682 JUMP JUMPDEST POP SWAP1 JUMP JUMPDEST PUSH1 0x60 PUSH0 DUP3 DUP5 PUSH2 0x8E8 SWAP2 SWAP1 PUSH2 0x37D2 JUMP JUMPDEST SWAP1 POP PUSH1 0x4 DUP1 SLOAD SWAP1 POP DUP2 GT ISZERO PUSH2 0x900 JUMPI PUSH1 0x4 DUP1 SLOAD SWAP1 POP SWAP1 POP JUMPDEST PUSH0 DUP5 DUP3 PUSH2 0x90D SWAP2 SWAP1 PUSH2 0x3805 JUMP JUMPDEST SWAP1 POP DUP1 PUSH8 0xFFFFFFFFFFFFFFFF DUP2 GT ISZERO PUSH2 0x929 JUMPI PUSH2 0x928 PUSH2 0x3339 JUMP JUMPDEST JUMPDEST PUSH1 0x40 MLOAD SWAP1 DUP1 DUP3 MSTORE DUP1 PUSH1 0x20 MUL PUSH1 0x20 ADD DUP3 ADD PUSH1 0x40 MSTORE DUP1 ISZERO PUSH2 0x962 JUMPI DUP2 PUSH1 0x20 ADD JUMPDEST PUSH2 0x94F PUSH2 0x2C74 JUMP JUMPDEST DUP2 MSTORE PUSH1 0x20 ADD SWAP1 PUSH1 0x1 SWAP1 SUB SWAP1 DUP2 PUSH2 0x947 JUMPI SWAP1 POP JUMPDEST POP SWAP3 POP PUSH0 PUSH0 SWAP1 POP JUMPDEST DUP2 DUP2 LT ISZERO PUSH2 0xBC3 JUMPI PUSH1 0x3 PUSH0 PUSH1 0x4 DUP4 DUP10 PUSH2 0x983 SWAP2 SWAP1 PUSH2 0x37D2 JUMP JUMPDEST DUP2 SLOAD DUP2 LT PUSH2 0x994 JUMPI PUSH2 0x993 PUSH2 0x371B JUMP JUMPDEST JUMPDEST SWAP1 PUSH0 MSTORE PUSH1 0x20 PUSH0 KECCAK256 ADD PUSH0 SWAP1 SLOAD SWAP1 PUSH2 0x100 EXP SWAP1 DIV PUSH20 0xFFFFFFFFFFFFFFFFFFFFFFFFFFFFFFFFFFFFFFFF AND PUSH20 0xFFFFFFFFFFFFFFFFFFFFFFFFFFFFFFFFFFFFFFFF AND PUSH20 0xFFFFFFFFFFFFFFFFFFFFFFFFFFFFFFFFFFFFFFFF AND DUP2 MSTORE PUSH1 0x20 ADD SWAP1 DUP2 MSTORE PUSH1 0x20 ADD PUSH0 KECCAK256 PUSH1 0x40 MLOAD DUP1 PUSH1 0xA0 ADD PUSH1 0x40 MSTORE SWAP1 DUP2 PUSH0 DUP3 ADD PUSH0 SWAP1 SLOAD SWAP1 PUSH2 0x100 EXP SWAP1 DIV PUSH20 0xFFFFFFFFFFFFFFFFFFFFFFFFFFFFFFFFFFFFFFFF AND PUSH20 0xFFFFFFFFFFFFFFFFFFFFFFFFFFFFFFFFFFFFFFFF AND PUSH20 0xFFFFFFFFFFFFFFFFFFFFFFFFFFFFFFFFFFFFFFFF AND DUP2 MSTORE PUSH1 0x20 ADD PUSH1 0x1 DUP3 ADD DUP1 SLOAD PUSH2 0xA64 SWAP1 PUSH2 0x3775 JUMP JUMPDEST DUP1 PUSH1 0x1F ADD PUSH1 0x20 DUP1 SWAP2 DIV MUL PUSH1 0x20 ADD PUSH1 0x40 MLOAD SWAP1 DUP2 ADD PUSH1 0x40 MSTORE DUP1 SWAP3 SWAP2 SWAP1 DUP2 DUP2 MSTORE PUSH1 0x20 ADD DUP3 DUP1 SLOAD PUSH2 0xA90 SWAP1 PUSH2 0x3775 JUMP JUMPDEST DUP1 ISZERO PUSH2 0xADB JUMPI DUP1 PUSH1 0x1F LT PUSH2 0xAB2 JUMPI PUSH2 0x100 DUP1 DUP4 SLOAD DIV MUL DUP4 MSTORE SWAP2 PUSH1 0x20 ADD SWAP2 PUSH2 0xADB JUMP JUMPDEST DUP3 ADD SWAP2 SWAP1 PUSH0 MSTORE PUSH1 0x20 PUSH0 KECCAK256 SWAP1 JUMPDEST DUP2 SLOAD DUP2 MSTORE SWAP1 PUSH1 0x1 ADD SWAP1 PUSH1 0x20 ADD DUP1 DUP4 GT PUSH2 0xABE JUMPI DUP3 SWAP1 SUB PUSH1 0x1F AND DUP3 ADD SWAP2 JUMPDEST POP POP POP POP POP DUP2 MSTORE PUSH1 0x20 ADD PUSH1 0x2 DUP3 ADD DUP1 SLOAD PUSH2 0xAF4 SWAP1 PUSH2 0x3775 JUMP JUMPDEST DUP1 PUSH1 0x1F ADD PUSH1 0x20 DUP1 SWAP2 DIV MUL PUSH1 0x20 ADD PUSH1 0x40 MLOAD SWAP1 DUP2 ADD PUSH1 0x40 MSTORE DUP1 SWAP3 SWAP2 SWAP1 DUP2 DUP2 MSTORE PUSH1 0x20 ADD DUP3 DUP1 SLOAD PUSH2 0xB20 SWAP1 PUSH2 0x3775 JUMP JUMPDEST DUP1 ISZERO PUSH2 0xB6B JUMPI DUP1 PUSH1 0x1F LT PUSH2 0xB42 JUMPI PUSH2 0x100 DUP1 DUP4 SLOAD DIV MUL DUP4 MSTORE SWAP2 PUSH1 0x20 ADD SWAP2 PUSH2 0xB6B JUMP JUMPDEST DUP3 ADD SWAP2 SWAP1 PUSH0 MSTORE PUSH1 0x20 PUSH0 KECCAK256 SWAP1 JUMPDEST DUP2 SLOAD DUP2 MSTORE SWAP1 PUSH1 0x1 ADD SWAP1 PUSH1 0x20 ADD DUP1 DUP4 GT PUSH2 0xB4E JUMPI DUP3 SWAP1 SUB PUSH1 0x1F AND DUP3 ADD SWAP2 JUMPDEST POP POP POP POP POP DUP2 MSTORE PUSH1 0x20 ADD PUSH1 0x3 DUP3 ADD PUSH0 SWAP1 SLOAD SWAP1 PUSH2 0x100 EXP SWAP1 DIV PUSH1 0xFF AND ISZERO ISZERO ISZERO ISZERO DUP2 MSTORE PUSH1 0x20 ADD PUSH1 0x4 DUP3 ADD SLOAD DUP2 MSTORE POP POP DUP5 DUP3 DUP2 MLOAD DUP2 LT PUSH2 0xBAB JUMPI PUSH2 0xBAA PUSH2 0x371B JUMP JUMPDEST JUMPDEST PUSH1 0x20 MUL PUSH1 0x20 ADD ADD DUP2 SWAP1 MSTORE POP DUP1 DUP1 PUSH1 0x1 ADD SWAP2 POP POP PUSH2 0x96A JUMP JUMPDEST POP POP POP SWAP3 SWAP2 POP POP JUMP JUMPDEST PUSH1 0x60 PUSH0 DUP3 DUP5 PUSH2 0xBDB SWAP2 SWAP1 PUSH2 0x37D2 JUMP JUMPDEST SWAP1 POP PUSH1 0x2 DUP1 SLOAD SWAP1 POP DUP2 GT ISZERO PUSH2 0xBF3 JUMPI PUSH1 0x2 DUP1 SLOAD SWAP1 POP SWAP1 POP JUMPDEST PUSH0 DUP5 DUP3 PUSH2 0xC00 SWAP2 SWAP1 PUSH2 0x3805 JUMP JUMPDEST SWAP1 POP DUP1 PUSH8 0xFFFFFFFFFFFFFFFF DUP2 GT ISZERO PUSH2 0xC1C JUMPI PUSH2 0xC1B PUSH2 0x3339 JUMP JUMPDEST JUMPDEST PUSH1 0x40 MLOAD SWAP1 DUP1 DUP3 MSTORE DUP1 PUSH1 0x20 MUL PUSH1 0x20 ADD DUP3 ADD PUSH1 0x40 MSTORE DUP1 ISZERO PUSH2 0xC55 JUMPI DUP2 PUSH1 0x20 ADD JUMPDEST PUSH2 0xC42 PUSH2 0x2CB8 JUMP JUMPDEST DUP2 MSTORE PUSH1 0x20 ADD SWAP1 PUSH1 0x1 SWAP1 SUB SWAP1 DUP2 PUSH2 0xC3A JUMPI SWAP1 POP JUMPDEST POP SWAP3 POP PUSH0 PUSH0 SWAP1 POP JUMPDEST DUP2 DUP2 LT ISZERO PUSH2 0xEB6 JUMPI PUSH1 0x1 PUSH0 PUSH1 0x2 DUP4 DUP10 PUSH2 0xC76 SWAP2 SWAP1 PUSH2 0x37D2 JUMP JUMPDEST DUP2 SLOAD DUP2 LT PUSH2 0xC87 JUMPI PUSH2 0xC86 PUSH2 0x371B JUMP JUMPDEST JUMPDEST SWAP1 PUSH0 MSTORE PUSH1 0x20 PUSH0 KECCAK256 ADD PUSH0 SWAP1 SLOAD SWAP1 PUSH2 0x100 EXP SWAP1 DIV PUSH20 0xFFFFFFFFFFFFFFFFFFFFFFFFFFFFFFFFFFFFFFFF AND PUSH20 0xFFFFFFFFFFFFFFFFFFFFFFFFFFFFFFFFFFFFFFFF AND PUSH20 0xFFFFFFFFFFFFFFFFFFFFFFFFFFFFFFFFFFFFFFFF AND DUP2 MSTORE PUSH1 0x20 ADD SWAP1 DUP2 MSTORE PUSH1 0x20 ADD PUSH0 KECCAK256 PUSH1 0x40 MLOAD DUP1 PUSH1 0xA0 ADD PUSH1 0x40 MSTORE SWAP1 DUP2 PUSH0 DUP3 ADD PUSH0 SWAP1 SLOAD SWAP1 PUSH2 0x100 EXP SWAP1 DIV PUSH20 0xFFFFFFFFFFFFFFFFFFFFFFFFFFFFFFFFFFFFFFFF AND PUSH20 0xFFFFFFFFFFFFFFFFFFFFFFFFFFFFFFFFFFFFFFFF AND PUSH20 0xFFFFFFFFFFFFFFFFFFFFFFFFFFFFFFFFFFFFFFFF AND DUP2 MSTORE PUSH1 0x20 ADD PUSH1 0x1 DUP3 ADD DUP1 SLOAD PUSH2 0xD57 SWAP1 PUSH2 0x3775 JUMP JUMPDEST DUP1 PUSH1 0x1F ADD PUSH1 0x20 DUP1 SWAP2 DIV MUL PUSH1 0x20 ADD PUSH1 0x40 MLOAD SWAP1 DUP2 ADD PUSH1 0x40 MSTORE DUP1 SWAP3 SWAP2 SWAP1 DUP2 DUP2 MSTORE PUSH1 0x20 ADD DUP3 DUP1 SLOAD PUSH2 0xD83 SWAP1 PUSH2 0x3775 JUMP JUMPDEST DUP1 ISZERO PUSH2 0xDCE JUMPI DUP1 PUSH1 0x1F LT PUSH2 0xDA5 JUMPI PUSH2 0x100 DUP1 DUP4 SLOAD DIV MUL DUP4 MSTORE SWAP2 PUSH1 0x20 ADD SWAP2 PUSH2 0xDCE JUMP JUMPDEST DUP3 ADD SWAP2 SWAP1 PUSH0 MSTORE PUSH1 0x20 PUSH0 KECCAK256 SWAP1 JUMPDEST DUP2 SLOAD DUP2 MSTORE SWAP1 PUSH1 0x1 ADD SWAP1 PUSH1 0x20 ADD DUP1 DUP4 GT PUSH2 0xDB1 JUMPI DUP3 SWAP1 SUB PUSH1 0x1F AND DUP3 ADD SWAP2 JUMPDEST POP POP POP POP POP DUP2 MSTORE PUSH1 0x20 ADD PUSH1 0x2 DUP3 ADD DUP1 SLOAD PUSH2 0xDE7 SWAP1 PUSH2 0x3775 JUMP JUMPDEST DUP1 PUSH1 0x1F ADD PUSH1 0x20 DUP1 SWAP2 DIV MUL PUSH1 0x20 ADD PUSH1 0x40 MLOAD SWAP1 DUP2 ADD PUSH1 0x40 MSTORE DUP1 SWAP3 SWAP2 SWAP1 DUP2 DUP2 MSTORE PUSH1 0x20 ADD DUP3 DUP1 SLOAD PUSH2 0xE13 SWAP1 PUSH2 0x3775 JUMP JUMPDEST DUP1 ISZERO PUSH2 0xE5E JUMPI DUP1 PUSH1 0x1F LT PUSH2 0xE35 JUMPI PUSH2 0x100 DUP1 DUP4 SLOAD DIV MUL DUP4 MSTORE SWAP2 PUSH1 0x20 ADD SWAP2 PUSH2 0xE5E JUMP JUMPDEST DUP3 ADD SWAP2 SWAP1 PUSH0 MSTORE PUSH1 0x20 PUSH0 KECCAK256 SWAP1 JUMPDEST DUP2 SLOAD DUP2 MSTORE SWAP1 PUSH1 0x1 ADD SWAP1 PUSH1 0x20 ADD DUP1 DUP4 GT PUSH2 0xE41 JUMPI DUP3 SWAP1 SUB PUSH1 0x1F AND DUP3 ADD SWAP2 JUMPDEST POP POP POP POP POP DUP2 MSTORE PUSH1 0x20 ADD PUSH1 0x3 DUP3 ADD PUSH0 SWAP1 SLOAD SWAP1 PUSH2 0x100 EXP SWAP1 DIV PUSH1 0xFF AND ISZERO ISZERO ISZERO ISZERO DUP2 MSTORE PUSH1 0x20 ADD PUSH1 0x4 DUP3 ADD SLOAD DUP2 MSTORE POP POP DUP5 DUP3 DUP2 MLOAD DUP2 LT PUSH2 0xE9E JUMPI PUSH2 0xE9D PUSH2 0x371B JUMP JUMPDEST JUMPDEST PUSH1 0x20 MUL PUSH1 0x20 ADD ADD DUP2 SWAP1 MSTORE POP DUP1 DUP1 PUSH1 0x1 ADD SWAP2 POP POP PUSH2 0xC5D JUMP JUMPDEST POP POP POP SWAP3 SWAP2 POP POP JUMP JUMPDEST PUSH0 PUSH2 0xEC8 PUSH2 0x17B6 JUMP JUMPDEST PUSH20 0xFFFFFFFFFFFFFFFFFFFFFFFFFFFFFFFFFFFFFFFF AND DUP3 PUSH20 0xFFFFFFFFFFFFFFFFFFFFFFFFFFFFFFFFFFFFFFFF AND EQ SWAP1 POP SWAP2 SWAP1 POP JUMP JUMPDEST PUSH2 0xF05 PUSH2 0x2A90 JUMP JUMPDEST DUP1 PUSH0 PUSH20 0xFFFFFFFFFFFFFFFFFFFFFFFFFFFFFFFFFFFFFFFF AND DUP2 PUSH20 0xFFFFFFFFFFFFFFFFFFFFFFFFFFFFFFFFFFFFFFFF AND SUB PUSH2 0xF74 JUMPI PUSH1 0x40 MLOAD PUSH32 0x8C379A000000000000000000000000000000000000000000000000000000000 DUP2 MSTORE PUSH1 0x4 ADD PUSH2 0xF6B SWAP1 PUSH2 0x3882 JUMP JUMPDEST PUSH1 0x40 MLOAD DUP1 SWAP2 SUB SWAP1 REVERT JUMPDEST DUP2 PUSH0 PUSH0 PUSH20 0xFFFFFFFFFFFFFFFFFFFFFFFFFFFFFFFFFFFFFFFF AND PUSH1 0x3 PUSH0 DUP5 PUSH20 0xFFFFFFFFFFFFFFFFFFFFFFFFFFFFFFFFFFFFFFFF AND PUSH20 0xFFFFFFFFFFFFFFFFFFFFFFFFFFFFFFFFFFFFFFFF AND DUP2 MSTORE PUSH1 0x20 ADD SWAP1 DUP2 MSTORE PUSH1 0x20 ADD PUSH0 KECCAK256 PUSH0 ADD PUSH0 SWAP1 SLOAD SWAP1 PUSH2 0x100 EXP SWAP1 DIV PUSH20 0xFFFFFFFFFFFFFFFFFFFFFFFFFFFFFFFFFFFFFFFF AND PUSH20 0xFFFFFFFFFFFFFFFFFFFFFFFFFFFFFFFFFFFFFFFF AND EQ ISZERO DUP1 ISZERO PUSH2 0x1014 JUMPI POP PUSH1 0x1 ISZERO ISZERO DUP2 ISZERO ISZERO EQ JUMPDEST ISZERO PUSH2 0x1054 JUMPI PUSH1 0x40 MLOAD PUSH32 0x8C379A000000000000000000000000000000000000000000000000000000000 DUP2 MSTORE PUSH1 0x4 ADD PUSH2 0x104B SWAP1 PUSH2 0x38EA JUMP JUMPDEST PUSH1 0x40 MLOAD DUP1 SWAP2 SUB SWAP1 REVERT JUMPDEST PUSH0 PUSH20 0xFFFFFFFFFFFFFFFFFFFFFFFFFFFFFFFFFFFFFFFF AND PUSH1 0x3 PUSH0 DUP5 PUSH20 0xFFFFFFFFFFFFFFFFFFFFFFFFFFFFFFFFFFFFFFFF AND PUSH20 0xFFFFFFFFFFFFFFFFFFFFFFFFFFFFFFFFFFFFFFFF AND DUP2 MSTORE PUSH1 0x20 ADD SWAP1 DUP2 MSTORE PUSH1 0x20 ADD PUSH0 KECCAK256 PUSH0 ADD PUSH0 SWAP1 SLOAD SWAP1 PUSH2 0x100 EXP SWAP1 DIV PUSH20 0xFFFFFFFFFFFFFFFFFFFFFFFFFFFFFFFFFFFFFFFF AND PUSH20 0xFFFFFFFFFFFFFFFFFFFFFFFFFFFFFFFFFFFFFFFF AND EQ DUP1 ISZERO PUSH2 0x10F0 JUMPI POP PUSH0 ISZERO ISZERO DUP2 ISZERO ISZERO EQ JUMPDEST ISZERO PUSH2 0x1130 JUMPI PUSH1 0x40 MLOAD PUSH32 0x8C379A000000000000000000000000000000000000000000000000000000000 DUP2 MSTORE PUSH1 0x4 ADD PUSH2 0x1127 SWAP1 PUSH2 0x3952 JUMP JUMPDEST PUSH1 0x40 MLOAD DUP1 SWAP2 SUB SWAP1 REVERT JUMPDEST PUSH1 0x3 PUSH0 DUP6 PUSH20 0xFFFFFFFFFFFFFFFFFFFFFFFFFFFFFFFFFFFFFFFF AND PUSH20 0xFFFFFFFFFFFFFFFFFFFFFFFFFFFFFFFFFFFFFFFF AND DUP2 MSTORE PUSH1 0x20 ADD SWAP1 DUP2 MSTORE PUSH1 0x20 ADD PUSH0 KECCAK256 PUSH0 PUSH0 DUP3 ADD PUSH0 PUSH2 0x100 EXP DUP2 SLOAD SWAP1 PUSH20 0xFFFFFFFFFFFFFFFFFFFFFFFFFFFFFFFFFFFFFFFF MUL NOT AND SWAP1 SSTORE PUSH1 0x1 DUP3 ADD PUSH0 PUSH2 0x11A2 SWAP2 SWAP1 PUSH2 0x2CFC JUMP JUMPDEST PUSH1 0x2 DUP3 ADD PUSH0 PUSH2 0x11B1 SWAP2 SWAP1 PUSH2 0x2CFC JUMP JUMPDEST PUSH1 0x3 DUP3 ADD PUSH0 PUSH2 0x100 EXP DUP2 SLOAD SWAP1 PUSH1 0xFF MUL NOT AND SWAP1 SSTORE PUSH1 0x4 DUP3 ADD PUSH0 SWAP1 SSTORE POP POP PUSH0 PUSH0 SWAP1 POP JUMPDEST PUSH1 0x4 DUP1 SLOAD SWAP1 POP DUP2 LT ISZERO PUSH2 0x1349 JUMPI DUP5 PUSH20 0xFFFFFFFFFFFFFFFFFFFFFFFFFFFFFFFFFFFFFFFF AND PUSH1 0x4 DUP3 DUP2 SLOAD DUP2 LT PUSH2 0x120A JUMPI PUSH2 0x1209 PUSH2 0x371B JUMP JUMPDEST JUMPDEST SWAP1 PUSH0 MSTORE PUSH1 0x20 PUSH0 KECCAK256 ADD PUSH0 SWAP1 SLOAD SWAP1 PUSH2 0x100 EXP SWAP1 DIV PUSH20 0xFFFFFFFFFFFFFFFFFFFFFFFFFFFFFFFFFFFFFFFF AND PUSH20 0xFFFFFFFFFFFFFFFFFFFFFFFFFFFFFFFFFFFFFFFF AND SUB PUSH2 0x133C JUMPI PUSH1 0x4 PUSH1 0x1 PUSH1 0x4 DUP1 SLOAD SWAP1 POP PUSH2 0x1261 SWAP2 SWAP1 PUSH2 0x3805 JUMP JUMPDEST DUP2 SLOAD DUP2 LT PUSH2 0x1272 JUMPI PUSH2 0x1271 PUSH2 0x371B JUMP JUMPDEST JUMPDEST SWAP1 PUSH0 MSTORE PUSH1 0x20 PUSH0 KECCAK256 ADD PUSH0 SWAP1 SLOAD SWAP1 PUSH2 0x100 EXP SWAP1 DIV PUSH20 0xFFFFFFFFFFFFFFFFFFFFFFFFFFFFFFFFFFFFFFFF AND PUSH1 0x4 DUP3 DUP2 SLOAD DUP2 LT PUSH2 0x12AE JUMPI PUSH2 0x12AD PUSH2 0x371B JUMP JUMPDEST JUMPDEST SWAP1 PUSH0 MSTORE PUSH1 0x20 PUSH0 KECCAK256 ADD PUSH0 PUSH2 0x100 EXP DUP2 SLOAD DUP2 PUSH20 0xFFFFFFFFFFFFFFFFFFFFFFFFFFFFFFFFFFFFFFFF MUL NOT AND SWAP1 DUP4 PUSH20 0xFFFFFFFFFFFFFFFFFFFFFFFFFFFFFFFFFFFFFFFF AND MUL OR SWAP1 SSTORE POP PUSH1 0x4 DUP1 SLOAD DUP1 PUSH2 0x1305 JUMPI PUSH2 0x1304 PUSH2 0x3970 JUMP JUMPDEST JUMPDEST PUSH1 0x1 SWAP1 SUB DUP2 DUP2 SWAP1 PUSH0 MSTORE PUSH1 0x20 PUSH0 KECCAK256 ADD PUSH0 PUSH2 0x100 EXP DUP2 SLOAD SWAP1 PUSH20 0xFFFFFFFFFFFFFFFFFFFFFFFFFFFFFFFFFFFFFFFF MUL NOT AND SWAP1 SSTORE SWAP1 SSTORE PUSH2 0x1349 JUMP JUMPDEST DUP1 DUP1 PUSH1 0x1 ADD SWAP2 POP POP PUSH2 0x11D2 JUMP JUMPDEST POP POP POP POP POP JUMP JUMPDEST PUSH2 0x1358 PUSH2 0x2A90 JUMP JUMPDEST DUP1 PUSH0 PUSH20 0xFFFFFFFFFFFFFFFFFFFFFFFFFFFFFFFFFFFFFFFF AND DUP2 PUSH20 0xFFFFFFFFFFFFFFFFFFFFFFFFFFFFFFFFFFFFFFFF AND SUB PUSH2 0x13C7 JUMPI PUSH1 0x40 MLOAD PUSH32 0x8C379A000000000000000000000000000000000000000000000000000000000 DUP2 MSTORE PUSH1 0x4 ADD PUSH2 0x13BE SWAP1 PUSH2 0x362D JUMP JUMPDEST PUSH1 0x40 MLOAD DUP1 SWAP2 SUB SWAP1 REVERT JUMPDEST DUP2 PUSH0 PUSH0 PUSH20 0xFFFFFFFFFFFFFFFFFFFFFFFFFFFFFFFFFFFFFFFF AND PUSH1 0x1 PUSH0 DUP5 PUSH20 0xFFFFFFFFFFFFFFFFFFFFFFFFFFFFFFFFFFFFFFFF AND PUSH20 0xFFFFFFFFFFFFFFFFFFFFFFFFFFFFFFFFFFFFFFFF AND DUP2 MSTORE PUSH1 0x20 ADD SWAP1 DUP2 MSTORE PUSH1 0x20 ADD PUSH0 KECCAK256 PUSH0 ADD PUSH0 SWAP1 SLOAD SWAP1 PUSH2 0x100 EXP SWAP1 DIV PUSH20 0xFFFFFFFFFFFFFFFFFFFFFFFFFFFFFFFFFFFFFFFF AND PUSH20 0xFFFFFFFFFFFFFFFFFFFFFFFFFFFFFFFFFFFFFFFF AND EQ ISZERO DUP1 ISZERO PUSH2 0x1467 JUMPI POP PUSH1 0x1 ISZERO ISZERO DUP2 ISZERO ISZERO EQ JUMPDEST ISZERO PUSH2 0x14A7 JUMPI PUSH1 0x40 MLOAD PUSH32 0x8C379A000000000000000000000000000000000000000000000000000000000 DUP2 MSTORE PUSH1 0x4 ADD PUSH2 0x149E SWAP1 PUSH2 0x3695 JUMP JUMPDEST PUSH1 0x40 MLOAD DUP1 SWAP2 SUB SWAP1 REVERT JUMPDEST PUSH0 PUSH20 0xFFFFFFFFFFFFFFFFFFFFFFFFFFFFFFFFFFFFFFFF AND PUSH1 0x1 PUSH0 DUP5 PUSH20 0xFFFFFFFFFFFFFFFFFFFFFFFFFFFFFFFFFFFFFFFF AND PUSH20 0xFFFFFFFFFFFFFFFFFFFFFFFFFFFFFFFFFFFFFFFF AND DUP2 MSTORE PUSH1 0x20 ADD SWAP1 DUP2 MSTORE PUSH1 0x20 ADD PUSH0 KECCAK256 PUSH0 ADD PUSH0 SWAP1 SLOAD SWAP1 PUSH2 0x100 EXP SWAP1 DIV PUSH20 0xFFFFFFFFFFFFFFFFFFFFFFFFFFFFFFFFFFFFFFFF AND PUSH20 0xFFFFFFFFFFFFFFFFFFFFFFFFFFFFFFFFFFFFFFFF AND EQ DUP1 ISZERO PUSH2 0x1543 JUMPI POP PUSH0 ISZERO ISZERO DUP2 ISZERO ISZERO EQ JUMPDEST ISZERO PUSH2 0x1583 JUMPI PUSH1 0x40 MLOAD PUSH32 0x8C379A000000000000000000000000000000000000000000000000000000000 DUP2 MSTORE PUSH1 0x4 ADD PUSH2 0x157A SWAP1 PUSH2 0x36FD JUMP JUMPDEST PUSH1 0x40 MLOAD DUP1 SWAP2 SUB SWAP1 REVERT JUMPDEST PUSH1 0x1 PUSH0 DUP6 PUSH20 0xFFFFFFFFFFFFFFFFFFFFFFFFFFFFFFFFFFFFFFFF AND PUSH20 0xFFFFFFFFFFFFFFFFFFFFFFFFFFFFFFFFFFFFFFFF AND DUP2 MSTORE PUSH1 0x20 ADD SWAP1 DUP2 MSTORE PUSH1 0x20 ADD PUSH0 KECCAK256 PUSH0 PUSH0 DUP3 ADD PUSH0 PUSH2 0x100 EXP DUP2 SLOAD SWAP1 PUSH20 0xFFFFFFFFFFFFFFFFFFFFFFFFFFFFFFFFFFFFFFFF MUL NOT AND SWAP1 SSTORE PUSH1 0x1 DUP3 ADD PUSH0 PUSH2 0x15F5 SWAP2 SWAP1 PUSH2 0x2CFC JUMP JUMPDEST PUSH1 0x2 DUP3 ADD PUSH0 PUSH2 0x1604 SWAP2 SWAP1 PUSH2 0x2CFC JUMP JUMPDEST PUSH1 0x3 DUP3 ADD PUSH0 PUSH2 0x100 EXP DUP2 SLOAD SWAP1 PUSH1 0xFF MUL NOT AND SWAP1 SSTORE PUSH1 0x4 DUP3 ADD PUSH0 SWAP1 SSTORE POP POP PUSH0 PUSH0 SWAP1 POP JUMPDEST PUSH1 0x2 DUP1 SLOAD SWAP1 POP DUP2 LT ISZERO PUSH2 0x179C JUMPI DUP5 PUSH20 0xFFFFFFFFFFFFFFFFFFFFFFFFFFFFFFFFFFFFFFFF AND PUSH1 0x2 DUP3 DUP2 SLOAD DUP2 LT PUSH2 0x165D JUMPI PUSH2 0x165C PUSH2 0x371B JUMP JUMPDEST JUMPDEST SWAP1 PUSH0 MSTORE PUSH1 0x20 PUSH0 KECCAK256 ADD PUSH0 SWAP1 SLOAD SWAP1 PUSH2 0x100 EXP SWAP1 DIV PUSH20 0xFFFFFFFFFFFFFFFFFFFFFFFFFFFFFFFFFFFFFFFF AND PUSH20 0xFFFFFFFFFFFFFFFFFFFFFFFFFFFFFFFFFFFFFFFF AND SUB PUSH2 0x178F JUMPI PUSH1 0x2 PUSH1 0x1 PUSH1 0x2 DUP1 SLOAD SWAP1 POP PUSH2 0x16B4 SWAP2 SWAP1 PUSH2 0x3805 JUMP JUMPDEST DUP2 SLOAD DUP2 LT PUSH2 0x16C5 JUMPI PUSH2 0x16C4 PUSH2 0x371B JUMP JUMPDEST JUMPDEST SWAP1 PUSH0 MSTORE PUSH1 0x20 PUSH0 KECCAK256 ADD PUSH0 SWAP1 SLOAD SWAP1 PUSH2 0x100 EXP SWAP1 DIV PUSH20 0xFFFFFFFFFFFFFFFFFFFFFFFFFFFFFFFFFFFFFFFF AND PUSH1 0x2 DUP3 DUP2 SLOAD DUP2 LT PUSH2 0x1701 JUMPI PUSH2 0x1700 PUSH2 0x371B JUMP JUMPDEST JUMPDEST SWAP1 PUSH0 MSTORE PUSH1 0x20 PUSH0 KECCAK256 ADD PUSH0 PUSH2 0x100 EXP DUP2 SLOAD DUP2 PUSH20 0xFFFFFFFFFFFFFFFFFFFFFFFFFFFFFFFFFFFFFFFF MUL NOT AND SWAP1 DUP4 PUSH20 0xFFFFFFFFFFFFFFFFFFFFFFFFFFFFFFFFFFFFFFFF AND MUL OR SWAP1 SSTORE POP PUSH1 0x2 DUP1 SLOAD DUP1 PUSH2 0x1758 JUMPI PUSH2 0x1757 PUSH2 0x3970 JUMP JUMPDEST JUMPDEST PUSH1 0x1 SWAP1 SUB DUP2 DUP2 SWAP1 PUSH0 MSTORE PUSH1 0x20 PUSH0 KECCAK256 ADD PUSH0 PUSH2 0x100 EXP DUP2 SLOAD SWAP1 PUSH20 0xFFFFFFFFFFFFFFFFFFFFFFFFFFFFFFFFFFFFFFFF MUL NOT AND SWAP1 SSTORE SWAP1 SSTORE PUSH2 0x179C JUMP JUMPDEST DUP1 DUP1 PUSH1 0x1 ADD SWAP2 POP POP PUSH2 0x1625 JUMP JUMPDEST POP POP POP POP POP JUMP JUMPDEST PUSH2 0x17AB PUSH2 0x2A90 JUMP JUMPDEST PUSH2 0x17B4 PUSH0 PUSH2 0x2B17 JUMP JUMPDEST JUMP JUMPDEST PUSH0 PUSH32 0x0 SWAP1 POP SWAP1 JUMP JUMPDEST PUSH0 PUSH0 PUSH0 SWAP1 SLOAD SWAP1 PUSH2 0x100 EXP SWAP1 DIV PUSH20 0xFFFFFFFFFFFFFFFFFFFFFFFFFFFFFFFFFFFFFFFF AND SWAP1 POP SWAP1 JUMP JUMPDEST PUSH2 0x180C PUSH2 0x2C74 JUMP JUMPDEST PUSH1 0x3 PUSH0 DUP4 PUSH20 0xFFFFFFFFFFFFFFFFFFFFFFFFFFFFFFFFFFFFFFFF AND PUSH20 0xFFFFFFFFFFFFFFFFFFFFFFFFFFFFFFFFFFFFFFFF AND DUP2 MSTORE PUSH1 0x20 ADD SWAP1 DUP2 MSTORE PUSH1 0x20 ADD PUSH0 KECCAK256 PUSH1 0x40 MLOAD DUP1 PUSH1 0xA0 ADD PUSH1 0x40 MSTORE SWAP1 DUP2 PUSH0 DUP3 ADD PUSH0 SWAP1 SLOAD SWAP1 PUSH2 0x100 EXP SWAP1 DIV PUSH20 0xFFFFFFFFFFFFFFFFFFFFFFFFFFFFFFFFFFFFFFFF AND PUSH20 0xFFFFFFFFFFFFFFFFFFFFFFFFFFFFFFFFFFFFFFFF AND PUSH20 0xFFFFFFFFFFFFFFFFFFFFFFFFFFFFFFFFFFFFFFFF AND DUP2 MSTORE PUSH1 0x20 ADD PUSH1 0x1 DUP3 ADD DUP1 SLOAD PUSH2 0x18B8 SWAP1 PUSH2 0x3775 JUMP JUMPDEST DUP1 PUSH1 0x1F ADD PUSH1 0x20 DUP1 SWAP2 DIV MUL PUSH1 0x20 ADD PUSH1 0x40 MLOAD SWAP1 DUP2 ADD PUSH1 0x40 MSTORE DUP1 SWAP3 SWAP2 SWAP1 DUP2 DUP2 MSTORE PUSH1 0x20 ADD DUP3 DUP1 SLOAD PUSH2 0x18E4 SWAP1 PUSH2 0x3775 JUMP JUMPDEST DUP1 ISZERO PUSH2 0x192F JUMPI DUP1 PUSH1 0x1F LT PUSH2 0x1906 JUMPI PUSH2 0x100 DUP1 DUP4 SLOAD DIV MUL DUP4 MSTORE SWAP2 PUSH1 0x20 ADD SWAP2 PUSH2 0x192F JUMP JUMPDEST DUP3 ADD SWAP2 SWAP1 PUSH0 MSTORE PUSH1 0x20 PUSH0 KECCAK256 SWAP1 JUMPDEST DUP2 SLOAD DUP2 MSTORE SWAP1 PUSH1 0x1 ADD SWAP1 PUSH1 0x20 ADD DUP1 DUP4 GT PUSH2 0x1912 JUMPI DUP3 SWAP1 SUB PUSH1 0x1F AND DUP3 ADD SWAP2 JUMPDEST POP POP POP POP POP DUP2 MSTORE PUSH1 0x20 ADD PUSH1 0x2 DUP3 ADD DUP1 SLOAD PUSH2 0x1948 SWAP1 PUSH2 0x3775 JUMP JUMPDEST DUP1 PUSH1 0x1F ADD PUSH1 0x20 DUP1 SWAP2 DIV MUL PUSH1 0x20 ADD PUSH1 0x40 MLOAD SWAP1 DUP2 ADD PUSH1 0x40 MSTORE DUP1 SWAP3 SWAP2 SWAP1 DUP2 DUP2 MSTORE PUSH1 0x20 ADD DUP3 DUP1 SLOAD PUSH2 0x1974 SWAP1 PUSH2 0x3775 JUMP JUMPDEST DUP1 ISZERO PUSH2 0x19BF JUMPI DUP1 PUSH1 0x1F LT PUSH2 0x1996 JUMPI PUSH2 0x100 DUP1 DUP4 SLOAD DIV MUL DUP4 MSTORE SWAP2 PUSH1 0x20 ADD SWAP2 PUSH2 0x19BF JUMP JUMPDEST DUP3 ADD SWAP2 SWAP1 PUSH0 MSTORE PUSH1 0x20 PUSH0 KECCAK256 SWAP1 JUMPDEST DUP2 SLOAD DUP2 MSTORE SWAP1 PUSH1 0x1 ADD SWAP1 PUSH1 0x20 ADD DUP1 DUP4 GT PUSH2 0x19A2 JUMPI DUP3 SWAP1 SUB PUSH1 0x1F AND DUP3 ADD SWAP2 JUMPDEST POP POP POP POP POP DUP2 MSTORE PUSH1 0x20 ADD PUSH1 0x3 DUP3 ADD PUSH0 SWAP1 SLOAD SWAP1 PUSH2 0x100 EXP SWAP1 DIV PUSH1 0xFF AND ISZERO ISZERO ISZERO ISZERO DUP2 MSTORE PUSH1 0x20 ADD PUSH1 0x4 DUP3 ADD SLOAD DUP2 MSTORE POP POP SWAP1 POP SWAP2 SWAP1 POP JUMP JUMPDEST PUSH2 0x19FB PUSH2 0x2CB8 JUMP JUMPDEST PUSH1 0x1 PUSH0 DUP4 PUSH20 0xFFFFFFFFFFFFFFFFFFFFFFFFFFFFFFFFFFFFFFFF AND PUSH20 0xFFFFFFFFFFFFFFFFFFFFFFFFFFFFFFFFFFFFFFFF AND DUP2 MSTORE PUSH1 0x20 ADD SWAP1 DUP2 MSTORE PUSH1 0x20 ADD PUSH0 KECCAK256 PUSH1 0x40 MLOAD DUP1 PUSH1 0xA0 ADD PUSH1 0x40 MSTORE SWAP1 DUP2 PUSH0 DUP3 ADD PUSH0 SWAP1 SLOAD SWAP1 PUSH2 0x100 EXP SWAP1 DIV PUSH20 0xFFFFFFFFFFFFFFFFFFFFFFFFFFFFFFFFFFFFFFFF AND PUSH20 0xFFFFFFFFFFFFFFFFFFFFFFFFFFFFFFFFFFFFFFFF AND PUSH20 0xFFFFFFFFFFFFFFFFFFFFFFFFFFFFFFFFFFFFFFFF AND DUP2 MSTORE PUSH1 0x20 ADD PUSH1 0x1 DUP3 ADD DUP1 SLOAD PUSH2 0x1AA7 SWAP1 PUSH2 0x3775 JUMP JUMPDEST DUP1 PUSH1 0x1F ADD PUSH1 0x20 DUP1 SWAP2 DIV MUL PUSH1 0x20 ADD PUSH1 0x40 MLOAD SWAP1 DUP2 ADD PUSH1 0x40 MSTORE DUP1 SWAP3 SWAP2 SWAP1 DUP2 DUP2 MSTORE PUSH1 0x20 ADD DUP3 DUP1 SLOAD PUSH2 0x1AD3 SWAP1 PUSH2 0x3775 JUMP JUMPDEST DUP1 ISZERO PUSH2 0x1B1E JUMPI DUP1 PUSH1 0x1F LT PUSH2 0x1AF5 JUMPI PUSH2 0x100 DUP1 DUP4 SLOAD DIV MUL DUP4 MSTORE SWAP2 PUSH1 0x20 ADD SWAP2 PUSH2 0x1B1E JUMP JUMPDEST DUP3 ADD SWAP2 SWAP1 PUSH0 MSTORE PUSH1 0x20 PUSH0 KECCAK256 SWAP1 JUMPDEST DUP2 SLOAD DUP2 MSTORE SWAP1 PUSH1 0x1 ADD SWAP1 PUSH1 0x20 ADD DUP1 DUP4 GT PUSH2 0x1B01 JUMPI DUP3 SWAP1 SUB PUSH1 0x1F AND DUP3 ADD SWAP2 JUMPDEST POP POP POP POP POP DUP2 MSTORE PUSH1 0x20 ADD PUSH1 0x2 DUP3 ADD DUP1 SLOAD PUSH2 0x1B37 SWAP1 PUSH2 0x3775 JUMP JUMPDEST DUP1 PUSH1 0x1F ADD PUSH1 0x20 DUP1 SWAP2 DIV MUL PUSH1 0x20 ADD PUSH1 0x40 MLOAD SWAP1 DUP2 ADD PUSH1 0x40 MSTORE DUP1 SWAP3 SWAP2 SWAP1 DUP2 DUP2 MSTORE PUSH1 0x20 ADD DUP3 DUP1 SLOAD PUSH2 0x1B63 SWAP1 PUSH2 0x3775 JUMP JUMPDEST DUP1 ISZERO PUSH2 0x1BAE JUMPI DUP1 PUSH1 0x1F LT PUSH2 0x1B85 JUMPI PUSH2 0x100 DUP1 DUP4 SLOAD DIV MUL DUP4 MSTORE SWAP2 PUSH1 0x20 ADD SWAP2 PUSH2 0x1BAE JUMP JUMPDEST DUP3 ADD SWAP2 SWAP1 PUSH0 MSTORE PUSH1 0x20 PUSH0 KECCAK256 SWAP1 JUMPDEST DUP2 SLOAD DUP2 MSTORE SWAP1 PUSH1 0x1 ADD SWAP1 PUSH1 0x20 ADD DUP1 DUP4 GT PUSH2 0x1B91 JUMPI DUP3 SWAP1 SUB PUSH1 0x1F AND DUP3 ADD SWAP2 JUMPDEST POP POP POP POP POP DUP2 MSTORE PUSH1 0x20 ADD PUSH1 0x3 DUP3 ADD PUSH0 SWAP1 SLOAD SWAP1 PUSH2 0x100 EXP SWAP1 DIV PUSH1 0xFF AND ISZERO ISZERO ISZERO ISZERO DUP2 MSTORE PUSH1 0x20 ADD PUSH1 0x4 DUP3 ADD SLOAD DUP2 MSTORE POP POP SWAP1 POP SWAP2 SWAP1 POP JUMP JUMPDEST PUSH1 0x60 PUSH1 0x2 DUP1 SLOAD SWAP1 POP PUSH8 0xFFFFFFFFFFFFFFFF DUP2 GT ISZERO PUSH2 0x1C03 JUMPI PUSH2 0x1C02 PUSH2 0x3339 JUMP JUMPDEST JUMPDEST PUSH1 0x40 MLOAD SWAP1 DUP1 DUP3 MSTORE DUP1 PUSH1 0x20 MUL PUSH1 0x20 ADD DUP3 ADD PUSH1 0x40 MSTORE DUP1 ISZERO PUSH2 0x1C3C JUMPI DUP2 PUSH1 0x20 ADD JUMPDEST PUSH2 0x1C29 PUSH2 0x2CB8 JUMP JUMPDEST DUP2 MSTORE PUSH1 0x20 ADD SWAP1 PUSH1 0x1 SWAP1 SUB SWAP1 DUP2 PUSH2 0x1C21 JUMPI SWAP1 POP JUMPDEST POP SWAP1 POP PUSH0 PUSH0 SWAP1 POP JUMPDEST PUSH1 0x2 DUP1 SLOAD SWAP1 POP DUP2 LT ISZERO PUSH2 0x1E97 JUMPI PUSH1 0x1 PUSH0 PUSH1 0x2 DUP4 DUP2 SLOAD DUP2 LT PUSH2 0x1C68 JUMPI PUSH2 0x1C67 PUSH2 0x371B JUMP JUMPDEST JUMPDEST SWAP1 PUSH0 MSTORE PUSH1 0x20 PUSH0 KECCAK256 ADD PUSH0 SWAP1 SLOAD SWAP1 PUSH2 0x100 EXP SWAP1 DIV PUSH20 0xFFFFFFFFFFFFFFFFFFFFFFFFFFFFFFFFFFFFFFFF AND PUSH20 0xFFFFFFFFFFFFFFFFFFFFFFFFFFFFFFFFFFFFFFFF AND PUSH20 0xFFFFFFFFFFFFFFFFFFFFFFFFFFFFFFFFFFFFFFFF AND DUP2 MSTORE PUSH1 0x20 ADD SWAP1 DUP2 MSTORE PUSH1 0x20 ADD PUSH0 KECCAK256 PUSH1 0x40 MLOAD DUP1 PUSH1 0xA0 ADD PUSH1 0x40 MSTORE SWAP1 DUP2 PUSH0 DUP3 ADD PUSH0 SWAP1 SLOAD SWAP1 PUSH2 0x100 EXP SWAP1 DIV PUSH20 0xFFFFFFFFFFFFFFFFFFFFFFFFFFFFFFFFFFFFFFFF AND PUSH20 0xFFFFFFFFFFFFFFFFFFFFFFFFFFFFFFFFFFFFFFFF AND PUSH20 0xFFFFFFFFFFFFFFFFFFFFFFFFFFFFFFFFFFFFFFFF AND DUP2 MSTORE PUSH1 0x20 ADD PUSH1 0x1 DUP3 ADD DUP1 SLOAD PUSH2 0x1D38 SWAP1 PUSH2 0x3775 JUMP JUMPDEST DUP1 PUSH1 0x1F ADD PUSH1 0x20 DUP1 SWAP2 DIV MUL PUSH1 0x20 ADD PUSH1 0x40 MLOAD SWAP1 DUP2 ADD PUSH1 0x40 MSTORE DUP1 SWAP3 SWAP2 SWAP1 DUP2 DUP2 MSTORE PUSH1 0x20 ADD DUP3 DUP1 SLOAD PUSH2 0x1D64 SWAP1 PUSH2 0x3775 JUMP JUMPDEST DUP1 ISZERO PUSH2 0x1DAF JUMPI DUP1 PUSH1 0x1F LT PUSH2 0x1D86 JUMPI PUSH2 0x100 DUP1 DUP4 SLOAD DIV MUL DUP4 MSTORE SWAP2 PUSH1 0x20 ADD SWAP2 PUSH2 0x1DAF JUMP JUMPDEST DUP3 ADD SWAP2 SWAP1 PUSH0 MSTORE PUSH1 0x20 PUSH0 KECCAK256 SWAP1 JUMPDEST DUP2 SLOAD DUP2 MSTORE SWAP1 PUSH1 0x1 ADD SWAP1 PUSH1 0x20 ADD DUP1 DUP4 GT PUSH2 0x1D92 JUMPI DUP3 SWAP1 SUB PUSH1 0x1F AND DUP3 ADD SWAP2 JUMPDEST POP POP POP POP POP DUP2 MSTORE PUSH1 0x20 ADD PUSH1 0x2 DUP3 ADD DUP1 SLOAD PUSH2 0x1DC8 SWAP1 PUSH2 0x3775 JUMP JUMPDEST DUP1 PUSH1 0x1F ADD PUSH1 0x20 DUP1 SWAP2 DIV MUL PUSH1 0x20 ADD PUSH1 0x40 MLOAD SWAP1 DUP2 ADD PUSH1 0x40 MSTORE DUP1 SWAP3 SWAP2 SWAP1 DUP2 DUP2 MSTORE PUSH1 0x20 ADD DUP3 DUP1 SLOAD PUSH2 0x1DF4 SWAP1 PUSH2 0x3775 JUMP JUMPDEST DUP1 ISZERO PUSH2 0x1E3F JUMPI DUP1 PUSH1 0x1F LT PUSH2 0x1E16 JUMPI PUSH2 0x100 DUP1 DUP4 SLOAD DIV MUL DUP4 MSTORE SWAP2 PUSH1 0x20 ADD SWAP2 PUSH2 0x1E3F JUMP JUMPDEST DUP3 ADD SWAP2 SWAP1 PUSH0 MSTORE PUSH1 0x20 PUSH0 KECCAK256 SWAP1 JUMPDEST DUP2 SLOAD DUP2 MSTORE SWAP1 PUSH1 0x1 ADD SWAP1 PUSH1 0x20 ADD DUP1 DUP4 GT PUSH2 0x1E22 JUMPI DUP3 SWAP1 SUB PUSH1 0x1F AND DUP3 ADD SWAP2 JUMPDEST POP POP POP POP POP DUP2 MSTORE PUSH1 0x20 ADD PUSH1 0x3 DUP3 ADD PUSH0 SWAP1 SLOAD SWAP1 PUSH2 0x100 EXP SWAP1 DIV PUSH1 0xFF AND ISZERO ISZERO ISZERO ISZERO DUP2 MSTORE PUSH1 0x20 ADD PUSH1 0x4 DUP3 ADD SLOAD DUP2 MSTORE POP POP DUP3 DUP3 DUP2 MLOAD DUP2 LT PUSH2 0x1E7F JUMPI PUSH2 0x1E7E PUSH2 0x371B JUMP JUMPDEST JUMPDEST PUSH1 0x20 MUL PUSH1 0x20 ADD ADD DUP2 SWAP1 MSTORE POP DUP1 DUP1 PUSH1 0x1 ADD SWAP2 POP POP PUSH2 0x1C44 JUMP JUMPDEST POP SWAP1 JUMP JUMPDEST PUSH2 0x1EA3 PUSH2 0x2A90 JUMP JUMPDEST DUP3 PUSH0 PUSH20 0xFFFFFFFFFFFFFFFFFFFFFFFFFFFFFFFFFFFFFFFF AND DUP2 PUSH20 0xFFFFFFFFFFFFFFFFFFFFFFFFFFFFFFFFFFFFFFFF AND SUB PUSH2 0x1F12 JUMPI PUSH1 0x40 MLOAD PUSH32 0x8C379A000000000000000000000000000000000000000000000000000000000 DUP2 MSTORE PUSH1 0x4 ADD PUSH2 0x1F09 SWAP1 PUSH2 0x3882 JUMP JUMPDEST PUSH1 0x40 MLOAD DUP1 SWAP2 SUB SWAP1 REVERT JUMPDEST DUP4 PUSH1 0x1 PUSH0 PUSH20 0xFFFFFFFFFFFFFFFFFFFFFFFFFFFFFFFFFFFFFFFF AND PUSH1 0x3 PUSH0 DUP5 PUSH20 0xFFFFFFFFFFFFFFFFFFFFFFFFFFFFFFFFFFFFFFFF AND PUSH20 0xFFFFFFFFFFFFFFFFFFFFFFFFFFFFFFFFFFFFFFFF AND DUP2 MSTORE PUSH1 0x20 ADD SWAP1 DUP2 MSTORE PUSH1 0x20 ADD PUSH0 KECCAK256 PUSH0 ADD PUSH0 SWAP1 SLOAD SWAP1 PUSH2 0x100 EXP SWAP1 DIV PUSH20 0xFFFFFFFFFFFFFFFFFFFFFFFFFFFFFFFFFFFFFFFF AND PUSH20 0xFFFFFFFFFFFFFFFFFFFFFFFFFFFFFFFFFFFFFFFF AND EQ ISZERO DUP1 ISZERO PUSH2 0x1FB3 JUMPI POP PUSH1 0x1 ISZERO ISZERO DUP2 ISZERO ISZERO EQ JUMPDEST ISZERO PUSH2 0x1FF3 JUMPI PUSH1 0x40 MLOAD PUSH32 0x8C379A000000000000000000000000000000000000000000000000000000000 DUP2 MSTORE PUSH1 0x4 ADD PUSH2 0x1FEA SWAP1 PUSH2 0x38EA JUMP JUMPDEST PUSH1 0x40 MLOAD DUP1 SWAP2 SUB SWAP1 REVERT JUMPDEST PUSH0 PUSH20 0xFFFFFFFFFFFFFFFFFFFFFFFFFFFFFFFFFFFFFFFF AND PUSH1 0x3 PUSH0 DUP5 PUSH20 0xFFFFFFFFFFFFFFFFFFFFFFFFFFFFFFFFFFFFFFFF AND PUSH20 0xFFFFFFFFFFFFFFFFFFFFFFFFFFFFFFFFFFFFFFFF AND DUP2 MSTORE PUSH1 0x20 ADD SWAP1 DUP2 MSTORE PUSH1 0x20 ADD PUSH0 KECCAK256 PUSH0 ADD PUSH0 SWAP1 SLOAD SWAP1 PUSH2 0x100 EXP SWAP1 DIV PUSH20 0xFFFFFFFFFFFFFFFFFFFFFFFFFFFFFFFFFFFFFFFF AND PUSH20 0xFFFFFFFFFFFFFFFFFFFFFFFFFFFFFFFFFFFFFFFF AND EQ DUP1 ISZERO PUSH2 0x208F JUMPI POP PUSH0 ISZERO ISZERO DUP2 ISZERO ISZERO EQ JUMPDEST ISZERO PUSH2 0x20CF JUMPI PUSH1 0x40 MLOAD PUSH32 0x8C379A000000000000000000000000000000000000000000000000000000000 DUP2 MSTORE PUSH1 0x4 ADD PUSH2 0x20C6 SWAP1 PUSH2 0x3952 JUMP JUMPDEST PUSH1 0x40 MLOAD DUP1 SWAP2 SUB SWAP1 REVERT JUMPDEST PUSH0 DUP6 MLOAD GT DUP1 ISZERO PUSH2 0x20DF JUMPI POP PUSH0 DUP5 MLOAD GT JUMPDEST PUSH2 0x211E JUMPI PUSH1 0x40 MLOAD PUSH32 0x8C379A000000000000000000000000000000000000000000000000000000000 DUP2 MSTORE PUSH1 0x4 ADD PUSH2 0x2115 SWAP1 PUSH2 0x3A0D JUMP JUMPDEST PUSH1 0x40 MLOAD DUP1 SWAP2 SUB SWAP1 REVERT JUMPDEST PUSH1 0x40 MLOAD DUP1 PUSH1 0xA0 ADD PUSH1 0x40 MSTORE DUP1 DUP8 PUSH20 0xFFFFFFFFFFFFFFFFFFFFFFFFFFFFFFFFFFFFFFFF AND DUP2 MSTORE PUSH1 0x20 ADD DUP7 DUP2 MSTORE PUSH1 0x20 ADD DUP6 DUP2 MSTORE PUSH1 0x20 ADD PUSH1 0x1 ISZERO ISZERO DUP2 MSTORE PUSH1 0x20 ADD PUSH0 DUP2 MSTORE POP PUSH1 0x3 PUSH0 DUP9 PUSH20 0xFFFFFFFFFFFFFFFFFFFFFFFFFFFFFFFFFFFFFFFF AND PUSH20 0xFFFFFFFFFFFFFFFFFFFFFFFFFFFFFFFFFFFFFFFF AND DUP2 MSTORE PUSH1 0x20 ADD SWAP1 DUP2 MSTORE PUSH1 0x20 ADD PUSH0 KECCAK256 PUSH0 DUP3 ADD MLOAD DUP2 PUSH0 ADD PUSH0 PUSH2 0x100 EXP DUP2 SLOAD DUP2 PUSH20 0xFFFFFFFFFFFFFFFFFFFFFFFFFFFFFFFFFFFFFFFF MUL NOT AND SWAP1 DUP4 PUSH20 0xFFFFFFFFFFFFFFFFFFFFFFFFFFFFFFFFFFFFFFFF AND MUL OR SWAP1 SSTORE POP PUSH1 0x20 DUP3 ADD MLOAD DUP2 PUSH1 0x1 ADD SWAP1 DUP2 PUSH2 0x21F4 SWAP2 SWAP1 PUSH2 0x3BCB JUMP JUMPDEST POP PUSH1 0x40 DUP3 ADD MLOAD DUP2 PUSH1 0x2 ADD SWAP1 DUP2 PUSH2 0x220A SWAP2 SWAP1 PUSH2 0x3BCB JUMP JUMPDEST POP PUSH1 0x60 DUP3 ADD MLOAD DUP2 PUSH1 0x3 ADD PUSH0 PUSH2 0x100 EXP DUP2 SLOAD DUP2 PUSH1 0xFF MUL NOT AND SWAP1 DUP4 ISZERO ISZERO MUL OR SWAP1 SSTORE POP PUSH1 0x80 DUP3 ADD MLOAD DUP2 PUSH1 0x4 ADD SSTORE SWAP1 POP POP PUSH1 0x4 DUP7 SWAP1 DUP1 PUSH1 0x1 DUP2 SLOAD ADD DUP1 DUP3 SSTORE DUP1 SWAP2 POP POP PUSH1 0x1 SWAP1 SUB SWAP1 PUSH0 MSTORE PUSH1 0x20 PUSH0 KECCAK256 ADD PUSH0 SWAP1 SWAP2 SWAP1 SWAP2 SWAP1 SWAP2 PUSH2 0x100 EXP DUP2 SLOAD DUP2 PUSH20 0xFFFFFFFFFFFFFFFFFFFFFFFFFFFFFFFFFFFFFFFF MUL NOT AND SWAP1 DUP4 PUSH20 0xFFFFFFFFFFFFFFFFFFFFFFFFFFFFFFFFFFFFFFFF AND MUL OR SWAP1 SSTORE POP POP POP POP POP POP POP JUMP JUMPDEST PUSH2 0x22A7 PUSH2 0x2A90 JUMP JUMPDEST DUP5 PUSH0 PUSH20 0xFFFFFFFFFFFFFFFFFFFFFFFFFFFFFFFFFFFFFFFF AND DUP2 PUSH20 0xFFFFFFFFFFFFFFFFFFFFFFFFFFFFFFFFFFFFFFFF AND SUB PUSH2 0x2316 JUMPI PUSH1 0x40 MLOAD PUSH32 0x8C379A000000000000000000000000000000000000000000000000000000000 DUP2 MSTORE PUSH1 0x4 ADD PUSH2 0x230D SWAP1 PUSH2 0x362D JUMP JUMPDEST PUSH1 0x40 MLOAD DUP1 SWAP2 SUB SWAP1 REVERT JUMPDEST DUP6 PUSH1 0x1 PUSH0 PUSH20 0xFFFFFFFFFFFFFFFFFFFFFFFFFFFFFFFFFFFFFFFF AND PUSH1 0x1 PUSH0 DUP5 PUSH20 0xFFFFFFFFFFFFFFFFFFFFFFFFFFFFFFFFFFFFFFFF AND PUSH20 0xFFFFFFFFFFFFFFFFFFFFFFFFFFFFFFFFFFFFFFFF AND DUP2 MSTORE PUSH1 0x20 ADD SWAP1 DUP2 MSTORE PUSH1 0x20 ADD PUSH0 KECCAK256 PUSH0 ADD PUSH0 SWAP1 SLOAD SWAP1 PUSH2 0x100 EXP SWAP1 DIV PUSH20 0xFFFFFFFFFFFFFFFFFFFFFFFFFFFFFFFFFFFFFFFF AND PUSH20 0xFFFFFFFFFFFFFFFFFFFFFFFFFFFFFFFFFFFFFFFF AND EQ ISZERO DUP1 ISZERO PUSH2 0x23B7 JUMPI POP PUSH1 0x1 ISZERO ISZERO DUP2 ISZERO ISZERO EQ JUMPDEST ISZERO PUSH2 0x23F7 JUMPI PUSH1 0x40 MLOAD PUSH32 0x8C379A000000000000000000000000000000000000000000000000000000000 DUP2 MSTORE PUSH1 0x4 ADD PUSH2 0x23EE SWAP1 PUSH2 0x3695 JUMP JUMPDEST PUSH1 0x40 MLOAD DUP1 SWAP2 SUB SWAP1 REVERT JUMPDEST PUSH0 PUSH20 0xFFFFFFFFFFFFFFFFFFFFFFFFFFFFFFFFFFFFFFFF AND PUSH1 0x1 PUSH0 DUP5 PUSH20 0xFFFFFFFFFFFFFFFFFFFFFFFFFFFFFFFFFFFFFFFF AND PUSH20 0xFFFFFFFFFFFFFFFFFFFFFFFFFFFFFFFFFFFFFFFF AND DUP2 MSTORE PUSH1 0x20 ADD SWAP1 DUP2 MSTORE PUSH1 0x20 ADD PUSH0 KECCAK256 PUSH0 ADD PUSH0 SWAP1 SLOAD SWAP1 PUSH2 0x100 EXP SWAP1 DIV PUSH20 0xFFFFFFFFFFFFFFFFFFFFFFFFFFFFFFFFFFFFFFFF AND PUSH20 0xFFFFFFFFFFFFFFFFFFFFFFFFFFFFFFFFFFFFFFFF AND EQ DUP1 ISZERO PUSH2 0x2493 JUMPI POP PUSH0 ISZERO ISZERO DUP2 ISZERO ISZERO EQ JUMPDEST ISZERO PUSH2 0x24D3 JUMPI PUSH1 0x40 MLOAD PUSH32 0x8C379A000000000000000000000000000000000000000000000000000000000 DUP2 MSTORE PUSH1 0x4 ADD PUSH2 0x24CA SWAP1 PUSH2 0x36FD JUMP JUMPDEST PUSH1 0x40 MLOAD DUP1 SWAP2 SUB SWAP1 REVERT JUMPDEST PUSH0 DUP8 DUP8 SWAP1 POP GT DUP1 ISZERO PUSH2 0x24E7 JUMPI POP PUSH0 DUP6 DUP6 SWAP1 POP GT JUMPDEST PUSH2 0x2526 JUMPI PUSH1 0x40 MLOAD PUSH32 0x8C379A000000000000000000000000000000000000000000000000000000000 DUP2 MSTORE PUSH1 0x4 ADD PUSH2 0x251D SWAP1 PUSH2 0x3A0D JUMP JUMPDEST PUSH1 0x40 MLOAD DUP1 SWAP2 SUB SWAP1 REVERT JUMPDEST PUSH1 0x40 MLOAD DUP1 PUSH1 0xA0 ADD PUSH1 0x40 MSTORE DUP1 DUP10 PUSH20 0xFFFFFFFFFFFFFFFFFFFFFFFFFFFFFFFFFFFFFFFF AND DUP2 MSTORE PUSH1 0x20 ADD DUP9 DUP9 DUP1 DUP1 PUSH1 0x1F ADD PUSH1 0x20 DUP1 SWAP2 DIV MUL PUSH1 0x20 ADD PUSH1 0x40 MLOAD SWAP1 DUP2 ADD PUSH1 0x40 MSTORE DUP1 SWAP4 SWAP3 SWAP2 SWAP1 DUP2 DUP2 MSTORE PUSH1 0x20 ADD DUP4 DUP4 DUP1 DUP3 DUP5 CALLDATACOPY PUSH0 DUP2 DUP5 ADD MSTORE PUSH1 0x1F NOT PUSH1 0x1F DUP3 ADD AND SWAP1 POP DUP1 DUP4 ADD SWAP3 POP POP POP POP POP POP POP DUP2 MSTORE PUSH1 0x20 ADD DUP7 DUP7 DUP1 DUP1 PUSH1 0x1F ADD PUSH1 0x20 DUP1 SWAP2 DIV MUL PUSH1 0x20 ADD PUSH1 0x40 MLOAD SWAP1 DUP2 ADD PUSH1 0x40 MSTORE DUP1 SWAP4 SWAP3 SWAP2 SWAP1 DUP2 DUP2 MSTORE PUSH1 0x20 ADD DUP4 DUP4 DUP1 DUP3 DUP5 CALLDATACOPY PUSH0 DUP2 DUP5 ADD MSTORE PUSH1 0x1F NOT PUSH1 0x1F DUP3 ADD AND SWAP1 POP DUP1 DUP4 ADD SWAP3 POP POP POP POP POP POP POP DUP2 MSTORE PUSH1 0x20 ADD PUSH1 0x1 ISZERO ISZERO DUP2 MSTORE PUSH1 0x20 ADD PUSH0 DUP2 MSTORE POP PUSH1 0x1 PUSH0 DUP11 PUSH20 0xFFFFFFFFFFFFFFFFFFFFFFFFFFFFFFFFFFFFFFFF AND PUSH20 0xFFFFFFFFFFFFFFFFFFFFFFFFFFFFFFFFFFFFFFFF AND DUP2 MSTORE PUSH1 0x20 ADD SWAP1 DUP2 MSTORE PUSH1 0x20 ADD PUSH0 KECCAK256 PUSH0 DUP3 ADD MLOAD DUP2 PUSH0 ADD PUSH0 PUSH2 0x100 EXP DUP2 SLOAD DUP2 PUSH20 0xFFFFFFFFFFFFFFFFFFFFFFFFFFFFFFFFFFFFFFFF MUL NOT AND SWAP1 DUP4 PUSH20 0xFFFFFFFFFFFFFFFFFFFFFFFFFFFFFFFFFFFFFFFF AND MUL OR SWAP1 SSTORE POP PUSH1 0x20 DUP3 ADD MLOAD DUP2 PUSH1 0x1 ADD SWAP1 DUP2 PUSH2 0x2682 SWAP2 SWAP1 PUSH2 0x3BCB JUMP JUMPDEST POP PUSH1 0x40 DUP3 ADD MLOAD DUP2 PUSH1 0x2 ADD SWAP1 DUP2 PUSH2 0x2698 SWAP2 SWAP1 PUSH2 0x3BCB JUMP JUMPDEST POP PUSH1 0x60 DUP3 ADD MLOAD DUP2 PUSH1 0x3 ADD PUSH0 PUSH2 0x100 EXP DUP2 SLOAD DUP2 PUSH1 0xFF MUL NOT AND SWAP1 DUP4 ISZERO ISZERO MUL OR SWAP1 SSTORE POP PUSH1 0x80 DUP3 ADD MLOAD DUP2 PUSH1 0x4 ADD SSTORE SWAP1 POP POP PUSH1 0x2 DUP9 SWAP1 DUP1 PUSH1 0x1 DUP2 SLOAD ADD DUP1 DUP3 SSTORE DUP1 SWAP2 POP POP PUSH1 0x1 SWAP1 SUB SWAP1 PUSH0 MSTORE PUSH1 0x20 PUSH0 KECCAK256 ADD PUSH0 SWAP1 SWAP2 SWAP1 SWAP2 SWAP1 SWAP2 PUSH2 0x100 EXP DUP2 SLOAD DUP2 PUSH20 0xFFFFFFFFFFFFFFFFFFFFFFFFFFFFFFFFFFFFFFFF MUL NOT AND SWAP1 DUP4 PUSH20 0xFFFFFFFFFFFFFFFFFFFFFFFFFFFFFFFFFFFFFFFF AND MUL OR SWAP1 SSTORE POP POP POP POP POP POP POP POP POP JUMP JUMPDEST PUSH2 0x2737 PUSH2 0x2A90 JUMP JUMPDEST DUP1 PUSH0 PUSH20 0xFFFFFFFFFFFFFFFFFFFFFFFFFFFFFFFFFFFFFFFF AND DUP2 PUSH20 0xFFFFFFFFFFFFFFFFFFFFFFFFFFFFFFFFFFFFFFFF AND SUB PUSH2 0x27A6 JUMPI PUSH1 0x40 MLOAD PUSH32 0x8C379A000000000000000000000000000000000000000000000000000000000 DUP2 MSTORE PUSH1 0x4 ADD PUSH2 0x279D SWAP1 PUSH2 0x3882 JUMP JUMPDEST PUSH1 0x40 MLOAD DUP1 SWAP2 SUB SWAP1 REVERT JUMPDEST DUP2 PUSH0 PUSH0 PUSH20 0xFFFFFFFFFFFFFFFFFFFFFFFFFFFFFFFFFFFFFFFF AND PUSH1 0x3 PUSH0 DUP5 PUSH20 0xFFFFFFFFFFFFFFFFFFFFFFFFFFFFFFFFFFFFFFFF AND PUSH20 0xFFFFFFFFFFFFFFFFFFFFFFFFFFFFFFFFFFFFFFFF AND DUP2 MSTORE PUSH1 0x20 ADD SWAP1 DUP2 MSTORE PUSH1 0x20 ADD PUSH0 KECCAK256 PUSH0 ADD PUSH0 SWAP1 SLOAD SWAP1 PUSH2 0x100 EXP SWAP1 DIV PUSH20 0xFFFFFFFFFFFFFFFFFFFFFFFFFFFFFFFFFFFFFFFF AND PUSH20 0xFFFFFFFFFFFFFFFFFFFFFFFFFFFFFFFFFFFFFFFF AND EQ ISZERO DUP1 ISZERO PUSH2 0x2846 JUMPI POP PUSH1 0x1 ISZERO ISZERO DUP2 ISZERO ISZERO EQ JUMPDEST ISZERO PUSH2 0x2886 JUMPI PUSH1 0x40 MLOAD PUSH32 0x8C379A000000000000000000000000000000000000000000000000000000000 DUP2 MSTORE PUSH1 0x4 ADD PUSH2 0x287D SWAP1 PUSH2 0x38EA JUMP JUMPDEST PUSH1 0x40 MLOAD DUP1 SWAP2 SUB SWAP1 REVERT JUMPDEST PUSH0 PUSH20 0xFFFFFFFFFFFFFFFFFFFFFFFFFFFFFFFFFFFFFFFF AND PUSH1 0x3 PUSH0 DUP5 PUSH20 0xFFFFFFFFFFFFFFFFFFFFFFFFFFFFFFFFFFFFFFFF AND PUSH20 0xFFFFFFFFFFFFFFFFFFFFFFFFFFFFFFFFFFFFFFFF AND DUP2 MSTORE PUSH1 0x20 ADD SWAP1 DUP2 MSTORE PUSH1 0x20 ADD PUSH0 KECCAK256 PUSH0 ADD PUSH0 SWAP1 SLOAD SWAP1 PUSH2 0x100 EXP SWAP1 DIV PUSH20 0xFFFFFFFFFFFFFFFFFFFFFFFFFFFFFFFFFFFFFFFF AND PUSH20 0xFFFFFFFFFFFFFFFFFFFFFFFFFFFFFFFFFFFFFFFF AND EQ DUP1 ISZERO PUSH2 0x2922 JUMPI POP PUSH0 ISZERO ISZERO DUP2 ISZERO ISZERO EQ JUMPDEST ISZERO PUSH2 0x2962 JUMPI PUSH1 0x40 MLOAD PUSH32 0x8C379A000000000000000000000000000000000000000000000000000000000 DUP2 MSTORE PUSH1 0x4 ADD PUSH2 0x2959 SWAP1 PUSH2 0x3952 JUMP JUMPDEST PUSH1 0x40 MLOAD DUP1 SWAP2 SUB SWAP1 REVERT JUMPDEST PUSH1 0x3 PUSH0 DUP6 PUSH20 0xFFFFFFFFFFFFFFFFFFFFFFFFFFFFFFFFFFFFFFFF AND PUSH20 0xFFFFFFFFFFFFFFFFFFFFFFFFFFFFFFFFFFFFFFFF AND DUP2 MSTORE PUSH1 0x20 ADD SWAP1 DUP2 MSTORE PUSH1 0x20 ADD PUSH0 KECCAK256 PUSH1 0x3 ADD PUSH0 SWAP1 SLOAD SWAP1 PUSH2 0x100 EXP SWAP1 DIV PUSH1 0xFF AND ISZERO PUSH1 0x3 PUSH0 DUP7 PUSH20 0xFFFFFFFFFFFFFFFFFFFFFFFFFFFFFFFFFFFFFFFF AND PUSH20 0xFFFFFFFFFFFFFFFFFFFFFFFFFFFFFFFFFFFFFFFF AND DUP2 MSTORE PUSH1 0x20 ADD SWAP1 DUP2 MSTORE PUSH1 0x20 ADD PUSH0 KECCAK256 PUSH1 0x3 ADD PUSH0 PUSH2 0x100 EXP DUP2 SLOAD DUP2 PUSH1 0xFF MUL NOT AND SWAP1 DUP4 ISZERO ISZERO MUL OR SWAP1 SSTORE POP POP POP POP POP JUMP JUMPDEST PUSH2 0x2A14 PUSH2 0x2A90 JUMP JUMPDEST PUSH0 PUSH20 0xFFFFFFFFFFFFFFFFFFFFFFFFFFFFFFFFFFFFFFFF AND DUP2 PUSH20 0xFFFFFFFFFFFFFFFFFFFFFFFFFFFFFFFFFFFFFFFF AND SUB PUSH2 0x2A84 JUMPI PUSH0 PUSH1 0x40 MLOAD PUSH32 0x1E4FBDF700000000000000000000000000000000000000000000000000000000 DUP2 MSTORE PUSH1 0x4 ADD PUSH2 0x2A7B SWAP2 SWAP1 PUSH2 0x31E4 JUMP JUMPDEST PUSH1 0x40 MLOAD DUP1 SWAP2 SUB SWAP1 REVERT JUMPDEST PUSH2 0x2A8D DUP2 PUSH2 0x2B17 JUMP JUMPDEST POP JUMP JUMPDEST PUSH2 0x2A98 PUSH2 0x2BD8 JUMP JUMPDEST PUSH20 0xFFFFFFFFFFFFFFFFFFFFFFFFFFFFFFFFFFFFFFFF AND PUSH2 0x2AB6 PUSH2 0x17DD JUMP JUMPDEST PUSH20 0xFFFFFFFFFFFFFFFFFFFFFFFFFFFFFFFFFFFFFFFF AND EQ PUSH2 0x2B15 JUMPI PUSH2 0x2AD9 PUSH2 0x2BD8 JUMP JUMPDEST PUSH1 0x40 MLOAD PUSH32 0x118CDAA700000000000000000000000000000000000000000000000000000000 DUP2 MSTORE PUSH1 0x4 ADD PUSH2 0x2B0C SWAP2 SWAP1 PUSH2 0x31E4 JUMP JUMPDEST PUSH1 0x40 MLOAD DUP1 SWAP2 SUB SWAP1 REVERT JUMPDEST JUMP JUMPDEST PUSH0 PUSH0 PUSH0 SWAP1 SLOAD SWAP1 PUSH2 0x100 EXP SWAP1 DIV PUSH20 0xFFFFFFFFFFFFFFFFFFFFFFFFFFFFFFFFFFFFFFFF AND SWAP1 POP DUP2 PUSH0 PUSH0 PUSH2 0x100 EXP DUP2 SLOAD DUP2 PUSH20 0xFFFFFFFFFFFFFFFFFFFFFFFFFFFFFFFFFFFFFFFF MUL NOT AND SWAP1 DUP4 PUSH20 0xFFFFFFFFFFFFFFFFFFFFFFFFFFFFFFFFFFFFFFFF AND MUL OR SWAP1 SSTORE POP DUP2 PUSH20 0xFFFFFFFFFFFFFFFFFFFFFFFFFFFFFFFFFFFFFFFF AND DUP2 PUSH20 0xFFFFFFFFFFFFFFFFFFFFFFFFFFFFFFFFFFFFFFFF AND PUSH32 0x8BE0079C531659141344CD1FD0A4F28419497F9722A3DAAFE3B4186F6B6457E0 PUSH1 0x40 MLOAD PUSH1 0x40 MLOAD DUP1 SWAP2 SUB SWAP1 LOG3 POP POP JUMP JUMPDEST PUSH0 PUSH2 0x2BE1 PUSH2 0x2BE6 JUMP JUMPDEST SWAP1 POP SWAP1 JUMP JUMPDEST PUSH0 PUSH0 PUSH0 CALLDATASIZE SWAP1 POP SWAP1 POP PUSH0 PUSH2 0x2BF7 PUSH2 0x2C57 JUMP JUMPDEST SWAP1 POP PUSH2 0x2C02 CALLER PUSH2 0xEBF JUMP JUMPDEST DUP1 ISZERO PUSH2 0x2C0E JUMPI POP DUP1 DUP3 LT ISZERO JUMPDEST ISZERO PUSH2 0x2C47 JUMPI PUSH0 CALLDATASIZE DUP3 DUP5 PUSH2 0x2C21 SWAP2 SWAP1 PUSH2 0x3805 JUMP JUMPDEST SWAP1 DUP1 SWAP3 PUSH2 0x2C30 SWAP4 SWAP3 SWAP2 SWAP1 PUSH2 0x3CA2 JUMP JUMPDEST SWAP1 PUSH2 0x2C3B SWAP2 SWAP1 PUSH2 0x3D11 JUMP JUMPDEST PUSH1 0x60 SHR SWAP3 POP POP POP PUSH2 0x2C54 JUMP JUMPDEST PUSH2 0x2C4F PUSH2 0x2C65 JUMP JUMPDEST SWAP3 POP POP POP JUMPDEST SWAP1 JUMP JUMPDEST PUSH0 PUSH2 0x2C60 PUSH2 0x2C6C JUMP JUMPDEST SWAP1 POP SWAP1 JUMP JUMPDEST PUSH0 CALLER SWAP1 POP SWAP1 JUMP JUMPDEST PUSH0 PUSH1 0x14 SWAP1 POP SWAP1 JUMP JUMPDEST PUSH1 0x40 MLOAD DUP1 PUSH1 0xA0 ADD PUSH1 0x40 MSTORE DUP1 PUSH0 PUSH20 0xFFFFFFFFFFFFFFFFFFFFFFFFFFFFFFFFFFFFFFFF AND DUP2 MSTORE PUSH1 0x20 ADD PUSH1 0x60 DUP2 MSTORE PUSH1 0x20 ADD PUSH1 0x60 DUP2 MSTORE PUSH1 0x20 ADD PUSH0 ISZERO ISZERO DUP2 MSTORE PUSH1 0x20 ADD PUSH0 DUP2 MSTORE POP SWAP1 JUMP JUMPDEST PUSH1 0x40 MLOAD DUP1 PUSH1 0xA0 ADD PUSH1 0x40 MSTORE DUP1 PUSH0 PUSH20 0xFFFFFFFFFFFFFFFFFFFFFFFFFFFFFFFFFFFFFFFF AND DUP2 MSTORE PUSH1 0x20 ADD PUSH1 0x60 DUP2 MSTORE PUSH1 0x20 ADD PUSH1 0x60 DUP2 MSTORE PUSH1 0x20 ADD PUSH0 ISZERO ISZERO DUP2 MSTORE PUSH1 0x20 ADD PUSH0 DUP2 MSTORE POP SWAP1 JUMP JUMPDEST POP DUP1 SLOAD PUSH2 0x2D08 SWAP1 PUSH2 0x3775 JUMP JUMPDEST PUSH0 DUP3 SSTORE DUP1 PUSH1 0x1F LT PUSH2 0x2D19 JUMPI POP PUSH2 0x2D36 JUMP JUMPDEST PUSH1 0x1F ADD PUSH1 0x20 SWAP1 DIV SWAP1 PUSH0 MSTORE PUSH1 0x20 PUSH0 KECCAK256 SWAP1 DUP2 ADD SWAP1 PUSH2 0x2D35 SWAP2 SWAP1 PUSH2 0x2D39 JUMP JUMPDEST JUMPDEST POP JUMP JUMPDEST JUMPDEST DUP1 DUP3 GT ISZERO PUSH2 0x2D50 JUMPI PUSH0 DUP2 PUSH0 SWAP1 SSTORE POP PUSH1 0x1 ADD PUSH2 0x2D3A JUMP JUMPDEST POP SWAP1 JUMP JUMPDEST PUSH0 PUSH1 0x40 MLOAD SWAP1 POP SWAP1 JUMP JUMPDEST PUSH0 PUSH0 REVERT JUMPDEST PUSH0 PUSH0 REVERT JUMPDEST PUSH0 PUSH20 0xFFFFFFFFFFFFFFFFFFFFFFFFFFFFFFFFFFFFFFFF DUP3 AND SWAP1 POP SWAP2 SWAP1 POP JUMP JUMPDEST PUSH0 PUSH2 0x2D8E DUP3 PUSH2 0x2D65 JUMP JUMPDEST SWAP1 POP SWAP2 SWAP1 POP JUMP JUMPDEST PUSH2 0x2D9E DUP2 PUSH2 0x2D84 JUMP JUMPDEST DUP2 EQ PUSH2 0x2DA8 JUMPI PUSH0 PUSH0 REVERT JUMPDEST POP JUMP JUMPDEST PUSH0 DUP2 CALLDATALOAD SWAP1 POP PUSH2 0x2DB9 DUP2 PUSH2 0x2D95 JUMP JUMPDEST SWAP3 SWAP2 POP POP JUMP JUMPDEST PUSH0 PUSH1 0x20 DUP3 DUP5 SUB SLT ISZERO PUSH2 0x2DD4 JUMPI PUSH2 0x2DD3 PUSH2 0x2D5D JUMP JUMPDEST JUMPDEST PUSH0 PUSH2 0x2DE1 DUP5 DUP3 DUP6 ADD PUSH2 0x2DAB JUMP JUMPDEST SWAP2 POP POP SWAP3 SWAP2 POP POP JUMP JUMPDEST PUSH0 DUP2 MLOAD SWAP1 POP SWAP2 SWAP1 POP JUMP JUMPDEST PUSH0 DUP3 DUP3 MSTORE PUSH1 0x20 DUP3 ADD SWAP1 POP SWAP3 SWAP2 POP POP JUMP JUMPDEST PUSH0 DUP2 SWAP1 POP PUSH1 0x20 DUP3 ADD SWAP1 POP SWAP2 SWAP1 POP JUMP JUMPDEST PUSH2 0x2E1C DUP2 PUSH2 0x2D84 JUMP JUMPDEST DUP3 MSTORE POP POP JUMP JUMPDEST PUSH0 DUP2 MLOAD SWAP1 POP SWAP2 SWAP1 POP JUMP JUMPDEST PUSH0 DUP3 DUP3 MSTORE PUSH1 0x20 DUP3 ADD SWAP1 POP SWAP3 SWAP2 POP POP JUMP JUMPDEST DUP3 DUP2 DUP4 MCOPY PUSH0 DUP4 DUP4 ADD MSTORE POP POP POP JUMP JUMPDEST PUSH0 PUSH1 0x1F NOT PUSH1 0x1F DUP4 ADD AND SWAP1 POP SWAP2 SWAP1 POP JUMP JUMPDEST PUSH0 PUSH2 0x2E64 DUP3 PUSH2 0x2E22 JUMP JUMPDEST PUSH2 0x2E6E DUP2 DUP6 PUSH2 0x2E2C JUMP JUMPDEST SWAP4 POP PUSH2 0x2E7E DUP2 DUP6 PUSH1 0x20 DUP7 ADD PUSH2 0x2E3C JUMP JUMPDEST PUSH2 0x2E87 DUP2 PUSH2 0x2E4A JUMP JUMPDEST DUP5 ADD SWAP2 POP POP SWAP3 SWAP2 POP POP JUMP JUMPDEST PUSH0 DUP2 ISZERO ISZERO SWAP1 POP SWAP2 SWAP1 POP JUMP JUMPDEST PUSH2 0x2EA6 DUP2 PUSH2 0x2E92 JUMP JUMPDEST DUP3 MSTORE POP POP JUMP JUMPDEST PUSH0 DUP2 SWAP1 POP SWAP2 SWAP1 POP JUMP JUMPDEST PUSH2 0x2EBE DUP2 PUSH2 0x2EAC JUMP JUMPDEST DUP3 MSTORE POP POP JUMP JUMPDEST PUSH0 PUSH1 0xA0 DUP4 ADD PUSH0 DUP4 ADD MLOAD PUSH2 0x2ED9 PUSH0 DUP7 ADD DUP3 PUSH2 0x2E13 JUMP JUMPDEST POP PUSH1 0x20 DUP4 ADD MLOAD DUP5 DUP3 SUB PUSH1 0x20 DUP7 ADD MSTORE PUSH2 0x2EF1 DUP3 DUP3 PUSH2 0x2E5A JUMP JUMPDEST SWAP2 POP POP PUSH1 0x40 DUP4 ADD MLOAD DUP5 DUP3 SUB PUSH1 0x40 DUP7 ADD MSTORE PUSH2 0x2F0B DUP3 DUP3 PUSH2 0x2E5A JUMP JUMPDEST SWAP2 POP POP PUSH1 0x60 DUP4 ADD MLOAD PUSH2 0x2F20 PUSH1 0x60 DUP7 ADD DUP3 PUSH2 0x2E9D JUMP JUMPDEST POP PUSH1 0x80 DUP4 ADD MLOAD PUSH2 0x2F33 PUSH1 0x80 DUP7 ADD DUP3 PUSH2 0x2EB5 JUMP JUMPDEST POP DUP1 SWAP2 POP POP SWAP3 SWAP2 POP POP JUMP JUMPDEST PUSH0 PUSH2 0x2F49 DUP4 DUP4 PUSH2 0x2EC4 JUMP JUMPDEST SWAP1 POP SWAP3 SWAP2 POP POP JUMP JUMPDEST PUSH0 PUSH1 0x20 DUP3 ADD SWAP1 POP SWAP2 SWAP1 POP JUMP JUMPDEST PUSH0 PUSH2 0x2F67 DUP3 PUSH2 0x2DEA JUMP JUMPDEST PUSH2 0x2F71 DUP2 DUP6 PUSH2 0x2DF4 JUMP JUMPDEST SWAP4 POP DUP4 PUSH1 0x20 DUP3 MUL DUP6 ADD PUSH2 0x2F83 DUP6 PUSH2 0x2E04 JUMP JUMPDEST DUP1 PUSH0 JUMPDEST DUP6 DUP2 LT ISZERO PUSH2 0x2FBE JUMPI DUP5 DUP5 SUB DUP10 MSTORE DUP2 MLOAD PUSH2 0x2F9F DUP6 DUP3 PUSH2 0x2F3E JUMP JUMPDEST SWAP5 POP PUSH2 0x2FAA DUP4 PUSH2 0x2F51 JUMP JUMPDEST SWAP3 POP PUSH1 0x20 DUP11 ADD SWAP10 POP POP PUSH1 0x1 DUP2 ADD SWAP1 POP PUSH2 0x2F86 JUMP JUMPDEST POP DUP3 SWAP8 POP DUP8 SWAP6 POP POP POP POP POP POP SWAP3 SWAP2 POP POP JUMP JUMPDEST PUSH0 PUSH1 0x20 DUP3 ADD SWAP1 POP DUP2 DUP2 SUB PUSH0 DUP4 ADD MSTORE PUSH2 0x2FE8 DUP2 DUP5 PUSH2 0x2F5D JUMP JUMPDEST SWAP1 POP SWAP3 SWAP2 POP POP JUMP JUMPDEST PUSH2 0x2FF9 DUP2 PUSH2 0x2EAC JUMP JUMPDEST DUP2 EQ PUSH2 0x3003 JUMPI PUSH0 PUSH0 REVERT JUMPDEST POP JUMP JUMPDEST PUSH0 DUP2 CALLDATALOAD SWAP1 POP PUSH2 0x3014 DUP2 PUSH2 0x2FF0 JUMP JUMPDEST SWAP3 SWAP2 POP POP JUMP JUMPDEST PUSH0 PUSH0 PUSH1 0x40 DUP4 DUP6 SUB SLT ISZERO PUSH2 0x3030 JUMPI PUSH2 0x302F PUSH2 0x2D5D JUMP JUMPDEST JUMPDEST PUSH0 PUSH2 0x303D DUP6 DUP3 DUP7 ADD PUSH2 0x3006 JUMP JUMPDEST SWAP3 POP POP PUSH1 0x20 PUSH2 0x304E DUP6 DUP3 DUP7 ADD PUSH2 0x3006 JUMP JUMPDEST SWAP2 POP POP SWAP3 POP SWAP3 SWAP1 POP JUMP JUMPDEST PUSH0 DUP2 MLOAD SWAP1 POP SWAP2 SWAP1 POP JUMP JUMPDEST PUSH0 DUP3 DUP3 MSTORE PUSH1 0x20 DUP3 ADD SWAP1 POP SWAP3 SWAP2 POP POP JUMP JUMPDEST PUSH0 DUP2 SWAP1 POP PUSH1 0x20 DUP3 ADD SWAP1 POP SWAP2 SWAP1 POP JUMP JUMPDEST PUSH0 PUSH1 0xA0 DUP4 ADD PUSH0 DUP4 ADD MLOAD PUSH2 0x3096 PUSH0 DUP7 ADD DUP3 PUSH2 0x2E13 JUMP JUMPDEST POP PUSH1 0x20 DUP4 ADD MLOAD DUP5 DUP3 SUB PUSH1 0x20 DUP7 ADD MSTORE PUSH2 0x30AE DUP3 DUP3 PUSH2 0x2E5A JUMP JUMPDEST SWAP2 POP POP PUSH1 0x40 DUP4 ADD MLOAD DUP5 DUP3 SUB PUSH1 0x40 DUP7 ADD MSTORE PUSH2 0x30C8 DUP3 DUP3 PUSH2 0x2E5A JUMP JUMPDEST SWAP2 POP POP PUSH1 0x60 DUP4 ADD MLOAD PUSH2 0x30DD PUSH1 0x60 DUP7 ADD DUP3 PUSH2 0x2E9D JUMP JUMPDEST POP PUSH1 0x80 DUP4 ADD MLOAD PUSH2 0x30F0 PUSH1 0x80 DUP7 ADD DUP3 PUSH2 0x2EB5 JUMP JUMPDEST POP DUP1 SWAP2 POP POP SWAP3 SWAP2 POP POP JUMP JUMPDEST PUSH0 PUSH2 0x3106 DUP4 DUP4 PUSH2 0x3081 JUMP JUMPDEST SWAP1 POP SWAP3 SWAP2 POP POP JUMP JUMPDEST PUSH0 PUSH1 0x20 DUP3 ADD SWAP1 POP SWAP2 SWAP1 POP JUMP JUMPDEST PUSH0 PUSH2 0x3124 DUP3 PUSH2 0x3058 JUMP JUMPDEST PUSH2 0x312E DUP2 DUP6 PUSH2 0x3062 JUMP JUMPDEST SWAP4 POP DUP4 PUSH1 0x20 DUP3 MUL DUP6 ADD PUSH2 0x3140 DUP6 PUSH2 0x3072 JUMP JUMPDEST DUP1 PUSH0 JUMPDEST DUP6 DUP2 LT ISZERO PUSH2 0x317B JUMPI DUP5 DUP5 SUB DUP10 MSTORE DUP2 MLOAD PUSH2 0x315C DUP6 DUP3 PUSH2 0x30FB JUMP JUMPDEST SWAP5 POP PUSH2 0x3167 DUP4 PUSH2 0x310E JUMP JUMPDEST SWAP3 POP PUSH1 0x20 DUP11 ADD SWAP10 POP POP PUSH1 0x1 DUP2 ADD SWAP1 POP PUSH2 0x3143 JUMP JUMPDEST POP DUP3 SWAP8 POP DUP8 SWAP6 POP POP POP POP POP POP SWAP3 SWAP2 POP POP JUMP JUMPDEST PUSH0 PUSH1 0x20 DUP3 ADD SWAP1 POP DUP2 DUP2 SUB PUSH0 DUP4 ADD MSTORE PUSH2 0x31A5 DUP2 DUP5 PUSH2 0x311A JUMP JUMPDEST SWAP1 POP SWAP3 SWAP2 POP POP JUMP JUMPDEST PUSH2 0x31B6 DUP2 PUSH2 0x2E92 JUMP JUMPDEST DUP3 MSTORE POP POP JUMP JUMPDEST PUSH0 PUSH1 0x20 DUP3 ADD SWAP1 POP PUSH2 0x31CF PUSH0 DUP4 ADD DUP5 PUSH2 0x31AD JUMP JUMPDEST SWAP3 SWAP2 POP POP JUMP JUMPDEST PUSH2 0x31DE DUP2 PUSH2 0x2D84 JUMP JUMPDEST DUP3 MSTORE POP POP JUMP JUMPDEST PUSH0 PUSH1 0x20 DUP3 ADD SWAP1 POP PUSH2 0x31F7 PUSH0 DUP4 ADD DUP5 PUSH2 0x31D5 JUMP JUMPDEST SWAP3 SWAP2 POP POP JUMP JUMPDEST PUSH0 PUSH1 0xA0 DUP4 ADD PUSH0 DUP4 ADD MLOAD PUSH2 0x3212 PUSH0 DUP7 ADD DUP3 PUSH2 0x2E13 JUMP JUMPDEST POP PUSH1 0x20 DUP4 ADD MLOAD DUP5 DUP3 SUB PUSH1 0x20 DUP7 ADD MSTORE PUSH2 0x322A DUP3 DUP3 PUSH2 0x2E5A JUMP JUMPDEST SWAP2 POP POP PUSH1 0x40 DUP4 ADD MLOAD DUP5 DUP3 SUB PUSH1 0x40 DUP7 ADD MSTORE PUSH2 0x3244 DUP3 DUP3 PUSH2 0x2E5A JUMP JUMPDEST SWAP2 POP POP PUSH1 0x60 DUP4 ADD MLOAD PUSH2 0x3259 PUSH1 0x60 DUP7 ADD DUP3 PUSH2 0x2E9D JUMP JUMPDEST POP PUSH1 0x80 DUP4 ADD MLOAD PUSH2 0x326C PUSH1 0x80 DUP7 ADD DUP3 PUSH2 0x2EB5 JUMP JUMPDEST POP DUP1 SWAP2 POP POP SWAP3 SWAP2 POP POP JUMP JUMPDEST PUSH0 PUSH1 0x20 DUP3 ADD SWAP1 POP DUP2 DUP2 SUB PUSH0 DUP4 ADD MSTORE PUSH2 0x328F DUP2 DUP5 PUSH2 0x31FD JUMP JUMPDEST SWAP1 POP SWAP3 SWAP2 POP POP JUMP JUMPDEST PUSH0 PUSH1 0xA0 DUP4 ADD PUSH0 DUP4 ADD MLOAD PUSH2 0x32AC PUSH0 DUP7 ADD DUP3 PUSH2 0x2E13 JUMP JUMPDEST POP PUSH1 0x20 DUP4 ADD MLOAD DUP5 DUP3 SUB PUSH1 0x20 DUP7 ADD MSTORE PUSH2 0x32C4 DUP3 DUP3 PUSH2 0x2E5A JUMP JUMPDEST SWAP2 POP POP PUSH1 0x40 DUP4 ADD MLOAD DUP5 DUP3 SUB PUSH1 0x40 DUP7 ADD MSTORE PUSH2 0x32DE DUP3 DUP3 PUSH2 0x2E5A JUMP JUMPDEST SWAP2 POP POP PUSH1 0x60 DUP4 ADD MLOAD PUSH2 0x32F3 PUSH1 0x60 DUP7 ADD DUP3 PUSH2 0x2E9D JUMP JUMPDEST POP PUSH1 0x80 DUP4 ADD MLOAD PUSH2 0x3306 PUSH1 0x80 DUP7 ADD DUP3 PUSH2 0x2EB5 JUMP JUMPDEST POP DUP1 SWAP2 POP POP SWAP3 SWAP2 POP POP JUMP JUMPDEST PUSH0 PUSH1 0x20 DUP3 ADD SWAP1 POP DUP2 DUP2 SUB PUSH0 DUP4 ADD MSTORE PUSH2 0x3329 DUP2 DUP5 PUSH2 0x3297 JUMP JUMPDEST SWAP1 POP SWAP3 SWAP2 POP POP JUMP JUMPDEST PUSH0 PUSH0 REVERT JUMPDEST PUSH0 PUSH0 REVERT JUMPDEST PUSH32 0x4E487B7100000000000000000000000000000000000000000000000000000000 PUSH0 MSTORE PUSH1 0x41 PUSH1 0x4 MSTORE PUSH1 0x24 PUSH0 REVERT JUMPDEST PUSH2 0x336F DUP3 PUSH2 0x2E4A JUMP JUMPDEST DUP2 ADD DUP2 DUP2 LT PUSH8 0xFFFFFFFFFFFFFFFF DUP3 GT OR ISZERO PUSH2 0x338E JUMPI PUSH2 0x338D PUSH2 0x3339 JUMP JUMPDEST JUMPDEST DUP1 PUSH1 0x40 MSTORE POP POP POP JUMP JUMPDEST PUSH0 PUSH2 0x33A0 PUSH2 0x2D54 JUMP JUMPDEST SWAP1 POP PUSH2 0x33AC DUP3 DUP3 PUSH2 0x3366 JUMP JUMPDEST SWAP2 SWAP1 POP JUMP JUMPDEST PUSH0 PUSH8 0xFFFFFFFFFFFFFFFF DUP3 GT ISZERO PUSH2 0x33CB JUMPI PUSH2 0x33CA PUSH2 0x3339 JUMP JUMPDEST JUMPDEST PUSH2 0x33D4 DUP3 PUSH2 0x2E4A JUMP JUMPDEST SWAP1 POP PUSH1 0x20 DUP2 ADD SWAP1 POP SWAP2 SWAP1 POP JUMP JUMPDEST DUP3 DUP2 DUP4 CALLDATACOPY PUSH0 DUP4 DUP4 ADD MSTORE POP POP POP JUMP JUMPDEST PUSH0 PUSH2 0x3401 PUSH2 0x33FC DUP5 PUSH2 0x33B1 JUMP JUMPDEST PUSH2 0x3397 JUMP JUMPDEST SWAP1 POP DUP3 DUP2 MSTORE PUSH1 0x20 DUP2 ADD DUP5 DUP5 DUP5 ADD GT ISZERO PUSH2 0x341D JUMPI PUSH2 0x341C PUSH2 0x3335 JUMP JUMPDEST JUMPDEST PUSH2 0x3428 DUP5 DUP3 DUP6 PUSH2 0x33E1 JUMP JUMPDEST POP SWAP4 SWAP3 POP POP POP JUMP JUMPDEST PUSH0 DUP3 PUSH1 0x1F DUP4 ADD SLT PUSH2 0x3444 JUMPI PUSH2 0x3443 PUSH2 0x3331 JUMP JUMPDEST JUMPDEST DUP2 CALLDATALOAD PUSH2 0x3454 DUP5 DUP3 PUSH1 0x20 DUP7 ADD PUSH2 0x33EF JUMP JUMPDEST SWAP2 POP POP SWAP3 SWAP2 POP POP JUMP JUMPDEST PUSH0 PUSH0 PUSH0 PUSH1 0x60 DUP5 DUP7 SUB SLT ISZERO PUSH2 0x3474 JUMPI PUSH2 0x3473 PUSH2 0x2D5D JUMP JUMPDEST JUMPDEST PUSH0 PUSH2 0x3481 DUP7 DUP3 DUP8 ADD PUSH2 0x2DAB JUMP JUMPDEST SWAP4 POP POP PUSH1 0x20 DUP5 ADD CALLDATALOAD PUSH8 0xFFFFFFFFFFFFFFFF DUP2 GT ISZERO PUSH2 0x34A2 JUMPI PUSH2 0x34A1 PUSH2 0x2D61 JUMP JUMPDEST JUMPDEST PUSH2 0x34AE DUP7 DUP3 DUP8 ADD PUSH2 0x3430 JUMP JUMPDEST SWAP3 POP POP PUSH1 0x40 DUP5 ADD CALLDATALOAD PUSH8 0xFFFFFFFFFFFFFFFF DUP2 GT ISZERO PUSH2 0x34CF JUMPI PUSH2 0x34CE PUSH2 0x2D61 JUMP JUMPDEST JUMPDEST PUSH2 0x34DB DUP7 DUP3 DUP8 ADD PUSH2 0x3430 JUMP JUMPDEST SWAP2 POP POP SWAP3 POP SWAP3 POP SWAP3 JUMP JUMPDEST PUSH0 PUSH0 REVERT JUMPDEST PUSH0 PUSH0 REVERT JUMPDEST PUSH0 PUSH0 DUP4 PUSH1 0x1F DUP5 ADD SLT PUSH2 0x3502 JUMPI PUSH2 0x3501 PUSH2 0x3331 JUMP JUMPDEST JUMPDEST DUP3 CALLDATALOAD SWAP1 POP PUSH8 0xFFFFFFFFFFFFFFFF DUP2 GT ISZERO PUSH2 0x351F JUMPI PUSH2 0x351E PUSH2 0x34E5 JUMP JUMPDEST JUMPDEST PUSH1 0x20 DUP4 ADD SWAP2 POP DUP4 PUSH1 0x1 DUP3 MUL DUP4 ADD GT ISZERO PUSH2 0x353B JUMPI PUSH2 0x353A PUSH2 0x34E9 JUMP JUMPDEST JUMPDEST SWAP3 POP SWAP3 SWAP1 POP JUMP JUMPDEST PUSH0 PUSH0 PUSH0 PUSH0 PUSH0 PUSH1 0x60 DUP7 DUP9 SUB SLT ISZERO PUSH2 0x355B JUMPI PUSH2 0x355A PUSH2 0x2D5D JUMP JUMPDEST JUMPDEST PUSH0 PUSH2 0x3568 DUP9 DUP3 DUP10 ADD PUSH2 0x2DAB JUMP JUMPDEST SWAP6 POP POP PUSH1 0x20 DUP7 ADD CALLDATALOAD PUSH8 0xFFFFFFFFFFFFFFFF DUP2 GT ISZERO PUSH2 0x3589 JUMPI PUSH2 0x3588 PUSH2 0x2D61 JUMP JUMPDEST JUMPDEST PUSH2 0x3595 DUP9 DUP3 DUP10 ADD PUSH2 0x34ED JUMP JUMPDEST SWAP5 POP SWAP5 POP POP PUSH1 0x40 DUP7 ADD CALLDATALOAD PUSH8 0xFFFFFFFFFFFFFFFF DUP2 GT ISZERO PUSH2 0x35B8 JUMPI PUSH2 0x35B7 PUSH2 0x2D61 JUMP JUMPDEST JUMPDEST PUSH2 0x35C4 DUP9 DUP3 DUP10 ADD PUSH2 0x34ED JUMP JUMPDEST SWAP3 POP SWAP3 POP POP SWAP3 SWAP6 POP SWAP3 SWAP6 SWAP1 SWAP4 POP JUMP JUMPDEST PUSH0 DUP3 DUP3 MSTORE PUSH1 0x20 DUP3 ADD SWAP1 POP SWAP3 SWAP2 POP POP JUMP JUMPDEST PUSH32 0x496E76616C696420726563656976657220616464726573730000000000000000 PUSH0 DUP3 ADD MSTORE POP JUMP JUMPDEST PUSH0 PUSH2 0x3617 PUSH1 0x18 DUP4 PUSH2 0x35D3 JUMP JUMPDEST SWAP2 POP PUSH2 0x3622 DUP3 PUSH2 0x35E3 JUMP JUMPDEST PUSH1 0x20 DUP3 ADD SWAP1 POP SWAP2 SWAP1 POP JUMP JUMPDEST PUSH0 PUSH1 0x20 DUP3 ADD SWAP1 POP DUP2 DUP2 SUB PUSH0 DUP4 ADD MSTORE PUSH2 0x3644 DUP2 PUSH2 0x360B JUMP JUMPDEST SWAP1 POP SWAP2 SWAP1 POP JUMP JUMPDEST PUSH32 0x526563656976657220616C726561647920657869737473000000000000000000 PUSH0 DUP3 ADD MSTORE POP JUMP JUMPDEST PUSH0 PUSH2 0x367F PUSH1 0x17 DUP4 PUSH2 0x35D3 JUMP JUMPDEST SWAP2 POP PUSH2 0x368A DUP3 PUSH2 0x364B JUMP JUMPDEST PUSH1 0x20 DUP3 ADD SWAP1 POP SWAP2 SWAP1 POP JUMP JUMPDEST PUSH0 PUSH1 0x20 DUP3 ADD SWAP1 POP DUP2 DUP2 SUB PUSH0 DUP4 ADD MSTORE PUSH2 0x36AC DUP2 PUSH2 0x3673 JUMP JUMPDEST SWAP1 POP SWAP2 SWAP1 POP JUMP JUMPDEST PUSH32 0x5265636569766572206973206E6F742065786973747300000000000000000000 PUSH0 DUP3 ADD MSTORE POP JUMP JUMPDEST PUSH0 PUSH2 0x36E7 PUSH1 0x16 DUP4 PUSH2 0x35D3 JUMP JUMPDEST SWAP2 POP PUSH2 0x36F2 DUP3 PUSH2 0x36B3 JUMP JUMPDEST PUSH1 0x20 DUP3 ADD SWAP1 POP SWAP2 SWAP1 POP JUMP JUMPDEST PUSH0 PUSH1 0x20 DUP3 ADD SWAP1 POP DUP2 DUP2 SUB PUSH0 DUP4 ADD MSTORE PUSH2 0x3714 DUP2 PUSH2 0x36DB JUMP JUMPDEST SWAP1 POP SWAP2 SWAP1 POP JUMP JUMPDEST PUSH32 0x4E487B7100000000000000000000000000000000000000000000000000000000 PUSH0 MSTORE PUSH1 0x32 PUSH1 0x4 MSTORE PUSH1 0x24 PUSH0 REVERT JUMPDEST PUSH32 0x4E487B7100000000000000000000000000000000000000000000000000000000 PUSH0 MSTORE PUSH1 0x22 PUSH1 0x4 MSTORE PUSH1 0x24 PUSH0 REVERT JUMPDEST PUSH0 PUSH1 0x2 DUP3 DIV SWAP1 POP PUSH1 0x1 DUP3 AND DUP1 PUSH2 0x378C JUMPI PUSH1 0x7F DUP3 AND SWAP2 POP JUMPDEST PUSH1 0x20 DUP3 LT DUP2 SUB PUSH2 0x379F JUMPI PUSH2 0x379E PUSH2 0x3748 JUMP JUMPDEST JUMPDEST POP SWAP2 SWAP1 POP JUMP JUMPDEST PUSH32 0x4E487B7100000000000000000000000000000000000000000000000000000000 PUSH0 MSTORE PUSH1 0x11 PUSH1 0x4 MSTORE PUSH1 0x24 PUSH0 REVERT JUMPDEST PUSH0 PUSH2 0x37DC DUP3 PUSH2 0x2EAC JUMP JUMPDEST SWAP2 POP PUSH2 0x37E7 DUP4 PUSH2 0x2EAC JUMP JUMPDEST SWAP3 POP DUP3 DUP3 ADD SWAP1 POP DUP1 DUP3 GT ISZERO PUSH2 0x37FF JUMPI PUSH2 0x37FE PUSH2 0x37A5 JUMP JUMPDEST JUMPDEST SWAP3 SWAP2 POP POP JUMP JUMPDEST PUSH0 PUSH2 0x380F DUP3 PUSH2 0x2EAC JUMP JUMPDEST SWAP2 POP PUSH2 0x381A DUP4 PUSH2 0x2EAC JUMP JUMPDEST SWAP3 POP DUP3 DUP3 SUB SWAP1 POP DUP2 DUP2 GT ISZERO PUSH2 0x3832 JUMPI PUSH2 0x3831 PUSH2 0x37A5 JUMP JUMPDEST JUMPDEST SWAP3 SWAP2 POP POP JUMP JUMPDEST PUSH32 0x496E76616C696420746F6B656E20616464726573730000000000000000000000 PUSH0 DUP3 ADD MSTORE POP JUMP JUMPDEST PUSH0 PUSH2 0x386C PUSH1 0x15 DUP4 PUSH2 0x35D3 JUMP JUMPDEST SWAP2 POP PUSH2 0x3877 DUP3 PUSH2 0x3838 JUMP JUMPDEST PUSH1 0x20 DUP3 ADD SWAP1 POP SWAP2 SWAP1 POP JUMP JUMPDEST PUSH0 PUSH1 0x20 DUP3 ADD SWAP1 POP DUP2 DUP2 SUB PUSH0 DUP4 ADD MSTORE PUSH2 0x3899 DUP2 PUSH2 0x3860 JUMP JUMPDEST SWAP1 POP SWAP2 SWAP1 POP JUMP JUMPDEST PUSH32 0x546F6B656E20616C726561647920657869737473000000000000000000000000 PUSH0 DUP3 ADD MSTORE POP JUMP JUMPDEST PUSH0 PUSH2 0x38D4 PUSH1 0x14 DUP4 PUSH2 0x35D3 JUMP JUMPDEST SWAP2 POP PUSH2 0x38DF DUP3 PUSH2 0x38A0 JUMP JUMPDEST PUSH1 0x20 DUP3 ADD SWAP1 POP SWAP2 SWAP1 POP JUMP JUMPDEST PUSH0 PUSH1 0x20 DUP3 ADD SWAP1 POP DUP2 DUP2 SUB PUSH0 DUP4 ADD MSTORE PUSH2 0x3901 DUP2 PUSH2 0x38C8 JUMP JUMPDEST SWAP1 POP SWAP2 SWAP1 POP JUMP JUMPDEST PUSH32 0x546F6B656E206973206E6F742065786973747300000000000000000000000000 PUSH0 DUP3 ADD MSTORE POP JUMP JUMPDEST PUSH0 PUSH2 0x393C PUSH1 0x13 DUP4 PUSH2 0x35D3 JUMP JUMPDEST SWAP2 POP PUSH2 0x3947 DUP3 PUSH2 0x3908 JUMP JUMPDEST PUSH1 0x20 DUP3 ADD SWAP1 POP SWAP2 SWAP1 POP JUMP JUMPDEST PUSH0 PUSH1 0x20 DUP3 ADD SWAP1 POP DUP2 DUP2 SUB PUSH0 DUP4 ADD MSTORE PUSH2 0x3969 DUP2 PUSH2 0x3930 JUMP JUMPDEST SWAP1 POP SWAP2 SWAP1 POP JUMP JUMPDEST PUSH32 0x4E487B7100000000000000000000000000000000000000000000000000000000 PUSH0 MSTORE PUSH1 0x31 PUSH1 0x4 MSTORE PUSH1 0x24 PUSH0 REVERT JUMPDEST PUSH32 0x4D697373696E67207265636569766572206E616D65206F722064657363726970 PUSH0 DUP3 ADD MSTORE PUSH32 0x74696F6E00000000000000000000000000000000000000000000000000000000 PUSH1 0x20 DUP3 ADD MSTORE POP JUMP JUMPDEST PUSH0 PUSH2 0x39F7 PUSH1 0x24 DUP4 PUSH2 0x35D3 JUMP JUMPDEST SWAP2 POP PUSH2 0x3A02 DUP3 PUSH2 0x399D JUMP JUMPDEST PUSH1 0x40 DUP3 ADD SWAP1 POP SWAP2 SWAP1 POP JUMP JUMPDEST PUSH0 PUSH1 0x20 DUP3 ADD SWAP1 POP DUP2 DUP2 SUB PUSH0 DUP4 ADD MSTORE PUSH2 0x3A24 DUP2 PUSH2 0x39EB JUMP JUMPDEST SWAP1 POP SWAP2 SWAP1 POP JUMP JUMPDEST PUSH0 DUP2 SWAP1 POP DUP2 PUSH0 MSTORE PUSH1 0x20 PUSH0 KECCAK256 SWAP1 POP SWAP2 SWAP1 POP JUMP JUMPDEST PUSH0 PUSH1 0x20 PUSH1 0x1F DUP4 ADD DIV SWAP1 POP SWAP2 SWAP1 POP JUMP JUMPDEST PUSH0 DUP3 DUP3 SHL SWAP1 POP SWAP3 SWAP2 POP POP JUMP JUMPDEST PUSH0 PUSH1 0x8 DUP4 MUL PUSH2 0x3A87 PUSH32 0xFFFFFFFFFFFFFFFFFFFFFFFFFFFFFFFFFFFFFFFFFFFFFFFFFFFFFFFFFFFFFFFF DUP3 PUSH2 0x3A4C JUMP JUMPDEST PUSH2 0x3A91 DUP7 DUP4 PUSH2 0x3A4C JUMP JUMPDEST SWAP6 POP DUP1 NOT DUP5 AND SWAP4 POP DUP1 DUP7 AND DUP5 OR SWAP3 POP POP POP SWAP4 SWAP3 POP POP POP JUMP JUMPDEST PUSH0 DUP2 SWAP1 POP SWAP2 SWAP1 POP JUMP JUMPDEST PUSH0 PUSH2 0x3ACC PUSH2 0x3AC7 PUSH2 0x3AC2 DUP5 PUSH2 0x2EAC JUMP JUMPDEST PUSH2 0x3AA9 JUMP JUMPDEST PUSH2 0x2EAC JUMP JUMPDEST SWAP1 POP SWAP2 SWAP1 POP JUMP JUMPDEST PUSH0 DUP2 SWAP1 POP SWAP2 SWAP1 POP JUMP JUMPDEST PUSH2 0x3AE5 DUP4 PUSH2 0x3AB2 JUMP JUMPDEST PUSH2 0x3AF9 PUSH2 0x3AF1 DUP3 PUSH2 0x3AD3 JUMP JUMPDEST DUP5 DUP5 SLOAD PUSH2 0x3A58 JUMP JUMPDEST DUP3 SSTORE POP POP POP POP JUMP JUMPDEST PUSH0 PUSH0 SWAP1 POP SWAP1 JUMP JUMPDEST PUSH2 0x3B10 PUSH2 0x3B01 JUMP JUMPDEST PUSH2 0x3B1B DUP2 DUP5 DUP5 PUSH2 0x3ADC JUMP JUMPDEST POP POP POP JUMP JUMPDEST JUMPDEST DUP2 DUP2 LT ISZERO PUSH2 0x3B3E JUMPI PUSH2 0x3B33 PUSH0 DUP3 PUSH2 0x3B08 JUMP JUMPDEST PUSH1 0x1 DUP2 ADD SWAP1 POP PUSH2 0x3B21 JUMP JUMPDEST POP POP JUMP JUMPDEST PUSH1 0x1F DUP3 GT ISZERO PUSH2 0x3B83 JUMPI PUSH2 0x3B54 DUP2 PUSH2 0x3A2B JUMP JUMPDEST PUSH2 0x3B5D DUP5 PUSH2 0x3A3D JUMP JUMPDEST DUP2 ADD PUSH1 0x20 DUP6 LT ISZERO PUSH2 0x3B6C JUMPI DUP2 SWAP1 POP JUMPDEST PUSH2 0x3B80 PUSH2 0x3B78 DUP6 PUSH2 0x3A3D JUMP JUMPDEST DUP4 ADD DUP3 PUSH2 0x3B20 JUMP JUMPDEST POP POP JUMPDEST POP POP POP JUMP JUMPDEST PUSH0 DUP3 DUP3 SHR SWAP1 POP SWAP3 SWAP2 POP POP JUMP JUMPDEST PUSH0 PUSH2 0x3BA3 PUSH0 NOT DUP5 PUSH1 0x8 MUL PUSH2 0x3B88 JUMP JUMPDEST NOT DUP1 DUP4 AND SWAP2 POP POP SWAP3 SWAP2 POP POP JUMP JUMPDEST PUSH0 PUSH2 0x3BBB DUP4 DUP4 PUSH2 0x3B94 JUMP JUMPDEST SWAP2 POP DUP3 PUSH1 0x2 MUL DUP3 OR SWAP1 POP SWAP3 SWAP2 POP POP JUMP JUMPDEST PUSH2 0x3BD4 DUP3 PUSH2 0x2E22 JUMP JUMPDEST PUSH8 0xFFFFFFFFFFFFFFFF DUP2 GT ISZERO PUSH2 0x3BED JUMPI PUSH2 0x3BEC PUSH2 0x3339 JUMP JUMPDEST JUMPDEST PUSH2 0x3BF7 DUP3 SLOAD PUSH2 0x3775 JUMP JUMPDEST PUSH2 0x3C02 DUP3 DUP3 DUP6 PUSH2 0x3B42 JUMP JUMPDEST PUSH0 PUSH1 0x20 SWAP1 POP PUSH1 0x1F DUP4 GT PUSH1 0x1 DUP2 EQ PUSH2 0x3C33 JUMPI PUSH0 DUP5 ISZERO PUSH2 0x3C21 JUMPI DUP3 DUP8 ADD MLOAD SWAP1 POP JUMPDEST PUSH2 0x3C2B DUP6 DUP3 PUSH2 0x3BB0 JUMP JUMPDEST DUP7 SSTORE POP PUSH2 0x3C92 JUMP JUMPDEST PUSH1 0x1F NOT DUP5 AND PUSH2 0x3C41 DUP7 PUSH2 0x3A2B JUMP JUMPDEST PUSH0 JUMPDEST DUP3 DUP2 LT ISZERO PUSH2 0x3C68 JUMPI DUP5 DUP10 ADD MLOAD DUP3 SSTORE PUSH1 0x1 DUP3 ADD SWAP2 POP PUSH1 0x20 DUP6 ADD SWAP5 POP PUSH1 0x20 DUP2 ADD SWAP1 POP PUSH2 0x3C43 JUMP JUMPDEST DUP7 DUP4 LT ISZERO PUSH2 0x3C85 JUMPI DUP5 DUP10 ADD MLOAD PUSH2 0x3C81 PUSH1 0x1F DUP10 AND DUP3 PUSH2 0x3B94 JUMP JUMPDEST DUP4 SSTORE POP JUMPDEST PUSH1 0x1 PUSH1 0x2 DUP9 MUL ADD DUP9 SSTORE POP POP POP JUMPDEST POP POP POP POP POP POP JUMP JUMPDEST PUSH0 PUSH0 REVERT JUMPDEST PUSH0 PUSH0 REVERT JUMPDEST PUSH0 PUSH0 DUP6 DUP6 GT ISZERO PUSH2 0x3CB5 JUMPI PUSH2 0x3CB4 PUSH2 0x3C9A JUMP JUMPDEST JUMPDEST DUP4 DUP7 GT ISZERO PUSH2 0x3CC6 JUMPI PUSH2 0x3CC5 PUSH2 0x3C9E JUMP JUMPDEST JUMPDEST PUSH1 0x1 DUP6 MUL DUP4 ADD SWAP2 POP DUP5 DUP7 SUB SWAP1 POP SWAP5 POP SWAP5 SWAP3 POP POP POP JUMP JUMPDEST PUSH0 DUP3 SWAP1 POP SWAP3 SWAP2 POP POP JUMP JUMPDEST PUSH0 PUSH32 0xFFFFFFFFFFFFFFFFFFFFFFFFFFFFFFFFFFFFFFFF000000000000000000000000 DUP3 AND SWAP1 POP SWAP2 SWAP1 POP JUMP JUMPDEST PUSH0 PUSH2 0x3D1C DUP4 DUP4 PUSH2 0x3CDC JUMP JUMPDEST DUP3 PUSH2 0x3D27 DUP2 CALLDATALOAD PUSH2 0x3CE6 JUMP JUMPDEST SWAP3 POP PUSH1 0x14 DUP3 LT ISZERO PUSH2 0x3D67 JUMPI PUSH2 0x3D62 PUSH32 0xFFFFFFFFFFFFFFFFFFFFFFFFFFFFFFFFFFFFFFFF000000000000000000000000 DUP4 PUSH1 0x14 SUB PUSH1 0x8 MUL PUSH2 0x3A4C JUMP JUMPDEST DUP4 AND SWAP3 POP JUMPDEST POP POP SWAP3 SWAP2 POP POP JUMP INVALID LOG2 PUSH5 0x6970667358 0x22 SLT KECCAK256 DUP15 0xDA 0x4E BLOCKHASH SWAP6 DUP12 0x23 0xB7 0xDD 0xB8 0xCB DUP15 CALLVALUE SWAP5 PUSH8 0xF92C12549BB32B28 CALLDATASIZE 0xA6 DATALOADN 0xC05F 0xD7 INVALID SMOD CREATE2 PUSH5 0x736F6C6343 STOP ADDMOD 0x1E STOP CALLER "
				},
				"gasEstimates": {
					"creation": {
						"codeDepositCost": "3156200",
						"executionCost": "infinite",
						"totalCost": "infinite"
					},
					"external": {
						"addReceiver(address,string,string)": "infinite",
						"addToken(address,string,string)": "infinite",
						"getAllReceivers()": "infinite",
						"getAllReceiversPaginated(uint256,uint256)": "infinite",
						"getAllTokens()": "infinite",
						"getAllTokensPaginated(uint256,uint256)": "infinite",
						"getReceiverByAddress(address)": "infinite",
						"getTokenByAddress(address)": "infinite",
						"isTrustedForwarder(address)": "infinite",
						"owner()": "2559",
						"removeReceiver(address)": "infinite",
						"removeToken(address)": "infinite",
						"renounceOwnership()": "infinite",
						"transferOwnership(address)": "infinite",
						"trustedForwarder()": "infinite",
						"updateReceiverActivity(address)": "infinite",
						"updateTokenActivity(address)": "infinite"
					},
					"internal": {
						"_contextSuffixLength()": "56",
						"_msgData()": "infinite",
						"_msgSender()": "infinite"
					}
				},
				"methodIdentifiers": {
					"addReceiver(address,string,string)": "e7ee324f",
					"addToken(address,string,string)": "e73c2019",
					"getAllReceivers()": "c1cc7010",
					"getAllReceiversPaginated(uint256,uint256)": "4ec7a998",
					"getAllTokens()": "2a5c792a",
					"getAllTokensPaginated(uint256,uint256)": "488af8b7",
					"getReceiverByAddress(address)": "b7a8f2e4",
					"getTokenByAddress(address)": "91ded8fa",
					"isTrustedForwarder(address)": "572b6c05",
					"owner()": "8da5cb5b",
					"removeReceiver(address)": "6552d8b4",
					"removeToken(address)": "5fa7b584",
					"renounceOwnership()": "715018a6",
					"transferOwnership(address)": "f2fde38b",
					"trustedForwarder()": "7da0a877",
					"updateReceiverActivity(address)": "1bee1cbc",
					"updateTokenActivity(address)": "ec7caddc"
				}
			},
			"storageLayout": {
				"storage": [
					{
						"astId": 8,
						"contract": "DonationPlatform.sol:DonationPlatform",
						"label": "_owner",
						"offset": 0,
						"slot": "0",
						"type": "t_address"
					},
					{
						"astId": 1499,
						"contract": "DonationPlatform.sol:DonationPlatform",
						"label": "receivers",
						"offset": 0,
						"slot": "1",
						"type": "t_mapping(t_address,t_struct(Receiver)1494_storage)"
					},
					{
						"astId": 1502,
						"contract": "DonationPlatform.sol:DonationPlatform",
						"label": "receiverAddresses",
						"offset": 0,
						"slot": "2",
						"type": "t_array(t_address)dyn_storage"
					},
					{
						"astId": 1049,
						"contract": "DonationPlatform.sol:DonationPlatform",
						"label": "allowedTokens",
						"offset": 0,
						"slot": "3",
						"type": "t_mapping(t_address,t_struct(AllowedToken)1044_storage)"
					},
					{
						"astId": 1052,
						"contract": "DonationPlatform.sol:DonationPlatform",
						"label": "allowedTokenAdresses",
						"offset": 0,
						"slot": "4",
						"type": "t_array(t_address)dyn_storage"
					}
				],
				"types": {
					"t_address": {
						"encoding": "inplace",
						"label": "address",
						"numberOfBytes": "20"
					},
					"t_array(t_address)dyn_storage": {
						"base": "t_address",
						"encoding": "dynamic_array",
						"label": "address[]",
						"numberOfBytes": "32"
					},
					"t_bool": {
						"encoding": "inplace",
						"label": "bool",
						"numberOfBytes": "1"
					},
					"t_mapping(t_address,t_struct(AllowedToken)1044_storage)": {
						"encoding": "mapping",
						"key": "t_address",
						"label": "mapping(address => struct AllowedTokenManager.AllowedToken)",
						"numberOfBytes": "32",
						"value": "t_struct(AllowedToken)1044_storage"
					},
					"t_mapping(t_address,t_struct(Receiver)1494_storage)": {
						"encoding": "mapping",
						"key": "t_address",
						"label": "mapping(address => struct ReceiverManager.Receiver)",
						"numberOfBytes": "32",
						"value": "t_struct(Receiver)1494_storage"
					},
					"t_string_storage": {
						"encoding": "bytes",
						"label": "string",
						"numberOfBytes": "32"
					},
					"t_struct(AllowedToken)1044_storage": {
						"encoding": "inplace",
						"label": "struct AllowedTokenManager.AllowedToken",
						"members": [
							{
								"astId": 1035,
								"contract": "DonationPlatform.sol:DonationPlatform",
								"label": "_address",
								"offset": 0,
								"slot": "0",
								"type": "t_address"
							},
							{
								"astId": 1037,
								"contract": "DonationPlatform.sol:DonationPlatform",
								"label": "_name",
								"offset": 0,
								"slot": "1",
								"type": "t_string_storage"
							},
							{
								"astId": 1039,
								"contract": "DonationPlatform.sol:DonationPlatform",
								"label": "_symbol",
								"offset": 0,
								"slot": "2",
								"type": "t_string_storage"
							},
							{
								"astId": 1041,
								"contract": "DonationPlatform.sol:DonationPlatform",
								"label": "_isActive",
								"offset": 0,
								"slot": "3",
								"type": "t_bool"
							},
							{
								"astId": 1043,
								"contract": "DonationPlatform.sol:DonationPlatform",
								"label": "_totalDonationAmount",
								"offset": 0,
								"slot": "4",
								"type": "t_uint256"
							}
						],
						"numberOfBytes": "160"
					},
					"t_struct(Receiver)1494_storage": {
						"encoding": "inplace",
						"label": "struct ReceiverManager.Receiver",
						"members": [
							{
								"astId": 1485,
								"contract": "DonationPlatform.sol:DonationPlatform",
								"label": "_address",
								"offset": 0,
								"slot": "0",
								"type": "t_address"
							},
							{
								"astId": 1487,
								"contract": "DonationPlatform.sol:DonationPlatform",
								"label": "_name",
								"offset": 0,
								"slot": "1",
								"type": "t_string_storage"
							},
							{
								"astId": 1489,
								"contract": "DonationPlatform.sol:DonationPlatform",
								"label": "_description",
								"offset": 0,
								"slot": "2",
								"type": "t_string_storage"
							},
							{
								"astId": 1491,
								"contract": "DonationPlatform.sol:DonationPlatform",
								"label": "_isActive",
								"offset": 0,
								"slot": "3",
								"type": "t_bool"
							},
							{
								"astId": 1493,
								"contract": "DonationPlatform.sol:DonationPlatform",
								"label": "_totalDonationAmount",
								"offset": 0,
								"slot": "4",
								"type": "t_uint256"
							}
						],
						"numberOfBytes": "160"
					},
					"t_uint256": {
						"encoding": "inplace",
						"label": "uint256",
						"numberOfBytes": "32"
					}
				}
			},
			"userdoc": {
				"kind": "user",
				"methods": {},
				"version": 1
			}
		}
	}
}